{
  "address": "0x5FeaeBfB4439F3516c74939A9D04e95AFE82C4ae",
  "abi": [
    {
      "inputs": [],
      "payable": false,
      "stateMutability": "nonpayable",
      "type": "constructor"
    },
    {
      "anonymous": false,
      "inputs": [
        {
          "indexed": false,
          "internalType": "string",
          "name": "action",
          "type": "string"
        },
        {
          "indexed": false,
          "internalType": "bool",
          "name": "pauseState",
          "type": "bool"
        }
      ],
      "name": "ActionPaused",
      "type": "event"
    },
    {
      "anonymous": false,
      "inputs": [
        {
          "indexed": false,
          "internalType": "contract CToken",
          "name": "cToken",
          "type": "address"
        },
        {
          "indexed": false,
          "internalType": "string",
          "name": "action",
          "type": "string"
        },
        {
          "indexed": false,
          "internalType": "bool",
          "name": "pauseState",
          "type": "bool"
        }
      ],
      "name": "ActionPaused",
      "type": "event"
    },
    {
      "anonymous": false,
      "inputs": [
        {
          "indexed": false,
          "internalType": "address",
          "name": "recipient",
          "type": "address"
        },
        {
          "indexed": false,
          "internalType": "uint256",
          "name": "amount",
          "type": "uint256"
        }
      ],
      "name": "CompGranted",
      "type": "event"
    },
    {
      "anonymous": false,
      "inputs": [
        {
          "indexed": true,
          "internalType": "contract CToken",
          "name": "cToken",
          "type": "address"
        },
        {
          "indexed": false,
          "internalType": "uint256",
          "name": "newSpeed",
          "type": "uint256"
        }
      ],
      "name": "CompSpeedUpdated",
      "type": "event"
    },
    {
      "anonymous": false,
      "inputs": [
        {
          "indexed": true,
          "internalType": "address",
          "name": "contributor",
          "type": "address"
        },
        {
          "indexed": false,
          "internalType": "uint256",
          "name": "newSpeed",
          "type": "uint256"
        }
      ],
      "name": "ContributorCompSpeedUpdated",
      "type": "event"
    },
    {
      "anonymous": false,
      "inputs": [
        {
          "indexed": true,
          "internalType": "contract CToken",
          "name": "cToken",
          "type": "address"
        },
        {
          "indexed": true,
          "internalType": "address",
          "name": "borrower",
          "type": "address"
        },
        {
          "indexed": false,
          "internalType": "uint256",
          "name": "compDelta",
          "type": "uint256"
        },
        {
          "indexed": false,
          "internalType": "uint256",
          "name": "compBorrowIndex",
          "type": "uint256"
        }
      ],
      "name": "DistributedBorrowerComp",
      "type": "event"
    },
    {
      "anonymous": false,
      "inputs": [
        {
          "indexed": true,
          "internalType": "contract CToken",
          "name": "cToken",
          "type": "address"
        },
        {
          "indexed": true,
          "internalType": "address",
          "name": "supplier",
          "type": "address"
        },
        {
          "indexed": false,
          "internalType": "uint256",
          "name": "compDelta",
          "type": "uint256"
        },
        {
          "indexed": false,
          "internalType": "uint256",
          "name": "compSupplyIndex",
          "type": "uint256"
        }
      ],
      "name": "DistributedSupplierComp",
      "type": "event"
    },
    {
      "anonymous": false,
      "inputs": [
        {
          "indexed": false,
          "internalType": "uint256",
          "name": "error",
          "type": "uint256"
        },
        {
          "indexed": false,
          "internalType": "uint256",
          "name": "info",
          "type": "uint256"
        },
        {
          "indexed": false,
          "internalType": "uint256",
          "name": "detail",
          "type": "uint256"
        }
      ],
      "name": "Failure",
      "type": "event"
    },
    {
      "anonymous": false,
      "inputs": [
        {
          "indexed": false,
          "internalType": "contract CToken",
          "name": "cToken",
          "type": "address"
        },
        {
          "indexed": false,
          "internalType": "address",
          "name": "account",
          "type": "address"
        }
      ],
      "name": "MarketEntered",
      "type": "event"
    },
    {
      "anonymous": false,
      "inputs": [
        {
          "indexed": false,
          "internalType": "contract CToken",
          "name": "cToken",
          "type": "address"
        },
        {
          "indexed": false,
          "internalType": "address",
          "name": "account",
          "type": "address"
        }
      ],
      "name": "MarketExited",
      "type": "event"
    },
    {
      "anonymous": false,
      "inputs": [
        {
          "indexed": false,
          "internalType": "contract CToken",
          "name": "cToken",
          "type": "address"
        }
      ],
      "name": "MarketListed",
      "type": "event"
    },
    {
      "anonymous": false,
      "inputs": [
        {
          "indexed": true,
          "internalType": "contract CToken",
          "name": "cToken",
          "type": "address"
        },
        {
          "indexed": false,
          "internalType": "uint256",
          "name": "newBorrowCap",
          "type": "uint256"
        }
      ],
      "name": "NewBorrowCap",
      "type": "event"
    },
    {
      "anonymous": false,
      "inputs": [
        {
          "indexed": false,
          "internalType": "address",
          "name": "oldBorrowCapGuardian",
          "type": "address"
        },
        {
          "indexed": false,
          "internalType": "address",
          "name": "newBorrowCapGuardian",
          "type": "address"
        }
      ],
      "name": "NewBorrowCapGuardian",
      "type": "event"
    },
    {
      "anonymous": false,
      "inputs": [
        {
          "indexed": false,
          "internalType": "uint256",
          "name": "oldCloseFactorMantissa",
          "type": "uint256"
        },
        {
          "indexed": false,
          "internalType": "uint256",
          "name": "newCloseFactorMantissa",
          "type": "uint256"
        }
      ],
      "name": "NewCloseFactor",
      "type": "event"
    },
    {
      "anonymous": false,
      "inputs": [
        {
          "indexed": false,
          "internalType": "contract CToken",
          "name": "cToken",
          "type": "address"
        },
        {
          "indexed": false,
          "internalType": "uint256",
          "name": "oldCollateralFactorMantissa",
          "type": "uint256"
        },
        {
          "indexed": false,
          "internalType": "uint256",
          "name": "newCollateralFactorMantissa",
          "type": "uint256"
        }
      ],
      "name": "NewCollateralFactor",
      "type": "event"
    },
    {
      "anonymous": false,
      "inputs": [
        {
          "indexed": false,
          "internalType": "uint256",
          "name": "oldLiquidationIncentiveMantissa",
          "type": "uint256"
        },
        {
          "indexed": false,
          "internalType": "uint256",
          "name": "newLiquidationIncentiveMantissa",
          "type": "uint256"
        }
      ],
      "name": "NewLiquidationIncentive",
      "type": "event"
    },
    {
      "anonymous": false,
      "inputs": [
        {
          "indexed": false,
          "internalType": "uint256",
          "name": "oldCollateralFactorMantissa",
          "type": "uint256"
        },
        {
          "indexed": false,
          "internalType": "uint256",
          "name": "newCollateralFactorMantissa",
          "type": "uint256"
        }
      ],
      "name": "NewNftCollateralFactor",
      "type": "event"
    },
    {
      "anonymous": false,
      "inputs": [
        {
          "indexed": false,
          "internalType": "address",
          "name": "oldPauseGuardian",
          "type": "address"
        },
        {
          "indexed": false,
          "internalType": "address",
          "name": "newPauseGuardian",
          "type": "address"
        }
      ],
      "name": "NewPauseGuardian",
      "type": "event"
    },
    {
      "anonymous": false,
      "inputs": [
        {
          "indexed": false,
          "internalType": "contract PriceOracle",
          "name": "oldPriceOracle",
          "type": "address"
        },
        {
          "indexed": false,
          "internalType": "contract PriceOracle",
          "name": "newPriceOracle",
          "type": "address"
        }
      ],
      "name": "NewPriceOracle",
      "type": "event"
    },
    {
      "constant": false,
      "inputs": [
        {
          "internalType": "contract Unitroller",
          "name": "unitroller",
          "type": "address"
        }
      ],
      "name": "_become",
      "outputs": [],
      "payable": false,
      "stateMutability": "nonpayable",
      "type": "function"
    },
    {
      "constant": true,
      "inputs": [],
      "name": "_borrowGuardianPaused",
      "outputs": [
        {
          "internalType": "bool",
          "name": "",
          "type": "bool"
        }
      ],
      "payable": false,
      "stateMutability": "view",
      "type": "function"
    },
    {
      "constant": false,
      "inputs": [
        {
          "internalType": "address",
          "name": "recipient",
          "type": "address"
        },
        {
          "internalType": "uint256",
          "name": "amount",
          "type": "uint256"
        }
      ],
      "name": "_grantComp",
      "outputs": [],
      "payable": false,
      "stateMutability": "nonpayable",
      "type": "function"
    },
    {
      "constant": false,
      "inputs": [
        {
          "internalType": "contract CNftInterface",
          "name": "cNft",
          "type": "address"
        },
        {
          "internalType": "contract NftPriceOracle",
          "name": "_nftOracle",
          "type": "address"
        },
        {
          "internalType": "uint256",
          "name": "_collateralFactorMantissa",
          "type": "uint256"
        }
      ],
      "name": "_initializeNftCollateral",
      "outputs": [
        {
          "internalType": "uint256",
          "name": "",
          "type": "uint256"
        }
      ],
      "payable": false,
      "stateMutability": "nonpayable",
      "type": "function"
    },
    {
      "constant": true,
      "inputs": [],
      "name": "_mintGuardianPaused",
      "outputs": [
        {
          "internalType": "bool",
          "name": "",
          "type": "bool"
        }
      ],
      "payable": false,
      "stateMutability": "view",
      "type": "function"
    },
    {
      "constant": false,
      "inputs": [
        {
          "internalType": "address",
          "name": "newBorrowCapGuardian",
          "type": "address"
        }
      ],
      "name": "_setBorrowCapGuardian",
      "outputs": [],
      "payable": false,
      "stateMutability": "nonpayable",
      "type": "function"
    },
    {
      "constant": false,
      "inputs": [
        {
          "internalType": "contract CToken",
          "name": "cToken",
          "type": "address"
        },
        {
          "internalType": "bool",
          "name": "state",
          "type": "bool"
        }
      ],
      "name": "_setBorrowPaused",
      "outputs": [
        {
          "internalType": "bool",
          "name": "",
          "type": "bool"
        }
      ],
      "payable": false,
      "stateMutability": "nonpayable",
      "type": "function"
    },
    {
      "constant": false,
      "inputs": [
        {
          "internalType": "uint256",
          "name": "newCloseFactorMantissa",
          "type": "uint256"
        }
      ],
      "name": "_setCloseFactor",
      "outputs": [
        {
          "internalType": "uint256",
          "name": "",
          "type": "uint256"
        }
      ],
      "payable": false,
      "stateMutability": "nonpayable",
      "type": "function"
    },
    {
      "constant": false,
      "inputs": [
        {
          "internalType": "contract CToken",
          "name": "cToken",
          "type": "address"
        },
        {
          "internalType": "uint256",
          "name": "newCollateralFactorMantissa",
          "type": "uint256"
        }
      ],
      "name": "_setCollateralFactor",
      "outputs": [
        {
          "internalType": "uint256",
          "name": "",
          "type": "uint256"
        }
      ],
      "payable": false,
      "stateMutability": "nonpayable",
      "type": "function"
    },
    {
      "constant": false,
      "inputs": [
        {
          "internalType": "contract CToken",
          "name": "cToken",
          "type": "address"
        },
        {
          "internalType": "uint256",
          "name": "compSpeed",
          "type": "uint256"
        }
      ],
      "name": "_setCompSpeed",
      "outputs": [],
      "payable": false,
      "stateMutability": "nonpayable",
      "type": "function"
    },
    {
      "constant": false,
      "inputs": [
        {
          "internalType": "address",
          "name": "contributor",
          "type": "address"
        },
        {
          "internalType": "uint256",
          "name": "compSpeed",
          "type": "uint256"
        }
      ],
      "name": "_setContributorCompSpeed",
      "outputs": [],
      "payable": false,
      "stateMutability": "nonpayable",
      "type": "function"
    },
    {
      "constant": false,
      "inputs": [
        {
          "internalType": "uint256",
          "name": "newLiquidationIncentiveMantissa",
          "type": "uint256"
        }
      ],
      "name": "_setLiquidationIncentive",
      "outputs": [
        {
          "internalType": "uint256",
          "name": "",
          "type": "uint256"
        }
      ],
      "payable": false,
      "stateMutability": "nonpayable",
      "type": "function"
    },
    {
      "constant": false,
      "inputs": [
        {
          "internalType": "contract CToken[]",
          "name": "cTokens",
          "type": "address[]"
        },
        {
          "internalType": "uint256[]",
          "name": "newBorrowCaps",
          "type": "uint256[]"
        }
      ],
      "name": "_setMarketBorrowCaps",
      "outputs": [],
      "payable": false,
      "stateMutability": "nonpayable",
      "type": "function"
    },
    {
      "constant": false,
      "inputs": [
        {
          "internalType": "address",
          "name": "cAsset",
          "type": "address"
        },
        {
          "internalType": "bool",
          "name": "state",
          "type": "bool"
        }
      ],
      "name": "_setMintPaused",
      "outputs": [
        {
          "internalType": "bool",
          "name": "",
          "type": "bool"
        }
      ],
      "payable": false,
      "stateMutability": "nonpayable",
      "type": "function"
    },
    {
      "constant": false,
      "inputs": [
        {
          "internalType": "uint256",
          "name": "newCollateralFactorMantissa",
          "type": "uint256"
        }
      ],
      "name": "_setNftCollateralFactor",
      "outputs": [
        {
          "internalType": "uint256",
          "name": "",
          "type": "uint256"
        }
      ],
      "payable": false,
      "stateMutability": "nonpayable",
      "type": "function"
    },
    {
      "constant": false,
      "inputs": [
        {
          "internalType": "contract NftPriceOracle",
          "name": "newOracle",
          "type": "address"
        }
      ],
      "name": "_setNftPriceOracle",
      "outputs": [
        {
          "internalType": "uint256",
          "name": "",
          "type": "uint256"
        }
      ],
      "payable": false,
      "stateMutability": "nonpayable",
      "type": "function"
    },
    {
      "constant": false,
      "inputs": [
        {
          "internalType": "address",
          "name": "newPauseGuardian",
          "type": "address"
        }
      ],
      "name": "_setPauseGuardian",
      "outputs": [
        {
          "internalType": "uint256",
          "name": "",
          "type": "uint256"
        }
      ],
      "payable": false,
      "stateMutability": "nonpayable",
      "type": "function"
    },
    {
      "constant": false,
      "inputs": [
        {
          "internalType": "contract PriceOracle",
          "name": "newOracle",
          "type": "address"
        }
      ],
      "name": "_setPriceOracle",
      "outputs": [
        {
          "internalType": "uint256",
          "name": "",
          "type": "uint256"
        }
      ],
      "payable": false,
      "stateMutability": "nonpayable",
      "type": "function"
    },
    {
      "constant": false,
      "inputs": [
        {
          "internalType": "bool",
          "name": "state",
          "type": "bool"
        }
      ],
      "name": "_setSeizePaused",
      "outputs": [
        {
          "internalType": "bool",
          "name": "",
          "type": "bool"
        }
      ],
      "payable": false,
      "stateMutability": "nonpayable",
      "type": "function"
    },
    {
      "constant": false,
      "inputs": [
        {
          "internalType": "bool",
          "name": "state",
          "type": "bool"
        }
      ],
      "name": "_setTransferPaused",
      "outputs": [
        {
          "internalType": "bool",
          "name": "",
          "type": "bool"
        }
      ],
      "payable": false,
      "stateMutability": "nonpayable",
      "type": "function"
    },
    {
      "constant": false,
      "inputs": [
        {
          "internalType": "contract CToken",
          "name": "cToken",
          "type": "address"
        }
      ],
      "name": "_supportMarket",
      "outputs": [
        {
          "internalType": "uint256",
          "name": "",
          "type": "uint256"
        }
      ],
      "payable": false,
      "stateMutability": "nonpayable",
      "type": "function"
    },
    {
      "constant": true,
      "inputs": [
        {
          "internalType": "address",
          "name": "",
          "type": "address"
        },
        {
          "internalType": "uint256",
          "name": "",
          "type": "uint256"
        }
      ],
      "name": "accountAssets",
      "outputs": [
        {
          "internalType": "contract CToken",
          "name": "",
          "type": "address"
        }
      ],
      "payable": false,
      "stateMutability": "view",
      "type": "function"
    },
    {
      "constant": true,
      "inputs": [],
      "name": "admin",
      "outputs": [
        {
          "internalType": "address",
          "name": "",
          "type": "address"
        }
      ],
      "payable": false,
      "stateMutability": "view",
      "type": "function"
    },
    {
      "constant": true,
      "inputs": [
        {
          "internalType": "uint256",
          "name": "",
          "type": "uint256"
        }
      ],
      "name": "allMarkets",
      "outputs": [
        {
          "internalType": "contract CToken",
          "name": "",
          "type": "address"
        }
      ],
      "payable": false,
      "stateMutability": "view",
      "type": "function"
    },
    {
      "constant": false,
      "inputs": [
        {
          "internalType": "address",
          "name": "cToken",
          "type": "address"
        },
        {
          "internalType": "address",
          "name": "borrower",
          "type": "address"
        },
        {
          "internalType": "uint256",
          "name": "borrowAmount",
          "type": "uint256"
        }
      ],
      "name": "borrowAllowed",
      "outputs": [
        {
          "internalType": "uint256",
          "name": "",
          "type": "uint256"
        }
      ],
      "payable": false,
      "stateMutability": "nonpayable",
      "type": "function"
    },
    {
      "constant": true,
      "inputs": [],
      "name": "borrowCapGuardian",
      "outputs": [
        {
          "internalType": "address",
          "name": "",
          "type": "address"
        }
      ],
      "payable": false,
      "stateMutability": "view",
      "type": "function"
    },
    {
      "constant": true,
      "inputs": [
        {
          "internalType": "address",
          "name": "",
          "type": "address"
        }
      ],
      "name": "borrowCaps",
      "outputs": [
        {
          "internalType": "uint256",
          "name": "",
          "type": "uint256"
        }
      ],
      "payable": false,
      "stateMutability": "view",
      "type": "function"
    },
    {
      "constant": true,
      "inputs": [
        {
          "internalType": "address",
          "name": "",
          "type": "address"
        }
      ],
      "name": "borrowGuardianPaused",
      "outputs": [
        {
          "internalType": "bool",
          "name": "",
          "type": "bool"
        }
      ],
      "payable": false,
      "stateMutability": "view",
      "type": "function"
    },
    {
      "constant": true,
      "inputs": [
        {
          "internalType": "address",
          "name": "account",
          "type": "address"
        },
        {
          "internalType": "contract CToken",
          "name": "cToken",
          "type": "address"
        }
      ],
      "name": "checkMembership",
      "outputs": [
        {
          "internalType": "bool",
          "name": "",
          "type": "bool"
        }
      ],
      "payable": false,
      "stateMutability": "view",
      "type": "function"
    },
    {
      "constant": false,
      "inputs": [
        {
          "internalType": "address",
          "name": "holder",
          "type": "address"
        },
        {
          "internalType": "contract CToken[]",
          "name": "cTokens",
          "type": "address[]"
        }
      ],
      "name": "claimComp",
      "outputs": [],
      "payable": false,
      "stateMutability": "nonpayable",
      "type": "function"
    },
    {
      "constant": false,
      "inputs": [
        {
          "internalType": "address[]",
          "name": "holders",
          "type": "address[]"
        },
        {
          "internalType": "contract CToken[]",
          "name": "cTokens",
          "type": "address[]"
        },
        {
          "internalType": "bool",
          "name": "borrowers",
          "type": "bool"
        },
        {
          "internalType": "bool",
          "name": "suppliers",
          "type": "bool"
        }
      ],
      "name": "claimComp",
      "outputs": [],
      "payable": false,
      "stateMutability": "nonpayable",
      "type": "function"
    },
    {
      "constant": false,
      "inputs": [
        {
          "internalType": "address",
          "name": "holder",
          "type": "address"
        }
      ],
      "name": "claimComp",
      "outputs": [],
      "payable": false,
      "stateMutability": "nonpayable",
      "type": "function"
    },
    {
      "constant": true,
      "inputs": [],
      "name": "closeFactorMantissa",
      "outputs": [
        {
          "internalType": "uint256",
          "name": "",
          "type": "uint256"
        }
      ],
      "payable": false,
      "stateMutability": "view",
      "type": "function"
    },
    {
      "constant": true,
      "inputs": [
        {
          "internalType": "address",
          "name": "",
          "type": "address"
        }
      ],
      "name": "compAccrued",
      "outputs": [
        {
          "internalType": "uint256",
          "name": "",
          "type": "uint256"
        }
      ],
      "payable": false,
      "stateMutability": "view",
      "type": "function"
    },
    {
      "constant": true,
      "inputs": [
        {
          "internalType": "address",
          "name": "",
          "type": "address"
        }
      ],
      "name": "compBorrowState",
      "outputs": [
        {
          "internalType": "uint224",
          "name": "index",
          "type": "uint224"
        },
        {
          "internalType": "uint32",
          "name": "block",
          "type": "uint32"
        }
      ],
      "payable": false,
      "stateMutability": "view",
      "type": "function"
    },
    {
      "constant": true,
      "inputs": [
        {
          "internalType": "address",
          "name": "",
          "type": "address"
        },
        {
          "internalType": "address",
          "name": "",
          "type": "address"
        }
      ],
      "name": "compBorrowerIndex",
      "outputs": [
        {
          "internalType": "uint256",
          "name": "",
          "type": "uint256"
        }
      ],
      "payable": false,
      "stateMutability": "view",
      "type": "function"
    },
    {
      "constant": true,
      "inputs": [
        {
          "internalType": "address",
          "name": "",
          "type": "address"
        }
      ],
      "name": "compContributorSpeeds",
      "outputs": [
        {
          "internalType": "uint256",
          "name": "",
          "type": "uint256"
        }
      ],
      "payable": false,
      "stateMutability": "view",
      "type": "function"
    },
    {
      "constant": true,
      "inputs": [],
      "name": "compInitialIndex",
      "outputs": [
        {
          "internalType": "uint224",
          "name": "",
          "type": "uint224"
        }
      ],
      "payable": false,
      "stateMutability": "view",
      "type": "function"
    },
    {
      "constant": true,
      "inputs": [],
      "name": "compRate",
      "outputs": [
        {
          "internalType": "uint256",
          "name": "",
          "type": "uint256"
        }
      ],
      "payable": false,
      "stateMutability": "view",
      "type": "function"
    },
    {
      "constant": true,
      "inputs": [
        {
          "internalType": "address",
          "name": "",
          "type": "address"
        }
      ],
      "name": "compSpeeds",
      "outputs": [
        {
          "internalType": "uint256",
          "name": "",
          "type": "uint256"
        }
      ],
      "payable": false,
      "stateMutability": "view",
      "type": "function"
    },
    {
      "constant": true,
      "inputs": [
        {
          "internalType": "address",
          "name": "",
          "type": "address"
        },
        {
          "internalType": "address",
          "name": "",
          "type": "address"
        }
      ],
      "name": "compSupplierIndex",
      "outputs": [
        {
          "internalType": "uint256",
          "name": "",
          "type": "uint256"
        }
      ],
      "payable": false,
      "stateMutability": "view",
      "type": "function"
    },
    {
      "constant": true,
      "inputs": [
        {
          "internalType": "address",
          "name": "",
          "type": "address"
        }
      ],
      "name": "compSupplyState",
      "outputs": [
        {
          "internalType": "uint224",
          "name": "index",
          "type": "uint224"
        },
        {
          "internalType": "uint32",
          "name": "block",
          "type": "uint32"
        }
      ],
      "payable": false,
      "stateMutability": "view",
      "type": "function"
    },
    {
      "constant": true,
      "inputs": [],
      "name": "comptrollerImplementation",
      "outputs": [
        {
          "internalType": "address",
          "name": "",
          "type": "address"
        }
      ],
      "payable": false,
      "stateMutability": "view",
      "type": "function"
    },
    {
      "constant": false,
      "inputs": [
        {
          "internalType": "address[]",
          "name": "cTokens",
          "type": "address[]"
        }
      ],
      "name": "enterMarkets",
      "outputs": [
        {
          "internalType": "uint256[]",
          "name": "",
          "type": "uint256[]"
        }
      ],
      "payable": false,
      "stateMutability": "nonpayable",
      "type": "function"
    },
    {
      "constant": false,
      "inputs": [
        {
          "internalType": "address",
          "name": "cTokenAddress",
          "type": "address"
        }
      ],
      "name": "exitMarket",
      "outputs": [
        {
          "internalType": "uint256",
          "name": "",
          "type": "uint256"
        }
      ],
      "payable": false,
      "stateMutability": "nonpayable",
      "type": "function"
    },
    {
      "constant": true,
      "inputs": [
        {
          "internalType": "address",
          "name": "account",
          "type": "address"
        }
      ],
      "name": "getAccountLiquidity",
      "outputs": [
        {
          "internalType": "uint256",
          "name": "",
          "type": "uint256"
        },
        {
          "internalType": "uint256",
          "name": "",
          "type": "uint256"
        },
        {
          "internalType": "uint256",
          "name": "",
          "type": "uint256"
        }
      ],
      "payable": false,
      "stateMutability": "view",
      "type": "function"
    },
    {
      "constant": true,
      "inputs": [],
      "name": "getAllMarkets",
      "outputs": [
        {
          "internalType": "contract CToken[]",
          "name": "",
          "type": "address[]"
        }
      ],
      "payable": false,
      "stateMutability": "view",
      "type": "function"
    },
    {
      "constant": true,
      "inputs": [
        {
          "internalType": "address",
          "name": "account",
          "type": "address"
        }
      ],
      "name": "getAssetsIn",
      "outputs": [
        {
          "internalType": "contract CToken[]",
          "name": "",
          "type": "address[]"
        }
      ],
      "payable": false,
      "stateMutability": "view",
      "type": "function"
    },
    {
      "constant": true,
      "inputs": [],
      "name": "getBlockNumber",
      "outputs": [
        {
          "internalType": "uint256",
          "name": "",
          "type": "uint256"
        }
      ],
      "payable": false,
      "stateMutability": "view",
      "type": "function"
    },
    {
      "constant": true,
      "inputs": [],
      "name": "getCompAddress",
      "outputs": [
        {
          "internalType": "address",
          "name": "",
          "type": "address"
        }
      ],
      "payable": false,
      "stateMutability": "view",
      "type": "function"
    },
    {
      "constant": true,
      "inputs": [
        {
          "internalType": "address",
          "name": "account",
          "type": "address"
        },
        {
          "internalType": "address",
          "name": "cAssetModify",
          "type": "address"
        },
        {
          "internalType": "uint256",
          "name": "redeemTokens",
          "type": "uint256"
        },
        {
          "internalType": "uint256",
          "name": "borrowAmount",
          "type": "uint256"
        }
      ],
      "name": "getHypotheticalAccountLiquidity",
      "outputs": [
        {
          "internalType": "uint256",
          "name": "",
          "type": "uint256"
        },
        {
          "internalType": "uint256",
          "name": "",
          "type": "uint256"
        },
        {
          "internalType": "uint256",
          "name": "",
          "type": "uint256"
        }
      ],
      "payable": false,
      "stateMutability": "view",
      "type": "function"
    },
    {
      "constant": true,
      "inputs": [],
      "name": "isComptroller",
      "outputs": [
        {
          "internalType": "bool",
          "name": "",
          "type": "bool"
        }
      ],
      "payable": false,
      "stateMutability": "view",
      "type": "function"
    },
    {
      "constant": true,
      "inputs": [
        {
          "internalType": "contract CToken",
          "name": "cToken",
          "type": "address"
        }
      ],
      "name": "isDeprecated",
      "outputs": [
        {
          "internalType": "bool",
          "name": "",
          "type": "bool"
        }
      ],
      "payable": false,
      "stateMutability": "view",
      "type": "function"
    },
    {
      "constant": true,
      "inputs": [
        {
          "internalType": "address",
          "name": "",
          "type": "address"
        }
      ],
      "name": "lastContributorBlock",
      "outputs": [
        {
          "internalType": "uint256",
          "name": "",
          "type": "uint256"
        }
      ],
      "payable": false,
      "stateMutability": "view",
      "type": "function"
    },
    {
      "constant": false,
      "inputs": [
        {
          "internalType": "address",
          "name": "cTokenBorrowed",
          "type": "address"
        },
        {
          "internalType": "address",
          "name": "cTokenCollateral",
          "type": "address"
        },
        {
          "internalType": "address",
          "name": "liquidator",
          "type": "address"
        },
        {
          "internalType": "address",
          "name": "borrower",
          "type": "address"
        },
        {
          "internalType": "uint256",
          "name": "repayAmount",
          "type": "uint256"
        }
      ],
      "name": "liquidateBorrowAllowed",
      "outputs": [
        {
          "internalType": "uint256",
          "name": "",
          "type": "uint256"
        }
      ],
      "payable": false,
      "stateMutability": "nonpayable",
      "type": "function"
    },
    {
      "constant": true,
      "inputs": [
        {
          "internalType": "address",
          "name": "cTokenBorrowed",
          "type": "address"
        },
        {
          "internalType": "address",
          "name": "cNftCollateral",
          "type": "address"
        },
        {
          "internalType": "uint256",
          "name": "actualRepayAmount",
          "type": "uint256"
        }
      ],
      "name": "liquidateCalculateSeizeNfts",
      "outputs": [
        {
          "internalType": "uint256",
          "name": "",
          "type": "uint256"
        },
        {
          "internalType": "uint256",
          "name": "",
          "type": "uint256"
        }
      ],
      "payable": false,
      "stateMutability": "view",
      "type": "function"
    },
    {
      "constant": true,
      "inputs": [
        {
          "internalType": "address",
          "name": "cTokenBorrowed",
          "type": "address"
        },
        {
          "internalType": "address",
          "name": "cTokenCollateral",
          "type": "address"
        },
        {
          "internalType": "uint256",
          "name": "actualRepayAmount",
          "type": "uint256"
        }
      ],
      "name": "liquidateCalculateSeizeTokens",
      "outputs": [
        {
          "internalType": "uint256",
          "name": "",
          "type": "uint256"
        },
        {
          "internalType": "uint256",
          "name": "",
          "type": "uint256"
        }
      ],
      "payable": false,
      "stateMutability": "view",
      "type": "function"
    },
    {
      "constant": true,
      "inputs": [],
      "name": "liquidationIncentiveMantissa",
      "outputs": [
        {
          "internalType": "uint256",
          "name": "",
          "type": "uint256"
        }
      ],
      "payable": false,
      "stateMutability": "view",
      "type": "function"
    },
    {
      "constant": true,
      "inputs": [
        {
          "internalType": "address",
          "name": "",
          "type": "address"
        }
      ],
      "name": "markets",
      "outputs": [
        {
          "internalType": "bool",
          "name": "isListed",
          "type": "bool"
        },
        {
          "internalType": "uint256",
          "name": "collateralFactorMantissa",
          "type": "uint256"
        },
        {
          "internalType": "bool",
          "name": "isComped",
          "type": "bool"
        }
      ],
      "payable": false,
      "stateMutability": "view",
      "type": "function"
    },
    {
      "constant": true,
      "inputs": [],
      "name": "maxAssets",
      "outputs": [
        {
          "internalType": "uint256",
          "name": "",
          "type": "uint256"
        }
      ],
      "payable": false,
      "stateMutability": "view",
      "type": "function"
    },
    {
      "constant": false,
      "inputs": [
        {
          "internalType": "address",
          "name": "cAsset",
          "type": "address"
        },
        {
          "internalType": "address",
          "name": "minter",
          "type": "address"
        },
        {
          "internalType": "uint256",
          "name": "mintAmount",
          "type": "uint256"
        }
      ],
      "name": "mintAllowed",
      "outputs": [
        {
          "internalType": "uint256",
          "name": "",
          "type": "uint256"
        }
      ],
      "payable": false,
      "stateMutability": "nonpayable",
      "type": "function"
    },
    {
      "constant": true,
      "inputs": [
        {
          "internalType": "address",
          "name": "",
          "type": "address"
        }
      ],
      "name": "mintGuardianPaused",
      "outputs": [
        {
          "internalType": "bool",
          "name": "",
          "type": "bool"
        }
      ],
      "payable": false,
      "stateMutability": "view",
      "type": "function"
    },
    {
      "constant": true,
      "inputs": [],
      "name": "nftMarket",
      "outputs": [
        {
          "internalType": "contract CNftInterface",
          "name": "",
          "type": "address"
        }
      ],
      "payable": false,
      "stateMutability": "view",
      "type": "function"
    },
    {
      "constant": true,
      "inputs": [],
      "name": "nftOracle",
      "outputs": [
        {
          "internalType": "contract NftPriceOracle",
          "name": "",
          "type": "address"
        }
      ],
      "payable": false,
      "stateMutability": "view",
      "type": "function"
    },
    {
      "constant": true,
      "inputs": [],
      "name": "oracle",
      "outputs": [
        {
          "internalType": "contract PriceOracle",
          "name": "",
          "type": "address"
        }
      ],
      "payable": false,
      "stateMutability": "view",
      "type": "function"
    },
    {
      "constant": true,
      "inputs": [],
      "name": "pauseGuardian",
      "outputs": [
        {
          "internalType": "address",
          "name": "",
          "type": "address"
        }
      ],
      "payable": false,
      "stateMutability": "view",
      "type": "function"
    },
    {
      "constant": true,
      "inputs": [],
      "name": "pendingAdmin",
      "outputs": [
        {
          "internalType": "address",
          "name": "",
          "type": "address"
        }
      ],
      "payable": false,
      "stateMutability": "view",
      "type": "function"
    },
    {
      "constant": true,
      "inputs": [],
      "name": "pendingComptrollerImplementation",
      "outputs": [
        {
          "internalType": "address",
          "name": "",
          "type": "address"
        }
      ],
      "payable": false,
      "stateMutability": "view",
      "type": "function"
    },
    {
      "constant": false,
      "inputs": [
        {
          "internalType": "address",
          "name": "cAsset",
          "type": "address"
        },
        {
          "internalType": "address",
          "name": "redeemer",
          "type": "address"
        },
        {
          "internalType": "uint256",
          "name": "redeemTokens",
          "type": "uint256"
        }
      ],
      "name": "redeemAllowed",
      "outputs": [
        {
          "internalType": "uint256",
          "name": "",
          "type": "uint256"
        }
      ],
      "payable": false,
      "stateMutability": "nonpayable",
      "type": "function"
    },
    {
      "constant": false,
      "inputs": [
        {
          "internalType": "address",
          "name": "cToken",
          "type": "address"
        },
        {
          "internalType": "address",
          "name": "redeemer",
          "type": "address"
        },
        {
          "internalType": "uint256",
          "name": "redeemAmount",
          "type": "uint256"
        },
        {
          "internalType": "uint256",
          "name": "redeemTokens",
          "type": "uint256"
        }
      ],
      "name": "redeemVerify",
      "outputs": [],
      "payable": false,
      "stateMutability": "nonpayable",
      "type": "function"
    },
    {
      "constant": false,
      "inputs": [
        {
          "internalType": "address",
          "name": "cToken",
          "type": "address"
        },
        {
          "internalType": "address",
          "name": "payer",
          "type": "address"
        },
        {
          "internalType": "address",
          "name": "borrower",
          "type": "address"
        },
        {
          "internalType": "uint256",
          "name": "repayAmount",
          "type": "uint256"
        }
      ],
      "name": "repayBorrowAllowed",
      "outputs": [
        {
          "internalType": "uint256",
          "name": "",
          "type": "uint256"
        }
      ],
      "payable": false,
      "stateMutability": "nonpayable",
      "type": "function"
    },
    {
      "constant": false,
      "inputs": [
        {
          "internalType": "address",
          "name": "cTokenCollateral",
          "type": "address"
        },
        {
          "internalType": "address",
          "name": "cTokenBorrowed",
          "type": "address"
        },
        {
          "internalType": "address",
          "name": "liquidator",
          "type": "address"
        },
        {
          "internalType": "address",
          "name": "borrower",
          "type": "address"
        },
        {
          "internalType": "uint256",
          "name": "seizeTokens",
          "type": "uint256"
        }
      ],
      "name": "seizeAllowed",
      "outputs": [
        {
          "internalType": "uint256",
          "name": "",
          "type": "uint256"
        }
      ],
      "payable": false,
      "stateMutability": "nonpayable",
      "type": "function"
    },
    {
      "constant": true,
      "inputs": [],
      "name": "seizeGuardianPaused",
      "outputs": [
        {
          "internalType": "bool",
          "name": "",
          "type": "bool"
        }
      ],
      "payable": false,
      "stateMutability": "view",
      "type": "function"
    },
    {
      "constant": false,
      "inputs": [
        {
          "internalType": "address",
          "name": "cAsset",
          "type": "address"
        },
        {
          "internalType": "address",
          "name": "src",
          "type": "address"
        },
        {
          "internalType": "address",
          "name": "dst",
          "type": "address"
        },
        {
          "internalType": "uint256",
          "name": "transferTokens",
          "type": "uint256"
        }
      ],
      "name": "transferAllowed",
      "outputs": [
        {
          "internalType": "uint256",
          "name": "",
          "type": "uint256"
        }
      ],
      "payable": false,
      "stateMutability": "nonpayable",
      "type": "function"
    },
    {
      "constant": true,
      "inputs": [],
      "name": "transferGuardianPaused",
      "outputs": [
        {
          "internalType": "bool",
          "name": "",
          "type": "bool"
        }
      ],
      "payable": false,
      "stateMutability": "view",
      "type": "function"
    },
    {
      "constant": false,
      "inputs": [
        {
          "internalType": "address",
          "name": "contributor",
          "type": "address"
        }
      ],
      "name": "updateContributorRewards",
      "outputs": [],
      "payable": false,
      "stateMutability": "nonpayable",
      "type": "function"
    }
  ],
  "transactionHash": "0xb349e439dbd0d995c67cd4291f61dec95cec2a1d4f5aac304a3914673c64281e",
  "args": [],
  "numDeployments": 1,
  "solcInputHash": "c1d6b23394cfdf3f0b156482217b237f",
  "bytecode": "0x608060405234801561001057600080fd5b50600080546001600160a01b03191633179055615f5b80620000336000396000f3fe608060405234801561001057600080fd5b50600436106104535760003560e01c8063741b252511610241578063bb82aa5e1161013b578063da3d454c116100c3578063e875544611610087578063e87554461461115b578063e9af029214611163578063eabe7d9114611189578063ede4edd0146111bf578063f851a440146111e557610453565b8063da3d454c146110bd578063dce15449146110f3578063dcfbc0c71461111f578063e4028eee14611127578063e6653f3d1461115357610453565b8063c488847b1161010a578063c488847b14610fb7578063c6d73f6e14610fed578063ca0af04314611023578063cc7ebdc414611051578063d02f73511461107757610453565b8063bb82aa5e14610eac578063bdcdc25814610eb4578063bea6b8b814610ef0578063c299823814610f1657610453565b806394b2294b116101c9578063aa9007541161018d578063aa90075414610df0578063abfceffc14610df8578063ac0b0bb714610e6e578063b0772d0b14610e76578063b21be7fd14610e7e57610453565b806394b2294b14610d70578063986ab83814610d785780639d1b5a0a14610d9e578063a76b3fda14610da6578063a7f0e23114610dcc57610453565b80638c57804e116102105780638c57804e14610c8f5780638e8f294b14610cb55780638ebf636414610cfd578063929fe9a114610d1c57806394543c1514610d4a57610453565b8063741b252514610c3c5780637dc0d1d014610c625780637e5a9ae214610c6a57806387f7630314610c8757610453565b806342cbb15c1161035257806355ee1fe1116102da578063607ef6c11161029e578063607ef6c1146109b85780636810dfa614610a765780636b79c38d14610ba25780636d154ea514610bf0578063731f0c2b14610c1657610453565b806355ee1fe1146108d4578063598ee1cb146108fa5780635ec88c79146109265780635f5af1aa1461094c5780635fc7e71e1461097257610453565b80634e79238f116103215780634e79238f146107ce5780634ef4c3e1146108285780634fd42e171461085e57806351dff9891461087b57806352d84d1e146108b757610453565b806342cbb15c1461076c578063434caf25146107745780634a584432146107a05780634ada90af146107c657610453565b806326782247116103e0578063317b0b77116103a4578063317b0b77146106a4578063391957d7146106c15780633bcf7ec1146106e75780633c94786f146107155780633d67eb1f1461071d57610453565b8063267822471461062357806327efe3cb1461062b578063286c2add14610657578063287a5a421461065f5780632d70db781461068557610453565b80631d504dc6116104275780631d504dc6146105795780631d7b33d71461059f57806321af4569146105d757806324008a62146105df57806324a3d6221461061b57610453565b80627e3dd21461045857806318c882a514610474578063196ab1ab146104a25780631c3db2e0146104c6575b600080fd5b6104606111ed565b604080519115158252519081900360200190f35b6104606004803603604081101561048a57600080fd5b506001600160a01b03813516906020013515156111f2565b6104aa611392565b604080516001600160a01b039092168252519081900360200190f35b610577600480360360408110156104dc57600080fd5b6001600160a01b038235169190810190604081016020820135600160201b81111561050657600080fd5b82018360208201111561051857600080fd5b803590602001918460208302840111600160201b8311171561053957600080fd5b9190808060200260200160405190810160405280939291908181526020018383602002808284376000920191909152509295506113a1945050505050565b005b6105776004803603602081101561058f57600080fd5b50356001600160a01b0316611403565b6105c5600480360360208110156105b557600080fd5b50356001600160a01b0316611562565b60408051918252519081900360200190f35b6104aa611574565b6105c5600480360360808110156105f557600080fd5b506001600160a01b03813581169160208101358216916040820135169060600135611583565b6104aa61164a565b6104aa611659565b6105776004803603604081101561064157600080fd5b506001600160a01b038135169060200135611668565b6104aa61176b565b6105c56004803603602081101561067557600080fd5b50356001600160a01b031661177a565b6104606004803603602081101561069b57600080fd5b503515156117c6565b6105c5600480360360208110156106ba57600080fd5b50356118fc565b610577600480360360208110156106d757600080fd5b50356001600160a01b03166119a9565b610460600480360360408110156106fd57600080fd5b506001600160a01b0381351690602001351515611a55565b610460611c5d565b6107536004803603606081101561073357600080fd5b506001600160a01b03813581169160208101359091169060400135611c6d565b6040805192835260208301919091528051918290030190f35b6105c5611e78565b6105776004803603604081101561078a57600080fd5b506001600160a01b038135169060200135611e7d565b6105c5600480360360208110156107b657600080fd5b50356001600160a01b0316611ee4565b6105c5611ef6565b61080a600480360360808110156107e457600080fd5b506001600160a01b03813581169160208101359091169060408101359060600135611efc565b60408051938452602084019290925282820152519081900360600190f35b6105c56004803603606081101561083e57600080fd5b506001600160a01b03813581169160208101359091169060400135611f36565b6105c56004803603602081101561087457600080fd5b5035611fc9565b6105776004803603608081101561089157600080fd5b506001600160a01b03813581169160208101359091169060408101359060600135612032565b6104aa600480360360208110156108cd57600080fd5b503561208c565b6105c5600480360360208110156108ea57600080fd5b50356001600160a01b03166120b3565b6105776004803603604081101561091057600080fd5b506001600160a01b038135169060200135612138565b61080a6004803603602081101561093c57600080fd5b50356001600160a01b0316612233565b6105c56004803603602081101561096257600080fd5b50356001600160a01b0316612268565b6105c5600480360360a081101561098857600080fd5b506001600160a01b03813581169160208101358216916040820135811691606081013590911690608001356122ec565b610577600480360360408110156109ce57600080fd5b810190602081018135600160201b8111156109e857600080fd5b8201836020820111156109fa57600080fd5b803590602001918460208302840111600160201b83111715610a1b57600080fd5b919390929091602081019035600160201b811115610a3857600080fd5b820183602082011115610a4a57600080fd5b803590602001918460208302840111600160201b83111715610a6b57600080fd5b5090925090506124bc565b61057760048036036080811015610a8c57600080fd5b810190602081018135600160201b811115610aa657600080fd5b820183602082011115610ab857600080fd5b803590602001918460208302840111600160201b83111715610ad957600080fd5b9190808060200260200160405190810160405280939291908181526020018383602002808284376000920191909152509295949360208101935035915050600160201b811115610b2857600080fd5b820183602082011115610b3a57600080fd5b803590602001918460208302840111600160201b83111715610b5b57600080fd5b91908080602002602001604051908101604052809392919081815260200183836020028082843760009201919091525092955050505080351515915060200135151561264c565b610bc860048036036020811015610bb857600080fd5b50356001600160a01b0316612896565b604080516001600160e01b03909316835263ffffffff90911660208301528051918290030190f35b61046060048036036020811015610c0657600080fd5b50356001600160a01b03166128c0565b61046060048036036020811015610c2c57600080fd5b50356001600160a01b03166128d5565b61057760048036036020811015610c5257600080fd5b50356001600160a01b03166128ea565b6104aa6129ad565b6105c560048036036020811015610c8057600080fd5b50356129bc565b610460612b57565b610bc860048036036020811015610ca557600080fd5b50356001600160a01b0316612b67565b610cdb60048036036020811015610ccb57600080fd5b50356001600160a01b0316612b91565b6040805193151584526020840192909252151582820152519081900360600190f35b61046060048036036020811015610d1357600080fd5b50351515612bb7565b61046060048036036040811015610d3257600080fd5b506001600160a01b0381358116916020013516612cf0565b61046060048036036020811015610d6057600080fd5b50356001600160a01b0316612d23565b6105c5612de5565b6105c560048036036020811015610d8e57600080fd5b50356001600160a01b0316612deb565b6104aa612dfd565b6105c560048036036020811015610dbc57600080fd5b50356001600160a01b0316612e15565b610dd4612f71565b604080516001600160e01b039092168252519081900360200190f35b6105c5612f84565b610e1e60048036036020811015610e0e57600080fd5b50356001600160a01b0316612f8a565b60408051602080825283518183015283519192839290830191858101910280838360005b83811015610e5a578181015183820152602001610e42565b505050509050019250505060405180910390f35b610460613013565b610e1e613023565b6105c560048036036040811015610e9457600080fd5b506001600160a01b0381358116916020013516613085565b6104aa6130a2565b6105c560048036036080811015610eca57600080fd5b506001600160a01b038135811691602081013582169160408201351690606001356130b1565b6105c560048036036020811015610f0657600080fd5b50356001600160a01b0316613124565b610e1e60048036036020811015610f2c57600080fd5b810190602081018135600160201b811115610f4657600080fd5b820183602082011115610f5857600080fd5b803590602001918460208302840111600160201b83111715610f7957600080fd5b919080806020026020016040519081016040528093929190818152602001838360200280828437600092019190915250929550613136945050505050565b61075360048036036060811015610fcd57600080fd5b506001600160a01b038135811691602081013590911690604001356131cd565b6105c56004803603606081101561100357600080fd5b506001600160a01b038135811691602081013590911690604001356133ea565b6105c56004803603604081101561103957600080fd5b506001600160a01b03813581169160200135166135c4565b6105c56004803603602081101561106757600080fd5b50356001600160a01b03166135e1565b6105c5600480360360a081101561108d57600080fd5b506001600160a01b03813581169160208101358216916040820135811691606081013590911690608001356135f3565b6105c5600480360360608110156110d357600080fd5b506001600160a01b0381358116916020810135909116906040013561378a565b6104aa6004803603604081101561110957600080fd5b506001600160a01b038135169060200135613b64565b6104aa613b99565b6105c56004803603604081101561113d57600080fd5b506001600160a01b038135169060200135613ba8565b610460613d58565b6105c5613d68565b6105776004803603602081101561117957600080fd5b50356001600160a01b0316613d6e565b6105c56004803603606081101561119f57600080fd5b506001600160a01b03813581169160208101359091169060400135613dd2565b6105c5600480360360208110156111d557600080fd5b50356001600160a01b0316613dfa565b6104aa61410d565b600181565b6001600160a01b03821660009081526009602052604081205460ff166112495760405162461bcd60e51b8152600401808060200182810382526028815260200180615d786028913960400191505060405180910390fd5b600a546001600160a01b031633148061126c57506000546001600160a01b031633145b6112a75760405162461bcd60e51b8152600401808060200182810382526027815260200180615dea6027913960400191505060405180910390fd5b6000546001600160a01b03163314806112c257506001821515145b61130c576040805162461bcd60e51b81526020600482015260166024820152756f6e6c792061646d696e2063616e20756e706175736560501b604482015290519081900360640190fd5b6001600160a01b0383166000818152600c6020908152604091829020805486151560ff199091168117909155825193845283830152606090830181905260069083015265426f72726f7760d01b6080830152517f71aec636243f9709bb0007ae15e9afb8150ab01716d75fd7573be5cc096e03b09181900360a00190a150805b92915050565b601a546001600160a01b031681565b6040805160018082528183019092526060916020808301908038833901905050905082816000815181106113d157fe5b60200260200101906001600160a01b031690816001600160a01b0316815250506113fe818360018061264c565b505050565b806001600160a01b031663f851a4406040518163ffffffff1660e01b815260040160206040518083038186803b15801561143c57600080fd5b505afa158015611450573d6000803e3d6000fd5b505050506040513d602081101561146657600080fd5b50516001600160a01b031633146114ae5760405162461bcd60e51b8152600401808060200182810382526027815260200180615f006027913960400191505060405180910390fd5b806001600160a01b031663c1e803346040518163ffffffff1660e01b8152600401602060405180830381600087803b1580156114e957600080fd5b505af11580156114fd573d6000803e3d6000fd5b505050506040513d602081101561151357600080fd5b50511561155f576040805162461bcd60e51b815260206004820152601560248201527418da185b99d9481b9bdd08185d5d1a1bdc9a5e9959605a1b604482015290519081900360640190fd5b50565b600f6020526000908152604090205481565b6015546001600160a01b031681565b6001600160a01b03841660009081526009602052604081205460ff166115ab57506009611642565b6115b3615c97565b6040518060200160405280876001600160a01b031663aa5af0fd6040518163ffffffff1660e01b815260040160206040518083038186803b1580156115f757600080fd5b505afa15801561160b573d6000803e3d6000fd5b505050506040513d602081101561162157600080fd5b505190529050611631868261411c565b61163c8685836143a5565b60009150505b949350505050565b600a546001600160a01b031681565b6001546001600160a01b031681565b61167061453c565b6116c1576040805162461bcd60e51b815260206004820152601960248201527f6f6e6c792061646d696e2063616e206772616e7420636f6d7000000000000000604482015290519081900360640190fd5b60006116cd8383614565565b90508015611722576040805162461bcd60e51b815260206004820152601b60248201527f696e73756666696369656e7420636f6d7020666f72206772616e740000000000604482015290519081900360640190fd5b604080516001600160a01b03851681526020810184905281517f98b2f82a3a07f223a0be64b3d0f47711c64dccd1feafb94aa28156b38cd9695c929181900390910190a1505050565b6019546001600160a01b031681565b600080546001600160a01b031633146117a0576117996001601061469f565b90506117c1565b601980546001600160a01b0319166001600160a01b03841617905560005b90505b919050565b600a546000906001600160a01b03163314806117ec57506000546001600160a01b031633145b6118275760405162461bcd60e51b8152600401808060200182810382526027815260200180615dea6027913960400191505060405180910390fd5b6000546001600160a01b031633148061184257506001821515145b61188c576040805162461bcd60e51b81526020600482015260166024820152756f6e6c792061646d696e2063616e20756e706175736560501b604482015290519081900360640190fd5b600a8054831515600160b81b810260ff60b81b1990921691909117909155604080516020810192909252808252600582820152645365697a6560d81b6060830152517fef159d9a32b2472e32b098f954f3ce62d232939f1c207070b584df1814de2de09181900360800190a15090565b600080546001600160a01b0316331461195c576040805162461bcd60e51b815260206004820152601f60248201527f6f6e6c792061646d696e2063616e2073657420636c6f736520666163746f7200604482015290519081900360640190fd5b6005805490839055604080518281526020810185905281517f3b9670cf975d26958e754b57098eaa2ac914d8d2a31b83257997b9f346110fd9929181900390910190a160005b9392505050565b6000546001600160a01b031633146119f25760405162461bcd60e51b8152600401808060200182810382526026815260200180615e3e6026913960400191505060405180910390fd5b601580546001600160a01b038381166001600160a01b0319831681179093556040805191909216808252602082019390935281517feda98690e518e9a05f8ec6837663e188211b2da8f4906648b323f2c1d4434e29929181900390910190a15050565b6001600160a01b03821660009081526009602052604081205460ff16611aac5760405162461bcd60e51b8152600401808060200182810382526028815260200180615d786028913960400191505060405180910390fd5b600a546001600160a01b0316331480611acf57506000546001600160a01b031633145b611b0a5760405162461bcd60e51b8152600401808060200182810382526027815260200180615dea6027913960400191505060405180910390fd5b6000546001600160a01b0316331480611b2557506001821515145b611b6f576040805162461bcd60e51b81526020600482015260166024820152756f6e6c792061646d696e2063616e20756e706175736560501b604482015290519081900360640190fd5b6001600160a01b038381166000818152600b60205260409020805460ff1916851515179055601a549091161415611bf75760408051831515602082015281815260088183015267135a5b9d0813919560c21b606082015290517fef159d9a32b2472e32b098f954f3ce62d232939f1c207070b584df1814de2de09181900360800190a1611c57565b604080516001600160a01b03851681528315158183015260606020820181905260049082015263135a5b9d60e21b608082015290517f71aec636243f9709bb0007ae15e9afb8150ab01716d75fd7573be5cc096e03b09181900360a00190a15b50919050565b600a54600160a01b900460ff1681565b601a5460009081906001600160a01b03858116911614611cbe5760405162461bcd60e51b8152600401808060200182810382526022815260200180615e646022913960400191505060405180910390fd5b600480546040805163fc57d4df60e01b81526001600160a01b038981169482019490945290516000939092169163fc57d4df91602480820192602092909190829003018186803b158015611d1157600080fd5b505afa158015611d25573d6000803e3d6000fd5b505050506040513d6020811015611d3b57600080fd5b5051601954601a546040805163fc57d4df60e01b81526001600160a01b0392831660048201529051939450600093919092169163fc57d4df916024808301926020929190829003018186803b158015611d9357600080fd5b505afa158015611da7573d6000803e3d6000fd5b505050506040513d6020811015611dbd57600080fd5b50519050811580611dcc575080155b15611de257600d5b935060009250611e70915050565b6000611dec615c97565b611df4615c97565b611dfc615c97565b611e246040518060200160405280600654815250604051806020016040528089815250614705565b92506040518060200160405280868152509150611e418383614744565b9050611e63611e5e8260405180602001604052808d815250614705565b614780565b6000985096505050505050505b935093915050565b435b90565b611e8561453c565b611ed6576040805162461bcd60e51b815260206004820152601d60248201527f6f6e6c792061646d696e2063616e2073657420636f6d70207370656564000000604482015290519081900360640190fd5b611ee0828261478f565b5050565b60166020526000908152604090205481565b60065481565b600080600080600080611f118a8a8a8a614b0f565b925092509250826011811115611f2357fe5b95509093509150505b9450945094915050565b6001600160a01b0383166000908152600b602052604081205460ff1615611f95576040805162461bcd60e51b815260206004820152600e60248201526d1b5a5b9d081a5cc81c185d5cd95960921b604482015290519081900360640190fd5b6001600160a01b03841660009081526009602052604090205460ff16611fbf5760095b90506119a2565b6000949350505050565b600080546001600160a01b03163314611fe8576117996001600b61469f565b6006805490839055604080518281526020810185905281517faeba5a6c40a8ac138134bff1aaa65debf25971188a58804bad717f82f0ec1316929181900390910190a160006119a2565b801580156120405750600082115b15612086576040805162461bcd60e51b815260206004820152601160248201527072656465656d546f6b656e73207a65726f60781b604482015290519081900360640190fd5b50505050565b600d818154811061209957fe5b6000918252602090912001546001600160a01b0316905081565b600080546001600160a01b031633146120d2576117996001601061469f565b600480546001600160a01b038481166001600160a01b0319831681179093556040805191909216808252602082019390935281517fd52b2b9b7e9ee655fcb95d2e5b9e0c9f69e7ef2b8e9d2d0ea78402d576d22e22929181900390910190a160006119a2565b61214061453c565b612191576040805162461bcd60e51b815260206004820152601d60248201527f6f6e6c792061646d696e2063616e2073657420636f6d70207370656564000000604482015290519081900360640190fd5b61219a826128ea565b806121bd576001600160a01b0382166000908152601860205260408120556121df565b6121c5611e78565b6001600160a01b0383166000908152601860205260409020555b6001600160a01b038216600081815260176020908152604091829020849055815184815291517f386537fa92edc3319af95f1f904dcf1900021e4f3f4e08169a577a09076e66b39281900390910190a25050565b60008060008060008061224a876000806000614b0f565b92509250925082601181111561225c57fe5b97919650945092505050565b600080546001600160a01b03163314612287576117996001601361469f565b600a80546001600160a01b038481166001600160a01b0319831617928390556040805192821680845293909116602083015280517f0613b6ee6a04f0d09f390e4d9318894b9f6ac7fd83897cd8d18896ba579c401e9281900390910190a160006119a2565b6001600160a01b03851660009081526009602052604081205460ff16158061234657506001600160a01b03851660009081526009602052604090205460ff161580156123465750601a546001600160a01b03868116911614155b156123555760095b90506124b3565b6000866001600160a01b03166395dd9193856040518263ffffffff1660e01b815260040180826001600160a01b03166001600160a01b0316815260200191505060206040518083038186803b1580156123ad57600080fd5b505afa1580156123c1573d6000803e3d6000fd5b505050506040513d60208110156123d757600080fd5b505190506123e487612d23565b1561242d57828110156124285760405162461bcd60e51b8152600401808060200182810382526028815260200180615dc26028913960400191505060405180910390fd5b6124ad565b60008061243986615079565b9193509091506000905082601181111561244f57fe5b1461246a5781601181111561246057fe5b93505050506124b3565b80612476576003612460565b6000612492604051806020016040528060055481525085615099565b9050808611156124a95760119450505050506124b3565b5050505b60009150505b95945050505050565b6000546001600160a01b03163314806124df57506015546001600160a01b031633145b61251a5760405162461bcd60e51b8152600401808060200182810382526035815260200180615e866035913960400191505060405180910390fd5b8281811580159061252a57508082145b61256b576040805162461bcd60e51b815260206004820152600d60248201526c1a5b9d985b1a59081a5b9c1d5d609a1b604482015290519081900360640190fd5b60005b828110156126435784848281811061258257fe5b905060200201356016600089898581811061259957fe5b905060200201356001600160a01b03166001600160a01b03166001600160a01b03168152602001908152602001600020819055508686828181106125d957fe5b905060200201356001600160a01b03166001600160a01b03167f6f1951b2aad10f3fc81b86d91105b413a5b3f847a34bbc5ce1904201b14438f686868481811061261f57fe5b905060200201356040518082815260200191505060405180910390a260010161256e565b50505050505050565b60005b83518110156127f157600084828151811061266657fe5b6020908102919091018101516001600160a01b0381166000908152600990925260409091205490915060ff166126db576040805162461bcd60e51b81526020600482015260156024820152741b585c9ad95d081b5d5cdd081899481b1a5cdd1959605a1b604482015290519081900360640190fd5b600184151514156127a1576126ee615c97565b6040518060200160405280836001600160a01b031663aa5af0fd6040518163ffffffff1660e01b815260040160206040518083038186803b15801561273257600080fd5b505afa158015612746573d6000803e3d6000fd5b505050506040513d602081101561275c57600080fd5b50519052905061276c828261411c565b60005b875181101561279e576127968389838151811061278857fe5b6020026020010151846143a5565b60010161276f565b50505b600183151514156127e8576127b5816150b8565b60005b86518110156127e6576127de828883815181106127d157fe5b6020026020010151615336565b6001016127b8565b505b5060010161264f565b5060005b845181101561288f5761285385828151811061280d57fe5b60200260200101516014600088858151811061282557fe5b60200260200101516001600160a01b03166001600160a01b0316815260200190815260200160002054614565565b6014600087848151811061286357fe5b6020908102919091018101516001600160a01b03168252810191909152604001600020556001016127f5565b5050505050565b6010602052600090815260409020546001600160e01b03811690600160e01b900463ffffffff1682565b600c6020526000908152604090205460ff1681565b600b6020526000908152604090205460ff1681565b6001600160a01b0381166000908152601760205260408120549061290c611e78565b6001600160a01b03841660009081526018602052604081205491925090612934908390615515565b90506000811180156129465750600083115b15612086576000612957828561554f565b6001600160a01b0386166000908152601460205260408120549192509061297e9083615591565b6001600160a01b0387166000908152601460209081526040808320939093556018905220849055505050505050565b6004546001600160a01b031681565b600080546001600160a01b031633146129db576117996001600661469f565b601a546001600160a01b03166000908152600960205260409020805460ff16612a1257612a0a6009600761469f565b9150506117c1565b612a1a615c97565b506040805160208101909152838152612a31615c97565b506040805160208101909152670c7d713b49da00008152612a5281836155c7565b15612a6d57612a636006600861469f565b93505050506117c1565b8415801590612af55750601954601a546040805163fc57d4df60e01b81526001600160a01b0392831660048201529051919092169163fc57d4df916024808301926020929190829003018186803b158015612ac757600080fd5b505afa158015612adb573d6000803e3d6000fd5b505050506040513d6020811015612af157600080fd5b5051155b15612b0657612a63600d600961469f565b60018301805490869055604080518281526020810188905281517f087cbce0686de4500984f04236b3d3e5fa729ebe9c39436a7b7aeda5b81d07c5929181900390910190a160009695505050505050565b600a54600160b01b900460ff1681565b6011602052600090815260409020546001600160e01b03811690600160e01b900463ffffffff1682565b60096020526000908152604090208054600182015460039092015460ff91821692911683565b600a546000906001600160a01b0316331480612bdd57506000546001600160a01b031633145b612c185760405162461bcd60e51b8152600401808060200182810382526027815260200180615dea6027913960400191505060405180910390fd5b6000546001600160a01b0316331480612c3357506001821515145b612c7d576040805162461bcd60e51b81526020600482015260166024820152756f6e6c792061646d696e2063616e20756e706175736560501b604482015290519081900360640190fd5b600a8054831515600160b01b810260ff60b01b1990921691909117909155604080516020810192909252808252600882820152672a3930b739b332b960c11b6060830152517fef159d9a32b2472e32b098f954f3ce62d232939f1c207070b584df1814de2de09181900360800190a15090565b6001600160a01b038082166000908152600960209081526040808320938616835260029093019052205460ff1692915050565b6001600160a01b038116600090815260096020526040812060010154158015612d6957506001600160a01b0382166000908152600c602052604090205460ff1615156001145b80156117be5750816001600160a01b031663173b99046040518163ffffffff1660e01b815260040160206040518083038186803b158015612da957600080fd5b505afa158015612dbd573d6000803e3d6000fd5b505050506040513d6020811015612dd357600080fd5b5051670de0b6b3a76400001492915050565b60075481565b60176020526000908152604090205481565b73c00e94cb662c3520282e6f5717214004a7f2688890565b600080546001600160a01b03163314612e34576117996001601261469f565b6001600160a01b03821660009081526009602052604090205460ff1615612e6157611799600a601161469f565b816001600160a01b031663fe9c44ae6040518163ffffffff1660e01b815260040160206040518083038186803b158015612e9a57600080fd5b505afa158015612eae573d6000803e3d6000fd5b505050506040513d6020811015612ec457600080fd5b5050604080516060810182526001808252600060208381018281528486018381526001600160a01b03891684526009909252949091209251835490151560ff19918216178455935191830191909155516003909101805491151591909216179055612f2e826155ce565b604080516001600160a01b038416815290517fcf583bb0c569eb967f806b11601c4cb93c10310485c67add5f8362c2f212321f9181900360200190a160006117be565b6ec097ce7bc90715b34b9f100000000081565b600e5481565b60608060086000846001600160a01b03166001600160a01b0316815260200190815260200160002080548060200260200160405190810160405280929190818152602001828054801561300657602002820191906000526020600020905b81546001600160a01b03168152600190910190602001808311612fe8575b5093979650505050505050565b600a54600160b81b900460ff1681565b6060600d80548060200260200160405190810160405280929190818152602001828054801561307b57602002820191906000526020600020905b81546001600160a01b0316815260019091019060200180831161305d575b5050505050905090565b601260209081526000928352604080842090915290825290205481565b6002546001600160a01b031681565b600a54600090600160b01b900460ff1615613108576040805162461bcd60e51b81526020600482015260126024820152711d1c985b9cd9995c881a5cc81c185d5cd95960721b604482015290519081900360640190fd5b60006131158686856156ac565b9050801561163c579050611642565b60186020526000908152604090205481565b606060008251905060608160405190808252806020026020018201604052801561316a578160200160208202803883390190505b50905060005b828110156131c557600085828151811061318657fe5b6020026020010151905061319a8133615774565b60118111156131a557fe5b8383815181106131b157fe5b602090810291909101015250600101613170565b509392505050565b600480546040805163fc57d4df60e01b81526001600160a01b038781169482019490945290516000938493849391169163fc57d4df91602480820192602092909190829003018186803b15801561322357600080fd5b505afa158015613237573d6000803e3d6000fd5b505050506040513d602081101561324d57600080fd5b5051600480546040805163fc57d4df60e01b81526001600160a01b038a8116948201949094529051939450600093929091169163fc57d4df91602480820192602092909190829003018186803b1580156132a657600080fd5b505afa1580156132ba573d6000803e3d6000fd5b505050506040513d60208110156132d057600080fd5b505190508115806132df575080155b156132eb57600d611dd4565b6000866001600160a01b031663182df0f56040518163ffffffff1660e01b815260040160206040518083038186803b15801561332657600080fd5b505afa15801561333a573d6000803e3d6000fd5b505050506040513d602081101561335057600080fd5b50519050600061335e615c97565b613366615c97565b61336e615c97565b613396604051806020016040528060065481525060405180602001604052808a815250614705565b92506133be604051806020016040528088815250604051806020016040528088815250614705565b91506133ca8383614744565b90506133d6818b615099565b60009d909c509a5050505050505050505050565b601a546000906001600160a01b0316156134355760405162461bcd60e51b8152600401808060200182810382526022815260200180615da06022913960400191505060405180910390fd5b6001600160a01b03841661347a5760405162461bcd60e51b815260040180806020018281038252602d815260200180615e11602d913960400191505060405180910390fd5b6000546001600160a01b0316331461349857611fb86001601261469f565b6001600160a01b03841660009081526009602052604090205460ff16156134c557611fb8600a601161469f565b836001600160a01b031663aa80b6cc6040518163ffffffff1660e01b815260040160206040518083038186803b1580156134fe57600080fd5b505afa158015613512573d6000803e3d6000fd5b505050506040513d602081101561352857600080fd5b5050601a80546001600160a01b038087166001600160a01b03199283168117909355601980549187169190921617905560408051606081018252600180825260208281018781526000848601818152968152600983528581209451855490151560ff1991821617865591519385019390935594516003909301805493151593861693909317909255600c90915220805490911690559392505050565b601360209081526000928352604080842090915290825290205481565b60146020526000908152604090205481565b600a54600090600160b81b900460ff1615613647576040805162461bcd60e51b815260206004820152600f60248201526e1cd95a5e99481a5cc81c185d5cd959608a1b604482015290519081900360640190fd5b6001600160a01b03861660009081526009602052604090205460ff16158061368857506001600160a01b03851660009081526009602052604090205460ff16155b1561369457600961234e565b846001600160a01b0316635fe3b5676040518163ffffffff1660e01b815260040160206040518083038186803b1580156136cd57600080fd5b505afa1580156136e1573d6000803e3d6000fd5b505050506040513d60208110156136f757600080fd5b505160408051635fe3b56760e01b815290516001600160a01b0392831692891691635fe3b567916004808301926020929190829003018186803b15801561373d57600080fd5b505afa158015613751573d6000803e3d6000fd5b505050506040513d602081101561376757600080fd5b50516001600160a01b03161461377e57600261234e565b60009695505050505050565b6001600160a01b0383166000908152600c602052604081205460ff16156137eb576040805162461bcd60e51b815260206004820152601060248201526f189bdc9c9bddc81a5cc81c185d5cd95960821b604482015290519081900360640190fd5b6001600160a01b03841660009081526009602052604090205460ff16613812576009611fb8565b6001600160a01b038085166000908152600960209081526040808320938716835260029093019052205460ff1661390257336001600160a01b03851614613898576040805162461bcd60e51b815260206004820152601560248201527439b2b73232b91036bab9ba1031329031aa37b5b2b760591b604482015290519081900360640190fd5b60006138a43385615774565b905060008160118111156138b457fe5b146138cd578060118111156138c557fe5b9150506119a2565b6001600160a01b038086166000908152600960209081526040808320938816835260029093019052205460ff1661390057fe5b505b600480546040805163fc57d4df60e01b81526001600160a01b03888116948201949094529051929091169163fc57d4df91602480820192602092909190829003018186803b15801561395357600080fd5b505afa158015613967573d6000803e3d6000fd5b505050506040513d602081101561397d57600080fd5b505161398a57600d611fb8565b6001600160a01b0384166000908152601660205260409020548015613a77576000856001600160a01b03166347bd37186040518163ffffffff1660e01b815260040160206040518083038186803b1580156139e457600080fd5b505afa1580156139f8573d6000803e3d6000fd5b505050506040513d6020811015613a0e57600080fd5b505190506000613a1e8286615591565b9050828110613a74576040805162461bcd60e51b815260206004820152601960248201527f6d61726b657420626f72726f7720636170207265616368656400000000000000604482015290519081900360640190fd5b50505b600080613a878688600088614b0f565b91935090915060009050826011811115613a9d57fe5b14613ab857816011811115613aae57fe5b93505050506119a2565b8015613ac5576004613aae565b613acd615c97565b6040518060200160405280896001600160a01b031663aa5af0fd6040518163ffffffff1660e01b815260040160206040518083038186803b158015613b1157600080fd5b505afa158015613b25573d6000803e3d6000fd5b505050506040513d6020811015613b3b57600080fd5b505190529050613b4b888261411c565b613b568888836143a5565b600098975050505050505050565b60086020528160005260406000208181548110613b7d57fe5b6000918252602090912001546001600160a01b03169150829050565b6003546001600160a01b031681565b600080546001600160a01b03163314613bce57613bc76001600661469f565b905061138c565b6001600160a01b0383166000908152600960205260409020805460ff16613c0357613bfb6009600761469f565b91505061138c565b613c0b615c97565b506040805160208101909152838152613c22615c97565b506040805160208101909152670c7d713b49da00008152613c4381836155c7565b15613c5e57613c546006600861469f565b935050505061138c565b8415801590613ce75750600480546040805163fc57d4df60e01b81526001600160a01b038a8116948201949094529051929091169163fc57d4df91602480820192602092909190829003018186803b158015613cb957600080fd5b505afa158015613ccd573d6000803e3d6000fd5b505050506040513d6020811015613ce357600080fd5b5051155b15613cf857613c54600d600961469f565b60018301805490869055604080516001600160a01b03891681526020810183905280820188905290517f70483e6592cd5182d45ac970e05bc62cdcc90e9d8ef2c2dbe686cf383bcd7fc59181900360600190a16000979650505050505050565b600a54600160a81b900460ff1681565b60055481565b61155f81600d805480602002602001604051908101604052809291908181526020018280548015613dc857602002820191906000526020600020905b81546001600160a01b03168152600190910190602001808311613daa575b50505050506113a1565b600080613de08585856156ac565b90508015613def5790506119a2565b600095945050505050565b6000808290506000806000836001600160a01b031663c37f68e2336040518263ffffffff1660e01b815260040180826001600160a01b03166001600160a01b0316815260200191505060806040518083038186803b158015613e5b57600080fd5b505afa158015613e6f573d6000803e3d6000fd5b505050506040513d6080811015613e8557600080fd5b508051602082015160409092015190945090925090508215613ed85760405162461bcd60e51b8152600401808060200182810382526025815260200180615ebb6025913960400191505060405180910390fd5b8015613ef557613eea600c600261469f565b9450505050506117c1565b6000613f028733856156ac565b90508015613f2357613f17600e60038361586a565b955050505050506117c1565b6001600160a01b0385166000908152600960209081526040808320338452600281019092529091205460ff16613f6257600096505050505050506117c1565b3360009081526002820160209081526040808320805460ff191690556008825291829020805483518184028101840190945280845260609392830182828015613fd457602002820191906000526020600020905b81546001600160a01b03168152600190910190602001808311613fb6575b5050835193945083925060009150505b8281101561402957896001600160a01b031684828151811061400257fe5b60200260200101516001600160a01b0316141561402157809150614029565b600101613fe4565b5081811061403357fe5b33600090815260086020526040902080548190600019810190811061405457fe5b9060005260206000200160009054906101000a90046001600160a01b031681838154811061407e57fe5b600091825260209091200180546001600160a01b0319166001600160a01b039290921691909117905580546140b7826000198301615caa565b50604080516001600160a01b038c16815233602082015281517fe699a64c18b07ac5b7301aa273f36a2287239eb9501d81950672794afba29a0d929181900390910190a160009c9b505050505050505050505050565b6000546001600160a01b031681565b6001600160a01b0382166000908152601160209081526040808320600f9092528220549091614149611e78565b8354909150600090614169908390600160e01b900463ffffffff16615515565b905060008111801561417b5750600083115b1561434a5760006141f0876001600160a01b03166347bd37186040518163ffffffff1660e01b815260040160206040518083038186803b1580156141be57600080fd5b505afa1580156141d2573d6000803e3d6000fd5b505050506040513d60208110156141e857600080fd5b5051876158d0565b905060006141fe838661554f565b9050614208615c97565b60008311614225576040518060200160405280600081525061422f565b61422f82846158ee565b9050614239615c97565b604080516020810190915288546001600160e01b0316815261425b9083615923565b905060405180604001604052806142ab83600001516040518060400160405280601a81526020017f6e657720696e6465782065786365656473203232342062697473000000000000815250615948565b6001600160e01b031681526020016142e6886040518060400160405280601c8152602001600080516020615ee08339815191528152506159e2565b63ffffffff9081169091526001600160a01b038c166000908152601160209081526040909120835181549490920151909216600160e01b026001600160e01b039182166001600160e01b031990941693909317169190911790555061439d92505050565b801561439d5761437d826040518060400160405280601c8152602001600080516020615ee08339815191528152506159e2565b845463ffffffff91909116600160e01b026001600160e01b039091161784555b505050505050565b6001600160a01b03831660009081526011602052604090206143c5615c97565b50604080516020810190915281546001600160e01b031681526143e6615c97565b5060408051602080820183526001600160a01b038089166000908152601383528481209189168082528284529481208054855286519590915291529190915580511561439d57614434615c97565b61443e8383615a37565b9050600061449b886001600160a01b03166395dd9193896040518263ffffffff1660e01b815260040180826001600160a01b03166001600160a01b0316815260200191505060206040518083038186803b1580156141be57600080fd5b905060006144a98284615a5c565b6001600160a01b038916600090815260146020526040812054919250906144d09083615591565b6001600160a01b03808b166000818152601460209081526040918290208590558a5182518881529182015281519495509193928e16927f1fc3ecc087d8d2d15e23d0032af5a47059c3892d003d8e139fdcb6bb327c99a69281900390910190a350505050505050505050565b600080546001600160a01b031633148061456057506002546001600160a01b031633145b905090565b600080614570612dfd565b604080516370a0823160e01b815230600482015290519192506000916001600160a01b038416916370a08231916024808301926020929190829003018186803b1580156145bc57600080fd5b505afa1580156145d0573d6000803e3d6000fd5b505050506040513d60208110156145e657600080fd5b5051905083158015906145f95750808411155b1561469657816001600160a01b031663a9059cbb86866040518363ffffffff1660e01b815260040180836001600160a01b03166001600160a01b0316815260200182815260200192505050602060405180830381600087803b15801561465e57600080fd5b505af1158015614672573d6000803e3d6000fd5b505050506040513d602081101561468857600080fd5b506000935061138c92505050565b50919392505050565b60007f45b96fe442630264581b197e84bbada861235052c5a1aadfff9ea4e40a969aa08360118111156146ce57fe5b8360138111156146da57fe5b604080519283526020830191909152600082820152519081900360600190a18260118111156119a257fe5b61470d615c97565b6040518060200160405280670de0b6b3a76400006147338660000151866000015161554f565b8161473a57fe5b0490529392505050565b61474c615c97565b60405180602001604052806147776147708660000151670de0b6b3a764000061554f565b8551615a8b565b90529392505050565b51670de0b6b3a7640000900490565b6001600160a01b0382166000908152600f60205260409020548015614843576147b6615c97565b6040518060200160405280856001600160a01b031663aa5af0fd6040518163ffffffff1660e01b815260040160206040518083038186803b1580156147fa57600080fd5b505afa15801561480e573d6000803e3d6000fd5b505050506040513d602081101561482457600080fd5b505190529050614833846150b8565b61483d848261411c565b50614ab3565b8115614ab3576001600160a01b0383166000908152600960205260409020805460ff1615156001146148bc576040805162461bcd60e51b815260206004820152601960248201527f636f6d70206d61726b6574206973206e6f74206c697374656400000000000000604482015290519081900360640190fd5b6001600160a01b0384166000908152601060205260409020546001600160e01b031615801561490e57506001600160a01b038416600090815260106020526040902054600160e01b900463ffffffff16155b156149cb5760405180604001604052806ec097ce7bc90715b34b9f10000000006001600160e01b03168152602001614970614947611e78565b6040518060400160405280601c8152602001600080516020615ee08339815191528152506159e2565b63ffffffff9081169091526001600160a01b0386166000908152601060209081526040909120835181549490920151909216600160e01b026001600160e01b039182166001600160e01b031990941693909317169190911790555b6001600160a01b0384166000908152601160205260409020546001600160e01b0316158015614a1d57506001600160a01b038416600090815260116020526040902054600160e01b900463ffffffff16155b15614ab15760405180604001604052806ec097ce7bc90715b34b9f10000000006001600160e01b03168152602001614a56614947611e78565b63ffffffff9081169091526001600160a01b0386166000908152601160209081526040909120835181549490920151909216600160e01b026001600160e01b039182166001600160e01b031990941693909317169190911790555b505b8181146113fe576001600160a01b0383166000818152600f6020908152604091829020859055815185815291517f2ab93f65628379309f36cb125e90d7c902454a545c4f8b8cb0794af75c24b8079281900390910190a2505050565b6000806000614b1c615cce565b6001600160a01b03881660009081526008602090815260408083208054825181850281018501909352808352606093830182828015614b8457602002820191906000526020600020905b81546001600160a01b03168152600190910190602001808311614b66575b50939450600093505050505b8151811015614e0a576000828281518110614ba757fe5b60200260200101519050806001600160a01b031663c37f68e28d6040518263ffffffff1660e01b815260040180826001600160a01b03166001600160a01b0316815260200191505060806040518083038186803b158015614c0757600080fd5b505afa158015614c1b573d6000803e3d6000fd5b505050506040513d6080811015614c3157600080fd5b508051602082015160408084015160609485015160808b0152938901939093529187019190915293508315614c765750600f965060009550859450611f2c9350505050565b60408051602080820183526001600160a01b0380851660008181526009845285902060010154845260e08a01939093528351808301855260808a015181526101208a015260048054855163fc57d4df60e01b815291820194909452935192169263fc57d4df9260248083019392829003018186803b158015614cf757600080fd5b505afa158015614d0b573d6000803e3d6000fd5b505050506040513d6020811015614d2157600080fd5b505160a08601819052614d445750600d965060009550859450611f2c9350505050565b604080516020810190915260a0860151815261014086015260e0850151610120860151614d7f91614d7491614705565b866101400151614705565b610180860181905260408601518651614d99929190615abe565b855261014085015160608601516020870151614db6929190615abe565b60208601526001600160a01b03818116908c161415614e0157614de38561018001518b8760200151615abe565b60208601819052610140860151614dfb918b90615abe565b60208601525b50600101614b90565b50601a5460408051630dd59a7360e31b81526001600160a01b038d8116600483015291516000939290921691636eacd39891602480820192602092909190829003018186803b158015614e5c57600080fd5b505afa158015614e70573d6000803e3d6000fd5b505050506040513d6020811015614e8657600080fd5b50519050801561503557601954601a546040805163fc57d4df60e01b81526001600160a01b0392831660048201529051919092169163fc57d4df916024808301926020929190829003018186803b158015614ee057600080fd5b505afa158015614ef4573d6000803e3d6000fd5b505050506040513d6020811015614f0a57600080fd5b505160c08501819052614f2c5750600d955060009450849350611f2c92505050565b604080516020808201835260c08701518252610160870191825282518082018452601a546001600160a01b031660008181526009808552958120600101548084526101008b019390935293519352929052614f9491614f8b9190615ae6565b85518390615abe565b8452601a546001600160a01b038b811691161415615035578715614ff3576040805162461bcd60e51b815260206004820152601160248201527018d85b9b9bdd08189bdc9c9bddc8139195607a1b604482015290519081900360640190fd5b610160840151601a546001600160a01b031660009081526009602052604090206001015461502f9161502491615ae6565b8a8660200151615abe565b60208501525b60208401518451111561505b575050506020810151905160009450039150829050611f2c565b5050815160209092015160009550859450919091039150611f2c9050565b600080600061508c846000806000614b0f565b9250925092509193909250565b60006150a3615c97565b6150ad8484615ae6565b905061164281614780565b6001600160a01b0381166000908152601060209081526040808320600f90925282205490916150e5611e78565b8354909150600090615105908390600160e01b900463ffffffff16615515565b90506000811180156151175750600083115b156152dd576000856001600160a01b03166318160ddd6040518163ffffffff1660e01b815260040160206040518083038186803b15801561515757600080fd5b505afa15801561516b573d6000803e3d6000fd5b505050506040513d602081101561518157600080fd5b505190506000615191838661554f565b905061519b615c97565b600083116151b857604051806020016040528060008152506151c2565b6151c282846158ee565b90506151cc615c97565b604080516020810190915288546001600160e01b031681526151ee9083615923565b9050604051806040016040528061523e83600001516040518060400160405280601a81526020017f6e657720696e6465782065786365656473203232342062697473000000000000815250615948565b6001600160e01b03168152602001615279886040518060400160405280601c8152602001600080516020615ee08339815191528152506159e2565b63ffffffff9081169091526001600160a01b038b166000908152601060209081526040909120835181549490920151909216600160e01b026001600160e01b039182166001600160e01b031990941693909317169190911790555061288f92505050565b801561288f57615310826040518060400160405280601c8152602001600080516020615ee08339815191528152506159e2565b845463ffffffff91909116600160e01b026001600160e01b039091161784555050505050565b6001600160a01b0382166000908152601060205260409020615356615c97565b50604080516020810190915281546001600160e01b03168152615377615c97565b5060408051602080820183526001600160a01b038088166000908152601283528481209188168082528284529481208054855286519590915291529190915580511580156153c55750815115155b156153dd576ec097ce7bc90715b34b9f100000000081525b6153e5615c97565b6153ef8383615a37565b90506000866001600160a01b03166370a08231876040518263ffffffff1660e01b815260040180826001600160a01b03166001600160a01b0316815260200191505060206040518083038186803b15801561544957600080fd5b505afa15801561545d573d6000803e3d6000fd5b505050506040513d602081101561547357600080fd5b5051905060006154838284615a5c565b6001600160a01b038816600090815260146020526040812054919250906154aa9083615591565b6001600160a01b03808a166000818152601460209081526040918290208590558a5182518881529182015281519495509193928d16927f2caecd17d02f56fa897705dcc740da2d237c373f70686f4e0d9bd3bf0400ea7a9281900390910190a3505050505050505050565b60006119a28383604051806040016040528060158152602001747375627472616374696f6e20756e646572666c6f7760581b815250615b07565b60006119a283836040518060400160405280601781526020017f6d756c7469706c69636174696f6e206f766572666c6f77000000000000000000815250615b61565b60006119a28383604051806040016040528060118152602001706164646974696f6e206f766572666c6f7760781b815250615be0565b5190511090565b60005b600d5481101561565957816001600160a01b0316600d82815481106155f257fe5b6000918252602090912001546001600160a01b03161415615651576040805162461bcd60e51b81526020600482015260146024820152731b585c9ad95d08185b1c9958591e48185919195960621b604482015290519081900360640190fd5b6001016155d1565b50600d80546001810182556000919091527fd7b6990105719101dabeb77144f2a3385c8033acd3af97e9423a695e81ad1eb50180546001600160a01b0319166001600160a01b0392909216919091179055565b6001600160a01b03831660009081526009602052604081205460ff166156d3576009611fb8565b601a546001600160a01b0385811691161480159061571b57506001600160a01b038085166000908152600960209081526040808320938716835260029093019052205460ff16155b15615727576000611fb8565b6000806157378587866000614b0f565b9193509091506000905082601181111561574d57fe5b146157675781601181111561575e57fe5b925050506119a2565b801561377e57600461575e565b6001600160a01b0382166000908152600960205260408120805460ff1661579f57600991505061138c565b6001600160a01b038316600090815260028201602052604090205460ff161515600114156157d157600091505061138c565b6001600160a01b0380841660008181526002840160209081526040808320805460ff19166001908117909155600883528184208054918201815584529282902090920180549489166001600160a01b031990951685179055815193845283019190915280517f3ab23ab0d51cccc0c3085aec51f99228625aa1a922b3a8ca89a26b0f2027a1a59281900390910190a15060009392505050565b60007f45b96fe442630264581b197e84bbada861235052c5a1aadfff9ea4e40a969aa084601181111561589957fe5b8460138111156158a557fe5b604080519283526020830191909152818101859052519081900360600190a183601181111561164257fe5b60006119a26158e784670de0b6b3a764000061554f565b8351615a8b565b6158f6615c97565b604051806020016040528061477761591d866ec097ce7bc90715b34b9f100000000061554f565b85615a8b565b61592b615c97565b604051806020016040528061477785600001518560000151615591565b600081600160e01b84106159da5760405162461bcd60e51b81526004018080602001828103825283818151815260200191508051906020019080838360005b8381101561599f578181015183820152602001615987565b50505050905090810190601f1680156159cc5780820380516001836020036101000a031916815260200191505b509250505060405180910390fd5b509192915050565b600081600160201b84106159da5760405162461bcd60e51b815260206004820181815283516024840152835190928392604490910191908501908083836000831561599f578181015183820152602001615987565b615a3f615c97565b604051806020016040528061477785600001518560000151615515565b60006ec097ce7bc90715b34b9f1000000000615a7c84846000015161554f565b81615a8357fe5b049392505050565b60006119a283836040518060400160405280600e81526020016d646976696465206279207a65726f60901b815250615c35565b6000615ac8615c97565b615ad28585615ae6565b90506124b3615ae082614780565b84615591565b615aee615c97565b604051806020016040528061477785600001518561554f565b60008184841115615b595760405162461bcd60e51b815260206004820181815283516024840152835190928392604490910191908501908083836000831561599f578181015183820152602001615987565b505050900390565b6000831580615b6e575082155b15615b7b575060006119a2565b83830283858281615b8857fe5b04148390615bd75760405162461bcd60e51b815260206004820181815283516024840152835190928392604490910191908501908083836000831561599f578181015183820152602001615987565b50949350505050565b60008383018285821015615bd75760405162461bcd60e51b815260206004820181815283516024840152835190928392604490910191908501908083836000831561599f578181015183820152602001615987565b60008183615c845760405162461bcd60e51b815260206004820181815283516024840152835190928392604490910191908501908083836000831561599f578181015183820152602001615987565b50828481615c8e57fe5b04949350505050565b6040518060200160405280600081525090565b8154818355818111156113fe576000838152602090206113fe918101908301615d59565b604051806101a0016040528060008152602001600081526020016000815260200160008152602001600081526020016000815260200160008152602001615d13615c97565b8152602001615d20615c97565b8152602001615d2d615c97565b8152602001615d3a615c97565b8152602001615d47615c97565b8152602001615d54615c97565b905290565b611e7a91905b80821115615d735760008155600101615d5f565b509056fe63616e6e6f742070617573652061206d61726b65742074686174206973206e6f74206c69737465646e667420636f6c6c61746572616c20616c726561647920696e697469616c697a656443616e206e6f74207265706179206d6f7265207468616e2074686520746f74616c20626f72726f776f6e6c7920706175736520677561726469616e20616e642061646d696e2063616e20706175736563616e6e6f7420696e697469616c697a65206e6674206d61726b657420746f20746865203020616464726573736f6e6c792061646d696e2063616e2073657420626f72726f772063617020677561726469616e634e46542069732066726f6d207468652077726f6e6720636f6d7074726f6c6c65726f6e6c792061646d696e206f7220626f72726f772063617020677561726469616e2063616e2073657420626f72726f772063617073657869744d61726b65743a206765744163636f756e74536e617073686f74206661696c6564626c6f636b206e756d62657220657863656564732033322062697473000000006f6e6c7920756e6974726f6c6c65722061646d696e2063616e206368616e676520627261696e73a265627a7a723158209934f9c29593a3840456d4a7965b42552b5de12334812e06df0dad8e88930d2d64736f6c63430005100032",
  "devdoc": {
    "author": "Compound",
    "methods": {
      "_grantComp(address,uint256)": {
        "details": "Note: If there is not enough COMP, we do not perform the transfer all.",
        "params": {
          "amount": "The amount of COMP to (possibly) transfer",
          "recipient": "The address of the recipient to transfer COMP to"
        }
      },
      "_setBorrowCapGuardian(address)": {
        "params": {
          "newBorrowCapGuardian": "The address of the new Borrow Cap Guardian"
        }
      },
      "_setCloseFactor(uint256)": {
        "details": "Admin function to set closeFactor",
        "params": {
          "newCloseFactorMantissa": "New close factor, scaled by 1e18"
        },
        "return": "uint 0=success, otherwise a failure"
      },
      "_setCollateralFactor(address,uint256)": {
        "details": "Admin function to set per-market collateralFactor",
        "params": {
          "cToken": "The market to set the factor on",
          "newCollateralFactorMantissa": "The new collateral factor, scaled by 1e18"
        },
        "return": "uint 0=success, otherwise a failure. (See ErrorReporter for details)"
      },
      "_setCompSpeed(address,uint256)": {
        "params": {
          "cToken": "The market whose COMP speed to update",
          "compSpeed": "New COMP speed for market"
        }
      },
      "_setContributorCompSpeed(address,uint256)": {
        "params": {
          "compSpeed": "New COMP speed for contributor",
          "contributor": "The contributor whose COMP speed to update"
        }
      },
      "_setLiquidationIncentive(uint256)": {
        "details": "Admin function to set liquidationIncentive",
        "params": {
          "newLiquidationIncentiveMantissa": "New liquidationIncentive scaled by 1e18"
        },
        "return": "uint 0=success, otherwise a failure. (See ErrorReporter for details)"
      },
      "_setMarketBorrowCaps(address[],uint256[])": {
        "details": "Admin or borrowCapGuardian function to set the borrow caps. A borrow cap of 0 corresponds to unlimited borrowing.",
        "params": {
          "cTokens": "The addresses of the markets (tokens) to change the borrow caps for",
          "newBorrowCaps": "The new borrow cap values in underlying to be set. A value of 0 corresponds to unlimited borrowing."
        }
      },
      "_setNftCollateralFactor(uint256)": {
        "details": "Admin function to set per-market collateralFactor",
        "params": {
          "newCollateralFactorMantissa": "The new collateral factor, scaled by 1e18"
        },
        "return": "uint 0=success, otherwise a failure. (See ErrorReporter for details)"
      },
      "_setNftPriceOracle(address)": {
        "details": "Admin function to set a new price oracle",
        "return": "uint 0=success, otherwise a failure (see ErrorReporter.sol for details)"
      },
      "_setPauseGuardian(address)": {
        "params": {
          "newPauseGuardian": "The address of the new Pause Guardian"
        },
        "return": "uint 0=success, otherwise a failure. (See enum Error for details)"
      },
      "_setPriceOracle(address)": {
        "details": "Admin function to set a new price oracle",
        "return": "uint 0=success, otherwise a failure (see ErrorReporter.sol for details)"
      },
      "_supportMarket(address)": {
        "details": "Admin function to set isListed and add support for the market",
        "params": {
          "cToken": "The address of the market (token) to list"
        },
        "return": "uint 0=success, otherwise a failure. (See enum Error for details)"
      },
      "borrowAllowed(address,address,uint256)": {
        "params": {
          "borrowAmount": "The amount of underlying the account would borrow",
          "borrower": "The account which would borrow the asset",
          "cToken": "The market to verify the borrow against"
        },
        "return": "0 if the borrow is allowed, otherwise a semi-opaque error code (See ErrorReporter.sol)"
      },
      "checkMembership(address,address)": {
        "params": {
          "account": "The address of the account to check",
          "cToken": "The cToken to check"
        },
        "return": "True if the account is in the asset, otherwise false."
      },
      "claimComp(address)": {
        "params": {
          "holder": "The address to claim COMP for"
        }
      },
      "claimComp(address,address[])": {
        "params": {
          "cTokens": "The list of markets to claim COMP in",
          "holder": "The address to claim COMP for"
        }
      },
      "claimComp(address[],address[],bool,bool)": {
        "params": {
          "borrowers": "Whether or not to claim COMP earned by borrowing",
          "cTokens": "The list of markets to claim COMP in",
          "holders": "The addresses to claim COMP for",
          "suppliers": "Whether or not to claim COMP earned by supplying"
        }
      },
      "enterMarkets(address[])": {
        "params": {
          "cTokens": "The list of addresses of the cToken markets to be enabled"
        },
        "return": "Success indicator for whether each corresponding market was entered"
      },
      "exitMarket(address)": {
        "details": "Sender must not have an outstanding borrow balance in the asset, or be providing necessary collateral for an outstanding borrow.",
        "params": {
          "cTokenAddress": "The address of the asset to be removed"
        },
        "return": "Whether or not the account successfully exited the market"
      },
      "getAccountLiquidity(address)": {
        "return": "(possible error code (semi-opaque), account liquidity in excess of collateral requirements,         account shortfall below collateral requirements)"
      },
      "getAllMarkets()": {
        "details": "The automatic getter may be used to access an individual market.",
        "return": "The list of market addresses"
      },
      "getAssetsIn(address)": {
        "params": {
          "account": "The address of the account to pull assets for"
        },
        "return": "A dynamic list with the assets the account has entered"
      },
      "getCompAddress()": {
        "return": "The address of COMP"
      },
      "getHypotheticalAccountLiquidity(address,address,uint256,uint256)": {
        "params": {
          "account": "The account to determine liquidity for",
          "borrowAmount": "The amount of underlying to hypothetically borrow",
          "cAssetModify": "The market to hypothetically redeem/borrow in",
          "redeemTokens": "The number of tokens to hypothetically redeem"
        },
        "return": "(possible error code (semi-opaque), hypothetical account liquidity in excess of collateral requirements,         hypothetical account shortfall below collateral requirements)"
      },
      "isDeprecated(address)": {
        "details": "All borrows in a deprecated cToken market can be immediately liquidated",
        "params": {
          "cToken": "The market to check if deprecated"
        }
      },
      "liquidateBorrowAllowed(address,address,address,address,uint256)": {
        "params": {
          "borrower": "The address of the borrower",
          "cTokenBorrowed": "Asset which was borrowed by the borrower",
          "cTokenCollateral": "Asset which was used as collateral and will be seized",
          "liquidator": "The address repaying the borrow and seizing the collateral",
          "repayAmount": "The amount of underlying being repaid"
        }
      },
      "liquidateCalculateSeizeNfts(address,address,uint256)": {
        "details": "Used in liquidation (called in cToken.liquidateBorrowFreshNft)",
        "params": {
          "actualRepayAmount": "The amount of cTokenBorrowed underlying to convert into NFTs",
          "cTokenBorrowed": "The address of the borrowed cToken"
        },
        "return": "(errorCode, number of cNft tokens to be seized in a liquidation)"
      },
      "liquidateCalculateSeizeTokens(address,address,uint256)": {
        "details": "Used in liquidation (called in cToken.liquidateBorrowFresh)",
        "params": {
          "actualRepayAmount": "The amount of cTokenBorrowed underlying to convert into cTokenCollateral tokens",
          "cTokenBorrowed": "The address of the borrowed cToken",
          "cTokenCollateral": "The address of the collateral cToken"
        },
        "return": "(errorCode, number of cTokenCollateral tokens to be seized in a liquidation)"
      },
      "mintAllowed(address,address,uint256)": {
        "params": {
          "cAsset": "The market to verify the mint against",
          "mintAmount": "The amount of underlying being supplied to the market in exchange for tokens",
          "minter": "The account which would get the minted tokens"
        },
        "return": "0 if the mint is allowed, otherwise a semi-opaque error code (See ErrorReporter.sol)"
      },
      "redeemAllowed(address,address,uint256)": {
        "params": {
          "cAsset": "The market to verify the redeem against",
          "redeemTokens": "The number of cTokens to exchange for the underlying asset in the market",
          "redeemer": "The account which would redeem the tokens"
        },
        "return": "0 if the redeem is allowed, otherwise a semi-opaque error code (See ErrorReporter.sol)"
      },
      "redeemVerify(address,address,uint256,uint256)": {
        "params": {
          "cToken": "Asset being redeemed",
          "redeemAmount": "The amount of the underlying asset being redeemed",
          "redeemTokens": "The number of tokens being redeemed",
          "redeemer": "The address redeeming the tokens"
        }
      },
      "repayBorrowAllowed(address,address,address,uint256)": {
        "params": {
          "borrower": "The account which would borrowed the asset",
          "cToken": "The market to verify the repay against",
          "payer": "The account which would repay the asset",
          "repayAmount": "The amount of the underlying asset the account would repay"
        },
        "return": "0 if the repay is allowed, otherwise a semi-opaque error code (See ErrorReporter.sol)"
      },
      "seizeAllowed(address,address,address,address,uint256)": {
        "params": {
          "borrower": "The address of the borrower",
          "cTokenBorrowed": "Asset which was borrowed by the borrower",
          "cTokenCollateral": "Asset which was used as collateral and will be seized",
          "liquidator": "The address repaying the borrow and seizing the collateral",
          "seizeTokens": "The number of collateral tokens to seize"
        }
      },
      "transferAllowed(address,address,address,uint256)": {
        "params": {
          "cAsset": "The market to verify the transfer against",
          "dst": "The account which receives the tokens",
          "src": "The account which sources the tokens",
          "transferTokens": "The number of cTokens to transfer"
        },
        "return": "0 if the transfer is allowed, otherwise a semi-opaque error code (See ErrorReporter.sol)"
      },
      "updateContributorRewards(address)": {
        "params": {
          "contributor": "The address to calculate contributor rewards for"
        }
      }
    },
    "title": "Compound's Comptroller Contract"
  },
  "userdoc": {
    "methods": {
      "_grantComp(address,uint256)": {
        "notice": "Transfer COMP to the recipient"
      },
      "_initializeNftCollateral(address,address,uint256)": {
        "notice": "This function should only be called once on initialization."
      },
      "_setBorrowCapGuardian(address)": {
        "notice": "Admin function to change the Borrow Cap Guardian"
      },
      "_setCloseFactor(uint256)": {
        "notice": "Sets the closeFactor used when liquidating borrows"
      },
      "_setCollateralFactor(address,uint256)": {
        "notice": "Sets the collateralFactor for a market"
      },
      "_setCompSpeed(address,uint256)": {
        "notice": "Set COMP speed for a single market"
      },
      "_setContributorCompSpeed(address,uint256)": {
        "notice": "Set COMP speed for a single contributor"
      },
      "_setLiquidationIncentive(uint256)": {
        "notice": "Sets liquidationIncentive"
      },
      "_setMarketBorrowCaps(address[],uint256[])": {
        "notice": "Set the given borrow caps for the given cToken markets. Borrowing that brings total borrows to or above borrow cap will revert."
      },
      "_setNftCollateralFactor(uint256)": {
        "notice": "Sets the collateralFactor for the NFT"
      },
      "_setNftPriceOracle(address)": {
        "notice": "Sets a new price oracle for the comptroller"
      },
      "_setPauseGuardian(address)": {
        "notice": "Admin function to change the Pause Guardian"
      },
      "_setPriceOracle(address)": {
        "notice": "Sets a new price oracle for the comptroller"
      },
      "_supportMarket(address)": {
        "notice": "Add the market to the markets mapping and set it as listed"
      },
      "borrowAllowed(address,address,uint256)": {
        "notice": "Checks if the account should be allowed to borrow the underlying asset of the given market"
      },
      "checkMembership(address,address)": {
        "notice": "Returns whether the given account is entered in the given asset"
      },
      "claimComp(address)": {
        "notice": "Claim all the comp accrued by holder in all markets"
      },
      "claimComp(address,address[])": {
        "notice": "Claim all the comp accrued by holder in the specified markets"
      },
      "claimComp(address[],address[],bool,bool)": {
        "notice": "Claim all comp accrued by the holders"
      },
      "enterMarkets(address[])": {
        "notice": "Add assets to be included in account liquidity calculation"
      },
      "exitMarket(address)": {
        "notice": "Removes asset from sender's account liquidity calculation"
      },
      "getAccountLiquidity(address)": {
        "notice": "Determine the current account liquidity wrt collateral requirements"
      },
      "getAllMarkets()": {
        "notice": "Return all of the markets"
      },
      "getAssetsIn(address)": {
        "notice": "Returns the assets an account has entered"
      },
      "getCompAddress()": {
        "notice": "Return the address of the COMP token"
      },
      "getHypotheticalAccountLiquidity(address,address,uint256,uint256)": {
        "notice": "Determine what the account liquidity would be if the given amounts were redeemed/borrowed"
      },
      "isDeprecated(address)": {
        "notice": "Returns true if the given cToken market has been deprecated"
      },
      "liquidateBorrowAllowed(address,address,address,address,uint256)": {
        "notice": "Checks if the liquidation should be allowed to occur"
      },
      "liquidateCalculateSeizeNfts(address,address,uint256)": {
        "notice": "Calculate number of cNFT tokens to seize given an underlying amount"
      },
      "liquidateCalculateSeizeTokens(address,address,uint256)": {
        "notice": "Calculate number of tokens of collateral asset to seize given an underlying amount"
      },
      "mintAllowed(address,address,uint256)": {
        "notice": "Checks if the account should be allowed to mint tokens in the given market"
      },
      "redeemAllowed(address,address,uint256)": {
        "notice": "Checks if the account should be allowed to redeem tokens in the given market"
      },
      "redeemVerify(address,address,uint256,uint256)": {
        "notice": "Validates redeem and reverts on rejection. May emit logs."
      },
      "repayBorrowAllowed(address,address,address,uint256)": {
        "notice": "Checks if the account should be allowed to repay a borrow in the given market"
      },
      "seizeAllowed(address,address,address,address,uint256)": {
        "notice": "Checks if the seizing of assets should be allowed to occur"
      },
      "transferAllowed(address,address,address,uint256)": {
        "notice": "Checks if the account should be allowed to transfer tokens in the given market"
      },
      "updateContributorRewards(address)": {
        "notice": "Calculate additional accrued COMP for a contributor since last accrual"
      }
    }
  },
  "storageLayout": {
    "storage": [
      {
        "astId": 34887,
        "contract": "contracts/Comptroller.sol:Comptroller",
        "label": "admin",
        "offset": 0,
        "slot": "0",
        "type": "t_address"
      },
      {
        "astId": 34889,
        "contract": "contracts/Comptroller.sol:Comptroller",
        "label": "pendingAdmin",
        "offset": 0,
        "slot": "1",
        "type": "t_address"
      },
      {
        "astId": 34891,
        "contract": "contracts/Comptroller.sol:Comptroller",
        "label": "comptrollerImplementation",
        "offset": 0,
        "slot": "2",
        "type": "t_address"
      },
      {
        "astId": 34893,
        "contract": "contracts/Comptroller.sol:Comptroller",
        "label": "pendingComptrollerImplementation",
        "offset": 0,
        "slot": "3",
        "type": "t_address"
      },
      {
        "astId": 34898,
        "contract": "contracts/Comptroller.sol:Comptroller",
        "label": "oracle",
        "offset": 0,
        "slot": "4",
        "type": "t_contract(PriceOracle)41100"
      },
      {
        "astId": 34900,
        "contract": "contracts/Comptroller.sol:Comptroller",
        "label": "closeFactorMantissa",
        "offset": 0,
        "slot": "5",
        "type": "t_uint256"
      },
      {
        "astId": 34902,
        "contract": "contracts/Comptroller.sol:Comptroller",
        "label": "liquidationIncentiveMantissa",
        "offset": 0,
        "slot": "6",
        "type": "t_uint256"
      },
      {
        "astId": 34904,
        "contract": "contracts/Comptroller.sol:Comptroller",
        "label": "maxAssets",
        "offset": 0,
        "slot": "7",
        "type": "t_uint256"
      },
      {
        "astId": 34909,
        "contract": "contracts/Comptroller.sol:Comptroller",
        "label": "accountAssets",
        "offset": 0,
        "slot": "8",
        "type": "t_mapping(t_address,t_array(t_contract(CToken)6784)dyn_storage)"
      },
      {
        "astId": 34927,
        "contract": "contracts/Comptroller.sol:Comptroller",
        "label": "markets",
        "offset": 0,
        "slot": "9",
        "type": "t_mapping(t_address,t_struct(Market)34923_storage)"
      },
      {
        "astId": 34929,
        "contract": "contracts/Comptroller.sol:Comptroller",
        "label": "pauseGuardian",
        "offset": 0,
        "slot": "10",
        "type": "t_address"
      },
      {
        "astId": 34931,
        "contract": "contracts/Comptroller.sol:Comptroller",
        "label": "_mintGuardianPaused",
        "offset": 20,
        "slot": "10",
        "type": "t_bool"
      },
      {
        "astId": 34933,
        "contract": "contracts/Comptroller.sol:Comptroller",
        "label": "_borrowGuardianPaused",
        "offset": 21,
        "slot": "10",
        "type": "t_bool"
      },
      {
        "astId": 34935,
        "contract": "contracts/Comptroller.sol:Comptroller",
        "label": "transferGuardianPaused",
        "offset": 22,
        "slot": "10",
        "type": "t_bool"
      },
      {
        "astId": 34937,
        "contract": "contracts/Comptroller.sol:Comptroller",
        "label": "seizeGuardianPaused",
        "offset": 23,
        "slot": "10",
        "type": "t_bool"
      },
      {
        "astId": 34941,
        "contract": "contracts/Comptroller.sol:Comptroller",
        "label": "mintGuardianPaused",
        "offset": 0,
        "slot": "11",
        "type": "t_mapping(t_address,t_bool)"
      },
      {
        "astId": 34945,
        "contract": "contracts/Comptroller.sol:Comptroller",
        "label": "borrowGuardianPaused",
        "offset": 0,
        "slot": "12",
        "type": "t_mapping(t_address,t_bool)"
      },
      {
        "astId": 34956,
        "contract": "contracts/Comptroller.sol:Comptroller",
        "label": "allMarkets",
        "offset": 0,
        "slot": "13",
        "type": "t_array(t_contract(CToken)6784)dyn_storage"
      },
      {
        "astId": 34958,
        "contract": "contracts/Comptroller.sol:Comptroller",
        "label": "compRate",
        "offset": 0,
        "slot": "14",
        "type": "t_uint256"
      },
      {
        "astId": 34962,
        "contract": "contracts/Comptroller.sol:Comptroller",
        "label": "compSpeeds",
        "offset": 0,
        "slot": "15",
        "type": "t_mapping(t_address,t_uint256)"
      },
      {
        "astId": 34966,
        "contract": "contracts/Comptroller.sol:Comptroller",
        "label": "compSupplyState",
        "offset": 0,
        "slot": "16",
        "type": "t_mapping(t_address,t_struct(CompMarketState)34953_storage)"
      },
      {
        "astId": 34970,
        "contract": "contracts/Comptroller.sol:Comptroller",
        "label": "compBorrowState",
        "offset": 0,
        "slot": "17",
        "type": "t_mapping(t_address,t_struct(CompMarketState)34953_storage)"
      },
      {
        "astId": 34976,
        "contract": "contracts/Comptroller.sol:Comptroller",
        "label": "compSupplierIndex",
        "offset": 0,
        "slot": "18",
        "type": "t_mapping(t_address,t_mapping(t_address,t_uint256))"
      },
      {
        "astId": 34982,
        "contract": "contracts/Comptroller.sol:Comptroller",
        "label": "compBorrowerIndex",
        "offset": 0,
        "slot": "19",
        "type": "t_mapping(t_address,t_mapping(t_address,t_uint256))"
      },
      {
        "astId": 34986,
        "contract": "contracts/Comptroller.sol:Comptroller",
        "label": "compAccrued",
        "offset": 0,
        "slot": "20",
        "type": "t_mapping(t_address,t_uint256)"
      },
      {
        "astId": 34991,
        "contract": "contracts/Comptroller.sol:Comptroller",
        "label": "borrowCapGuardian",
        "offset": 0,
        "slot": "21",
        "type": "t_address"
      },
      {
        "astId": 34995,
        "contract": "contracts/Comptroller.sol:Comptroller",
        "label": "borrowCaps",
        "offset": 0,
        "slot": "22",
        "type": "t_mapping(t_address,t_uint256)"
      },
      {
        "astId": 35002,
        "contract": "contracts/Comptroller.sol:Comptroller",
        "label": "compContributorSpeeds",
        "offset": 0,
        "slot": "23",
        "type": "t_mapping(t_address,t_uint256)"
      },
      {
        "astId": 35006,
        "contract": "contracts/Comptroller.sol:Comptroller",
        "label": "lastContributorBlock",
        "offset": 0,
        "slot": "24",
        "type": "t_mapping(t_address,t_uint256)"
      },
      {
        "astId": 35011,
        "contract": "contracts/Comptroller.sol:Comptroller",
        "label": "nftOracle",
        "offset": 0,
        "slot": "25",
        "type": "t_contract(NftPriceOracle)41086"
      },
      {
        "astId": 35013,
        "contract": "contracts/Comptroller.sol:Comptroller",
        "label": "nftMarket",
        "offset": 0,
        "slot": "26",
        "type": "t_contract(CNftInterface)2940"
      }
    ],
    "types": {
      "t_address": {
        "encoding": "inplace",
        "label": "address",
        "numberOfBytes": "20"
      },
      "t_array(t_contract(CToken)6784)dyn_storage": {
        "base": "t_contract(CToken)6784",
        "encoding": "dynamic_array",
        "label": "contract CToken[]",
        "numberOfBytes": "32"
      },
      "t_bool": {
        "encoding": "inplace",
        "label": "bool",
        "numberOfBytes": "1"
      },
      "t_contract(CNftInterface)2940": {
        "encoding": "inplace",
        "label": "contract CNftInterface",
        "numberOfBytes": "20"
      },
      "t_contract(CToken)6784": {
        "encoding": "inplace",
        "label": "contract CToken",
        "numberOfBytes": "20"
      },
      "t_contract(NftPriceOracle)41086": {
        "encoding": "inplace",
        "label": "contract NftPriceOracle",
        "numberOfBytes": "20"
      },
      "t_contract(PriceOracle)41100": {
        "encoding": "inplace",
        "label": "contract PriceOracle",
        "numberOfBytes": "20"
      },
      "t_mapping(t_address,t_array(t_contract(CToken)6784)dyn_storage)": {
        "encoding": "mapping",
        "key": "t_address",
        "label": "mapping(address => contract CToken[])",
        "numberOfBytes": "32",
        "value": "t_array(t_contract(CToken)6784)dyn_storage"
      },
      "t_mapping(t_address,t_bool)": {
        "encoding": "mapping",
        "key": "t_address",
        "label": "mapping(address => bool)",
        "numberOfBytes": "32",
        "value": "t_bool"
      },
      "t_mapping(t_address,t_mapping(t_address,t_uint256))": {
        "encoding": "mapping",
        "key": "t_address",
        "label": "mapping(address => mapping(address => uint256))",
        "numberOfBytes": "32",
        "value": "t_mapping(t_address,t_uint256)"
      },
      "t_mapping(t_address,t_struct(CompMarketState)34953_storage)": {
        "encoding": "mapping",
        "key": "t_address",
        "label": "mapping(address => struct ComptrollerV3Storage.CompMarketState)",
        "numberOfBytes": "32",
        "value": "t_struct(CompMarketState)34953_storage"
      },
      "t_mapping(t_address,t_struct(Market)34923_storage)": {
        "encoding": "mapping",
        "key": "t_address",
        "label": "mapping(address => struct ComptrollerV2Storage.Market)",
        "numberOfBytes": "32",
        "value": "t_struct(Market)34923_storage"
      },
      "t_mapping(t_address,t_uint256)": {
        "encoding": "mapping",
        "key": "t_address",
        "label": "mapping(address => uint256)",
        "numberOfBytes": "32",
        "value": "t_uint256"
      },
      "t_struct(CompMarketState)34953_storage": {
        "encoding": "inplace",
        "label": "struct ComptrollerV3Storage.CompMarketState",
        "members": [
          {
            "astId": 34950,
            "contract": "contracts/Comptroller.sol:Comptroller",
            "label": "index",
            "offset": 0,
            "slot": "0",
            "type": "t_uint224"
          },
          {
            "astId": 34952,
            "contract": "contracts/Comptroller.sol:Comptroller",
            "label": "block",
            "offset": 28,
            "slot": "0",
            "type": "t_uint32"
          }
        ],
        "numberOfBytes": "32"
      },
      "t_struct(Market)34923_storage": {
        "encoding": "inplace",
        "label": "struct ComptrollerV2Storage.Market",
        "members": [
          {
            "astId": 34914,
            "contract": "contracts/Comptroller.sol:Comptroller",
            "label": "isListed",
            "offset": 0,
            "slot": "0",
            "type": "t_bool"
          },
          {
            "astId": 34916,
            "contract": "contracts/Comptroller.sol:Comptroller",
            "label": "collateralFactorMantissa",
            "offset": 0,
            "slot": "1",
            "type": "t_uint256"
          },
          {
            "astId": 34920,
            "contract": "contracts/Comptroller.sol:Comptroller",
            "label": "accountMembership",
            "offset": 0,
            "slot": "2",
            "type": "t_mapping(t_address,t_bool)"
          },
          {
            "astId": 34922,
            "contract": "contracts/Comptroller.sol:Comptroller",
            "label": "isComped",
            "offset": 0,
            "slot": "3",
            "type": "t_bool"
          }
        ],
        "numberOfBytes": "128"
      },
      "t_uint224": {
        "encoding": "inplace",
        "label": "uint224",
        "numberOfBytes": "28"
      },
      "t_uint256": {
        "encoding": "inplace",
        "label": "uint256",
        "numberOfBytes": "32"
      },
      "t_uint32": {
        "encoding": "inplace",
        "label": "uint32",
        "numberOfBytes": "4"
      }
    }
  }
}