{
  "address": "0x6C2d83262fF84cBaDb3e416D527403135D757892",
  "abi": [
    {
      "inputs": [
        {
          "internalType": "string",
          "name": "_uri",
          "type": "string"
        },
        {
          "internalType": "address",
          "name": "_underlying",
          "type": "address"
        },
        {
          "internalType": "bool",
          "name": "_isPunk",
          "type": "bool"
        },
        {
          "internalType": "bool",
          "name": "_is1155",
          "type": "bool"
        },
        {
          "internalType": "address",
          "name": "_comptroller",
          "type": "address"
        }
      ],
      "stateMutability": "nonpayable",
      "type": "constructor"
    },
    {
      "anonymous": false,
      "inputs": [
        {
          "indexed": true,
          "internalType": "address",
          "name": "account",
          "type": "address"
        },
        {
          "indexed": true,
          "internalType": "address",
          "name": "operator",
          "type": "address"
        },
        {
          "indexed": false,
          "internalType": "bool",
          "name": "approved",
          "type": "bool"
        }
      ],
      "name": "ApprovalForAll",
      "type": "event"
    },
    {
      "anonymous": false,
      "inputs": [
        {
          "indexed": false,
          "internalType": "address",
          "name": "minter",
          "type": "address"
        },
        {
          "indexed": false,
          "internalType": "uint256[]",
          "name": "mintIds",
          "type": "uint256[]"
        },
        {
          "indexed": false,
          "internalType": "uint256[]",
          "name": "mintAmounts",
          "type": "uint256[]"
        }
      ],
      "name": "Mint",
      "type": "event"
    },
    {
      "anonymous": false,
      "inputs": [
        {
          "indexed": false,
          "internalType": "address",
          "name": "redeemer",
          "type": "address"
        },
        {
          "indexed": false,
          "internalType": "uint256[]",
          "name": "redeemIds",
          "type": "uint256[]"
        },
        {
          "indexed": false,
          "internalType": "uint256[]",
          "name": "redeemAmounts",
          "type": "uint256[]"
        }
      ],
      "name": "Redeem",
      "type": "event"
    },
    {
      "anonymous": false,
      "inputs": [
        {
          "indexed": true,
          "internalType": "address",
          "name": "operator",
          "type": "address"
        },
        {
          "indexed": true,
          "internalType": "address",
          "name": "from",
          "type": "address"
        },
        {
          "indexed": true,
          "internalType": "address",
          "name": "to",
          "type": "address"
        },
        {
          "indexed": false,
          "internalType": "uint256[]",
          "name": "ids",
          "type": "uint256[]"
        },
        {
          "indexed": false,
          "internalType": "uint256[]",
          "name": "values",
          "type": "uint256[]"
        }
      ],
      "name": "TransferBatch",
      "type": "event"
    },
    {
      "anonymous": false,
      "inputs": [
        {
          "indexed": true,
          "internalType": "address",
          "name": "operator",
          "type": "address"
        },
        {
          "indexed": true,
          "internalType": "address",
          "name": "from",
          "type": "address"
        },
        {
          "indexed": true,
          "internalType": "address",
          "name": "to",
          "type": "address"
        },
        {
          "indexed": false,
          "internalType": "uint256",
          "name": "id",
          "type": "uint256"
        },
        {
          "indexed": false,
          "internalType": "uint256",
          "name": "value",
          "type": "uint256"
        }
      ],
      "name": "TransferSingle",
      "type": "event"
    },
    {
      "anonymous": false,
      "inputs": [
        {
          "indexed": false,
          "internalType": "string",
          "name": "value",
          "type": "string"
        },
        {
          "indexed": true,
          "internalType": "uint256",
          "name": "id",
          "type": "uint256"
        }
      ],
      "name": "URI",
      "type": "event"
    },
    {
      "inputs": [
        {
          "internalType": "address",
          "name": "account",
          "type": "address"
        },
        {
          "internalType": "uint256",
          "name": "id",
          "type": "uint256"
        }
      ],
      "name": "balanceOf",
      "outputs": [
        {
          "internalType": "uint256",
          "name": "",
          "type": "uint256"
        }
      ],
      "stateMutability": "view",
      "type": "function"
    },
    {
      "inputs": [
        {
          "internalType": "address[]",
          "name": "accounts",
          "type": "address[]"
        },
        {
          "internalType": "uint256[]",
          "name": "ids",
          "type": "uint256[]"
        }
      ],
      "name": "balanceOfBatch",
      "outputs": [
        {
          "internalType": "uint256[]",
          "name": "",
          "type": "uint256[]"
        }
      ],
      "stateMutability": "view",
      "type": "function"
    },
    {
      "inputs": [],
      "name": "comptroller",
      "outputs": [
        {
          "internalType": "address",
          "name": "",
          "type": "address"
        }
      ],
      "stateMutability": "view",
      "type": "function"
    },
    {
      "inputs": [],
      "name": "is1155",
      "outputs": [
        {
          "internalType": "bool",
          "name": "",
          "type": "bool"
        }
      ],
      "stateMutability": "view",
      "type": "function"
    },
    {
      "inputs": [
        {
          "internalType": "address",
          "name": "account",
          "type": "address"
        },
        {
          "internalType": "address",
          "name": "operator",
          "type": "address"
        }
      ],
      "name": "isApprovedForAll",
      "outputs": [
        {
          "internalType": "bool",
          "name": "",
          "type": "bool"
        }
      ],
      "stateMutability": "view",
      "type": "function"
    },
    {
      "inputs": [],
      "name": "isCNft",
      "outputs": [
        {
          "internalType": "bool",
          "name": "",
          "type": "bool"
        }
      ],
      "stateMutability": "view",
      "type": "function"
    },
    {
      "inputs": [],
      "name": "isPunk",
      "outputs": [
        {
          "internalType": "bool",
          "name": "",
          "type": "bool"
        }
      ],
      "stateMutability": "view",
      "type": "function"
    },
    {
      "inputs": [
        {
          "internalType": "uint256[]",
          "name": "tokenIds",
          "type": "uint256[]"
        },
        {
          "internalType": "uint256[]",
          "name": "amounts",
          "type": "uint256[]"
        }
      ],
      "name": "mint",
      "outputs": [
        {
          "internalType": "uint256",
          "name": "",
          "type": "uint256"
        }
      ],
      "stateMutability": "nonpayable",
      "type": "function"
    },
    {
      "inputs": [
        {
          "internalType": "address",
          "name": "operator",
          "type": "address"
        },
        {
          "internalType": "address",
          "name": "from",
          "type": "address"
        },
        {
          "internalType": "uint256[]",
          "name": "ids",
          "type": "uint256[]"
        },
        {
          "internalType": "uint256[]",
          "name": "values",
          "type": "uint256[]"
        },
        {
          "internalType": "bytes",
          "name": "data",
          "type": "bytes"
        }
      ],
      "name": "onERC1155BatchReceived",
      "outputs": [
        {
          "internalType": "bytes4",
          "name": "",
          "type": "bytes4"
        }
      ],
      "stateMutability": "nonpayable",
      "type": "function"
    },
    {
      "inputs": [
        {
          "internalType": "address",
          "name": "operator",
          "type": "address"
        },
        {
          "internalType": "address",
          "name": "from",
          "type": "address"
        },
        {
          "internalType": "uint256",
          "name": "id",
          "type": "uint256"
        },
        {
          "internalType": "uint256",
          "name": "value",
          "type": "uint256"
        },
        {
          "internalType": "bytes",
          "name": "data",
          "type": "bytes"
        }
      ],
      "name": "onERC1155Received",
      "outputs": [
        {
          "internalType": "bytes4",
          "name": "",
          "type": "bytes4"
        }
      ],
      "stateMutability": "nonpayable",
      "type": "function"
    },
    {
      "inputs": [
        {
          "internalType": "address",
          "name": "operator",
          "type": "address"
        },
        {
          "internalType": "address",
          "name": "from",
          "type": "address"
        },
        {
          "internalType": "uint256",
          "name": "tokenId",
          "type": "uint256"
        },
        {
          "internalType": "bytes",
          "name": "data",
          "type": "bytes"
        }
      ],
      "name": "onERC721Received",
      "outputs": [
        {
          "internalType": "bytes4",
          "name": "",
          "type": "bytes4"
        }
      ],
      "stateMutability": "nonpayable",
      "type": "function"
    },
    {
      "inputs": [
        {
          "internalType": "uint256[]",
          "name": "tokenIds",
          "type": "uint256[]"
        },
        {
          "internalType": "uint256[]",
          "name": "amounts",
          "type": "uint256[]"
        }
      ],
      "name": "redeem",
      "outputs": [],
      "stateMutability": "nonpayable",
      "type": "function"
    },
    {
      "inputs": [
        {
          "internalType": "address",
          "name": "from",
          "type": "address"
        },
        {
          "internalType": "address",
          "name": "to",
          "type": "address"
        },
        {
          "internalType": "uint256[]",
          "name": "ids",
          "type": "uint256[]"
        },
        {
          "internalType": "uint256[]",
          "name": "amounts",
          "type": "uint256[]"
        },
        {
          "internalType": "bytes",
          "name": "data",
          "type": "bytes"
        }
      ],
      "name": "safeBatchTransferFrom",
      "outputs": [],
      "stateMutability": "nonpayable",
      "type": "function"
    },
    {
      "inputs": [
        {
          "internalType": "address",
          "name": "from",
          "type": "address"
        },
        {
          "internalType": "address",
          "name": "to",
          "type": "address"
        },
        {
          "internalType": "uint256",
          "name": "id",
          "type": "uint256"
        },
        {
          "internalType": "uint256",
          "name": "amount",
          "type": "uint256"
        },
        {
          "internalType": "bytes",
          "name": "data",
          "type": "bytes"
        }
      ],
      "name": "safeTransferFrom",
      "outputs": [],
      "stateMutability": "nonpayable",
      "type": "function"
    },
    {
      "inputs": [
        {
          "internalType": "address",
          "name": "liquidator",
          "type": "address"
        },
        {
          "internalType": "address",
          "name": "borrower",
          "type": "address"
        },
        {
          "internalType": "uint256[]",
          "name": "seizeIds",
          "type": "uint256[]"
        },
        {
          "internalType": "uint256[]",
          "name": "seizeAmounts",
          "type": "uint256[]"
        }
      ],
      "name": "seize",
      "outputs": [],
      "stateMutability": "nonpayable",
      "type": "function"
    },
    {
      "inputs": [
        {
          "internalType": "address",
          "name": "operator",
          "type": "address"
        },
        {
          "internalType": "bool",
          "name": "approved",
          "type": "bool"
        }
      ],
      "name": "setApprovalForAll",
      "outputs": [],
      "stateMutability": "nonpayable",
      "type": "function"
    },
    {
      "inputs": [
        {
          "internalType": "bytes4",
          "name": "interfaceId",
          "type": "bytes4"
        }
      ],
      "name": "supportsInterface",
      "outputs": [
        {
          "internalType": "bool",
          "name": "",
          "type": "bool"
        }
      ],
      "stateMutability": "view",
      "type": "function"
    },
    {
      "inputs": [
        {
          "internalType": "address",
          "name": "",
          "type": "address"
        }
      ],
      "name": "totalBalance",
      "outputs": [
        {
          "internalType": "uint256",
          "name": "",
          "type": "uint256"
        }
      ],
      "stateMutability": "view",
      "type": "function"
    },
    {
      "inputs": [],
      "name": "underlying",
      "outputs": [
        {
          "internalType": "address",
          "name": "",
          "type": "address"
        }
      ],
      "stateMutability": "view",
      "type": "function"
    },
    {
      "inputs": [
        {
          "internalType": "uint256",
          "name": "",
          "type": "uint256"
        }
      ],
      "name": "uri",
      "outputs": [
        {
          "internalType": "string",
          "name": "",
          "type": "string"
        }
      ],
      "stateMutability": "view",
      "type": "function"
    }
  ],
  "transactionHash": "0xd18af0955c747d63bad2ffc2f277433903d5b8580f8b71cd0d80e10d9ed3231d",
  "args": [
    "",
    "0xb47e3cd837dDF8e4c57F05d70Ab865de6e193BBB",
    true,
    false,
    "0x5FeaeBfB4439F3516c74939A9D04e95AFE82C4ae"
  ],
  "numDeployments": 1,
  "solcInputHash": "97c29789bda79cafca26f3fcaeb312fa",
  "bytecode": "0x60806040523480156200001157600080fd5b50604051620030ef380380620030ef8339810160408190526200003491620002e8565b846200004081620001e5565b5060016006556001600160a01b038416620000ae5760405162461bcd60e51b8152602060048201526024808201527f434e46543a2041737365742073686f756c64206e6f74206265206164647265736044820152637328302960e01b60648201526084015b60405180910390fd5b806001600160a01b0316627e3dd26040518163ffffffff1660e01b815260040160206040518083038186803b158015620000e757600080fd5b505afa158015620000fc573d6000803e3d6000fd5b505050506040513d601f19601f8201168201806040525081019062000122919062000411565b620001835760405162461bcd60e51b815260206004820152602a60248201527f5f636f6d7074726f6c6c6572206973206e6f74206120436f6d7074726f6c6c656044820152691c8818dbdb9d1c9858dd60b21b6064820152608401620000a5565b60008054921515600160a81b0260ff60a81b19941515600160a01b026001600160a81b03199094166001600160a01b039687161793909317939093169190911790915560018054919092166001600160a01b0319919091161790555062000473565b8051620001fa906005906020840190620001fe565b5050565b8280546200020c9062000436565b90600052602060002090601f0160209004810192826200023057600085556200027b565b82601f106200024b57805160ff19168380011785556200027b565b828001600101855582156200027b579182015b828111156200027b5782518255916020019190600101906200025e565b50620002899291506200028d565b5090565b5b808211156200028957600081556001016200028e565b634e487b7160e01b600052604160045260246000fd5b80516001600160a01b0381168114620002d257600080fd5b919050565b80518015158114620002d257600080fd5b600080600080600060a086880312156200030157600080fd5b85516001600160401b03808211156200031957600080fd5b818801915088601f8301126200032e57600080fd5b815181811115620003435762000343620002a4565b604051601f8201601f19908116603f011681019083821181831017156200036e576200036e620002a4565b81604052828152602093508b848487010111156200038b57600080fd5b600091505b82821015620003af578482018401518183018501529083019062000390565b82821115620003c15760008484830101525b9850620003d3915050888201620002ba565b95505050620003e560408701620002d7565b9250620003f560608701620002d7565b91506200040560808701620002ba565b90509295509295909350565b6000602082840312156200042457600080fd5b6200042f82620002d7565b9392505050565b600181811c908216806200044b57607f821691505b602082108114156200046d57634e487b7160e01b600052602260045260246000fd5b50919050565b612c6c80620004836000396000f3fe608060405234801561001057600080fd5b506004361061012b5760003560e01c80636a11a3d8116100ad578063aa80b6cc11610071578063aa80b6cc146102cc578063bc197c81146102d4578063e985e9c5146102e7578063f23a6e6114610323578063f242432a1461033657600080fd5b80636a11a3d81461025f5780636eacd398146102735780636f307dc31461029357806393809208146102a6578063a22cb465146102b957600080fd5b80632ca51e22116100f45780632ca51e22146101d95780632eb2c2d6146101ee5780633d5d190c146102015780634e1273f4146102145780635fe3b5671461023457600080fd5b8062fdd58e1461013057806301ffc9a71461015657806306f26dc2146101795780630e89341c1461018d578063150b7a02146101ad575b600080fd5b61014361013e366004612157565b610349565b6040519081526020015b60405180910390f35b610169610164366004612199565b6103e2565b604051901515815260200161014d565b60005461016990600160a81b900460ff1681565b6101a061019b3660046121bd565b610428565b60405161014d9190612232565b6101c06101bb36600461228e565b6104bc565b6040516001600160e01b0319909116815260200161014d565b6101ec6101e7366004612346565b610524565b005b6101ec6101fc3660046123b2565b610a7b565b61014361020f366004612346565b610d17565b610227610222366004612549565b611312565b60405161014d9190612651565b600154610247906001600160a01b031681565b6040516001600160a01b03909116815260200161014d565b60005461016990600160a01b900460ff1681565b610143610281366004612664565b60026020526000908152604090205481565b600054610247906001600160a01b031681565b6101ec6102b4366004612681565b61143c565b6101ec6102c7366004612716565b6116ea565b610169600181565b6101c06102e23660046123b2565b6116f9565b6101696102f5366004612754565b6001600160a01b03918216600090815260046020908152604080832093909416825291909152205460ff1690565b6101c0610331366004612782565b611764565b6101ec610344366004612782565b6117cd565b60006001600160a01b0383166103ba5760405162461bcd60e51b815260206004820152602b60248201527f455243313135353a2062616c616e636520717565727920666f7220746865207a60448201526a65726f206164647265737360a81b60648201526084015b60405180910390fd5b5060009081526003602090815260408083206001600160a01b03949094168352929052205490565b60006001600160e01b03198216630271189760e51b148061041357506001600160e01b03198216630a85bd0160e11b145b80610422575061042282611825565b92915050565b606060058054610437906127ec565b80601f0160208091040260200160405190810160405280929190818152602001828054610463906127ec565b80156104b05780601f10610485576101008083540402835291602001916104b0565b820191906000526020600020905b81548152906001019060200180831161049357829003601f168201915b50505050509050919050565b6000805486906001600160a01b031633146104e95760405162461bcd60e51b81526004016103b190612827565b6001600160a01b03811630146105115760405162461bcd60e51b81526004016103b190612884565b50630a85bd0160e11b9695505050505050565b600260065414156105475760405162461bcd60e51b81526004016103b1906128d3565b6002600655826000805b828110156106185784848281811061056b5761056b61290a565b905060200201358261057d9190612936565b91508484828181106105915761059161290a565b905060200201356105ba338989858181106105ae576105ae61290a565b90506020020135610349565b10156106085760405162461bcd60e51b815260206004820152601f60248201527f434e46543a204e6f7420656e6f756768204e46547320746f2072656465656d0060448201526064016103b1565b6106118161294e565b9050610551565b5060015460405163eabe7d9160e01b8152306004820152336024820152604481018390526000916001600160a01b03169063eabe7d9190606401602060405180830381600087803b15801561066c57600080fd5b505af1158015610680573d6000803e3d6000fd5b505050506040513d601f19601f820116820180604052508101906106a49190612969565b905080156106f45760405162461bcd60e51b815260206004820152601b60248201527f434e46543a2052656465656d206973206e6f7420616c6c6f776564000000000060448201526064016103b1565b3360009081526002602052604081208054849290610713908490612982565b925050819055506107883388888080602002602001604051908101604052809392919081815260200183836020028082843760009201919091525050604080516020808c0282810182019093528b82529093508b92508a91829185019084908082843760009201919091525061187592505050565b600054600160a81b900460ff161561080b57600054604051631759616b60e11b81526001600160a01b0390911690632eb2c2d6906107d490309033908c908c908c908c906004016129cf565b600060405180830381600087803b1580156107ee57600080fd5b505af1158015610802573d6000803e3d6000fd5b50505050610a2e565b600054600160a01b900460ff161561096e5760005b838110156109685760003389898481811061083d5761083d61290a565b6040516001600160a01b039094166024850152602002919091013560448301525060640160408051601f198184030181529181526020820180516001600160e01b03166322dca8bb60e21b1790526000805491519293509182916001600160a01b0316906108ac908590612a2e565b6000604051808303816000865af19150503d80600081146108e9576040519150601f19603f3d011682016040523d82523d6000602084013e6108ee565b606091505b5091509150816109545760405162461bcd60e51b815260206004820152602b60248201527f434e46543a2043616c6c696e67207472616e7366657250756e6b20776173207560448201526a1b9cdd58d8d95cdcd99d5b60aa1b60648201526084016103b1565b505050806109619061294e565b9050610820565b50610a2e565b60005b83811015610a2c576000546001600160a01b031663b88d4fde30338b8b8681811061099e5761099e61290a565b6040516001600160e01b031960e088901b1681526001600160a01b03958616600482015294909316602485015250602090910201356044820152608060648201526000608482015260a401600060405180830381600087803b158015610a0357600080fd5b505af1158015610a17573d6000803e3d6000fd5b5050505080610a259061294e565b9050610971565b505b7fd63285f33fab7fc260b1b9e7ce1abbf3fc8906df5a271e6ebd3062bdca7bb29e3388888888604051610a65959493929190612a4a565b60405180910390a1505060016006555050505050565b60026006541415610a9e5760405162461bcd60e51b81526004016103b1906128d3565b6002600655604080518082019091526000602082018190528682525b8151811015610b0057858582818110610ad557610ad561290a565b9050602002013582602001818151610aed9190612936565b905250610af98161294e565b9050610aba565b5060015460208201516040516317b9b84b60e31b81523060048201526001600160a01b038c811660248301528b811660448301526064820192909252600092919091169063bdcdc25890608401602060405180830381600087803b158015610b6757600080fd5b505af1158015610b7b573d6000803e3d6000fd5b505050506040513d601f19601f82011682018060405250810190610b9f9190612969565b90508015610bef5760405162461bcd60e51b815260206004820152601b60248201527f434e46543a2052656465656d206973206e6f7420616c6c6f776564000000000060448201526064016103b1565b8160200151600260008b6001600160a01b03166001600160a01b031681526020019081526020016000206000828254610c289190612936565b90915550506020808301516001600160a01b038c166000908152600290925260408220805491929091610c5c908490612982565b92505081905550610d068a8a8a8a8080602002602001604051908101604052809392919081815260200183836020028082843760009201919091525050604080516020808e0282810182019093528d82529093508d92508c91829185019084908082843760009201919091525050604080516020601f8d018190048102820181019092528b815292508b91508a9081908401838280828437600092019190915250611a6c92505050565b505060016006555050505050505050565b600060026006541415610d3c5760405162461bcd60e51b81526004016103b1906128d3565b6002600655600154604051634ef4c3e160e01b8152306004820152336024820152600060448201819052916001600160a01b031690634ef4c3e190606401602060405180830381600087803b158015610d9457600080fd5b505af1158015610da8573d6000803e3d6000fd5b505050506040513d601f19601f82011682018060405250810190610dcc9190612969565b90508015610e1c5760405162461bcd60e51b815260206004820152601960248201527f434e46543a204d696e74206973206e6f7420616c6c6f7765640000000000000060448201526064016103b1565b846000805b82811015610e5f57868682818110610e3b57610e3b61290a565b9050602002013582610e4d9190612936565b9150610e588161294e565b9050610e21565b503360009081526002602052604081208054839290610e7f908490612936565b9091555050600054600160a81b900460ff1615610f0757600054604051631759616b60e11b81526001600160a01b0390911690632eb2c2d690610ed090339030908d908d908d908d906004016129cf565b600060405180830381600087803b158015610eea57600080fd5b505af1158015610efe573d6000803e3d6000fd5b50505050611247565b600054600160a01b900460ff16156111875760005b82811015611181576000898983818110610f3857610f3861290a565b90506020020135604051602401610f5191815260200190565b60408051601f198184030181529181526020820180516001600160e01b0316630b02f02d60e31b1790526000805491519293509182916001600160a01b031690610f9c908590612a2e565b600060405180830381855afa9150503d8060008114610fd7576040519150601f19603f3d011682016040523d82523d6000602084013e610fdc565b606091505b5091509150600081806020019051810190610ff79190612a8e565b905082801561100e57506001600160a01b03811633145b61104e5760405162461bcd60e51b81526020600482015260116024820152702737ba103a34329027232a1037bbb732b960791b60448201526064016103b1565b60008d8d878181106110625761106261290a565b9050602002013560405160240161107b91815260200190565b60408051601f198184030181529181526020820180516001600160e01b031663104c9fd360e31b1790526000805491519293509182916001600160a01b0316906110c6908590612a2e565b6000604051808303816000865af19150503d8060008114611103576040519150601f19603f3d011682016040523d82523d6000602084013e611108565b606091505b5091509150816111695760405162461bcd60e51b815260206004820152602660248201527f434e46543a2043616c6c696e672062757950756e6b2077617320756e73756363604482015265195cdcd99d5b60d21b60648201526084016103b1565b505050505050508061117a9061294e565b9050610f1c565b50611247565b60005b82811015611245576000546001600160a01b031663b88d4fde33308c8c868181106111b7576111b761290a565b6040516001600160e01b031960e088901b1681526001600160a01b03958616600482015294909316602485015250602090910201356044820152608060648201526000608482015260a401600060405180830381600087803b15801561121c57600080fd5b505af1158015611230573d6000803e3d6000fd5b505050508061123e9061294e565b905061118a565b505b6112c33389898080602002602001604051908101604052809392919081815260200183836020028082843760009201919091525050604080516020808d0282810182019093528c82529093508c92508b918291850190849080828437600092018290525060408051602081019091529081529250611b03915050565b7f0329a7c1652297b926cc497fd75d078847dbaa7a5a782d651dba3fdf3e8b38da33898989896040516112fa959493929190612a4a565b60405180910390a15060016006559695505050505050565b606081518351146113775760405162461bcd60e51b815260206004820152602960248201527f455243313135353a206163636f756e747320616e6420696473206c656e677468604482015268040dad2e6dac2e8c6d60bb1b60648201526084016103b1565b6000835167ffffffffffffffff81111561139357611393612471565b6040519080825280602002602001820160405280156113bc578160200160208202803683370190505b50905060005b8451811015611434576114078582815181106113e0576113e061290a565b60200260200101518583815181106113fa576113fa61290a565b6020026020010151610349565b8282815181106114195761141961290a565b602090810291909101015261142d8161294e565b90506113c2565b509392505050565b6002600654141561145f5760405162461bcd60e51b81526004016103b1906128d3565b600260065560015460405163d02f735160e01b81523060048201523360248201526001600160a01b038881166044830152878116606483015260006084830181905292169063d02f73519060a401602060405180830381600087803b1580156114c757600080fd5b505af11580156114db573d6000803e3d6000fd5b505050506040513d601f19601f820116820180604052508101906114ff9190612969565b9050801561154f5760405162461bcd60e51b815260206004820152601a60248201527f434e46543a205365697a65206973206e6f7420616c6c6f77656400000000000060448201526064016103b1565b866001600160a01b0316866001600160a01b031614156115bd5760405162461bcd60e51b815260206004820152602360248201527f434e46543a204c697175696461746f722063616e6e6f7420626520626f72726f6044820152623bb2b960e91b60648201526084016103b1565b836000805b82811015611600578585828181106115dc576115dc61290a565b90506020020135826115ee9190612936565b91506115f98161294e565b90506115c2565b506001600160a01b03891660009081526002602052604081208054839290611629908490612936565b90915550506001600160a01b03881660009081526002602052604081208054839290611656908490612982565b925050819055506116da888a89898080602002602001604051908101604052809392919081815260200183836020028082843760009201919091525050604080516020808d0282810182019093528c82529093508c92508b918291850190849080828437600092018290525060408051602081019091529081529250611c89915050565b5050600160065550505050505050565b6116f5338383611ea9565b5050565b6000805489906001600160a01b031633146117265760405162461bcd60e51b81526004016103b190612827565b6001600160a01b038116301461174e5760405162461bcd60e51b81526004016103b190612884565b5063bc197c8160e01b9998505050505050505050565b6000805487906001600160a01b031633146117915760405162461bcd60e51b81526004016103b190612827565b6001600160a01b03811630146117b95760405162461bcd60e51b81526004016103b190612884565b5063f23a6e6160e01b979650505050505050565b60405162461bcd60e51b815260206004820152602760248201527f434e46543a20557365207361666542617463685472616e7366657246726f6d206044820152661a5b9cdd19585960ca1b60648201526084016103b1565b60006001600160e01b03198216636cdb3d1360e11b148061185657506001600160e01b031982166303a24d0760e21b145b8061042257506301ffc9a760e01b6001600160e01b0319831614610422565b6001600160a01b0383166118d75760405162461bcd60e51b815260206004820152602360248201527f455243313135353a206275726e2066726f6d20746865207a65726f206164647260448201526265737360e81b60648201526084016103b1565b80518251146118f85760405162461bcd60e51b81526004016103b190612aab565b604080516020810190915260009081905233905b8351811015611a0d5760008482815181106119295761192961290a565b6020026020010151905060008483815181106119475761194761290a565b60209081029190910181015160008481526003835260408082206001600160a01b038c1683529093529190912054909150818110156119d45760405162461bcd60e51b8152602060048201526024808201527f455243313135353a206275726e20616d6f756e7420657863656564732062616c604482015263616e636560e01b60648201526084016103b1565b60009283526003602090815260408085206001600160a01b038b1686529091529092209103905580611a058161294e565b91505061190c565b5060006001600160a01b0316846001600160a01b0316826001600160a01b03167f4a39dc06d4c0dbc64b70af90fd698a233a518aa5d07e595d983b8c0526c8f7fb8686604051611a5e929190612af3565b60405180910390a450505050565b6001600160a01b038516331480611a885750611a8885336102f5565b611aef5760405162461bcd60e51b815260206004820152603260248201527f455243313135353a207472616e736665722063616c6c6572206973206e6f74206044820152711bdddb995c881b9bdc88185c1c1c9bdd995960721b60648201526084016103b1565b611afc8585858585611c89565b5050505050565b6001600160a01b038416611b635760405162461bcd60e51b815260206004820152602160248201527f455243313135353a206d696e7420746f20746865207a65726f206164647265736044820152607360f81b60648201526084016103b1565b8151835114611b845760405162461bcd60e51b81526004016103b190612aab565b3360005b8451811015611c2157838181518110611ba357611ba361290a565b602002602001015160036000878481518110611bc157611bc161290a565b602002602001015181526020019081526020016000206000886001600160a01b03166001600160a01b031681526020019081526020016000206000828254611c099190612936565b90915550819050611c198161294e565b915050611b88565b50846001600160a01b031660006001600160a01b0316826001600160a01b03167f4a39dc06d4c0dbc64b70af90fd698a233a518aa5d07e595d983b8c0526c8f7fb8787604051611c72929190612af3565b60405180910390a4611afc81600087878787611f8a565b8151835114611caa5760405162461bcd60e51b81526004016103b190612aab565b6001600160a01b038416611d0e5760405162461bcd60e51b815260206004820152602560248201527f455243313135353a207472616e7366657220746f20746865207a65726f206164604482015264647265737360d81b60648201526084016103b1565b3360005b8451811015611e3b576000858281518110611d2f57611d2f61290a565b602002602001015190506000858381518110611d4d57611d4d61290a565b60209081029190910181015160008481526003835260408082206001600160a01b038e168352909352919091205490915081811015611de15760405162461bcd60e51b815260206004820152602a60248201527f455243313135353a20696e73756666696369656e742062616c616e636520666f60448201526939103a3930b739b332b960b11b60648201526084016103b1565b60008381526003602090815260408083206001600160a01b038e8116855292528083208585039055908b16825281208054849290611e20908490612936565b9250508190555050505080611e349061294e565b9050611d12565b50846001600160a01b0316866001600160a01b0316826001600160a01b03167f4a39dc06d4c0dbc64b70af90fd698a233a518aa5d07e595d983b8c0526c8f7fb8787604051611e8b929190612af3565b60405180910390a4611ea1818787878787611f8a565b505050505050565b816001600160a01b0316836001600160a01b03161415611f1d5760405162461bcd60e51b815260206004820152602960248201527f455243313135353a2073657474696e6720617070726f76616c20737461747573604482015268103337b91039b2b63360b91b60648201526084016103b1565b6001600160a01b03838116600081815260046020908152604080832094871680845294825291829020805460ff191686151590811790915591519182527f17307eab39ab6107e8899845ad3d59bd9653f200f220920489ca2b5937696c31910160405180910390a3505050565b6001600160a01b0384163b15611ea15760405163bc197c8160e01b81526001600160a01b0385169063bc197c8190611fce9089908990889088908890600401612b21565b602060405180830381600087803b158015611fe857600080fd5b505af1925050508015612018575060408051601f3d908101601f1916820190925261201591810190612b73565b60015b6120c557612024612b90565b806308c379a0141561205e5750612039612bac565b806120445750612060565b8060405162461bcd60e51b81526004016103b19190612232565b505b60405162461bcd60e51b815260206004820152603460248201527f455243313135353a207472616e7366657220746f206e6f6e20455243313135356044820152732932b1b2b4bb32b91034b6b83632b6b2b73a32b960611b60648201526084016103b1565b6001600160e01b0319811663bc197c8160e01b146121365760405162461bcd60e51b815260206004820152602860248201527f455243313135353a204552433131353552656365697665722072656a656374656044820152676420746f6b656e7360c01b60648201526084016103b1565b50505050505050565b6001600160a01b038116811461215457600080fd5b50565b6000806040838503121561216a57600080fd5b82356121758161213f565b946020939093013593505050565b6001600160e01b03198116811461215457600080fd5b6000602082840312156121ab57600080fd5b81356121b681612183565b9392505050565b6000602082840312156121cf57600080fd5b5035919050565b60005b838110156121f15781810151838201526020016121d9565b83811115612200576000848401525b50505050565b6000815180845261221e8160208601602086016121d6565b601f01601f19169290920160200192915050565b6020815260006121b66020830184612206565b60008083601f84011261225757600080fd5b50813567ffffffffffffffff81111561226f57600080fd5b60208301915083602082850101111561228757600080fd5b9250929050565b6000806000806000608086880312156122a657600080fd5b85356122b18161213f565b945060208601356122c18161213f565b935060408601359250606086013567ffffffffffffffff8111156122e457600080fd5b6122f088828901612245565b969995985093965092949392505050565b60008083601f84011261231357600080fd5b50813567ffffffffffffffff81111561232b57600080fd5b6020830191508360208260051b850101111561228757600080fd5b6000806000806040858703121561235c57600080fd5b843567ffffffffffffffff8082111561237457600080fd5b61238088838901612301565b9096509450602087013591508082111561239957600080fd5b506123a687828801612301565b95989497509550505050565b60008060008060008060008060a0898b0312156123ce57600080fd5b88356123d98161213f565b975060208901356123e98161213f565b9650604089013567ffffffffffffffff8082111561240657600080fd5b6124128c838d01612301565b909850965060608b013591508082111561242b57600080fd5b6124378c838d01612301565b909650945060808b013591508082111561245057600080fd5b5061245d8b828c01612245565b999c989b5096995094979396929594505050565b634e487b7160e01b600052604160045260246000fd5b601f8201601f1916810167ffffffffffffffff811182821017156124ad576124ad612471565b6040525050565b600067ffffffffffffffff8211156124ce576124ce612471565b5060051b60200190565b600082601f8301126124e957600080fd5b813560206124f6826124b4565b6040516125038282612487565b83815260059390931b850182019282810191508684111561252357600080fd5b8286015b8481101561253e5780358352918301918301612527565b509695505050505050565b6000806040838503121561255c57600080fd5b823567ffffffffffffffff8082111561257457600080fd5b818501915085601f83011261258857600080fd5b81356020612595826124b4565b6040516125a28282612487565b83815260059390931b85018201928281019150898411156125c257600080fd5b948201945b838610156125e95785356125da8161213f565b825294820194908201906125c7565b965050860135925050808211156125ff57600080fd5b5061260c858286016124d8565b9150509250929050565b600081518084526020808501945080840160005b838110156126465781518752958201959082019060010161262a565b509495945050505050565b6020815260006121b66020830184612616565b60006020828403121561267657600080fd5b81356121b68161213f565b6000806000806000806080878903121561269a57600080fd5b86356126a58161213f565b955060208701356126b58161213f565b9450604087013567ffffffffffffffff808211156126d257600080fd5b6126de8a838b01612301565b909650945060608901359150808211156126f757600080fd5b5061270489828a01612301565b979a9699509497509295939492505050565b6000806040838503121561272957600080fd5b82356127348161213f565b91506020830135801515811461274957600080fd5b809150509250929050565b6000806040838503121561276757600080fd5b82356127728161213f565b915060208301356127498161213f565b60008060008060008060a0878903121561279b57600080fd5b86356127a68161213f565b955060208701356127b68161213f565b94506040870135935060608701359250608087013567ffffffffffffffff8111156127e057600080fd5b61270489828a01612245565b600181811c9082168061280057607f821691505b6020821081141561282157634e487b7160e01b600052602260045260246000fd5b50919050565b60208082526037908201527f434e46543a205468697320636f6e74726163742063616e206f6e6c792072656360408201527f656976652074686520756e6465726c79696e67204e4654000000000000000000606082015260800190565b6020808252602f908201527f434e543a204f6e6c792074686520434e465420636f6e74726163742063616e2060408201526e3132903a34329037b832b930ba37b960891b606082015260800190565b6020808252601f908201527f5265656e7472616e637947756172643a207265656e7472616e742063616c6c00604082015260600190565b634e487b7160e01b600052603260045260246000fd5b634e487b7160e01b600052601160045260246000fd5b6000821982111561294957612949612920565b500190565b600060001982141561296257612962612920565b5060010190565b60006020828403121561297b57600080fd5b5051919050565b60008282101561299457612994612920565b500390565b81835260006001600160fb1b038311156129b257600080fd5b8260051b8083602087013760009401602001938452509192915050565b6001600160a01b0387811682528616602082015260a0604082018190526000906129fc9083018688612999565b8281036060840152612a0f818587612999565b8381036080909401939093525050600081526020019695505050505050565b60008251612a408184602087016121d6565b9190910192915050565b6001600160a01b0386168152606060208201819052600090612a6f9083018688612999565b8281036040840152612a82818587612999565b98975050505050505050565b600060208284031215612aa057600080fd5b81516121b68161213f565b60208082526028908201527f455243313135353a2069647320616e6420616d6f756e7473206c656e677468206040820152670dad2e6dac2e8c6d60c31b606082015260800190565b604081526000612b066040830185612616565b8281036020840152612b188185612616565b95945050505050565b6001600160a01b0386811682528516602082015260a060408201819052600090612b4d90830186612616565b8281036060840152612b5f8186612616565b90508281036080840152612a828185612206565b600060208284031215612b8557600080fd5b81516121b681612183565b600060033d1115612ba95760046000803e5060005160e01c5b90565b600060443d1015612bba5790565b6040516003193d81016004833e81513d67ffffffffffffffff8160248401118184111715612bea57505050505090565b8285019150815181811115612c025750505050505090565b843d8701016020828501011115612c1c5750505050505090565b612c2b60208286010187612487565b50909594505050505056fea26469706673582212207c4edbdf70bc782648fd064f92431ef8aa98e3d91d7495f5ab12c4254d67458e64736f6c63430008090033",
  "devdoc": {
    "kind": "dev",
    "methods": {
      "balanceOf(address,uint256)": {
        "details": "See {IERC1155-balanceOf}. Requirements: - `account` cannot be the zero address."
      },
      "balanceOfBatch(address[],uint256[])": {
        "details": "See {IERC1155-balanceOfBatch}. Requirements: - `accounts` and `ids` must have the same length."
      },
      "isApprovedForAll(address,address)": {
        "details": "See {IERC1155-isApprovedForAll}."
      },
      "onERC1155BatchReceived(address,address,uint256[],uint256[],bytes)": {
        "details": "Handles the receipt of a multiple ERC1155 token types. This function is called at the end of a `safeBatchTransferFrom` after the balances have been updated. To accept the transfer(s), this must return `bytes4(keccak256(\"onERC1155BatchReceived(address,address,uint256[],uint256[],bytes)\"))` (i.e. 0xbc197c81, or its own function selector).",
        "params": {
          "data": "Additional data with no specified format",
          "from": "The address which previously owned the token",
          "ids": "An array containing ids of each token being transferred (order and length must match values array)",
          "operator": "The address which initiated the batch transfer (i.e. msg.sender)",
          "values": "An array containing amounts of each token being transferred (order and length must match ids array)"
        },
        "returns": {
          "_0": "`bytes4(keccak256(\"onERC1155BatchReceived(address,address,uint256[],uint256[],bytes)\"))` if transfer is allowed"
        }
      },
      "onERC1155Received(address,address,uint256,uint256,bytes)": {
        "details": "Handles the receipt of a single ERC1155 token type. This function is called at the end of a `safeTransferFrom` after the balance has been updated. To accept the transfer, this must return `bytes4(keccak256(\"onERC1155Received(address,address,uint256,uint256,bytes)\"))` (i.e. 0xf23a6e61, or its own function selector).",
        "params": {
          "data": "Additional data with no specified format",
          "from": "The address which previously owned the token",
          "id": "The ID of the token being transferred",
          "operator": "The address which initiated the transfer (i.e. msg.sender)",
          "value": "The amount of tokens being transferred"
        },
        "returns": {
          "_0": "`bytes4(keccak256(\"onERC1155Received(address,address,uint256,uint256,bytes)\"))` if transfer is allowed"
        }
      },
      "onERC721Received(address,address,uint256,bytes)": {
        "details": "Whenever an {IERC721} `tokenId` token is transferred to this contract via {IERC721-safeTransferFrom} by `operator` from `from`, this function is called. It must return its Solidity selector to confirm the token transfer. If any other value is returned or the interface is not implemented by the recipient, the transfer will be reverted. The selector can be obtained in Solidity with `IERC721.onERC721Received.selector`."
      },
      "safeBatchTransferFrom(address,address,uint256[],uint256[],bytes)": {
        "details": "See {IERC1155-safeBatchTransferFrom}."
      },
      "safeTransferFrom(address,address,uint256,uint256,bytes)": {
        "details": "See {IERC1155-safeTransferFrom}."
      },
      "setApprovalForAll(address,bool)": {
        "details": "See {IERC1155-setApprovalForAll}."
      },
      "uri(uint256)": {
        "details": "See {IERC1155MetadataURI-uri}. This implementation returns the same URI for *all* token types. It relies on the token type ID substitution mechanism https://eips.ethereum.org/EIPS/eip-1155#metadata[defined in the EIP]. Clients calling this function must replace the `\\{id\\}` substring with the actual token type ID."
      }
    },
    "version": 1
  },
  "userdoc": {
    "events": {
      "Mint(address,uint256[],uint256[])": {
        "notice": "Event emitted when cNFTs are minted"
      },
      "Redeem(address,uint256[],uint256[])": {
        "notice": "Event emitted when tokens are redeemed"
      }
    },
    "kind": "user",
    "methods": {
      "totalBalance(address)": {
        "notice": "Mapping from user to number of tokens."
      }
    },
    "version": 1
  },
  "storageLayout": {
    "storage": [
      {
        "astId": 4347,
        "contract": "contracts/CNft.sol:CNft",
        "label": "underlying",
        "offset": 0,
        "slot": "0",
        "type": "t_address"
      },
      {
        "astId": 4349,
        "contract": "contracts/CNft.sol:CNft",
        "label": "isPunk",
        "offset": 20,
        "slot": "0",
        "type": "t_bool"
      },
      {
        "astId": 4351,
        "contract": "contracts/CNft.sol:CNft",
        "label": "is1155",
        "offset": 21,
        "slot": "0",
        "type": "t_bool"
      },
      {
        "astId": 4353,
        "contract": "contracts/CNft.sol:CNft",
        "label": "comptroller",
        "offset": 0,
        "slot": "1",
        "type": "t_address"
      },
      {
        "astId": 4361,
        "contract": "contracts/CNft.sol:CNft",
        "label": "totalBalance",
        "offset": 0,
        "slot": "2",
        "type": "t_mapping(t_address,t_uint256)"
      },
      {
        "astId": 71,
        "contract": "contracts/CNft.sol:CNft",
        "label": "_balances",
        "offset": 0,
        "slot": "3",
        "type": "t_mapping(t_uint256,t_mapping(t_address,t_uint256))"
      },
      {
        "astId": 77,
        "contract": "contracts/CNft.sol:CNft",
        "label": "_operatorApprovals",
        "offset": 0,
        "slot": "4",
        "type": "t_mapping(t_address,t_mapping(t_address,t_bool))"
      },
      {
        "astId": 79,
        "contract": "contracts/CNft.sol:CNft",
        "label": "_uri",
        "offset": 0,
        "slot": "5",
        "type": "t_string_storage"
      },
      {
        "astId": 16,
        "contract": "contracts/CNft.sol:CNft",
        "label": "_status",
        "offset": 0,
        "slot": "6",
        "type": "t_uint256"
      }
    ],
    "types": {
      "t_address": {
        "encoding": "inplace",
        "label": "address",
        "numberOfBytes": "20"
      },
      "t_bool": {
        "encoding": "inplace",
        "label": "bool",
        "numberOfBytes": "1"
      },
      "t_mapping(t_address,t_bool)": {
        "encoding": "mapping",
        "key": "t_address",
        "label": "mapping(address => bool)",
        "numberOfBytes": "32",
        "value": "t_bool"
      },
      "t_mapping(t_address,t_mapping(t_address,t_bool))": {
        "encoding": "mapping",
        "key": "t_address",
        "label": "mapping(address => mapping(address => bool))",
        "numberOfBytes": "32",
        "value": "t_mapping(t_address,t_bool)"
      },
      "t_mapping(t_address,t_uint256)": {
        "encoding": "mapping",
        "key": "t_address",
        "label": "mapping(address => uint256)",
        "numberOfBytes": "32",
        "value": "t_uint256"
      },
      "t_mapping(t_uint256,t_mapping(t_address,t_uint256))": {
        "encoding": "mapping",
        "key": "t_uint256",
        "label": "mapping(uint256 => mapping(address => uint256))",
        "numberOfBytes": "32",
        "value": "t_mapping(t_address,t_uint256)"
      },
      "t_string_storage": {
        "encoding": "bytes",
        "label": "string",
        "numberOfBytes": "32"
      },
      "t_uint256": {
        "encoding": "inplace",
        "label": "uint256",
        "numberOfBytes": "32"
      }
    }
  }
}