{
  "address": "0x02b0B4EFd909240FCB2Eb5FAe060dC60D112E3a4",
  "abi": [
    {
      "inputs": [
        {
          "internalType": "address",
          "name": "underlying_",
          "type": "address"
        },
        {
          "internalType": "address",
          "name": "vault_",
          "type": "address"
        },
        {
          "internalType": "contract ComptrollerInterface",
          "name": "comptroller_",
          "type": "address"
        },
        {
          "internalType": "contract InterestRateModel",
          "name": "interestRateModel_",
          "type": "address"
        },
        {
          "internalType": "uint256",
          "name": "initialExchangeRateMantissa_",
          "type": "uint256"
        },
        {
          "internalType": "string",
          "name": "name_",
          "type": "string"
        },
        {
          "internalType": "string",
          "name": "symbol_",
          "type": "string"
        },
        {
          "internalType": "uint8",
          "name": "decimals_",
          "type": "uint8"
        },
        {
          "internalType": "address payable",
          "name": "admin_",
          "type": "address"
        }
      ],
      "payable": false,
      "stateMutability": "nonpayable",
      "type": "constructor"
    },
    {
      "anonymous": false,
      "inputs": [
        {
          "indexed": false,
          "internalType": "uint256",
          "name": "cashPrior",
          "type": "uint256"
        },
        {
          "indexed": false,
          "internalType": "uint256",
          "name": "interestAccumulated",
          "type": "uint256"
        },
        {
          "indexed": false,
          "internalType": "uint256",
          "name": "borrowIndex",
          "type": "uint256"
        },
        {
          "indexed": false,
          "internalType": "uint256",
          "name": "totalBorrows",
          "type": "uint256"
        }
      ],
      "name": "AccrueInterest",
      "type": "event"
    },
    {
      "anonymous": false,
      "inputs": [
        {
          "indexed": true,
          "internalType": "address",
          "name": "owner",
          "type": "address"
        },
        {
          "indexed": true,
          "internalType": "address",
          "name": "spender",
          "type": "address"
        },
        {
          "indexed": false,
          "internalType": "uint256",
          "name": "amount",
          "type": "uint256"
        }
      ],
      "name": "Approval",
      "type": "event"
    },
    {
      "anonymous": false,
      "inputs": [
        {
          "indexed": false,
          "internalType": "address",
          "name": "borrower",
          "type": "address"
        },
        {
          "indexed": false,
          "internalType": "uint256",
          "name": "borrowAmount",
          "type": "uint256"
        },
        {
          "indexed": false,
          "internalType": "uint256",
          "name": "accountBorrows",
          "type": "uint256"
        },
        {
          "indexed": false,
          "internalType": "uint256",
          "name": "totalBorrows",
          "type": "uint256"
        }
      ],
      "name": "Borrow",
      "type": "event"
    },
    {
      "anonymous": false,
      "inputs": [
        {
          "indexed": false,
          "internalType": "uint256",
          "name": "error",
          "type": "uint256"
        },
        {
          "indexed": false,
          "internalType": "uint256",
          "name": "info",
          "type": "uint256"
        },
        {
          "indexed": false,
          "internalType": "uint256",
          "name": "detail",
          "type": "uint256"
        }
      ],
      "name": "Failure",
      "type": "event"
    },
    {
      "anonymous": false,
      "inputs": [
        {
          "indexed": false,
          "internalType": "address",
          "name": "liquidator",
          "type": "address"
        },
        {
          "indexed": false,
          "internalType": "address",
          "name": "borrower",
          "type": "address"
        },
        {
          "indexed": false,
          "internalType": "uint256",
          "name": "repayAmount",
          "type": "uint256"
        },
        {
          "indexed": false,
          "internalType": "address",
          "name": "cTokenCollateral",
          "type": "address"
        },
        {
          "indexed": false,
          "internalType": "uint256",
          "name": "seizeTokens",
          "type": "uint256"
        }
      ],
      "name": "LiquidateBorrow",
      "type": "event"
    },
    {
      "anonymous": false,
      "inputs": [
        {
          "indexed": false,
          "internalType": "address",
          "name": "minter",
          "type": "address"
        },
        {
          "indexed": false,
          "internalType": "uint256",
          "name": "mintAmount",
          "type": "uint256"
        },
        {
          "indexed": false,
          "internalType": "uint256",
          "name": "mintTokens",
          "type": "uint256"
        }
      ],
      "name": "Mint",
      "type": "event"
    },
    {
      "anonymous": false,
      "inputs": [
        {
          "indexed": false,
          "internalType": "address",
          "name": "oldAdmin",
          "type": "address"
        },
        {
          "indexed": false,
          "internalType": "address",
          "name": "newAdmin",
          "type": "address"
        }
      ],
      "name": "NewAdmin",
      "type": "event"
    },
    {
      "anonymous": false,
      "inputs": [
        {
          "indexed": false,
          "internalType": "contract ComptrollerInterface",
          "name": "oldComptroller",
          "type": "address"
        },
        {
          "indexed": false,
          "internalType": "contract ComptrollerInterface",
          "name": "newComptroller",
          "type": "address"
        }
      ],
      "name": "NewComptroller",
      "type": "event"
    },
    {
      "anonymous": false,
      "inputs": [
        {
          "indexed": false,
          "internalType": "contract InterestRateModel",
          "name": "oldInterestRateModel",
          "type": "address"
        },
        {
          "indexed": false,
          "internalType": "contract InterestRateModel",
          "name": "newInterestRateModel",
          "type": "address"
        }
      ],
      "name": "NewMarketInterestRateModel",
      "type": "event"
    },
    {
      "anonymous": false,
      "inputs": [
        {
          "indexed": false,
          "internalType": "address",
          "name": "oldPendingAdmin",
          "type": "address"
        },
        {
          "indexed": false,
          "internalType": "address",
          "name": "newPendingAdmin",
          "type": "address"
        }
      ],
      "name": "NewPendingAdmin",
      "type": "event"
    },
    {
      "anonymous": false,
      "inputs": [
        {
          "indexed": false,
          "internalType": "uint256",
          "name": "oldReserveFactorMantissa",
          "type": "uint256"
        },
        {
          "indexed": false,
          "internalType": "uint256",
          "name": "newReserveFactorMantissa",
          "type": "uint256"
        }
      ],
      "name": "NewReserveFactor",
      "type": "event"
    },
    {
      "anonymous": false,
      "inputs": [
        {
          "indexed": false,
          "internalType": "address",
          "name": "redeemer",
          "type": "address"
        },
        {
          "indexed": false,
          "internalType": "uint256",
          "name": "redeemAmount",
          "type": "uint256"
        },
        {
          "indexed": false,
          "internalType": "uint256",
          "name": "redeemTokens",
          "type": "uint256"
        }
      ],
      "name": "Redeem",
      "type": "event"
    },
    {
      "anonymous": false,
      "inputs": [
        {
          "indexed": false,
          "internalType": "address",
          "name": "payer",
          "type": "address"
        },
        {
          "indexed": false,
          "internalType": "address",
          "name": "borrower",
          "type": "address"
        },
        {
          "indexed": false,
          "internalType": "uint256",
          "name": "repayAmount",
          "type": "uint256"
        },
        {
          "indexed": false,
          "internalType": "uint256",
          "name": "accountBorrows",
          "type": "uint256"
        },
        {
          "indexed": false,
          "internalType": "uint256",
          "name": "totalBorrows",
          "type": "uint256"
        }
      ],
      "name": "RepayBorrow",
      "type": "event"
    },
    {
      "anonymous": false,
      "inputs": [
        {
          "indexed": false,
          "internalType": "address",
          "name": "benefactor",
          "type": "address"
        },
        {
          "indexed": false,
          "internalType": "uint256",
          "name": "addAmount",
          "type": "uint256"
        },
        {
          "indexed": false,
          "internalType": "uint256",
          "name": "newTotalReserves",
          "type": "uint256"
        }
      ],
      "name": "ReservesAdded",
      "type": "event"
    },
    {
      "anonymous": false,
      "inputs": [
        {
          "indexed": false,
          "internalType": "address",
          "name": "admin",
          "type": "address"
        },
        {
          "indexed": false,
          "internalType": "uint256",
          "name": "reduceAmount",
          "type": "uint256"
        },
        {
          "indexed": false,
          "internalType": "uint256",
          "name": "newTotalReserves",
          "type": "uint256"
        }
      ],
      "name": "ReservesReduced",
      "type": "event"
    },
    {
      "anonymous": false,
      "inputs": [
        {
          "indexed": true,
          "internalType": "address",
          "name": "from",
          "type": "address"
        },
        {
          "indexed": true,
          "internalType": "address",
          "name": "to",
          "type": "address"
        },
        {
          "indexed": false,
          "internalType": "uint256",
          "name": "amount",
          "type": "uint256"
        }
      ],
      "name": "Transfer",
      "type": "event"
    },
    {
      "constant": false,
      "inputs": [],
      "name": "_acceptAdmin",
      "outputs": [
        {
          "internalType": "uint256",
          "name": "",
          "type": "uint256"
        }
      ],
      "payable": false,
      "stateMutability": "nonpayable",
      "type": "function"
    },
    {
      "constant": false,
      "inputs": [
        {
          "internalType": "uint256",
          "name": "addAmount",
          "type": "uint256"
        }
      ],
      "name": "_addReserves",
      "outputs": [
        {
          "internalType": "uint256",
          "name": "",
          "type": "uint256"
        }
      ],
      "payable": false,
      "stateMutability": "nonpayable",
      "type": "function"
    },
    {
      "constant": false,
      "inputs": [
        {
          "internalType": "address",
          "name": "compLikeDelegatee",
          "type": "address"
        }
      ],
      "name": "_delegateCompLikeTo",
      "outputs": [],
      "payable": false,
      "stateMutability": "nonpayable",
      "type": "function"
    },
    {
      "constant": false,
      "inputs": [
        {
          "internalType": "uint256",
          "name": "reduceAmount",
          "type": "uint256"
        }
      ],
      "name": "_reduceReserves",
      "outputs": [
        {
          "internalType": "uint256",
          "name": "",
          "type": "uint256"
        }
      ],
      "payable": false,
      "stateMutability": "nonpayable",
      "type": "function"
    },
    {
      "constant": false,
      "inputs": [
        {
          "internalType": "contract ComptrollerInterface",
          "name": "newComptroller",
          "type": "address"
        }
      ],
      "name": "_setComptroller",
      "outputs": [
        {
          "internalType": "uint256",
          "name": "",
          "type": "uint256"
        }
      ],
      "payable": false,
      "stateMutability": "nonpayable",
      "type": "function"
    },
    {
      "constant": false,
      "inputs": [
        {
          "internalType": "contract InterestRateModel",
          "name": "newInterestRateModel",
          "type": "address"
        }
      ],
      "name": "_setInterestRateModel",
      "outputs": [
        {
          "internalType": "uint256",
          "name": "",
          "type": "uint256"
        }
      ],
      "payable": false,
      "stateMutability": "nonpayable",
      "type": "function"
    },
    {
      "constant": false,
      "inputs": [
        {
          "internalType": "address payable",
          "name": "newPendingAdmin",
          "type": "address"
        }
      ],
      "name": "_setPendingAdmin",
      "outputs": [
        {
          "internalType": "uint256",
          "name": "",
          "type": "uint256"
        }
      ],
      "payable": false,
      "stateMutability": "nonpayable",
      "type": "function"
    },
    {
      "constant": false,
      "inputs": [
        {
          "internalType": "uint256",
          "name": "newReserveFactorMantissa",
          "type": "uint256"
        }
      ],
      "name": "_setReserveFactor",
      "outputs": [
        {
          "internalType": "uint256",
          "name": "",
          "type": "uint256"
        }
      ],
      "payable": false,
      "stateMutability": "nonpayable",
      "type": "function"
    },
    {
      "constant": true,
      "inputs": [],
      "name": "accrualBlockNumber",
      "outputs": [
        {
          "internalType": "uint256",
          "name": "",
          "type": "uint256"
        }
      ],
      "payable": false,
      "stateMutability": "view",
      "type": "function"
    },
    {
      "constant": false,
      "inputs": [],
      "name": "accrueInterest",
      "outputs": [
        {
          "internalType": "uint256",
          "name": "",
          "type": "uint256"
        }
      ],
      "payable": false,
      "stateMutability": "nonpayable",
      "type": "function"
    },
    {
      "constant": true,
      "inputs": [],
      "name": "admin",
      "outputs": [
        {
          "internalType": "address payable",
          "name": "",
          "type": "address"
        }
      ],
      "payable": false,
      "stateMutability": "view",
      "type": "function"
    },
    {
      "constant": true,
      "inputs": [
        {
          "internalType": "address",
          "name": "owner",
          "type": "address"
        },
        {
          "internalType": "address",
          "name": "spender",
          "type": "address"
        }
      ],
      "name": "allowance",
      "outputs": [
        {
          "internalType": "uint256",
          "name": "",
          "type": "uint256"
        }
      ],
      "payable": false,
      "stateMutability": "view",
      "type": "function"
    },
    {
      "constant": false,
      "inputs": [
        {
          "internalType": "address",
          "name": "spender",
          "type": "address"
        },
        {
          "internalType": "uint256",
          "name": "amount",
          "type": "uint256"
        }
      ],
      "name": "approve",
      "outputs": [
        {
          "internalType": "bool",
          "name": "",
          "type": "bool"
        }
      ],
      "payable": false,
      "stateMutability": "nonpayable",
      "type": "function"
    },
    {
      "constant": true,
      "inputs": [
        {
          "internalType": "address",
          "name": "owner",
          "type": "address"
        }
      ],
      "name": "balanceOf",
      "outputs": [
        {
          "internalType": "uint256",
          "name": "",
          "type": "uint256"
        }
      ],
      "payable": false,
      "stateMutability": "view",
      "type": "function"
    },
    {
      "constant": false,
      "inputs": [
        {
          "internalType": "address",
          "name": "owner",
          "type": "address"
        }
      ],
      "name": "balanceOfUnderlying",
      "outputs": [
        {
          "internalType": "uint256",
          "name": "",
          "type": "uint256"
        }
      ],
      "payable": false,
      "stateMutability": "nonpayable",
      "type": "function"
    },
    {
      "constant": false,
      "inputs": [
        {
          "internalType": "uint256",
          "name": "borrowAmount",
          "type": "uint256"
        }
      ],
      "name": "borrow",
      "outputs": [
        {
          "internalType": "uint256",
          "name": "",
          "type": "uint256"
        }
      ],
      "payable": false,
      "stateMutability": "nonpayable",
      "type": "function"
    },
    {
      "constant": false,
      "inputs": [
        {
          "internalType": "address",
          "name": "account",
          "type": "address"
        }
      ],
      "name": "borrowBalanceCurrent",
      "outputs": [
        {
          "internalType": "uint256",
          "name": "",
          "type": "uint256"
        }
      ],
      "payable": false,
      "stateMutability": "nonpayable",
      "type": "function"
    },
    {
      "constant": true,
      "inputs": [
        {
          "internalType": "address",
          "name": "account",
          "type": "address"
        }
      ],
      "name": "borrowBalanceStored",
      "outputs": [
        {
          "internalType": "uint256",
          "name": "",
          "type": "uint256"
        }
      ],
      "payable": false,
      "stateMutability": "view",
      "type": "function"
    },
    {
      "constant": true,
      "inputs": [],
      "name": "borrowIndex",
      "outputs": [
        {
          "internalType": "uint256",
          "name": "",
          "type": "uint256"
        }
      ],
      "payable": false,
      "stateMutability": "view",
      "type": "function"
    },
    {
      "constant": true,
      "inputs": [],
      "name": "borrowRatePerBlock",
      "outputs": [
        {
          "internalType": "uint256",
          "name": "",
          "type": "uint256"
        }
      ],
      "payable": false,
      "stateMutability": "view",
      "type": "function"
    },
    {
      "constant": true,
      "inputs": [],
      "name": "comptroller",
      "outputs": [
        {
          "internalType": "contract ComptrollerInterface",
          "name": "",
          "type": "address"
        }
      ],
      "payable": false,
      "stateMutability": "view",
      "type": "function"
    },
    {
      "constant": true,
      "inputs": [],
      "name": "decimals",
      "outputs": [
        {
          "internalType": "uint8",
          "name": "",
          "type": "uint8"
        }
      ],
      "payable": false,
      "stateMutability": "view",
      "type": "function"
    },
    {
      "constant": false,
      "inputs": [],
      "name": "exchangeRateCurrent",
      "outputs": [
        {
          "internalType": "uint256",
          "name": "",
          "type": "uint256"
        }
      ],
      "payable": false,
      "stateMutability": "nonpayable",
      "type": "function"
    },
    {
      "constant": true,
      "inputs": [],
      "name": "exchangeRateStored",
      "outputs": [
        {
          "internalType": "uint256",
          "name": "",
          "type": "uint256"
        }
      ],
      "payable": false,
      "stateMutability": "view",
      "type": "function"
    },
    {
      "constant": true,
      "inputs": [
        {
          "internalType": "address",
          "name": "account",
          "type": "address"
        }
      ],
      "name": "getAccountSnapshot",
      "outputs": [
        {
          "internalType": "uint256",
          "name": "",
          "type": "uint256"
        },
        {
          "internalType": "uint256",
          "name": "",
          "type": "uint256"
        },
        {
          "internalType": "uint256",
          "name": "",
          "type": "uint256"
        },
        {
          "internalType": "uint256",
          "name": "",
          "type": "uint256"
        }
      ],
      "payable": false,
      "stateMutability": "view",
      "type": "function"
    },
    {
      "constant": true,
      "inputs": [],
      "name": "getCash",
      "outputs": [
        {
          "internalType": "uint256",
          "name": "",
          "type": "uint256"
        }
      ],
      "payable": false,
      "stateMutability": "view",
      "type": "function"
    },
    {
      "constant": false,
      "inputs": [
        {
          "internalType": "address",
          "name": "underlying_",
          "type": "address"
        },
        {
          "internalType": "address",
          "name": "vault_",
          "type": "address"
        },
        {
          "internalType": "contract ComptrollerInterface",
          "name": "comptroller_",
          "type": "address"
        },
        {
          "internalType": "contract InterestRateModel",
          "name": "interestRateModel_",
          "type": "address"
        },
        {
          "internalType": "uint256",
          "name": "initialExchangeRateMantissa_",
          "type": "uint256"
        },
        {
          "internalType": "string",
          "name": "name_",
          "type": "string"
        },
        {
          "internalType": "string",
          "name": "symbol_",
          "type": "string"
        },
        {
          "internalType": "uint8",
          "name": "decimals_",
          "type": "uint8"
        }
      ],
      "name": "initialize",
      "outputs": [],
      "payable": false,
      "stateMutability": "nonpayable",
      "type": "function"
    },
    {
      "constant": false,
      "inputs": [
        {
          "internalType": "contract ComptrollerInterface",
          "name": "comptroller_",
          "type": "address"
        },
        {
          "internalType": "contract InterestRateModel",
          "name": "interestRateModel_",
          "type": "address"
        },
        {
          "internalType": "uint256",
          "name": "initialExchangeRateMantissa_",
          "type": "uint256"
        },
        {
          "internalType": "string",
          "name": "name_",
          "type": "string"
        },
        {
          "internalType": "string",
          "name": "symbol_",
          "type": "string"
        },
        {
          "internalType": "uint8",
          "name": "decimals_",
          "type": "uint8"
        }
      ],
      "name": "initialize",
      "outputs": [],
      "payable": false,
      "stateMutability": "nonpayable",
      "type": "function"
    },
    {
      "constant": true,
      "inputs": [],
      "name": "interestRateModel",
      "outputs": [
        {
          "internalType": "contract InterestRateModel",
          "name": "",
          "type": "address"
        }
      ],
      "payable": false,
      "stateMutability": "view",
      "type": "function"
    },
    {
      "constant": true,
      "inputs": [],
      "name": "isCToken",
      "outputs": [
        {
          "internalType": "bool",
          "name": "",
          "type": "bool"
        }
      ],
      "payable": false,
      "stateMutability": "view",
      "type": "function"
    },
    {
      "constant": false,
      "inputs": [
        {
          "internalType": "address",
          "name": "borrower",
          "type": "address"
        },
        {
          "internalType": "uint256",
          "name": "repayAmount",
          "type": "uint256"
        },
        {
          "internalType": "contract CTokenInterface",
          "name": "cTokenCollateral",
          "type": "address"
        }
      ],
      "name": "liquidateBorrow",
      "outputs": [
        {
          "internalType": "uint256",
          "name": "",
          "type": "uint256"
        }
      ],
      "payable": false,
      "stateMutability": "nonpayable",
      "type": "function"
    },
    {
      "constant": false,
      "inputs": [
        {
          "internalType": "address",
          "name": "borrower",
          "type": "address"
        },
        {
          "internalType": "uint256",
          "name": "repayAmount",
          "type": "uint256"
        },
        {
          "internalType": "contract CNftInterface",
          "name": "cNftCollateral",
          "type": "address"
        },
        {
          "internalType": "uint256[]",
          "name": "seizeIds",
          "type": "uint256[]"
        },
        {
          "internalType": "uint256[]",
          "name": "seizeAmounts",
          "type": "uint256[]"
        }
      ],
      "name": "liquidateBorrowNft",
      "outputs": [
        {
          "internalType": "uint256",
          "name": "",
          "type": "uint256"
        }
      ],
      "payable": false,
      "stateMutability": "nonpayable",
      "type": "function"
    },
    {
      "constant": false,
      "inputs": [
        {
          "internalType": "uint256",
          "name": "mintAmount",
          "type": "uint256"
        }
      ],
      "name": "mint",
      "outputs": [
        {
          "internalType": "uint256",
          "name": "",
          "type": "uint256"
        }
      ],
      "payable": false,
      "stateMutability": "nonpayable",
      "type": "function"
    },
    {
      "constant": true,
      "inputs": [],
      "name": "name",
      "outputs": [
        {
          "internalType": "string",
          "name": "",
          "type": "string"
        }
      ],
      "payable": false,
      "stateMutability": "view",
      "type": "function"
    },
    {
      "constant": true,
      "inputs": [],
      "name": "pendingAdmin",
      "outputs": [
        {
          "internalType": "address payable",
          "name": "",
          "type": "address"
        }
      ],
      "payable": false,
      "stateMutability": "view",
      "type": "function"
    },
    {
      "constant": true,
      "inputs": [],
      "name": "protocolSeizeShareMantissa",
      "outputs": [
        {
          "internalType": "uint256",
          "name": "",
          "type": "uint256"
        }
      ],
      "payable": false,
      "stateMutability": "view",
      "type": "function"
    },
    {
      "constant": false,
      "inputs": [
        {
          "internalType": "uint256",
          "name": "redeemTokens",
          "type": "uint256"
        }
      ],
      "name": "redeem",
      "outputs": [
        {
          "internalType": "uint256",
          "name": "",
          "type": "uint256"
        }
      ],
      "payable": false,
      "stateMutability": "nonpayable",
      "type": "function"
    },
    {
      "constant": false,
      "inputs": [
        {
          "internalType": "uint256",
          "name": "redeemAmount",
          "type": "uint256"
        }
      ],
      "name": "redeemUnderlying",
      "outputs": [
        {
          "internalType": "uint256",
          "name": "",
          "type": "uint256"
        }
      ],
      "payable": false,
      "stateMutability": "nonpayable",
      "type": "function"
    },
    {
      "constant": false,
      "inputs": [
        {
          "internalType": "uint256",
          "name": "repayAmount",
          "type": "uint256"
        }
      ],
      "name": "repayBorrow",
      "outputs": [
        {
          "internalType": "uint256",
          "name": "",
          "type": "uint256"
        }
      ],
      "payable": false,
      "stateMutability": "nonpayable",
      "type": "function"
    },
    {
      "constant": false,
      "inputs": [
        {
          "internalType": "address",
          "name": "borrower",
          "type": "address"
        },
        {
          "internalType": "uint256",
          "name": "repayAmount",
          "type": "uint256"
        }
      ],
      "name": "repayBorrowBehalf",
      "outputs": [
        {
          "internalType": "uint256",
          "name": "",
          "type": "uint256"
        }
      ],
      "payable": false,
      "stateMutability": "nonpayable",
      "type": "function"
    },
    {
      "constant": true,
      "inputs": [],
      "name": "reserveFactorMantissa",
      "outputs": [
        {
          "internalType": "uint256",
          "name": "",
          "type": "uint256"
        }
      ],
      "payable": false,
      "stateMutability": "view",
      "type": "function"
    },
    {
      "constant": false,
      "inputs": [
        {
          "internalType": "address",
          "name": "liquidator",
          "type": "address"
        },
        {
          "internalType": "address",
          "name": "borrower",
          "type": "address"
        },
        {
          "internalType": "uint256",
          "name": "seizeTokens",
          "type": "uint256"
        }
      ],
      "name": "seize",
      "outputs": [
        {
          "internalType": "uint256",
          "name": "",
          "type": "uint256"
        }
      ],
      "payable": false,
      "stateMutability": "nonpayable",
      "type": "function"
    },
    {
      "constant": true,
      "inputs": [],
      "name": "supplyRatePerBlock",
      "outputs": [
        {
          "internalType": "uint256",
          "name": "",
          "type": "uint256"
        }
      ],
      "payable": false,
      "stateMutability": "view",
      "type": "function"
    },
    {
      "constant": false,
      "inputs": [
        {
          "internalType": "contract EIP20NonStandardInterface",
          "name": "token",
          "type": "address"
        }
      ],
      "name": "sweepToken",
      "outputs": [],
      "payable": false,
      "stateMutability": "nonpayable",
      "type": "function"
    },
    {
      "constant": true,
      "inputs": [],
      "name": "symbol",
      "outputs": [
        {
          "internalType": "string",
          "name": "",
          "type": "string"
        }
      ],
      "payable": false,
      "stateMutability": "view",
      "type": "function"
    },
    {
      "constant": true,
      "inputs": [],
      "name": "totalBorrows",
      "outputs": [
        {
          "internalType": "uint256",
          "name": "",
          "type": "uint256"
        }
      ],
      "payable": false,
      "stateMutability": "view",
      "type": "function"
    },
    {
      "constant": false,
      "inputs": [],
      "name": "totalBorrowsCurrent",
      "outputs": [
        {
          "internalType": "uint256",
          "name": "",
          "type": "uint256"
        }
      ],
      "payable": false,
      "stateMutability": "nonpayable",
      "type": "function"
    },
    {
      "constant": true,
      "inputs": [],
      "name": "totalReserves",
      "outputs": [
        {
          "internalType": "uint256",
          "name": "",
          "type": "uint256"
        }
      ],
      "payable": false,
      "stateMutability": "view",
      "type": "function"
    },
    {
      "constant": true,
      "inputs": [],
      "name": "totalSupply",
      "outputs": [
        {
          "internalType": "uint256",
          "name": "",
          "type": "uint256"
        }
      ],
      "payable": false,
      "stateMutability": "view",
      "type": "function"
    },
    {
      "constant": false,
      "inputs": [
        {
          "internalType": "address",
          "name": "dst",
          "type": "address"
        },
        {
          "internalType": "uint256",
          "name": "amount",
          "type": "uint256"
        }
      ],
      "name": "transfer",
      "outputs": [
        {
          "internalType": "bool",
          "name": "",
          "type": "bool"
        }
      ],
      "payable": false,
      "stateMutability": "nonpayable",
      "type": "function"
    },
    {
      "constant": false,
      "inputs": [
        {
          "internalType": "address",
          "name": "src",
          "type": "address"
        },
        {
          "internalType": "address",
          "name": "dst",
          "type": "address"
        },
        {
          "internalType": "uint256",
          "name": "amount",
          "type": "uint256"
        }
      ],
      "name": "transferFrom",
      "outputs": [
        {
          "internalType": "bool",
          "name": "",
          "type": "bool"
        }
      ],
      "payable": false,
      "stateMutability": "nonpayable",
      "type": "function"
    },
    {
      "constant": true,
      "inputs": [],
      "name": "underlying",
      "outputs": [
        {
          "internalType": "address",
          "name": "",
          "type": "address"
        }
      ],
      "payable": false,
      "stateMutability": "view",
      "type": "function"
    },
    {
      "constant": true,
      "inputs": [],
      "name": "vault",
      "outputs": [
        {
          "internalType": "address",
          "name": "",
          "type": "address"
        }
      ],
      "payable": false,
      "stateMutability": "view",
      "type": "function"
    }
  ],
  "transactionHash": "0x16572f03d48fcd47f0d4c5952607e927bc5457e4a282a5962055b2b6e169bf63",
  "args": [
    "0xA0b86991c6218b36c1d19D4a2e9Eb0cE3606eB48",
    "0xa354F35829Ae975e850e23e9615b11Da1B3dC4DE",
    "0x5FeaeBfB4439F3516c74939A9D04e95AFE82C4ae",
    "0x927b167526bAbB9be047421db732C663a0b77B11",
    "1000000000000000000",
    "Bunker USDC",
    "bUSDC",
    6,
    "0xf39Fd6e51aad88F6F4ce6aB8827279cffFb92266"
  ],
  "numDeployments": 1,
  "solcInputHash": "c1d6b23394cfdf3f0b156482217b237f",
  "bytecode": "0x60806040523480156200001157600080fd5b50604051620068fb380380620068fb83398181016040526101208110156200003857600080fd5b815160208301516040808501516060860151608087015160a0880180519451969895979396929591949293820192846401000000008211156200007a57600080fd5b9083019060208201858111156200009057600080fd5b8251640100000000811182820188101715620000ab57600080fd5b82525081516020918201929091019080838360005b83811015620000da578181015183820152602001620000c0565b50505050905090810190601f168015620001085780820380516001836020036101000a031916815260200191505b50604052602001805160405193929190846401000000008211156200012c57600080fd5b9083019060208201858111156200014257600080fd5b82516401000000008111828201881017156200015d57600080fd5b82525081516020918201929091019080838360005b838110156200018c57818101518382015260200162000172565b50505050905090810190601f168015620001ba5780820380516001836020036101000a031916815260200191505b506040908152602082015191015160038054610100600160a81b03191633610100021790559092509050620001f689898989898989896200022b565b600380546001600160a01b0390921661010002610100600160a81b031990921691909117905550620009a19650505050505050565b620002468686868686866200036660201b620017491760201c565b601180546001600160a01b0319166001600160a01b038a81169190911791829055604080516318160ddd60e01b8152905192909116916318160ddd91600480820192602092909190829003018186803b158015620002a357600080fd5b505afa158015620002b8573d6000803e3d6000fd5b505050506040513d6020811015620002cf57600080fd5b5050601280546001600160a01b0319166001600160a01b03898116919091179182905560408051634ca9858360e11b8152905192909116916399530b0691600480820192602092909190829003018186803b1580156200032e57600080fd5b505afa15801562000343573d6000803e3d6000fd5b505050506040513d60208110156200035a57600080fd5b50505050505050505050565b60035461010090046001600160a01b03163314620003b65760405162461bcd60e51b8152600401808060200182810382526024815260200180620068626024913960400191505060405180910390fd5b600954158015620003c75750600a54155b620004045760405162461bcd60e51b8152600401808060200182810382526023815260200180620068866023913960400191505060405180910390fd5b600784905583620004475760405162461bcd60e51b8152600401808060200182810382526030815260200180620068a96030913960400191505060405180910390fd5b60006200045d876001600160e01b036200057c16565b90508015620004b3576040805162461bcd60e51b815260206004820152601a60248201527f73657474696e6720636f6d7074726f6c6c6572206661696c6564000000000000604482015290519081900360640190fd5b620004c66001600160e01b03620006e416565b600955670de0b6b3a7640000600a55620004e9866001600160e01b03620006e916565b905080156200052a5760405162461bcd60e51b8152600401808060200182810382526022815260200180620068d96022913960400191505060405180910390fd5b83516200053f906001906020870190620008ff565b50825162000555906002906020860190620008ff565b50506003805460ff90921660ff199283161790556000805490911660011790555050505050565b60035460009061010090046001600160a01b03163314620005b657620005ae6001603f6001600160e01b036200088f16565b9050620006df565b60055460408051623f1ee960e11b815290516001600160a01b0392831692851691627e3dd2916004808301926020929190829003018186803b158015620005fc57600080fd5b505afa15801562000611573d6000803e3d6000fd5b505050506040513d60208110156200062857600080fd5b50516200067c576040805162461bcd60e51b815260206004820152601c60248201527f6d61726b6572206d6574686f642072657475726e65642066616c736500000000604482015290519081900360640190fd5b600580546001600160a01b0319166001600160a01b03858116918217909255604080519284168352602083019190915280517f7ac369dbd14fa5ea3f473ed67cc9d598964a77501540ba6751eb0b3decf5870d9281900390910190a160005b9150505b919050565b435b90565b600354600090819061010090046001600160a01b0316331462000726576200071d600160426001600160e01b036200088f16565b915050620006df565b620007396001600160e01b03620006e416565b6009541462000759576200071d600a60416001600160e01b036200088f16565b600660009054906101000a90046001600160a01b03169050826001600160a01b0316632191f92a6040518163ffffffff1660e01b815260040160206040518083038186803b158015620007ab57600080fd5b505afa158015620007c0573d6000803e3d6000fd5b505050506040513d6020811015620007d757600080fd5b50516200082b576040805162461bcd60e51b815260206004820152601c60248201527f6d61726b6572206d6574686f642072657475726e65642066616c736500000000604482015290519081900360640190fd5b600680546001600160a01b0319166001600160a01b03858116918217909255604080519284168352602083019190915280517fedffc32e068c7c95dfd4bdfd5c4d939a084d6b11c4199eac8436ed234d72f9269281900390910190a16000620006db565b60007f45b96fe442630264581b197e84bbada861235052c5a1aadfff9ea4e40a969aa0836010811115620008bf57fe5b836050811115620008cc57fe5b604080519283526020830191909152600082820152519081900360600190a1826010811115620008f857fe5b9392505050565b828054600181600116156101000203166002900490600052602060002090601f016020900481019282601f106200094257805160ff191683800117855562000972565b8280016001018555821562000972579182015b828111156200097257825182559160200191906001019062000955565b506200098092915062000984565b5090565b620006e691905b808211156200098057600081556001016200098b565b615eb180620009b16000396000f3fe608060405234801561001057600080fd5b50600436106103275760003560e01c8063852a12e3116101b8578063bd6d894d11610104578063f3fdb15a116100a2578063f8f9da281161007c578063f8f9da2814610bf3578063fbfa77cf14610bfb578063fca7820b14610c03578063fe9c44ae14610c2057610327565b8063f3fdb15a14610bad578063f5e3c46214610bb5578063f851a44014610beb57610327565b8063db006a75116100de578063db006a7514610b34578063dd62ed3e14610b51578063e9c714f214610b7f578063f2b3abbd14610b8757610327565b8063bd6d894d14610ac3578063c37f68e214610acb578063c5ebeaec14610b1757610327565b8063a0712d6811610171578063aa5af0fd1161014b578063aa5af0fd14610a57578063ae9d70b014610a5f578063b2a02ff114610a67578063b71d1a0c14610a9d57610327565b8063a0712d6814610a06578063a6afed9514610a23578063a9059cbb14610a2b57610327565b8063852a12e3146107885780638f840ddd146107a5578063948b433e146107ad57806395d89b411461088a57806395dd91931461089257806399d8c1b4146108b857610327565b80633b1d21a2116102775780636752e7021161023057806370a082311161020a57806370a08231146105d857806373acee98146105fe5780637f1e06be1461060657806381f0d9231461062c57610327565b80636752e702146105c05780636c540baf146105c85780636f307dc3146105d057610327565b80633b1d21a2146105485780633e941010146105505780634576b5db1461056d57806347bd3718146105935780635fe3b5671461059b578063601a0bf1146105a357610327565b8063182df0f5116102e45780632608f818116102be5780632608f818146104b457806326782247146104e0578063313ce567146105045780633af9e6691461052257610327565b8063182df0f51461044e5780631be195601461045657806323b872dd1461047e57610327565b806306fdde031461032c578063095ea7b3146103a95780630e752702146103e9578063173b99041461041857806317bfdfbc1461042057806318160ddd14610446575b600080fd5b610334610c28565b6040805160208082528351818301528351919283929083019185019080838360005b8381101561036e578181015183820152602001610356565b50505050905090810190601f16801561039b5780820380516001836020036101000a031916815260200191505b509250505060405180910390f35b6103d5600480360360408110156103bf57600080fd5b506001600160a01b038135169060200135610cb5565b604080519115158252519081900360200190f35b610406600480360360208110156103ff57600080fd5b5035610d22565b60408051918252519081900360200190f35b610406610d38565b6104066004803603602081101561043657600080fd5b50356001600160a01b0316610d3e565b610406610dfe565b610406610e04565b61047c6004803603602081101561046c57600080fd5b50356001600160a01b0316610e67565b005b6103d56004803603606081101561049457600080fd5b506001600160a01b03813581169160208101359091169060400135610fbd565b610406600480360360408110156104ca57600080fd5b506001600160a01b03813516906020013561102f565b6104e8611045565b604080516001600160a01b039092168252519081900360200190f35b61050c611054565b6040805160ff9092168252519081900360200190f35b6104066004803603602081101561053857600080fd5b50356001600160a01b031661105d565b610406611113565b6104066004803603602081101561056657600080fd5b5035611122565b6104066004803603602081101561058357600080fd5b50356001600160a01b031661112d565b610406611282565b6104e8611288565b610406600480360360208110156105b957600080fd5b5035611297565b610406611332565b61040661133d565b6104e8611343565b610406600480360360208110156105ee57600080fd5b50356001600160a01b0316611352565b61040661136d565b61047c6004803603602081101561061c57600080fd5b50356001600160a01b0316611423565b61047c600480360361010081101561064357600080fd5b6001600160a01b038235811692602081013582169260408201358316926060830135169160808101359181019060c0810160a0820135600160201b81111561068a57600080fd5b82018360208201111561069c57600080fd5b803590602001918460018302840111600160201b831117156106bd57600080fd5b91908080601f0160208091040260200160405190810160405280939291908181526020018383808284376000920191909152509295949360208101935035915050600160201b81111561070f57600080fd5b82018360208201111561072157600080fd5b803590602001918460018302840111600160201b8311171561074257600080fd5b91908080601f0160208091040260200160405190810160405280939291908181526020018383808284376000920191909152509295505050903560ff1691506114da9050565b6104066004803603602081101561079e57600080fd5b5035611602565b61040661160d565b610406600480360360a08110156107c357600080fd5b6001600160a01b038235811692602081013592604082013590921691810190608081016060820135600160201b8111156107fc57600080fd5b82018360208201111561080e57600080fd5b803590602001918460208302840111600160201b8311171561082f57600080fd5b919390929091602081019035600160201b81111561084c57600080fd5b82018360208201111561085e57600080fd5b803590602001918460208302840111600160201b8311171561087f57600080fd5b509092509050611613565b610334611694565b610406600480360360208110156108a857600080fd5b50356001600160a01b03166116ec565b61047c600480360360c08110156108ce57600080fd5b6001600160a01b03823581169260208101359091169160408201359190810190608081016060820135600160201b81111561090857600080fd5b82018360208201111561091a57600080fd5b803590602001918460018302840111600160201b8311171561093b57600080fd5b91908080601f0160208091040260200160405190810160405280939291908181526020018383808284376000920191909152509295949360208101935035915050600160201b81111561098d57600080fd5b82018360208201111561099f57600080fd5b803590602001918460018302840111600160201b831117156109c057600080fd5b91908080601f0160208091040260200160405190810160405280939291908181526020018383808284376000920191909152509295505050903560ff1691506117499050565b61040660048036036020811015610a1c57600080fd5b5035611930565b61040661193c565b6103d560048036036040811015610a4157600080fd5b506001600160a01b038135169060200135611c94565b610406611d05565b610406611d0b565b61040660048036036060811015610a7d57600080fd5b506001600160a01b03813581169160208101359091169060400135611daa565b61040660048036036020811015610ab357600080fd5b50356001600160a01b0316611e1b565b610406611ea7565b610af160048036036020811015610ae157600080fd5b50356001600160a01b0316611f63565b604080519485526020850193909352838301919091526060830152519081900360800190f35b61040660048036036020811015610b2d57600080fd5b5035611ff8565b61040660048036036020811015610b4a57600080fd5b5035612003565b61040660048036036040811015610b6757600080fd5b506001600160a01b038135811691602001351661200e565b610406612039565b61040660048036036020811015610b9d57600080fd5b50356001600160a01b031661213c565b6104e8612176565b61040660048036036060811015610bcb57600080fd5b506001600160a01b03813581169160208101359160409091013516612185565b6104e861219d565b6104066121b1565b6104e8612215565b61040660048036036020811015610c1957600080fd5b5035612224565b6103d56122a2565b60018054604080516020600284861615610100026000190190941693909304601f81018490048402820184019092528181529291830182828015610cad5780601f10610c8257610100808354040283529160200191610cad565b820191906000526020600020905b815481529060010190602001808311610c9057829003601f168201915b505050505081565b336000818152600f602090815260408083206001600160a01b03871680855290835281842086905581518681529151939493909284927f8c5be1e5ebec7d5bd14f71427d1e84f3dd0314c0f7b2291e5b200ac8c7c3b925929081900390910190a360019150505b92915050565b600080610d2e836122a7565b509150505b919050565b60085481565b6000805460ff16610d83576040805162461bcd60e51b815260206004820152600a6024820152691c994b595b9d195c995960b21b604482015290519081900360640190fd5b6000805460ff19168155610d9561193c565b14610de0576040805162461bcd60e51b81526020600482015260166024820152751858d8dc9d59481a5b9d195c995cdd0819985a5b195960521b604482015290519081900360640190fd5b610de9826116ec565b90505b6000805460ff19166001179055919050565b600d5481565b6000806000610e11612350565b90925090506000826003811115610e2457fe5b14610e605760405162461bcd60e51b8152600401808060200182810382526035815260200180615dc86035913960400191505060405180910390fd5b9150505b90565b6011546001600160a01b03828116911614801590610e9357506012546001600160a01b03828116911614155b610ece5760405162461bcd60e51b8152600401808060200182810382526032815260200180615bd56032913960400191505060405180910390fd5b604080516370a0823160e01b815230600482015290516000916001600160a01b038416916370a0823191602480820192602092909190829003018186803b158015610f1857600080fd5b505afa158015610f2c573d6000803e3d6000fd5b505050506040513d6020811015610f4257600080fd5b50516003546040805163a9059cbb60e01b81526101009092046001600160a01b03908116600484015260248301849052905192935084169163a9059cbb9160448082019260009290919082900301818387803b158015610fa157600080fd5b505af1158015610fb5573d6000803e3d6000fd5b505050505050565b6000805460ff16611002576040805162461bcd60e51b815260206004820152600a6024820152691c994b595b9d195c995960b21b604482015290519081900360640190fd5b6000805460ff19168155611018338686866123ff565b1490506000805460ff191660011790559392505050565b60008061103c848461268b565b50949350505050565b6004546001600160a01b031681565b60035460ff1681565b60006110676159e8565b604051806020016040528061107a611ea7565b90526001600160a01b0384166000908152600e60205260408120549192509081906110a6908490612736565b909250905060008260038111156110b957fe5b1461110b576040805162461bcd60e51b815260206004820152601f60248201527f62616c616e636520636f756c64206e6f742062652063616c63756c6174656400604482015290519081900360640190fd5b949350505050565b600061111d61278a565b905090565b6000610d1c82612885565b60035460009061010090046001600160a01b0316331461115a576111536001603f612919565b9050610d33565b60055460408051623f1ee960e11b815290516001600160a01b0392831692851691627e3dd2916004808301926020929190829003018186803b15801561119f57600080fd5b505afa1580156111b3573d6000803e3d6000fd5b505050506040513d60208110156111c957600080fd5b505161121c576040805162461bcd60e51b815260206004820152601c60248201527f6d61726b6572206d6574686f642072657475726e65642066616c736500000000604482015290519081900360640190fd5b600580546001600160a01b0319166001600160a01b03858116918217909255604080519284168352602083019190915280517f7ac369dbd14fa5ea3f473ed67cc9d598964a77501540ba6751eb0b3decf5870d9281900390910190a160005b9392505050565b600b5481565b6005546001600160a01b031681565b6000805460ff166112dc576040805162461bcd60e51b815260206004820152600a6024820152691c994b595b9d195c995960b21b604482015290519081900360640190fd5b6000805460ff191681556112ee61193c565b905080156113145761130c81601081111561130557fe5b6030612919565b915050610dec565b61131d8361297f565b9150506000805460ff19166001179055919050565b666379da05b6000081565b60095481565b6011546001600160a01b031681565b6001600160a01b03166000908152600e602052604090205490565b6000805460ff166113b2576040805162461bcd60e51b815260206004820152600a6024820152691c994b595b9d195c995960b21b604482015290519081900360640190fd5b6000805460ff191681556113c461193c565b1461140f576040805162461bcd60e51b81526020600482015260166024820152751858d8dc9d59481a5b9d195c995cdd0819985a5b195960521b604482015290519081900360640190fd5b50600b546000805460ff1916600117905590565b60035461010090046001600160a01b031633146114715760405162461bcd60e51b815260040180806020018281038252602d815260200180615c37602d913960400191505060405180910390fd5b601154604080516317066a5760e21b81526001600160a01b03848116600483015291519190921691635c19a95c91602480830192600092919082900301818387803b1580156114bf57600080fd5b505af11580156114d3573d6000803e3d6000fd5b5050505050565b6114e8868686868686611749565b601180546001600160a01b0319166001600160a01b038a81169190911791829055604080516318160ddd60e01b8152905192909116916318160ddd91600480820192602092909190829003018186803b15801561154457600080fd5b505afa158015611558573d6000803e3d6000fd5b505050506040513d602081101561156e57600080fd5b5050601280546001600160a01b0319166001600160a01b03898116919091179182905560408051634ca9858360e11b8152905192909116916399530b0691600480820192602092909190829003018186803b1580156115cc57600080fd5b505afa1580156115e0573d6000803e3d6000fd5b505050506040513d60208110156115f657600080fd5b50505050505050505050565b6000610d1c82612ab2565b600c5481565b60008061168689898989898080602002602001604051908101604052809392919081815260200183836020028082843760009201919091525050604080516020808d0282810182019093528c82529093508c92508b918291850190849080828437600092019190915250612b3392505050565b509998505050505050505050565b6002805460408051602060018416156101000260001901909316849004601f81018490048402820184019092528181529291830182828015610cad5780601f10610c8257610100808354040283529160200191610cad565b60008060006116fa84612be4565b9092509050600082600381111561170d57fe5b1461127b5760405162461bcd60e51b8152600401808060200182810382526037815260200180615cb16037913960400191505060405180910390fd5b60035461010090046001600160a01b031633146117975760405162461bcd60e51b8152600401808060200182810382526024815260200180615b8e6024913960400191505060405180910390fd5b6009541580156117a75750600a54155b6117e25760405162461bcd60e51b8152600401808060200182810382526023815260200180615bb26023913960400191505060405180910390fd5b6007849055836118235760405162461bcd60e51b8152600401808060200182810382526030815260200180615c076030913960400191505060405180910390fd5b600061182e8761112d565b90508015611883576040805162461bcd60e51b815260206004820152601a60248201527f73657474696e6720636f6d7074726f6c6c6572206661696c6564000000000000604482015290519081900360640190fd5b61188b612c98565b600955670de0b6b3a7640000600a556118a386612c9c565b905080156118e25760405162461bcd60e51b8152600401808060200182810382526022815260200180615c646022913960400191505060405180910390fd5b83516118f59060019060208701906159fb565b5082516119099060029060208601906159fb565b50506003805460ff90921660ff199283161790556000805490911660011790555050505050565b600080610d2e83612e11565b600080611947612c98565b6009549091508082141561196057600092505050610e64565b600061196a61278a565b600b54600c54600a54600654604080516315f2405360e01b815260048101879052602481018690526044810185905290519596509394929391926000926001600160a01b03909216916315f24053916064808301926020929190829003018186803b1580156119d857600080fd5b505afa1580156119ec573d6000803e3d6000fd5b505050506040513d6020811015611a0257600080fd5b5051905065048c27395000811115611a61576040805162461bcd60e51b815260206004820152601c60248201527f626f72726f772072617465206973206162737572646c79206869676800000000604482015290519081900360640190fd5b600080611a6e8989612e92565b90925090506000826003811115611a8157fe5b14611ad3576040805162461bcd60e51b815260206004820152601f60248201527f636f756c64206e6f742063616c63756c61746520626c6f636b2064656c746100604482015290519081900360640190fd5b611adb6159e8565b600080600080611af960405180602001604052808a81525087612eb5565b90975094506000876003811115611b0c57fe5b14611b3e57611b2960096006896003811115611b2457fe5b612f1d565b9e505050505050505050505050505050610e64565b611b48858c612736565b90975093506000876003811115611b5b57fe5b14611b7357611b2960096001896003811115611b2457fe5b611b7d848c612f83565b90975092506000876003811115611b9057fe5b14611ba857611b2960096004896003811115611b2457fe5b611bc36040518060200160405280600854815250858c612fa9565b90975091506000876003811115611bd657fe5b14611bee57611b2960096005896003811115611b2457fe5b611bf9858a8b612fa9565b90975090506000876003811115611c0c57fe5b14611c2457611b2960096003896003811115611b2457fe5b60098e9055600a819055600b839055600c829055604080518d8152602081018690528082018390526060810185905290517f4dec04e750ca11537cabcd8a9eab06494de08da3735bc8871cd41250e190bc049181900360800190a160009e50505050505050505050505050505090565b6000805460ff16611cd9576040805162461bcd60e51b815260206004820152600a6024820152691c994b595b9d195c995960b21b604482015290519081900360640190fd5b6000805460ff19168155611cef333386866123ff565b1490506000805460ff1916600117905592915050565b600a5481565b6006546000906001600160a01b031663b8168816611d2761278a565b600b54600c546008546040518563ffffffff1660e01b81526004018085815260200184815260200183815260200182815260200194505050505060206040518083038186803b158015611d7957600080fd5b505afa158015611d8d573d6000803e3d6000fd5b505050506040513d6020811015611da357600080fd5b5051905090565b6000805460ff16611def576040805162461bcd60e51b815260206004820152600a6024820152691c994b595b9d195c995960b21b604482015290519081900360640190fd5b6000805460ff19169055611e0533858585613005565b90506000805460ff191660011790559392505050565b60035460009061010090046001600160a01b03163314611e415761115360016045612919565b600480546001600160a01b038481166001600160a01b0319831681179093556040805191909216808252602082019390935281517fca4f2f25d0898edd99413412fb94012f9e54ec8142f9b093e7720646a95b16a9929181900390910190a1600061127b565b6000805460ff16611eec576040805162461bcd60e51b815260206004820152600a6024820152691c994b595b9d195c995960b21b604482015290519081900360640190fd5b6000805460ff19168155611efe61193c565b14611f49576040805162461bcd60e51b81526020600482015260166024820152751858d8dc9d59481a5b9d195c995cdd0819985a5b195960521b604482015290519081900360640190fd5b611f51610e04565b90506000805460ff1916600117905590565b6001600160a01b0381166000908152600e6020526040812054819081908190818080611f8e89612be4565b935090506000816003811115611fa057fe5b14611fbe5760095b975060009650869550859450611ff19350505050565b611fc6612350565b925090506000816003811115611fd857fe5b14611fe4576009611fa8565b5060009650919450925090505b9193509193565b6000610d1c826133df565b6000610d1c8261345e565b6001600160a01b039182166000908152600f6020908152604080832093909416825291909152205490565b6004546000906001600160a01b031633141580612054575033155b1561206c5761206560016000612919565b9050610e64565b60038054600480546001600160a01b03818116610100818102610100600160a81b0319871617968790556001600160a01b031990931690935560408051948390048216808652929095041660208401528351909391927ff9ffabca9c8276e99321725bcb43fb076a6c66a54b7f21c4e8146d8519b417dc92908290030190a1600454604080516001600160a01b038085168252909216602083015280517fca4f2f25d0898edd99413412fb94012f9e54ec8142f9b093e7720646a95b16a99281900390910190a160009250505090565b60008061214761193c565b9050801561216d5761216581601081111561215e57fe5b6040612919565b915050610d33565b61127b83612c9c565b6006546001600160a01b031681565b6000806121938585856134d8565b5095945050505050565b60035461010090046001600160a01b031681565b6006546000906001600160a01b03166315f240536121cd61278a565b600b54600c546040518463ffffffff1660e01b815260040180848152602001838152602001828152602001935050505060206040518083038186803b158015611d7957600080fd5b6012546001600160a01b031681565b6000805460ff16612269576040805162461bcd60e51b815260206004820152600a6024820152691c994b595b9d195c995960b21b604482015290519081900360640190fd5b6000805460ff1916815561227b61193c565b905080156122995761130c81601081111561229257fe5b6046612919565b61131d83613603565b600181565b60008054819060ff166122ee576040805162461bcd60e51b815260206004820152600a6024820152691c994b595b9d195c995960b21b604482015290519081900360640190fd5b6000805460ff1916815561230061193c565b9050801561232b5761231e81601081111561231757fe5b6036612919565b92506000915061233c9050565b6123363333866136ab565b92509250505b6000805460ff191660011790559092909150565b600d5460009081908061236b575050600754600091506123fb565b600061237561278a565b905060006123816159e8565b600061239284600b54600c546139f9565b9350905060008160038111156123a457fe5b146123b9579550600094506123fb9350505050565b6123c38386613a37565b9250905060008160038111156123d557fe5b146123ea579550600094506123fb9350505050565b50516000955093506123fb92505050565b9091565b600554604080516317b9b84b60e31b81523060048201526001600160a01b03868116602483015285811660448301526064820185905291516000938493169163bdcdc25891608480830192602092919082900301818787803b15801561246457600080fd5b505af1158015612478573d6000803e3d6000fd5b505050506040513d602081101561248e57600080fd5b5051905080156124ad576124a56003604a83612f1d565b91505061110b565b836001600160a01b0316856001600160a01b031614156124d3576124a56002604b612919565b60006001600160a01b0387811690871614156124f2575060001961251a565b506001600160a01b038086166000908152600f60209081526040808320938a16835292905220545b60008060008061252a8589612e92565b9094509250600084600381111561253d57fe5b1461255b5761254e6009604b612919565b965050505050505061110b565b6001600160a01b038a166000908152600e602052604090205461257e9089612e92565b9094509150600084600381111561259157fe5b146125a25761254e6009604c612919565b6001600160a01b0389166000908152600e60205260409020546125c59089612f83565b909450905060008460038111156125d857fe5b146125e95761254e6009604d612919565b6001600160a01b03808b166000908152600e6020526040808220859055918b168152208190556000198514612641576001600160a01b03808b166000908152600f60209081526040808320938f168352929052208390555b886001600160a01b03168a6001600160a01b0316600080516020615d448339815191528a6040518082815260200191505060405180910390a35060009a9950505050505050505050565b60008054819060ff166126d2576040805162461bcd60e51b815260206004820152600a6024820152691c994b595b9d195c995960b21b604482015290519081900360640190fd5b6000805460ff191681556126e461193c565b9050801561270f576127028160108111156126fb57fe5b6035612919565b9250600091506127209050565b61271a3386866136ab565b92509250505b6000805460ff1916600117905590939092509050565b60008060006127436159e8565b61274d8686612eb5565b9092509050600082600381111561276057fe5b146127715750915060009050612783565b600061277c82613ae7565b9350935050505b9250929050565b601254604080516370a0823160e01b815230600482015290516000926001600160a01b0316918391829161287c9185916370a08231916024808301926020929190829003018186803b1580156127df57600080fd5b505afa1580156127f3573d6000803e3d6000fd5b505050506040513d602081101561280957600080fd5b505160408051634ca9858360e11b815290516001600160a01b038716916399530b06916004808301926020929190829003018186803b15801561284b57600080fd5b505afa15801561285f573d6000803e3d6000fd5b505050506040513d602081101561287557600080fd5b5051613af6565b94505050505090565b6000805460ff166128ca576040805162461bcd60e51b815260206004820152600a6024820152691c994b595b9d195c995960b21b604482015290519081900360640190fd5b6000805460ff191681556128dc61193c565b905080156128fa5761130c8160108111156128f357fe5b604e612919565b61290383613b35565b509150506000805460ff19166001179055919050565b60007f45b96fe442630264581b197e84bbada861235052c5a1aadfff9ea4e40a969aa083601081111561294857fe5b83605081111561295457fe5b604080519283526020830191909152600082820152519081900360600190a182601081111561127b57fe5b600354600090819061010090046001600160a01b031633146129a75761216560016031612919565b6129af612c98565b600954146129c357612165600a6033612919565b826129cc61278a565b10156129de57612165600e6032612919565b600c548311156129f45761216560026034612919565b50600c5482810390811115612a3a5760405162461bcd60e51b8152600401808060200182810382526024815260200180615e596024913960400191505060405180910390fd5b600c819055600354612a5a9061010090046001600160a01b031684613c1d565b600354604080516101009092046001600160a01b0316825260208201859052818101839052517f3bad0c59cf2f06e7314077049f48a93578cd16f5ef92329f1dab1420a99c177e916060908290030190a1600061127b565b6000805460ff16612af7576040805162461bcd60e51b815260206004820152600a6024820152691c994b595b9d195c995960b21b604482015290519081900360640190fd5b6000805460ff19168155612b0961193c565b90508015612b275761130c816010811115612b2057fe5b6027612919565b61131d33600085613e65565b60008054819060ff16612b7a576040805162461bcd60e51b815260206004820152600a6024820152691c994b595b9d195c995960b21b604482015290519081900360640190fd5b6000805460ff19168155612b8c61193c565b90508015612bb757612baa816010811115612ba357fe5b600f612919565b925060009150612bcb9050565b612bc533898989898961432c565b92509250505b6000805460ff1916600117905590969095509350505050565b6001600160a01b038116600090815260106020526040812080548291829182918291612c1b575060009450849350612c9392505050565b612c2b8160000154600a54613af6565b90945092506000846003811115612c3e57fe5b14612c53575091935060009250612c93915050565b612c61838260010154614860565b90945091506000846003811115612c7457fe5b14612c89575091935060009250612c93915050565b5060009450925050505b915091565b4390565b600354600090819061010090046001600160a01b03163314612cc45761216560016042612919565b612ccc612c98565b60095414612ce057612165600a6041612919565b600660009054906101000a90046001600160a01b03169050826001600160a01b0316632191f92a6040518163ffffffff1660e01b815260040160206040518083038186803b158015612d3157600080fd5b505afa158015612d45573d6000803e3d6000fd5b505050506040513d6020811015612d5b57600080fd5b5051612dae576040805162461bcd60e51b815260206004820152601c60248201527f6d61726b6572206d6574686f642072657475726e65642066616c736500000000604482015290519081900360640190fd5b600680546001600160a01b0319166001600160a01b03858116918217909255604080519284168352602083019190915280517fedffc32e068c7c95dfd4bdfd5c4d939a084d6b11c4199eac8436ed234d72f9269281900390910190a1600061127b565b60008054819060ff16612e58576040805162461bcd60e51b815260206004820152600a6024820152691c994b595b9d195c995960b21b604482015290519081900360640190fd5b6000805460ff19168155612e6a61193c565b90508015612e885761231e816010811115612e8157fe5b601e612919565b612336338561488b565b600080838311612ea9575060009050818303612783565b50600390506000612783565b6000612ebf6159e8565b600080612ed0866000015186613af6565b90925090506000826003811115612ee357fe5b14612f0257506040805160208101909152600081529092509050612783565b60408051602081019091529081526000969095509350505050565b60007f45b96fe442630264581b197e84bbada861235052c5a1aadfff9ea4e40a969aa0846010811115612f4c57fe5b846050811115612f5857fe5b604080519283526020830191909152818101859052519081900360600190a183601081111561110b57fe5b600080838301848110612f9b57600092509050612783565b506002915060009050612783565b6000806000612fb66159e8565b612fc08787612eb5565b90925090506000826003811115612fd357fe5b14612fe45750915060009050612ffd565b612ff6612ff082613ae7565b86612f83565b9350935050505b935093915050565b6005546040805163d02f735160e01b81523060048201526001600160a01b038781166024830152868116604483015285811660648301526084820185905291516000938493169163d02f73519160a480830192602092919082900301818787803b15801561307257600080fd5b505af1158015613086573d6000803e3d6000fd5b505050506040513d602081101561309c57600080fd5b5051905080156130b3576124a56003601b83612f1d565b846001600160a01b0316846001600160a01b031614156130d9576124a56006601c612919565b6130e1615a79565b6001600160a01b0385166000908152600e60205260409020546131049085612e92565b602083018190528282600381111561311857fe5b600381111561312357fe5b905250600090508151600381111561313757fe5b1461315c576131536009601a83600001516003811115611b2457fe5b9250505061110b565b61317b846040518060200160405280666379da05b60000815250614c5b565b6080820181905261318d908590614c83565b606082015261319a612350565b60c08301819052828260038111156131ae57fe5b60038111156131b957fe5b90525060009050815160038111156131cd57fe5b1461321f576040805162461bcd60e51b815260206004820152601860248201527f65786368616e67652072617465206d617468206572726f720000000000000000604482015290519081900360640190fd5b61323f60405180602001604052808360c001518152508260800151614cbd565b60a08201819052600c5461325291614cdc565b60e0820152600d5460808201516132699190614c83565b6101008201526001600160a01b0386166000908152600e602052604090205460608201516132979190612f83565b60408301819052828260038111156132ab57fe5b60038111156132b657fe5b90525060009050815160038111156132ca57fe5b146132e6576131536009601983600001516003811115611b2457fe5b60e0810151600c55610100810151600d556020808201516001600160a01b038088166000818152600e855260408082209490945583860151928b16808252908490209290925560608501518351908152925191939092600080516020615d44833981519152929081900390910190a36080810151604080519182525130916001600160a01b03881691600080516020615d448339815191529181900360200190a360a081015160e082015160408051308152602081019390935282810191909152517fa91e67c5ea634cd43a12c5a482724b03de01e85ca68702a53d0c2f45cb7c1dc59181900360600190a16000979650505050505050565b6000805460ff16613424576040805162461bcd60e51b815260206004820152600a6024820152691c994b595b9d195c995960b21b604482015290519081900360640190fd5b6000805460ff1916815561343661193c565b905080156134545761130c81601081111561344d57fe5b6008612919565b61131d3384614d12565b6000805460ff166134a3576040805162461bcd60e51b815260206004820152600a6024820152691c994b595b9d195c995960b21b604482015290519081900360640190fd5b6000805460ff191681556134b561193c565b905080156134cc5761130c816010811115612b2057fe5b61131d33846000613e65565b60008054819060ff1661351f576040805162461bcd60e51b815260206004820152600a6024820152691c994b595b9d195c995960b21b604482015290519081900360640190fd5b6000805460ff1916815561353161193c565b9050801561355557613548816010811115612ba357fe5b9250600091506135ec9050565b836001600160a01b031663a6afed956040518163ffffffff1660e01b8152600401602060405180830381600087803b15801561359057600080fd5b505af11580156135a4573d6000803e3d6000fd5b505050506040513d60208110156135ba57600080fd5b5051905080156135da576135488160108111156135d357fe5b6010612919565b6135e633878787614fa6565b92509250505b6000805460ff191660011790559094909350915050565b60035460009061010090046001600160a01b031633146136295761115360016047612919565b613631612c98565b6009541461364557611153600a6048612919565b670de0b6b3a76400008211156136615761115360026049612919565b6008805490839055604080518281526020810185905281517faaa68312e2ea9d50e16af5068410ab56e1a1fd06037b1a35664812c30f821460929181900390910190a1600061127b565b60055460408051631200453160e11b81523060048201526001600160a01b0386811660248301528581166044830152606482018590529151600093849384939116916324008a629160848082019260209290919082900301818787803b15801561371457600080fd5b505af1158015613728573d6000803e3d6000fd5b505050506040513d602081101561373e57600080fd5b505190508015613762576137556003603883612f1d565b925060009150612ffd9050565b61376a612c98565b6009541461377e57613755600a6039612919565b613786615ac6565b6001600160a01b03861660009081526010602052604090206001015460608201526137b086612be4565b60808301819052602083018260038111156137c757fe5b60038111156137d257fe5b90525060009050816020015160038111156137e957fe5b14613813576138056009603783602001516003811115611b2457fe5b935060009250612ffd915050565b60001985141561382c5760808101516040820152613834565b604081018590525b613842878260400151615491565b60e08201819052608082015161385791612e92565b60a083018190526020830182600381111561386e57fe5b600381111561387957fe5b905250600090508160200151600381111561389057fe5b146138cc5760405162461bcd60e51b815260040180806020018281038252603a815260200180615ce8603a913960400191505060405180910390fd5b6138dc600b548260e00151612e92565b60c08301819052602083018260038111156138f357fe5b60038111156138fe57fe5b905250600090508160200151600381111561391557fe5b146139515760405162461bcd60e51b8152600401808060200182810382526031815260200180615d646031913960400191505060405180910390fd5b60a080820180516001600160a01b03808a16600081815260106020908152604091829020948555600a5460019095019490945560c0870151600b81905560e088015195518251948f16855294840192909252828101949094526060820192909252608081019190915290517f1a2a22cb034d26d1854bdc6666a5b91fe25efbbb5dcad3b0355478d6f5c362a1929181900390910190a160e00151600097909650945050505050565b600080600080613a098787612f83565b90925090506000826003811115613a1c57fe5b14613a2d5750915060009050612ffd565b612ff68186612e92565b6000613a416159e8565b600080613a5686670de0b6b3a7640000613af6565b90925090506000826003811115613a6957fe5b14613a8857506040805160208101909152600081529092509050612783565b600080613a958388614860565b90925090506000826003811115613aa857fe5b14613aca57506040805160208101909152600081529094509250612783915050565b604080516020810190915290815260009890975095505050505050565b51670de0b6b3a7640000900490565b60008083613b0957506000905080612783565b83830283858281613b1657fe5b0414613b2a57506002915060009050612783565b600092509050612783565b600080600080613b43612c98565b60095414613b6257613b57600a604f612919565b93509150612c939050565b613b6c3386615491565b905080600c54019150600c54821015613bcc576040805162461bcd60e51b815260206004820181905260248201527f61646420726573657276657320756e6578706563746564206f766572666c6f77604482015290519081900360640190fd5b600c829055604080513381526020810183905280820184905290517fa91e67c5ea634cd43a12c5a482724b03de01e85ca68702a53d0c2f45cb7c1dc59181900360600190a160009350915050915091565b6000601260009054906101000a90046001600160a01b03169050600080613ca884846001600160a01b03166399530b066040518163ffffffff1660e01b815260040160206040518083038186803b158015613c7757600080fd5b505afa158015613c8b573d6000803e3d6000fd5b505050506040513d6020811015613ca157600080fd5b5051614860565b915091506000836001600160a01b0316632e1a7d4d836040518263ffffffff1660e01b815260040180828152602001915050602060405180830381600087803b158015613cf457600080fd5b505af1158015613d08573d6000803e3d6000fd5b505050506040513d6020811015613d1e57600080fd5b505111613d6b576040805162461bcd60e51b815260206004820152601660248201527516559055531517d5d2551211149055d7d1905253115160521b604482015290519081900360640190fd5b6011546040805163a9059cbb60e01b81526001600160a01b0388811660048301526024820188905291519190921691829163a9059cbb9160448082019260009290919082900301818387803b158015613dc357600080fd5b505af1158015613dd7573d6000803e3d6000fd5b5050505060003d60008114613df35760208114613dfd57600080fd5b6000199150613e09565b60206000803e60005191505b5080613e5c576040805162461bcd60e51b815260206004820152601960248201527f544f4b454e5f5452414e534645525f4f55545f4641494c454400000000000000604482015290519081900360640190fd5b50505050505050565b6000821580613e72575081155b613ead5760405162461bcd60e51b8152600401808060200182810382526034815260200180615e256034913960400191505060405180910390fd5b613eb5615b0c565b613ebd612350565b6040830181905260208301826003811115613ed457fe5b6003811115613edf57fe5b9052506000905081602001516003811115613ef657fe5b14613f1a57613f126009602b83602001516003811115611b2457fe5b91505061127b565b8315613f9b576060810184905260408051602081018252908201518152613f419085612736565b6080830181905260208301826003811115613f5857fe5b6003811115613f6357fe5b9052506000905081602001516003811115613f7a57fe5b14613f9657613f126009602983602001516003811115611b2457fe5b614014565b613fb783604051806020016040528084604001518152506157a4565b6060830181905260208301826003811115613fce57fe5b6003811115613fd957fe5b9052506000905081602001516003811115613ff057fe5b1461400c57613f126009602a83602001516003811115611b2457fe5b608081018390525b60055460608201516040805163eabe7d9160e01b81523060048201526001600160a01b03898116602483015260448201939093529051600093929092169163eabe7d919160648082019260209290919082900301818787803b15801561407957600080fd5b505af115801561408d573d6000803e3d6000fd5b505050506040513d60208110156140a357600080fd5b5051905080156140c3576140ba6003602883612f1d565b9250505061127b565b6140cb612c98565b600954146140df576140ba600a602c612919565b6140ef600d548360600151612e92565b60a084018190526020840182600381111561410657fe5b600381111561411157fe5b905250600090508260200151600381111561412857fe5b14614144576140ba6009602e84602001516003811115611b2457fe5b6001600160a01b0386166000908152600e6020526040902054606083015161416c9190612e92565b60c084018190526020840182600381111561418357fe5b600381111561418e57fe5b90525060009050826020015160038111156141a557fe5b146141c1576140ba6009602d84602001516003811115611b2457fe5b81608001516141ce61278a565b10156141e0576140ba600e602f612919565b6141ee868360800151613c1d565b60a0820151600d5560c08201516001600160a01b0387166000818152600e6020908152604091829020939093556060850151815190815290513093600080516020615d44833981519152928290030190a36080820151606080840151604080516001600160a01b038b168152602081019490945283810191909152517fe5b754fb1abb7f01b499791d0b820ae3b6af3424ac1c59768edb53f4ec31a9299281900390910190a160055460808301516060840151604080516351dff98960e01b81523060048201526001600160a01b038b81166024830152604482019490945260648101929092525191909216916351dff98991608480830192600092919082900301818387803b15801561430157600080fd5b505af1158015614315573d6000803e3d6000fd5b5060009250614322915050565b9695505050505050565b60055460408051632fe3f38f60e11b81523060048201526001600160a01b0386811660248301528981166044830152888116606483015260848201889052915160009384938493911691635fc7e71e9160a48082019260209290919082900301818787803b15801561439d57600080fd5b505af11580156143b1573d6000803e3d6000fd5b505050506040513d60208110156143c757600080fd5b5051905080156143eb576143de6003601283612f1d565b9250600091506148559050565b6143f3612c98565b60095414614407576143de600a6016612919565b886001600160a01b0316886001600160a01b0316141561442d576143de60066017612919565b8661443e576143de60076015612919565b600019871415614454576143de60076014612919565b6000806144628b8b8b6136ab565b909250905081156144925761448382601081111561447c57fe5b6018612919565b94506000935061485592505050565b60055460408051633d67eb1f60e01b81523060048201526001600160a01b038b811660248301526044820185905282516000948594921692633d67eb1f926064808301939192829003018186803b1580156144ec57600080fd5b505afa158015614500573d6000803e3d6000fd5b505050506040513d604081101561451657600080fd5b508051602090910151909250905081156145615760405162461bcd60e51b8152600401808060200182810382526033815260200180615d956033913960400191505060405180910390fd5b808a6001600160a01b0316636eacd3988e6040518263ffffffff1660e01b815260040180826001600160a01b03166001600160a01b0316815260200191505060206040518083038186803b1580156145b857600080fd5b505afa1580156145cc573d6000803e3d6000fd5b505050506040513d60208110156145e257600080fd5b50511015614637576040805162461bcd60e51b815260206004820152601e60248201527f4c49515549444154455f5345495a455f444f45535f4e4f545f4d415443480000604482015290519081900360640190fd5b885160005b818110156146675789818151811061465057fe5b60200260200101518303925080600101905061463c565b5081156146a55760405162461bcd60e51b8152600401808060200182810382526022815260200180615d226022913960400191505060405180910390fd5b8a6001600160a01b031663938092088f8f8d8d6040518563ffffffff1660e01b815260040180856001600160a01b03166001600160a01b03168152602001846001600160a01b03166001600160a01b031681526020018060200180602001838103835285818151815260200191508051906020019060200280838360005b8381101561473b578181015183820152602001614723565b50505050905001838103825284818151815260200191508051906020019060200280838360005b8381101561477a578181015183820152602001614762565b505050509050019650505050505050600060405180830381600087803b1580156147a357600080fd5b505af11580156147b7573d6000803e3d6000fd5b505050507f298637f684da70674f26509b10f07ec2fbc77a335ab1e7d6215a4b2484d8bb528e8e868e8660405180866001600160a01b03166001600160a01b03168152602001856001600160a01b03166001600160a01b03168152602001848152602001836001600160a01b03166001600160a01b031681526020018281526020019550505050505060405180910390a16000975092955050505050505b965096945050505050565b600080826148745750600190506000612783565b600083858161487f57fe5b04915091509250929050565b60055460408051634ef4c3e160e01b81523060048201526001600160a01b03858116602483015260448201859052915160009384938493911691634ef4c3e19160648082019260209290919082900301818787803b1580156148ec57600080fd5b505af1158015614900573d6000803e3d6000fd5b505050506040513d602081101561491657600080fd5b50519050801561493a5761492d6003601f83612f1d565b9250600091506127839050565b614942612c98565b600954146149565761492d600a6022612919565b61495e615b0c565b614966612350565b604083018190526020830182600381111561497d57fe5b600381111561498857fe5b905250600090508160200151600381111561499f57fe5b146149c9576149bb6009602183602001516003811115611b2457fe5b935060009250612783915050565b6149d38686615491565b60c08201819052604080516020810182529083015181526149f491906157a4565b6060830181905260208301826003811115614a0b57fe5b6003811115614a1657fe5b9052506000905081602001516003811115614a2d57fe5b14614a7f576040805162461bcd60e51b815260206004820181905260248201527f4d494e545f45584348414e47455f43414c43554c4154494f4e5f4641494c4544604482015290519081900360640190fd5b614a8f600d548260600151612f83565b6080830181905260208301826003811115614aa657fe5b6003811115614ab157fe5b9052506000905081602001516003811115614ac857fe5b14614b045760405162461bcd60e51b8152600401808060200182810382526028815260200180615dfd6028913960400191505060405180910390fd5b6001600160a01b0386166000908152600e60205260409020546060820151614b2c9190612f83565b60a0830181905260208301826003811115614b4357fe5b6003811115614b4e57fe5b9052506000905081602001516003811115614b6557fe5b14614ba15760405162461bcd60e51b815260040180806020018281038252602b815260200180615c86602b913960400191505060405180910390fd5b6080810151600d5560a08101516001600160a01b0387166000818152600e60209081526040918290209390935560c084015160608086015183519485529484019190915282820193909352517f4c209b5fc8ad50758f13e2e1088ba56a560dff690a1c6fef26394f4c03821c4f929181900390910190a1606081015160408051918252516001600160a01b038816913091600080516020615d448339815191529181900360200190a360c001516000969095509350505050565b6000670de0b6b3a7640000614c748484600001516157bb565b81614c7b57fe5b049392505050565b600061127b8383604051806040016040528060158152602001747375627472616374696f6e20756e646572666c6f7760581b8152506157fd565b6000614cc76159e8565b614cd18484615894565b905061110b81613ae7565b600061127b8383604051806040016040528060118152602001706164646974696f6e206f766572666c6f7760781b8152506158be565b6005546040805163368f515360e21b81523060048201526001600160a01b0385811660248301526044820185905291516000938493169163da3d454c91606480830192602092919082900301818787803b158015614d6f57600080fd5b505af1158015614d83573d6000803e3d6000fd5b505050506040513d6020811015614d9957600080fd5b505190508015614db857614db06003600e83612f1d565b915050610d1c565b614dc0612c98565b60095414614dd357614db0600a80612919565b82614ddc61278a565b1015614dee57614db0600e6009612919565b614df6615b4a565b614dff85612be4565b6020830181905282826003811115614e1357fe5b6003811115614e1e57fe5b9052506000905081516003811115614e3257fe5b14614e5757614e4e6009600783600001516003811115611b2457fe5b92505050610d1c565b614e65816020015185612f83565b6040830181905282826003811115614e7957fe5b6003811115614e8457fe5b9052506000905081516003811115614e9857fe5b14614eb457614e4e6009600c83600001516003811115611b2457fe5b614ec0600b5485612f83565b6060830181905282826003811115614ed457fe5b6003811115614edf57fe5b9052506000905081516003811115614ef357fe5b14614f0f57614e4e6009600b83600001516003811115611b2457fe5b614f198585613c1d565b604080820180516001600160a01b03881660008181526010602090815290859020928355600a54600190930192909255606080860151600b81905593518551928352928201899052818501929092529081019190915290517f13ed6866d4e1ee6da46f845c46d7e54120883d75c5ea9a2dacc1c4ca8984ab809181900360800190a1600095945050505050565b60055460408051632fe3f38f60e11b81523060048201526001600160a01b0384811660248301528781166044830152868116606483015260848201869052915160009384938493911691635fc7e71e9160a48082019260209290919082900301818787803b15801561501757600080fd5b505af115801561502b573d6000803e3d6000fd5b505050506040513d602081101561504157600080fd5b505190508015615065576150586003601283612f1d565b9250600091506154889050565b61506d612c98565b6009541461508157615058600a6016612919565b615089612c98565b846001600160a01b0316636c540baf6040518163ffffffff1660e01b815260040160206040518083038186803b1580156150c257600080fd5b505afa1580156150d6573d6000803e3d6000fd5b505050506040513d60208110156150ec57600080fd5b5051146150ff57615058600a6011612919565b866001600160a01b0316866001600160a01b031614156151255761505860066017612919565b846151365761505860076015612919565b60001985141561514c5761505860076014612919565b60008061515a8989896136ab565b909250905081156151835761517482601081111561447c57fe5b94506000935061548892505050565b6005546040805163c488847b60e01b81523060048201526001600160a01b038981166024830152604482018590528251600094859492169263c488847b926064808301939192829003018186803b1580156151dd57600080fd5b505afa1580156151f1573d6000803e3d6000fd5b505050506040513d604081101561520757600080fd5b508051602090910151909250905081156152525760405162461bcd60e51b8152600401808060200182810382526033815260200180615d956033913960400191505060405180910390fd5b80886001600160a01b03166370a082318c6040518263ffffffff1660e01b815260040180826001600160a01b03166001600160a01b0316815260200191505060206040518083038186803b1580156152a957600080fd5b505afa1580156152bd573d6000803e3d6000fd5b505050506040513d60208110156152d357600080fd5b50511015615328576040805162461bcd60e51b815260206004820152601860248201527f4c49515549444154455f5345495a455f544f4f5f4d5543480000000000000000604482015290519081900360640190fd5b60006001600160a01b03891630141561534e57615347308d8d85613005565b90506153d8565b6040805163b2a02ff160e01b81526001600160a01b038e811660048301528d81166024830152604482018590529151918b169163b2a02ff1916064808201926020929091908290030181600087803b1580156153a957600080fd5b505af11580156153bd573d6000803e3d6000fd5b505050506040513d60208110156153d357600080fd5b505190505b8015615422576040805162461bcd60e51b81526020600482015260146024820152731d1bdad95b881cd95a5e9d5c994819985a5b195960621b604482015290519081900360640190fd5b604080516001600160a01b03808f168252808e1660208301528183018790528b1660608201526080810184905290517f298637f684da70674f26509b10f07ec2fbc77a335ab1e7d6215a4b2484d8bb529181900360a00190a16000975092955050505050505b94509492505050565b601154604080516370a0823160e01b815230600482015290516000926001600160a01b031691839183916370a08231916024808301926020929190829003018186803b1580156154e057600080fd5b505afa1580156154f4573d6000803e3d6000fd5b505050506040513d602081101561550a57600080fd5b5051604080516323b872dd60e01b81526001600160a01b038881166004830152306024830152604482018890529151929350908416916323b872dd9160648082019260009290919082900301818387803b15801561556757600080fd5b505af115801561557b573d6000803e3d6000fd5b5050505060003d6000811461559757602081146155a157600080fd5b60001991506155ad565b60206000803e60005191505b5080615600576040805162461bcd60e51b815260206004820152601860248201527f544f4b454e5f5452414e534645525f494e5f4641494c45440000000000000000604482015290519081900360640190fd5b601154604080516370a0823160e01b815230600482015290516000926001600160a01b0316916370a08231916024808301926020929190829003018186803b15801561564b57600080fd5b505afa15801561565f573d6000803e3d6000fd5b505050506040513d602081101561567557600080fd5b50519050828110156156ce576040805162461bcd60e51b815260206004820152601a60248201527f544f4b454e5f5452414e534645525f494e5f4f564552464c4f57000000000000604482015290519081900360640190fd5b6012546040805163b6b55f2560e01b81526004810184905290516001600160a01b0390921691600091839163b6b55f259160248082019260209290919082900301818787803b15801561572057600080fd5b505af1158015615734573d6000803e3d6000fd5b505050506040513d602081101561574a57600080fd5b505111615796576040805162461bcd60e51b815260206004820152601560248201527416559055531517d1115413d4d25517d19052531151605a1b604482015290519081900360640190fd5b509190910395945050505050565b60008060006157b16159e8565b61274d8686615913565b600061127b83836040518060400160405280601781526020017f6d756c7469706c69636174696f6e206f766572666c6f77000000000000000000815250615972565b6000818484111561588c5760405162461bcd60e51b81526004018080602001828103825283818151815260200191508051906020019080838360005b83811015615851578181015183820152602001615839565b50505050905090810190601f16801561587e5780820380516001836020036101000a031916815260200191505b509250505060405180910390fd5b505050900390565b61589c6159e8565b60405180602001604052806158b58560000151856157bb565b90529392505050565b6000838301828582101561103c5760405162461bcd60e51b8152602060048201818152835160248401528351909283926044909101919085019080838360008315615851578181015183820152602001615839565b600061591d6159e8565b600080615932670de0b6b3a764000087613af6565b9092509050600082600381111561594557fe5b1461596457506040805160208101909152600081529092509050612783565b61277c818660000151613a37565b600083158061597f575082155b1561598c5750600061127b565b8383028385828161599957fe5b0414839061103c5760405162461bcd60e51b8152602060048201818152835160248401528351909283926044909101919085019080838360008315615851578181015183820152602001615839565b6040518060200160405280600081525090565b828054600181600116156101000203166002900490600052602060002090601f016020900481019282601f10615a3c57805160ff1916838001178555615a69565b82800160010185558215615a69579182015b82811115615a69578251825591602001919060010190615a4e565b50615a75929150615b73565b5090565b604080516101208101909152806000815260200160008152602001600081526020016000815260200160008152602001600081526020016000815260200160008152602001600081525090565b6040805161010081019091528060008152602001600081526020016000815260200160008152602001600081526020016000815260200160008152602001600081525090565b6040805160e0810190915280600081526020016000815260200160008152602001600081526020016000815260200160008152602001600081525090565b604080516080810190915280600081526020016000815260200160008152602001600081525090565b610e6491905b80821115615a755760008155600101615b7956fe6f6e6c792061646d696e206d617920696e697469616c697a6520746865206d61726b65746d61726b6574206d6179206f6e6c7920626520696e697469616c697a6564206f6e63654345726332303a3a7377656570546f6b656e3a2063616e206e6f7420737765657020756e6465726c79696e6720746f6b656e696e697469616c2065786368616e67652072617465206d7573742062652067726561746572207468616e207a65726f2e6f6e6c79207468652061646d696e206d6179207365742074686520636f6d702d6c696b652064656c656761746573657474696e6720696e7465726573742072617465206d6f64656c206661696c65644d494e545f4e45575f4143434f554e545f42414c414e43455f43414c43554c4154494f4e5f4641494c4544626f72726f7742616c616e636553746f7265643a20626f72726f7742616c616e636553746f726564496e7465726e616c206661696c656452455041595f424f52524f575f4e45575f4143434f554e545f424f52524f575f42414c414e43455f43414c43554c4154494f4e5f4641494c45444c49515549444154455f5345495a455f494e434f52524543545f4e554d5f4e465453ddf252ad1be2c89b69c2b068fc378daa952ba7f163c4a11628f55a4df523b3ef52455041595f424f52524f575f4e45575f544f54414c5f42414c414e43455f43414c43554c4154494f4e5f4641494c45444c49515549444154455f434f4d5054524f4c4c45525f43414c43554c4154455f414d4f554e545f5345495a455f4641494c454465786368616e67655261746553746f7265643a2065786368616e67655261746553746f726564496e7465726e616c206661696c65644d494e545f4e45575f544f54414c5f535550504c595f43414c43554c4154494f4e5f4641494c45446f6e65206f662072656465656d546f6b656e73496e206f722072656465656d416d6f756e74496e206d757374206265207a65726f72656475636520726573657276657320756e657870656374656420756e646572666c6f77a265627a7a723158200bfbee2e7b3f18ae00ee0f5d63d112c1ae2e675fc00ea32cd91f0cb17ad3b2e664736f6c634300051000326f6e6c792061646d696e206d617920696e697469616c697a6520746865206d61726b65746d61726b6574206d6179206f6e6c7920626520696e697469616c697a6564206f6e6365696e697469616c2065786368616e67652072617465206d7573742062652067726561746572207468616e207a65726f2e73657474696e6720696e7465726573742072617465206d6f64656c206661696c6564",
  "devdoc": {
    "author": "Compound",
    "methods": {
      "_acceptAdmin()": {
        "details": "Admin function for pending admin to accept role and update admin",
        "return": "uint 0=success, otherwise a failure (see ErrorReporter.sol for details)"
      },
      "_addReserves(uint256)": {
        "params": {
          "addAmount": "The amount fo underlying token to add as reserves"
        },
        "return": "uint 0=success, otherwise a failure (see ErrorReporter.sol for details)"
      },
      "_delegateCompLikeTo(address)": {
        "details": "CTokens whose underlying are not CompLike should revert here",
        "params": {
          "compLikeDelegatee": "The address to delegate votes to"
        }
      },
      "_reduceReserves(uint256)": {
        "params": {
          "reduceAmount": "Amount of reduction to reserves"
        },
        "return": "uint 0=success, otherwise a failure (see ErrorReporter.sol for details)"
      },
      "_setComptroller(address)": {
        "details": "Admin function to set a new comptroller",
        "return": "uint 0=success, otherwise a failure (see ErrorReporter.sol for details)"
      },
      "_setInterestRateModel(address)": {
        "details": "Admin function to accrue interest and update the interest rate model",
        "params": {
          "newInterestRateModel": "the new interest rate model to use"
        },
        "return": "uint 0=success, otherwise a failure (see ErrorReporter.sol for details)"
      },
      "_setPendingAdmin(address)": {
        "details": "Admin function to begin change of admin. The newPendingAdmin must call `_acceptAdmin` to finalize the transfer.",
        "params": {
          "newPendingAdmin": "New pending admin."
        },
        "return": "uint 0=success, otherwise a failure (see ErrorReporter.sol for details)"
      },
      "_setReserveFactor(uint256)": {
        "details": "Admin function to accrue interest and set a new reserve factor",
        "return": "uint 0=success, otherwise a failure (see ErrorReporter.sol for details)"
      },
      "accrueInterest()": {
        "details": "This calculates interest accrued from the last checkpointed block  up to the current block and writes new checkpoint to storage."
      },
      "allowance(address,address)": {
        "params": {
          "owner": "The address of the account which owns the tokens to be spent",
          "spender": "The address of the account which may transfer tokens"
        },
        "return": "The number of tokens allowed to be spent (-1 means infinite)"
      },
      "approve(address,uint256)": {
        "details": "This will overwrite the approval amount for `spender` and is subject to issues noted [here](https://eips.ethereum.org/EIPS/eip-20#approve)",
        "params": {
          "amount": "The number of tokens that are approved (-1 means infinite)",
          "spender": "The address of the account which may transfer tokens"
        },
        "return": "Whether or not the approval succeeded"
      },
      "balanceOf(address)": {
        "params": {
          "owner": "The address of the account to query"
        },
        "return": "The number of tokens owned by `owner`"
      },
      "balanceOfUnderlying(address)": {
        "details": "This also accrues interest in a transaction",
        "params": {
          "owner": "The address of the account to query"
        },
        "return": "The amount of underlying owned by `owner`"
      },
      "borrow(uint256)": {
        "params": {
          "borrowAmount": "The amount of the underlying asset to borrow"
        },
        "return": "uint 0=success, otherwise a failure (see ErrorReporter.sol for details)"
      },
      "borrowBalanceCurrent(address)": {
        "params": {
          "account": "The address whose balance should be calculated after updating borrowIndex"
        },
        "return": "The calculated balance"
      },
      "borrowBalanceStored(address)": {
        "params": {
          "account": "The address whose balance should be calculated"
        },
        "return": "The calculated balance"
      },
      "borrowRatePerBlock()": {
        "return": "The borrow interest rate per block, scaled by 1e18"
      },
      "constructor": {
        "params": {
          "admin_": "Address of the administrator of this token",
          "comptroller_": "The address of the Comptroller",
          "decimals_": "ERC-20 decimal precision of this token",
          "initialExchangeRateMantissa_": "The initial exchange rate, scaled by 1e18",
          "interestRateModel_": "The address of the interest rate model",
          "name_": "ERC-20 name of this token",
          "symbol_": "ERC-20 symbol of this token",
          "underlying_": "The address of the underlying asset",
          "vault_": "The address of the yVault"
        }
      },
      "exchangeRateCurrent()": {
        "return": "Calculated exchange rate scaled by 1e18"
      },
      "exchangeRateStored()": {
        "details": "This function does not accrue interest before calculating the exchange rate",
        "return": "Calculated exchange rate scaled by 1e18"
      },
      "getAccountSnapshot(address)": {
        "details": "This is used by comptroller to more efficiently perform liquidity checks.",
        "params": {
          "account": "Address of the account to snapshot"
        },
        "return": "(possible error, token balance, borrow balance, exchange rate mantissa)"
      },
      "getCash()": {
        "return": "The quantity of underlying asset owned by this contract"
      },
      "initialize(address,address,address,address,uint256,string,string,uint8)": {
        "params": {
          "comptroller_": "The address of the Comptroller",
          "decimals_": "ERC-20 decimal precision of this token",
          "initialExchangeRateMantissa_": "The initial exchange rate, scaled by 1e18",
          "interestRateModel_": "The address of the interest rate model",
          "name_": "ERC-20 name of this token",
          "symbol_": "ERC-20 symbol of this token",
          "underlying_": "The address of the underlying asset",
          "vault_": "The address of the yVault"
        }
      },
      "initialize(address,address,uint256,string,string,uint8)": {
        "params": {
          "comptroller_": "The address of the Comptroller",
          "decimals_": "EIP-20 decimal precision of this token",
          "initialExchangeRateMantissa_": "The initial exchange rate, scaled by 1e18",
          "interestRateModel_": "The address of the interest rate model",
          "name_": "EIP-20 name of this token",
          "symbol_": "EIP-20 symbol of this token"
        }
      },
      "liquidateBorrow(address,uint256,address)": {
        "params": {
          "borrower": "The borrower of this cToken to be liquidated",
          "cTokenCollateral": "The market in which to seize collateral from the borrower",
          "repayAmount": "The amount of the underlying borrowed asset to repay"
        },
        "return": "uint 0=success, otherwise a failure (see ErrorReporter.sol for details)"
      },
      "liquidateBorrowNft(address,uint256,address,uint256[],uint256[])": {
        "params": {
          "borrower": "The borrower of this cToken to be liquidated",
          "cNftCollateral": "The market in which to seize collateral from the borrower",
          "repayAmount": "The amount of the underlying borrowed asset to repay",
          "seizeAmounts": "The amount of each ID of NFT to seize.",
          "seizeIds": "The IDs of the NFT to seize."
        },
        "return": "uint 0=success, otherwise a failure (see ErrorReporter.sol for details)"
      },
      "mint(uint256)": {
        "details": "Accrues interest whether or not the operation succeeds, unless reverted",
        "params": {
          "mintAmount": "The amount of the underlying asset to supply"
        },
        "return": "uint 0=success, otherwise a failure (see ErrorReporter.sol for details)"
      },
      "redeem(uint256)": {
        "details": "Accrues interest whether or not the operation succeeds, unless reverted",
        "params": {
          "redeemTokens": "The number of cTokens to redeem into underlying"
        },
        "return": "uint 0=success, otherwise a failure (see ErrorReporter.sol for details)"
      },
      "redeemUnderlying(uint256)": {
        "details": "Accrues interest whether or not the operation succeeds, unless reverted",
        "params": {
          "redeemAmount": "The amount of underlying to redeem"
        },
        "return": "uint 0=success, otherwise a failure (see ErrorReporter.sol for details)"
      },
      "repayBorrow(uint256)": {
        "params": {
          "repayAmount": "The amount to repay"
        },
        "return": "uint 0=success, otherwise a failure (see ErrorReporter.sol for details)"
      },
      "repayBorrowBehalf(address,uint256)": {
        "params": {
          "borrower": "the account with the debt being payed off",
          "repayAmount": "The amount to repay"
        },
        "return": "uint 0=success, otherwise a failure (see ErrorReporter.sol for details)"
      },
      "seize(address,address,uint256)": {
        "details": "Will fail unless called by another cToken during the process of liquidation. Its absolutely critical to use msg.sender as the borrowed cToken and not a parameter.",
        "params": {
          "borrower": "The account having collateral seized",
          "liquidator": "The account receiving seized collateral",
          "seizeTokens": "The number of cTokens to seize"
        },
        "return": "uint 0=success, otherwise a failure (see ErrorReporter.sol for details)"
      },
      "supplyRatePerBlock()": {
        "return": "The supply interest rate per block, scaled by 1e18"
      },
      "sweepToken(address)": {
        "params": {
          "token": "The address of the ERC-20 token to sweep"
        }
      },
      "totalBorrowsCurrent()": {
        "return": "The total borrows with interest"
      },
      "transfer(address,uint256)": {
        "params": {
          "amount": "The number of tokens to transfer",
          "dst": "The address of the destination account"
        },
        "return": "Whether or not the transfer succeeded"
      },
      "transferFrom(address,address,uint256)": {
        "params": {
          "amount": "The number of tokens to transfer",
          "dst": "The address of the destination account",
          "src": "The address of the source account"
        },
        "return": "Whether or not the transfer succeeded"
      }
    },
    "title": "Compound's CErc20Immutable Contract"
  },
  "userdoc": {
    "methods": {
      "_acceptAdmin()": {
        "notice": "Accepts transfer of admin rights. msg.sender must be pendingAdmin"
      },
      "_addReserves(uint256)": {
        "notice": "The sender adds to reserves."
      },
      "_delegateCompLikeTo(address)": {
        "notice": "Admin call to delegate the votes of the COMP-like underlying"
      },
      "_reduceReserves(uint256)": {
        "notice": "Accrues interest and reduces reserves by transferring to admin"
      },
      "_setComptroller(address)": {
        "notice": "Sets a new comptroller for the market"
      },
      "_setInterestRateModel(address)": {
        "notice": "accrues interest and updates the interest rate model using _setInterestRateModelFresh"
      },
      "_setPendingAdmin(address)": {
        "notice": "Begins transfer of admin rights. The newPendingAdmin must call `_acceptAdmin` to finalize the transfer."
      },
      "_setReserveFactor(uint256)": {
        "notice": "accrues interest and sets a new reserve factor for the protocol using _setReserveFactorFresh"
      },
      "accrueInterest()": {
        "notice": "Applies accrued interest to total borrows and reserves"
      },
      "allowance(address,address)": {
        "notice": "Get the current allowance from `owner` for `spender`"
      },
      "approve(address,uint256)": {
        "notice": "Approve `spender` to transfer up to `amount` from `src`"
      },
      "balanceOf(address)": {
        "notice": "Get the token balance of the `owner`"
      },
      "balanceOfUnderlying(address)": {
        "notice": "Get the underlying balance of the `owner`"
      },
      "borrow(uint256)": {
        "notice": "Sender borrows assets from the protocol to their own address"
      },
      "borrowBalanceCurrent(address)": {
        "notice": "Accrue interest to updated borrowIndex and then calculate account's borrow balance using the updated borrowIndex"
      },
      "borrowBalanceStored(address)": {
        "notice": "Return the borrow balance of account based on stored data"
      },
      "borrowRatePerBlock()": {
        "notice": "Returns the current per-block borrow interest rate for this cToken"
      },
      "constructor": "Construct a new money market",
      "exchangeRateCurrent()": {
        "notice": "Accrue interest then return the up-to-date exchange rate"
      },
      "exchangeRateStored()": {
        "notice": "Calculates the exchange rate from the underlying to the CToken"
      },
      "getAccountSnapshot(address)": {
        "notice": "Get a snapshot of the account's balances, and the cached exchange rate"
      },
      "getCash()": {
        "notice": "Get cash balance of this cToken in the underlying asset"
      },
      "initialize(address,address,address,address,uint256,string,string,uint8)": {
        "notice": "Initialize the new money market"
      },
      "initialize(address,address,uint256,string,string,uint8)": {
        "notice": "Initialize the money market"
      },
      "liquidateBorrow(address,uint256,address)": {
        "notice": "The sender liquidates the borrowers collateral. The collateral seized is transferred to the liquidator."
      },
      "liquidateBorrowNft(address,uint256,address,uint256[],uint256[])": {
        "notice": "The sender liquidates the borrowers collateral. The collateral seized is transferred to the liquidator."
      },
      "mint(uint256)": {
        "notice": "Sender supplies assets into the market and receives cTokens in exchange"
      },
      "redeem(uint256)": {
        "notice": "Sender redeems cTokens in exchange for the underlying asset"
      },
      "redeemUnderlying(uint256)": {
        "notice": "Sender redeems cTokens in exchange for a specified amount of underlying asset"
      },
      "repayBorrow(uint256)": {
        "notice": "Sender repays their own borrow"
      },
      "repayBorrowBehalf(address,uint256)": {
        "notice": "Sender repays a borrow belonging to borrower"
      },
      "seize(address,address,uint256)": {
        "notice": "Transfers collateral tokens (this market) to the liquidator."
      },
      "supplyRatePerBlock()": {
        "notice": "Returns the current per-block supply interest rate for this cToken"
      },
      "sweepToken(address)": {
        "notice": "A public function to sweep accidental ERC-20 transfers to this contract. Tokens are sent to admin (timelock)"
      },
      "totalBorrowsCurrent()": {
        "notice": "Returns the current total borrows plus accrued interest"
      },
      "transfer(address,uint256)": {
        "notice": "Transfer `amount` tokens from `msg.sender` to `dst`"
      },
      "transferFrom(address,address,uint256)": {
        "notice": "Transfer `amount` tokens from `src` to `dst`"
      }
    },
    "notice": "CTokens which wrap an EIP-20 underlying and are immutable"
  },
  "storageLayout": {
    "storage": [
      {
        "astId": 6791,
        "contract": "contracts/CErc20Immutable.sol:CErc20Immutable",
        "label": "_notEntered",
        "offset": 0,
        "slot": "0",
        "type": "t_bool"
      },
      {
        "astId": 6793,
        "contract": "contracts/CErc20Immutable.sol:CErc20Immutable",
        "label": "name",
        "offset": 0,
        "slot": "1",
        "type": "t_string_storage"
      },
      {
        "astId": 6795,
        "contract": "contracts/CErc20Immutable.sol:CErc20Immutable",
        "label": "symbol",
        "offset": 0,
        "slot": "2",
        "type": "t_string_storage"
      },
      {
        "astId": 6797,
        "contract": "contracts/CErc20Immutable.sol:CErc20Immutable",
        "label": "decimals",
        "offset": 0,
        "slot": "3",
        "type": "t_uint8"
      },
      {
        "astId": 6805,
        "contract": "contracts/CErc20Immutable.sol:CErc20Immutable",
        "label": "admin",
        "offset": 1,
        "slot": "3",
        "type": "t_address_payable"
      },
      {
        "astId": 6807,
        "contract": "contracts/CErc20Immutable.sol:CErc20Immutable",
        "label": "pendingAdmin",
        "offset": 0,
        "slot": "4",
        "type": "t_address_payable"
      },
      {
        "astId": 6809,
        "contract": "contracts/CErc20Immutable.sol:CErc20Immutable",
        "label": "comptroller",
        "offset": 0,
        "slot": "5",
        "type": "t_contract(ComptrollerInterface)34879"
      },
      {
        "astId": 6811,
        "contract": "contracts/CErc20Immutable.sol:CErc20Immutable",
        "label": "interestRateModel",
        "offset": 0,
        "slot": "6",
        "type": "t_contract(InterestRateModel)39178"
      },
      {
        "astId": 6813,
        "contract": "contracts/CErc20Immutable.sol:CErc20Immutable",
        "label": "initialExchangeRateMantissa",
        "offset": 0,
        "slot": "7",
        "type": "t_uint256"
      },
      {
        "astId": 6815,
        "contract": "contracts/CErc20Immutable.sol:CErc20Immutable",
        "label": "reserveFactorMantissa",
        "offset": 0,
        "slot": "8",
        "type": "t_uint256"
      },
      {
        "astId": 6817,
        "contract": "contracts/CErc20Immutable.sol:CErc20Immutable",
        "label": "accrualBlockNumber",
        "offset": 0,
        "slot": "9",
        "type": "t_uint256"
      },
      {
        "astId": 6819,
        "contract": "contracts/CErc20Immutable.sol:CErc20Immutable",
        "label": "borrowIndex",
        "offset": 0,
        "slot": "10",
        "type": "t_uint256"
      },
      {
        "astId": 6821,
        "contract": "contracts/CErc20Immutable.sol:CErc20Immutable",
        "label": "totalBorrows",
        "offset": 0,
        "slot": "11",
        "type": "t_uint256"
      },
      {
        "astId": 6823,
        "contract": "contracts/CErc20Immutable.sol:CErc20Immutable",
        "label": "totalReserves",
        "offset": 0,
        "slot": "12",
        "type": "t_uint256"
      },
      {
        "astId": 6825,
        "contract": "contracts/CErc20Immutable.sol:CErc20Immutable",
        "label": "totalSupply",
        "offset": 0,
        "slot": "13",
        "type": "t_uint256"
      },
      {
        "astId": 6829,
        "contract": "contracts/CErc20Immutable.sol:CErc20Immutable",
        "label": "accountTokens",
        "offset": 0,
        "slot": "14",
        "type": "t_mapping(t_address,t_uint256)"
      },
      {
        "astId": 6835,
        "contract": "contracts/CErc20Immutable.sol:CErc20Immutable",
        "label": "transferAllowances",
        "offset": 0,
        "slot": "15",
        "type": "t_mapping(t_address,t_mapping(t_address,t_uint256))"
      },
      {
        "astId": 6844,
        "contract": "contracts/CErc20Immutable.sol:CErc20Immutable",
        "label": "accountBorrows",
        "offset": 0,
        "slot": "16",
        "type": "t_mapping(t_address,t_struct(BorrowSnapshot)6840_storage)"
      },
      {
        "astId": 7151,
        "contract": "contracts/CErc20Immutable.sol:CErc20Immutable",
        "label": "underlying",
        "offset": 0,
        "slot": "17",
        "type": "t_address"
      },
      {
        "astId": 929,
        "contract": "contracts/CErc20Immutable.sol:CErc20Immutable",
        "label": "vault",
        "offset": 0,
        "slot": "18",
        "type": "t_address"
      }
    ],
    "types": {
      "t_address": {
        "encoding": "inplace",
        "label": "address",
        "numberOfBytes": "20"
      },
      "t_address_payable": {
        "encoding": "inplace",
        "label": "address payable",
        "numberOfBytes": "20"
      },
      "t_bool": {
        "encoding": "inplace",
        "label": "bool",
        "numberOfBytes": "1"
      },
      "t_contract(ComptrollerInterface)34879": {
        "encoding": "inplace",
        "label": "contract ComptrollerInterface",
        "numberOfBytes": "20"
      },
      "t_contract(InterestRateModel)39178": {
        "encoding": "inplace",
        "label": "contract InterestRateModel",
        "numberOfBytes": "20"
      },
      "t_mapping(t_address,t_mapping(t_address,t_uint256))": {
        "encoding": "mapping",
        "key": "t_address",
        "label": "mapping(address => mapping(address => uint256))",
        "numberOfBytes": "32",
        "value": "t_mapping(t_address,t_uint256)"
      },
      "t_mapping(t_address,t_struct(BorrowSnapshot)6840_storage)": {
        "encoding": "mapping",
        "key": "t_address",
        "label": "mapping(address => struct CTokenStorage.BorrowSnapshot)",
        "numberOfBytes": "32",
        "value": "t_struct(BorrowSnapshot)6840_storage"
      },
      "t_mapping(t_address,t_uint256)": {
        "encoding": "mapping",
        "key": "t_address",
        "label": "mapping(address => uint256)",
        "numberOfBytes": "32",
        "value": "t_uint256"
      },
      "t_string_storage": {
        "encoding": "bytes",
        "label": "string",
        "numberOfBytes": "32"
      },
      "t_struct(BorrowSnapshot)6840_storage": {
        "encoding": "inplace",
        "label": "struct CTokenStorage.BorrowSnapshot",
        "members": [
          {
            "astId": 6837,
            "contract": "contracts/CErc20Immutable.sol:CErc20Immutable",
            "label": "principal",
            "offset": 0,
            "slot": "0",
            "type": "t_uint256"
          },
          {
            "astId": 6839,
            "contract": "contracts/CErc20Immutable.sol:CErc20Immutable",
            "label": "interestIndex",
            "offset": 0,
            "slot": "1",
            "type": "t_uint256"
          }
        ],
        "numberOfBytes": "64"
      },
      "t_uint256": {
        "encoding": "inplace",
        "label": "uint256",
        "numberOfBytes": "32"
      },
      "t_uint8": {
        "encoding": "inplace",
        "label": "uint8",
        "numberOfBytes": "1"
      }
    }
  }
}