{
  "address": "0x6d3320EdbB6689248DedAEbf5A21a738d28efea1",
  "abi": [
    {
      "inputs": [
        {
          "internalType": "contract ComptrollerInterface",
          "name": "comptroller_",
          "type": "address"
        },
        {
          "internalType": "contract InterestRateModel",
          "name": "interestRateModel_",
          "type": "address"
        },
        {
          "internalType": "uint256",
          "name": "initialExchangeRateMantissa_",
          "type": "uint256"
        },
        {
          "internalType": "string",
          "name": "name_",
          "type": "string"
        },
        {
          "internalType": "string",
          "name": "symbol_",
          "type": "string"
        },
        {
          "internalType": "uint8",
          "name": "decimals_",
          "type": "uint8"
        },
        {
          "internalType": "address payable",
          "name": "admin_",
          "type": "address"
        }
      ],
      "payable": false,
      "stateMutability": "nonpayable",
      "type": "constructor"
    },
    {
      "anonymous": false,
      "inputs": [
        {
          "indexed": false,
          "internalType": "uint256",
          "name": "cashPrior",
          "type": "uint256"
        },
        {
          "indexed": false,
          "internalType": "uint256",
          "name": "interestAccumulated",
          "type": "uint256"
        },
        {
          "indexed": false,
          "internalType": "uint256",
          "name": "borrowIndex",
          "type": "uint256"
        },
        {
          "indexed": false,
          "internalType": "uint256",
          "name": "totalBorrows",
          "type": "uint256"
        }
      ],
      "name": "AccrueInterest",
      "type": "event"
    },
    {
      "anonymous": false,
      "inputs": [
        {
          "indexed": true,
          "internalType": "address",
          "name": "owner",
          "type": "address"
        },
        {
          "indexed": true,
          "internalType": "address",
          "name": "spender",
          "type": "address"
        },
        {
          "indexed": false,
          "internalType": "uint256",
          "name": "amount",
          "type": "uint256"
        }
      ],
      "name": "Approval",
      "type": "event"
    },
    {
      "anonymous": false,
      "inputs": [
        {
          "indexed": false,
          "internalType": "address",
          "name": "borrower",
          "type": "address"
        },
        {
          "indexed": false,
          "internalType": "uint256",
          "name": "borrowAmount",
          "type": "uint256"
        },
        {
          "indexed": false,
          "internalType": "uint256",
          "name": "accountBorrows",
          "type": "uint256"
        },
        {
          "indexed": false,
          "internalType": "uint256",
          "name": "totalBorrows",
          "type": "uint256"
        }
      ],
      "name": "Borrow",
      "type": "event"
    },
    {
      "anonymous": false,
      "inputs": [
        {
          "indexed": false,
          "internalType": "uint256",
          "name": "error",
          "type": "uint256"
        },
        {
          "indexed": false,
          "internalType": "uint256",
          "name": "info",
          "type": "uint256"
        },
        {
          "indexed": false,
          "internalType": "uint256",
          "name": "detail",
          "type": "uint256"
        }
      ],
      "name": "Failure",
      "type": "event"
    },
    {
      "anonymous": false,
      "inputs": [
        {
          "indexed": false,
          "internalType": "address",
          "name": "liquidator",
          "type": "address"
        },
        {
          "indexed": false,
          "internalType": "address",
          "name": "borrower",
          "type": "address"
        },
        {
          "indexed": false,
          "internalType": "uint256",
          "name": "repayAmount",
          "type": "uint256"
        },
        {
          "indexed": false,
          "internalType": "address",
          "name": "cTokenCollateral",
          "type": "address"
        },
        {
          "indexed": false,
          "internalType": "uint256",
          "name": "seizeTokens",
          "type": "uint256"
        }
      ],
      "name": "LiquidateBorrow",
      "type": "event"
    },
    {
      "anonymous": false,
      "inputs": [
        {
          "indexed": false,
          "internalType": "address",
          "name": "minter",
          "type": "address"
        },
        {
          "indexed": false,
          "internalType": "uint256",
          "name": "mintAmount",
          "type": "uint256"
        },
        {
          "indexed": false,
          "internalType": "uint256",
          "name": "mintTokens",
          "type": "uint256"
        }
      ],
      "name": "Mint",
      "type": "event"
    },
    {
      "anonymous": false,
      "inputs": [
        {
          "indexed": false,
          "internalType": "address",
          "name": "oldAdmin",
          "type": "address"
        },
        {
          "indexed": false,
          "internalType": "address",
          "name": "newAdmin",
          "type": "address"
        }
      ],
      "name": "NewAdmin",
      "type": "event"
    },
    {
      "anonymous": false,
      "inputs": [
        {
          "indexed": false,
          "internalType": "contract ComptrollerInterface",
          "name": "oldComptroller",
          "type": "address"
        },
        {
          "indexed": false,
          "internalType": "contract ComptrollerInterface",
          "name": "newComptroller",
          "type": "address"
        }
      ],
      "name": "NewComptroller",
      "type": "event"
    },
    {
      "anonymous": false,
      "inputs": [
        {
          "indexed": false,
          "internalType": "contract InterestRateModel",
          "name": "oldInterestRateModel",
          "type": "address"
        },
        {
          "indexed": false,
          "internalType": "contract InterestRateModel",
          "name": "newInterestRateModel",
          "type": "address"
        }
      ],
      "name": "NewMarketInterestRateModel",
      "type": "event"
    },
    {
      "anonymous": false,
      "inputs": [
        {
          "indexed": false,
          "internalType": "address",
          "name": "oldPendingAdmin",
          "type": "address"
        },
        {
          "indexed": false,
          "internalType": "address",
          "name": "newPendingAdmin",
          "type": "address"
        }
      ],
      "name": "NewPendingAdmin",
      "type": "event"
    },
    {
      "anonymous": false,
      "inputs": [
        {
          "indexed": false,
          "internalType": "uint256",
          "name": "oldReserveFactorMantissa",
          "type": "uint256"
        },
        {
          "indexed": false,
          "internalType": "uint256",
          "name": "newReserveFactorMantissa",
          "type": "uint256"
        }
      ],
      "name": "NewReserveFactor",
      "type": "event"
    },
    {
      "anonymous": false,
      "inputs": [
        {
          "indexed": false,
          "internalType": "address",
          "name": "redeemer",
          "type": "address"
        },
        {
          "indexed": false,
          "internalType": "uint256",
          "name": "redeemAmount",
          "type": "uint256"
        },
        {
          "indexed": false,
          "internalType": "uint256",
          "name": "redeemTokens",
          "type": "uint256"
        }
      ],
      "name": "Redeem",
      "type": "event"
    },
    {
      "anonymous": false,
      "inputs": [
        {
          "indexed": false,
          "internalType": "address",
          "name": "payer",
          "type": "address"
        },
        {
          "indexed": false,
          "internalType": "address",
          "name": "borrower",
          "type": "address"
        },
        {
          "indexed": false,
          "internalType": "uint256",
          "name": "repayAmount",
          "type": "uint256"
        },
        {
          "indexed": false,
          "internalType": "uint256",
          "name": "accountBorrows",
          "type": "uint256"
        },
        {
          "indexed": false,
          "internalType": "uint256",
          "name": "totalBorrows",
          "type": "uint256"
        }
      ],
      "name": "RepayBorrow",
      "type": "event"
    },
    {
      "anonymous": false,
      "inputs": [
        {
          "indexed": false,
          "internalType": "address",
          "name": "benefactor",
          "type": "address"
        },
        {
          "indexed": false,
          "internalType": "uint256",
          "name": "addAmount",
          "type": "uint256"
        },
        {
          "indexed": false,
          "internalType": "uint256",
          "name": "newTotalReserves",
          "type": "uint256"
        }
      ],
      "name": "ReservesAdded",
      "type": "event"
    },
    {
      "anonymous": false,
      "inputs": [
        {
          "indexed": false,
          "internalType": "address",
          "name": "admin",
          "type": "address"
        },
        {
          "indexed": false,
          "internalType": "uint256",
          "name": "reduceAmount",
          "type": "uint256"
        },
        {
          "indexed": false,
          "internalType": "uint256",
          "name": "newTotalReserves",
          "type": "uint256"
        }
      ],
      "name": "ReservesReduced",
      "type": "event"
    },
    {
      "anonymous": false,
      "inputs": [
        {
          "indexed": true,
          "internalType": "address",
          "name": "from",
          "type": "address"
        },
        {
          "indexed": true,
          "internalType": "address",
          "name": "to",
          "type": "address"
        },
        {
          "indexed": false,
          "internalType": "uint256",
          "name": "amount",
          "type": "uint256"
        }
      ],
      "name": "Transfer",
      "type": "event"
    },
    {
      "payable": true,
      "stateMutability": "payable",
      "type": "fallback"
    },
    {
      "constant": false,
      "inputs": [],
      "name": "_acceptAdmin",
      "outputs": [
        {
          "internalType": "uint256",
          "name": "",
          "type": "uint256"
        }
      ],
      "payable": false,
      "stateMutability": "nonpayable",
      "type": "function"
    },
    {
      "constant": false,
      "inputs": [],
      "name": "_addReserves",
      "outputs": [
        {
          "internalType": "uint256",
          "name": "",
          "type": "uint256"
        }
      ],
      "payable": true,
      "stateMutability": "payable",
      "type": "function"
    },
    {
      "constant": false,
      "inputs": [
        {
          "internalType": "uint256",
          "name": "reduceAmount",
          "type": "uint256"
        }
      ],
      "name": "_reduceReserves",
      "outputs": [
        {
          "internalType": "uint256",
          "name": "",
          "type": "uint256"
        }
      ],
      "payable": false,
      "stateMutability": "nonpayable",
      "type": "function"
    },
    {
      "constant": false,
      "inputs": [
        {
          "internalType": "contract ComptrollerInterface",
          "name": "newComptroller",
          "type": "address"
        }
      ],
      "name": "_setComptroller",
      "outputs": [
        {
          "internalType": "uint256",
          "name": "",
          "type": "uint256"
        }
      ],
      "payable": false,
      "stateMutability": "nonpayable",
      "type": "function"
    },
    {
      "constant": false,
      "inputs": [
        {
          "internalType": "contract InterestRateModel",
          "name": "newInterestRateModel",
          "type": "address"
        }
      ],
      "name": "_setInterestRateModel",
      "outputs": [
        {
          "internalType": "uint256",
          "name": "",
          "type": "uint256"
        }
      ],
      "payable": false,
      "stateMutability": "nonpayable",
      "type": "function"
    },
    {
      "constant": false,
      "inputs": [
        {
          "internalType": "address payable",
          "name": "newPendingAdmin",
          "type": "address"
        }
      ],
      "name": "_setPendingAdmin",
      "outputs": [
        {
          "internalType": "uint256",
          "name": "",
          "type": "uint256"
        }
      ],
      "payable": false,
      "stateMutability": "nonpayable",
      "type": "function"
    },
    {
      "constant": false,
      "inputs": [
        {
          "internalType": "uint256",
          "name": "newReserveFactorMantissa",
          "type": "uint256"
        }
      ],
      "name": "_setReserveFactor",
      "outputs": [
        {
          "internalType": "uint256",
          "name": "",
          "type": "uint256"
        }
      ],
      "payable": false,
      "stateMutability": "nonpayable",
      "type": "function"
    },
    {
      "constant": true,
      "inputs": [],
      "name": "accrualBlockNumber",
      "outputs": [
        {
          "internalType": "uint256",
          "name": "",
          "type": "uint256"
        }
      ],
      "payable": false,
      "stateMutability": "view",
      "type": "function"
    },
    {
      "constant": false,
      "inputs": [],
      "name": "accrueInterest",
      "outputs": [
        {
          "internalType": "uint256",
          "name": "",
          "type": "uint256"
        }
      ],
      "payable": false,
      "stateMutability": "nonpayable",
      "type": "function"
    },
    {
      "constant": true,
      "inputs": [],
      "name": "admin",
      "outputs": [
        {
          "internalType": "address payable",
          "name": "",
          "type": "address"
        }
      ],
      "payable": false,
      "stateMutability": "view",
      "type": "function"
    },
    {
      "constant": true,
      "inputs": [
        {
          "internalType": "address",
          "name": "owner",
          "type": "address"
        },
        {
          "internalType": "address",
          "name": "spender",
          "type": "address"
        }
      ],
      "name": "allowance",
      "outputs": [
        {
          "internalType": "uint256",
          "name": "",
          "type": "uint256"
        }
      ],
      "payable": false,
      "stateMutability": "view",
      "type": "function"
    },
    {
      "constant": false,
      "inputs": [
        {
          "internalType": "address",
          "name": "spender",
          "type": "address"
        },
        {
          "internalType": "uint256",
          "name": "amount",
          "type": "uint256"
        }
      ],
      "name": "approve",
      "outputs": [
        {
          "internalType": "bool",
          "name": "",
          "type": "bool"
        }
      ],
      "payable": false,
      "stateMutability": "nonpayable",
      "type": "function"
    },
    {
      "constant": true,
      "inputs": [
        {
          "internalType": "address",
          "name": "owner",
          "type": "address"
        }
      ],
      "name": "balanceOf",
      "outputs": [
        {
          "internalType": "uint256",
          "name": "",
          "type": "uint256"
        }
      ],
      "payable": false,
      "stateMutability": "view",
      "type": "function"
    },
    {
      "constant": false,
      "inputs": [
        {
          "internalType": "address",
          "name": "owner",
          "type": "address"
        }
      ],
      "name": "balanceOfUnderlying",
      "outputs": [
        {
          "internalType": "uint256",
          "name": "",
          "type": "uint256"
        }
      ],
      "payable": false,
      "stateMutability": "nonpayable",
      "type": "function"
    },
    {
      "constant": false,
      "inputs": [
        {
          "internalType": "uint256",
          "name": "borrowAmount",
          "type": "uint256"
        }
      ],
      "name": "borrow",
      "outputs": [
        {
          "internalType": "uint256",
          "name": "",
          "type": "uint256"
        }
      ],
      "payable": false,
      "stateMutability": "nonpayable",
      "type": "function"
    },
    {
      "constant": false,
      "inputs": [
        {
          "internalType": "address",
          "name": "account",
          "type": "address"
        }
      ],
      "name": "borrowBalanceCurrent",
      "outputs": [
        {
          "internalType": "uint256",
          "name": "",
          "type": "uint256"
        }
      ],
      "payable": false,
      "stateMutability": "nonpayable",
      "type": "function"
    },
    {
      "constant": true,
      "inputs": [
        {
          "internalType": "address",
          "name": "account",
          "type": "address"
        }
      ],
      "name": "borrowBalanceStored",
      "outputs": [
        {
          "internalType": "uint256",
          "name": "",
          "type": "uint256"
        }
      ],
      "payable": false,
      "stateMutability": "view",
      "type": "function"
    },
    {
      "constant": true,
      "inputs": [],
      "name": "borrowIndex",
      "outputs": [
        {
          "internalType": "uint256",
          "name": "",
          "type": "uint256"
        }
      ],
      "payable": false,
      "stateMutability": "view",
      "type": "function"
    },
    {
      "constant": true,
      "inputs": [],
      "name": "borrowRatePerBlock",
      "outputs": [
        {
          "internalType": "uint256",
          "name": "",
          "type": "uint256"
        }
      ],
      "payable": false,
      "stateMutability": "view",
      "type": "function"
    },
    {
      "constant": true,
      "inputs": [],
      "name": "comptroller",
      "outputs": [
        {
          "internalType": "contract ComptrollerInterface",
          "name": "",
          "type": "address"
        }
      ],
      "payable": false,
      "stateMutability": "view",
      "type": "function"
    },
    {
      "constant": true,
      "inputs": [],
      "name": "decimals",
      "outputs": [
        {
          "internalType": "uint8",
          "name": "",
          "type": "uint8"
        }
      ],
      "payable": false,
      "stateMutability": "view",
      "type": "function"
    },
    {
      "constant": false,
      "inputs": [],
      "name": "exchangeRateCurrent",
      "outputs": [
        {
          "internalType": "uint256",
          "name": "",
          "type": "uint256"
        }
      ],
      "payable": false,
      "stateMutability": "nonpayable",
      "type": "function"
    },
    {
      "constant": true,
      "inputs": [],
      "name": "exchangeRateStored",
      "outputs": [
        {
          "internalType": "uint256",
          "name": "",
          "type": "uint256"
        }
      ],
      "payable": false,
      "stateMutability": "view",
      "type": "function"
    },
    {
      "constant": true,
      "inputs": [
        {
          "internalType": "address",
          "name": "account",
          "type": "address"
        }
      ],
      "name": "getAccountSnapshot",
      "outputs": [
        {
          "internalType": "uint256",
          "name": "",
          "type": "uint256"
        },
        {
          "internalType": "uint256",
          "name": "",
          "type": "uint256"
        },
        {
          "internalType": "uint256",
          "name": "",
          "type": "uint256"
        },
        {
          "internalType": "uint256",
          "name": "",
          "type": "uint256"
        }
      ],
      "payable": false,
      "stateMutability": "view",
      "type": "function"
    },
    {
      "constant": true,
      "inputs": [],
      "name": "getCash",
      "outputs": [
        {
          "internalType": "uint256",
          "name": "",
          "type": "uint256"
        }
      ],
      "payable": false,
      "stateMutability": "view",
      "type": "function"
    },
    {
      "constant": false,
      "inputs": [
        {
          "internalType": "contract ComptrollerInterface",
          "name": "comptroller_",
          "type": "address"
        },
        {
          "internalType": "contract InterestRateModel",
          "name": "interestRateModel_",
          "type": "address"
        },
        {
          "internalType": "uint256",
          "name": "initialExchangeRateMantissa_",
          "type": "uint256"
        },
        {
          "internalType": "string",
          "name": "name_",
          "type": "string"
        },
        {
          "internalType": "string",
          "name": "symbol_",
          "type": "string"
        },
        {
          "internalType": "uint8",
          "name": "decimals_",
          "type": "uint8"
        }
      ],
      "name": "initialize",
      "outputs": [],
      "payable": false,
      "stateMutability": "nonpayable",
      "type": "function"
    },
    {
      "constant": true,
      "inputs": [],
      "name": "interestRateModel",
      "outputs": [
        {
          "internalType": "contract InterestRateModel",
          "name": "",
          "type": "address"
        }
      ],
      "payable": false,
      "stateMutability": "view",
      "type": "function"
    },
    {
      "constant": true,
      "inputs": [],
      "name": "isCToken",
      "outputs": [
        {
          "internalType": "bool",
          "name": "",
          "type": "bool"
        }
      ],
      "payable": false,
      "stateMutability": "view",
      "type": "function"
    },
    {
      "constant": false,
      "inputs": [
        {
          "internalType": "address",
          "name": "borrower",
          "type": "address"
        },
        {
          "internalType": "contract CToken",
          "name": "cTokenCollateral",
          "type": "address"
        }
      ],
      "name": "liquidateBorrow",
      "outputs": [],
      "payable": true,
      "stateMutability": "payable",
      "type": "function"
    },
    {
      "constant": false,
      "inputs": [
        {
          "internalType": "address",
          "name": "borrower",
          "type": "address"
        },
        {
          "internalType": "contract CNftInterface",
          "name": "cNftCollateral",
          "type": "address"
        },
        {
          "internalType": "uint256[]",
          "name": "seizeIds",
          "type": "uint256[]"
        },
        {
          "internalType": "uint256[]",
          "name": "seizeAmounts",
          "type": "uint256[]"
        }
      ],
      "name": "liquidateBorrowNft",
      "outputs": [],
      "payable": true,
      "stateMutability": "payable",
      "type": "function"
    },
    {
      "constant": false,
      "inputs": [],
      "name": "mint",
      "outputs": [],
      "payable": true,
      "stateMutability": "payable",
      "type": "function"
    },
    {
      "constant": true,
      "inputs": [],
      "name": "name",
      "outputs": [
        {
          "internalType": "string",
          "name": "",
          "type": "string"
        }
      ],
      "payable": false,
      "stateMutability": "view",
      "type": "function"
    },
    {
      "constant": true,
      "inputs": [],
      "name": "pendingAdmin",
      "outputs": [
        {
          "internalType": "address payable",
          "name": "",
          "type": "address"
        }
      ],
      "payable": false,
      "stateMutability": "view",
      "type": "function"
    },
    {
      "constant": true,
      "inputs": [],
      "name": "protocolSeizeShareMantissa",
      "outputs": [
        {
          "internalType": "uint256",
          "name": "",
          "type": "uint256"
        }
      ],
      "payable": false,
      "stateMutability": "view",
      "type": "function"
    },
    {
      "constant": false,
      "inputs": [
        {
          "internalType": "uint256",
          "name": "redeemTokens",
          "type": "uint256"
        }
      ],
      "name": "redeem",
      "outputs": [
        {
          "internalType": "uint256",
          "name": "",
          "type": "uint256"
        }
      ],
      "payable": false,
      "stateMutability": "nonpayable",
      "type": "function"
    },
    {
      "constant": false,
      "inputs": [
        {
          "internalType": "uint256",
          "name": "redeemAmount",
          "type": "uint256"
        }
      ],
      "name": "redeemUnderlying",
      "outputs": [
        {
          "internalType": "uint256",
          "name": "",
          "type": "uint256"
        }
      ],
      "payable": false,
      "stateMutability": "nonpayable",
      "type": "function"
    },
    {
      "constant": false,
      "inputs": [],
      "name": "repayBorrow",
      "outputs": [],
      "payable": true,
      "stateMutability": "payable",
      "type": "function"
    },
    {
      "constant": false,
      "inputs": [
        {
          "internalType": "address",
          "name": "borrower",
          "type": "address"
        }
      ],
      "name": "repayBorrowBehalf",
      "outputs": [],
      "payable": true,
      "stateMutability": "payable",
      "type": "function"
    },
    {
      "constant": true,
      "inputs": [],
      "name": "reserveFactorMantissa",
      "outputs": [
        {
          "internalType": "uint256",
          "name": "",
          "type": "uint256"
        }
      ],
      "payable": false,
      "stateMutability": "view",
      "type": "function"
    },
    {
      "constant": false,
      "inputs": [
        {
          "internalType": "address",
          "name": "liquidator",
          "type": "address"
        },
        {
          "internalType": "address",
          "name": "borrower",
          "type": "address"
        },
        {
          "internalType": "uint256",
          "name": "seizeTokens",
          "type": "uint256"
        }
      ],
      "name": "seize",
      "outputs": [
        {
          "internalType": "uint256",
          "name": "",
          "type": "uint256"
        }
      ],
      "payable": false,
      "stateMutability": "nonpayable",
      "type": "function"
    },
    {
      "constant": true,
      "inputs": [],
      "name": "supplyRatePerBlock",
      "outputs": [
        {
          "internalType": "uint256",
          "name": "",
          "type": "uint256"
        }
      ],
      "payable": false,
      "stateMutability": "view",
      "type": "function"
    },
    {
      "constant": true,
      "inputs": [],
      "name": "symbol",
      "outputs": [
        {
          "internalType": "string",
          "name": "",
          "type": "string"
        }
      ],
      "payable": false,
      "stateMutability": "view",
      "type": "function"
    },
    {
      "constant": true,
      "inputs": [],
      "name": "totalBorrows",
      "outputs": [
        {
          "internalType": "uint256",
          "name": "",
          "type": "uint256"
        }
      ],
      "payable": false,
      "stateMutability": "view",
      "type": "function"
    },
    {
      "constant": false,
      "inputs": [],
      "name": "totalBorrowsCurrent",
      "outputs": [
        {
          "internalType": "uint256",
          "name": "",
          "type": "uint256"
        }
      ],
      "payable": false,
      "stateMutability": "nonpayable",
      "type": "function"
    },
    {
      "constant": true,
      "inputs": [],
      "name": "totalReserves",
      "outputs": [
        {
          "internalType": "uint256",
          "name": "",
          "type": "uint256"
        }
      ],
      "payable": false,
      "stateMutability": "view",
      "type": "function"
    },
    {
      "constant": true,
      "inputs": [],
      "name": "totalSupply",
      "outputs": [
        {
          "internalType": "uint256",
          "name": "",
          "type": "uint256"
        }
      ],
      "payable": false,
      "stateMutability": "view",
      "type": "function"
    },
    {
      "constant": false,
      "inputs": [
        {
          "internalType": "address",
          "name": "dst",
          "type": "address"
        },
        {
          "internalType": "uint256",
          "name": "amount",
          "type": "uint256"
        }
      ],
      "name": "transfer",
      "outputs": [
        {
          "internalType": "bool",
          "name": "",
          "type": "bool"
        }
      ],
      "payable": false,
      "stateMutability": "nonpayable",
      "type": "function"
    },
    {
      "constant": false,
      "inputs": [
        {
          "internalType": "address",
          "name": "src",
          "type": "address"
        },
        {
          "internalType": "address",
          "name": "dst",
          "type": "address"
        },
        {
          "internalType": "uint256",
          "name": "amount",
          "type": "uint256"
        }
      ],
      "name": "transferFrom",
      "outputs": [
        {
          "internalType": "bool",
          "name": "",
          "type": "bool"
        }
      ],
      "payable": false,
      "stateMutability": "nonpayable",
      "type": "function"
    }
  ],
  "transactionHash": "0x2be174d55d44db694dabc92216b4043ab20474cd758c1a7f71b5530321878980",
  "args": [
    "0x6BC8925AF366521C5878EB67420F8543c2924Db5",
    "0x69B3F89e503B8ECEa7BAD1C75D9143d1625902dB",
    "1000000000000000000",
    "bEther",
    "bETH",
    8,
    "0x098a673B992ED3FfD03533AA999b54c51b210918"
  ],
  "numDeployments": 1,
  "solcInputHash": "f0cee0bebec6b458b19c025f6846bca8",
  "bytecode": "0x60806040523480156200001157600080fd5b506040516200613038038062006130833981810160405260e08110156200003757600080fd5b8151602083015160408085015160608601805192519496939591949391820192846401000000008211156200006b57600080fd5b9083019060208201858111156200008157600080fd5b82516401000000008111828201881017156200009c57600080fd5b82525081516020918201929091019080838360005b83811015620000cb578181015183820152602001620000b1565b50505050905090810190601f168015620000f95780820380516001836020036101000a031916815260200191505b50604052602001805160405193929190846401000000008211156200011d57600080fd5b9083019060208201858111156200013357600080fd5b82516401000000008111828201881017156200014e57600080fd5b82525081516020918201929091019080838360005b838110156200017d57818101518382015260200162000163565b50505050905090810190601f168015620001ab5780820380516001836020036101000a031916815260200191505b506040908152602082015191015160038054610100600160a81b03191633610100021790559092509050620001e587878787878762000218565b600380546001600160a01b0390921661010002610100600160a81b03199092169190911790555062000853945050505050565b60035461010090046001600160a01b03163314620002685760405162461bcd60e51b8152600401808060200182810382526024815260200180620060976024913960400191505060405180910390fd5b600954158015620002795750600a54155b620002b65760405162461bcd60e51b8152600401808060200182810382526023815260200180620060bb6023913960400191505060405180910390fd5b600784905583620002f95760405162461bcd60e51b8152600401808060200182810382526030815260200180620060de6030913960400191505060405180910390fd5b60006200030f876001600160e01b036200042e16565b9050801562000365576040805162461bcd60e51b815260206004820152601a60248201527f73657474696e6720636f6d7074726f6c6c6572206661696c6564000000000000604482015290519081900360640190fd5b620003786001600160e01b036200059616565b600955670de0b6b3a7640000600a556200039b866001600160e01b036200059b16565b90508015620003dc5760405162461bcd60e51b81526004018080602001828103825260228152602001806200610e6022913960400191505060405180910390fd5b8351620003f1906001906020870190620007b1565b50825162000407906002906020860190620007b1565b50506003805460ff90921660ff199283161790556000805490911660011790555050505050565b60035460009061010090046001600160a01b031633146200046857620004606001603f6001600160e01b036200074116565b905062000591565b60055460408051623f1ee960e11b815290516001600160a01b0392831692851691627e3dd2916004808301926020929190829003018186803b158015620004ae57600080fd5b505afa158015620004c3573d6000803e3d6000fd5b505050506040513d6020811015620004da57600080fd5b50516200052e576040805162461bcd60e51b815260206004820152601c60248201527f6d61726b6572206d6574686f642072657475726e65642066616c736500000000604482015290519081900360640190fd5b600580546001600160a01b0319166001600160a01b03858116918217909255604080519284168352602083019190915280517f7ac369dbd14fa5ea3f473ed67cc9d598964a77501540ba6751eb0b3decf5870d9281900390910190a160005b9150505b919050565b435b90565b600354600090819061010090046001600160a01b03163314620005d857620005cf600160426001600160e01b036200074116565b91505062000591565b620005eb6001600160e01b036200059616565b600954146200060b57620005cf600a60416001600160e01b036200074116565b600660009054906101000a90046001600160a01b03169050826001600160a01b0316632191f92a6040518163ffffffff1660e01b815260040160206040518083038186803b1580156200065d57600080fd5b505afa15801562000672573d6000803e3d6000fd5b505050506040513d60208110156200068957600080fd5b5051620006dd576040805162461bcd60e51b815260206004820152601c60248201527f6d61726b6572206d6574686f642072657475726e65642066616c736500000000604482015290519081900360640190fd5b600680546001600160a01b0319166001600160a01b03858116918217909255604080519284168352602083019190915280517fedffc32e068c7c95dfd4bdfd5c4d939a084d6b11c4199eac8436ed234d72f9269281900390910190a160006200058d565b60007f45b96fe442630264581b197e84bbada861235052c5a1aadfff9ea4e40a969aa08360108111156200077157fe5b8360508111156200077e57fe5b604080519283526020830191909152600082820152519081900360600190a1826010811115620007aa57fe5b9392505050565b828054600181600116156101000203166002900490600052602060002090601f016020900481019282601f10620007f457805160ff191683800117855562000824565b8280016001018555821562000824579182015b828111156200082457825182559160200191906001019062000807565b506200083292915062000836565b5090565b6200059891905b808211156200083257600081556001016200083d565b61583480620008636000396000f3fe6080604052600436106102935760003560e01c806395dd91931161015a578063d83115f0116100c1578063f3fdb15a1161007a578063f3fdb15a14610b5e578063f851a44014610b73578063f8f9da2814610b88578063fca7820b14610b9d578063fcb6414714610bc7578063fe9c44ae14610bcf57610293565b8063d83115f0146109b4578063db006a7514610a8b578063dd62ed3e14610ab5578063e597461914610af0578063e9c714f214610b16578063f2b3abbd14610b2b57610293565b8063ae9d70b011610113578063ae9d70b014610891578063b2a02ff1146108a6578063b71d1a0c146108e9578063bd6d894d1461091c578063c37f68e214610931578063c5ebeaec1461098a57610293565b806395dd91931461067257806399d8c1b4146106a5578063a6afed9514610800578063a9059cbb14610815578063aa5af0fd1461084e578063aae40a2a1461086357610293565b80634576b5db116101fe5780636c540baf116101b75780636c540baf146105c157806370a08231146105d657806373acee9814610609578063852a12e31461061e5780638f840ddd1461064857806395d89b411461065d57610293565b80634576b5db1461051d57806347bd3718146105505780634e4d9fea146105655780635fe3b5671461056d578063601a0bf1146105825780636752e702146105ac57610293565b8063182df0f511610250578063182df0f51461042157806323b872dd146104365780632678224714610479578063313ce567146104aa5780633af9e669146104d55780633b1d21a21461050857610293565b806306fdde03146102d1578063095ea7b31461035b5780631249c58b146103a8578063173b9904146103b257806317bfdfbc146103d957806318160ddd1461040c575b600061029e34610be4565b5090506102ce816040518060400160405280600b81526020016a1b5a5b9d0819985a5b195960aa1b815250610c8c565b50005b3480156102dd57600080fd5b506102e6610e8c565b6040805160208082528351818301528351919283929083019185019080838360005b83811015610320578181015183820152602001610308565b50505050905090810190601f16801561034d5780820380516001836020036101000a031916815260200191505b509250505060405180910390f35b34801561036757600080fd5b506103946004803603604081101561037e57600080fd5b506001600160a01b038135169060200135610f19565b604080519115158252519081900360200190f35b6103b0610f86565b005b3480156103be57600080fd5b506103c7610fc4565b60408051918252519081900360200190f35b3480156103e557600080fd5b506103c7600480360360208110156103fc57600080fd5b50356001600160a01b0316610fca565b34801561041857600080fd5b506103c761108a565b34801561042d57600080fd5b506103c7611090565b34801561044257600080fd5b506103946004803603606081101561045957600080fd5b506001600160a01b038135811691602081013590911690604001356110f3565b34801561048557600080fd5b5061048e611165565b604080516001600160a01b039092168252519081900360200190f35b3480156104b657600080fd5b506104bf611174565b6040805160ff9092168252519081900360200190f35b3480156104e157600080fd5b506103c7600480360360208110156104f857600080fd5b50356001600160a01b031661117d565b34801561051457600080fd5b506103c7611235565b34801561052957600080fd5b506103c76004803603602081101561054057600080fd5b50356001600160a01b0316611244565b34801561055c57600080fd5b506103c7611399565b6103b061139f565b34801561057957600080fd5b5061048e6113e1565b34801561058e57600080fd5b506103c7600480360360208110156105a557600080fd5b50356113f0565b3480156105b857600080fd5b506103c761148b565b3480156105cd57600080fd5b506103c7611496565b3480156105e257600080fd5b506103c7600480360360208110156105f957600080fd5b50356001600160a01b031661149c565b34801561061557600080fd5b506103c76114b7565b34801561062a57600080fd5b506103c76004803603602081101561064157600080fd5b503561156d565b34801561065457600080fd5b506103c7611578565b34801561066957600080fd5b506102e661157e565b34801561067e57600080fd5b506103c76004803603602081101561069557600080fd5b50356001600160a01b03166115d6565b3480156106b157600080fd5b506103b0600480360360c08110156106c857600080fd5b6001600160a01b03823581169260208101359091169160408201359190810190608081016060820135600160201b81111561070257600080fd5b82018360208201111561071457600080fd5b803590602001918460018302840111600160201b8311171561073557600080fd5b91908080601f0160208091040260200160405190810160405280939291908181526020018383808284376000920191909152509295949360208101935035915050600160201b81111561078757600080fd5b82018360208201111561079957600080fd5b803590602001918460018302840111600160201b831117156107ba57600080fd5b91908080601f0160208091040260200160405190810160405280939291908181526020018383808284376000920191909152509295505050903560ff1691506116339050565b34801561080c57600080fd5b506103c761181a565b34801561082157600080fd5b506103946004803603604081101561083857600080fd5b506001600160a01b038135169060200135611b72565b34801561085a57600080fd5b506103c7611be3565b6103b06004803603604081101561087957600080fd5b506001600160a01b0381358116916020013516611be9565b34801561089d57600080fd5b506103c7611c36565b3480156108b257600080fd5b506103c7600480360360608110156108c957600080fd5b506001600160a01b03813581169160208101359091169060400135611cd5565b3480156108f557600080fd5b506103c76004803603602081101561090c57600080fd5b50356001600160a01b0316611d46565b34801561092857600080fd5b506103c7611dd2565b34801561093d57600080fd5b506109646004803603602081101561095457600080fd5b50356001600160a01b0316611e8e565b604080519485526020850193909352838301919091526060830152519081900360800190f35b34801561099657600080fd5b506103c7600480360360208110156109ad57600080fd5b5035611f23565b6103b0600480360360808110156109ca57600080fd5b6001600160a01b038235811692602081013590911691810190606081016040820135600160201b8111156109fd57600080fd5b820183602082011115610a0f57600080fd5b803590602001918460208302840111600160201b83111715610a3057600080fd5b919390929091602081019035600160201b811115610a4d57600080fd5b820183602082011115610a5f57600080fd5b803590602001918460208302840111600160201b83111715610a8057600080fd5b509092509050611f2e565b348015610a9757600080fd5b506103c760048036036020811015610aae57600080fd5b5035611fe4565b348015610ac157600080fd5b506103c760048036036040811015610ad857600080fd5b506001600160a01b0381358116916020013516611fef565b6103b060048036036020811015610b0657600080fd5b50356001600160a01b031661201a565b348015610b2257600080fd5b506103c7612068565b348015610b3757600080fd5b506103c760048036036020811015610b4e57600080fd5b50356001600160a01b031661216b565b348015610b6a57600080fd5b5061048e6121a5565b348015610b7f57600080fd5b5061048e6121b4565b348015610b9457600080fd5b506103c76121c8565b348015610ba957600080fd5b506103c760048036036020811015610bc057600080fd5b503561222c565b6103c76122aa565b348015610bdb57600080fd5b506103946122b5565b60008054819060ff16610c2b576040805162461bcd60e51b815260206004820152600a6024820152691c994b595b9d195c995960b21b604482015290519081900360640190fd5b6000805460ff19168155610c3d61181a565b90508015610c6857610c5b816010811115610c5457fe5b601e6122ba565b925060009150610c789050565b610c723385612320565b92509250505b6000805460ff191660011790559092909150565b81610c9657610e88565b606081516005016040519080825280601f01601f191660200182016040528015610cc7576020820181803883390190505b50905060005b8251811015610d1857828181518110610ce257fe5b602001015160f81c60f81b828281518110610cf957fe5b60200101906001600160f81b031916908160001a905350600101610ccd565b8151600160fd1b90839083908110610d2c57fe5b60200101906001600160f81b031916908160001a905350602860f81b828260010181518110610d5757fe5b60200101906001600160f81b031916908160001a905350600a840460300160f81b828260020181518110610d8757fe5b60200101906001600160f81b031916908160001a905350600a840660300160f81b828260030181518110610db757fe5b60200101906001600160f81b031916908160001a905350602960f81b828260040181518110610de257fe5b60200101906001600160f81b031916908160001a905350818415610e845760405162461bcd60e51b81526004018080602001828103825283818151815260200191508051906020019080838360005b83811015610e49578181015183820152602001610e31565b50505050905090810190601f168015610e765780820380516001836020036101000a031916815260200191505b509250505060405180910390fd5b5050505b5050565b60018054604080516020600284861615610100026000190190941693909304601f81018490048402820184019092528181529291830182828015610f115780601f10610ee657610100808354040283529160200191610f11565b820191906000526020600020905b815481529060010190602001808311610ef457829003601f168201915b505050505081565b336000818152600f602090815260408083206001600160a01b03871680855290835281842086905581518681529151939493909284927f8c5be1e5ebec7d5bd14f71427d1e84f3dd0314c0f7b2291e5b200ac8c7c3b925929081900390910190a360019150505b92915050565b6000610f9134610be4565b509050610fc1816040518060400160405280600b81526020016a1b5a5b9d0819985a5b195960aa1b815250610c8c565b50565b60085481565b6000805460ff1661100f576040805162461bcd60e51b815260206004820152600a6024820152691c994b595b9d195c995960b21b604482015290519081900360640190fd5b6000805460ff1916815561102161181a565b1461106c576040805162461bcd60e51b81526020600482015260166024820152751858d8dc9d59481a5b9d195c995cdd0819985a5b195960521b604482015290519081900360640190fd5b611075826115d6565b90505b6000805460ff19166001179055919050565b600d5481565b600080600061109d6126f2565b909250905060008260038111156110b057fe5b146110ec5760405162461bcd60e51b815260040180806020018281038252603581526020018061574b6035913960400191505060405180910390fd5b9150505b90565b6000805460ff16611138576040805162461bcd60e51b815260206004820152600a6024820152691c994b595b9d195c995960b21b604482015290519081900360640190fd5b6000805460ff1916815561114e338686866127a1565b1490506000805460ff191660011790559392505050565b6004546001600160a01b031681565b60035460ff1681565b60006111876153ca565b604051806020016040528061119a611dd2565b90526001600160a01b0384166000908152600e60205260408120549192509081906111c6908490612a2f565b909250905060008260038111156111d957fe5b1461122b576040805162461bcd60e51b815260206004820152601f60248201527f62616c616e636520636f756c64206e6f742062652063616c63756c6174656400604482015290519081900360640190fd5b925050505b919050565b600061123f612a82565b905090565b60035460009061010090046001600160a01b031633146112715761126a6001603f6122ba565b9050611230565b60055460408051623f1ee960e11b815290516001600160a01b0392831692851691627e3dd2916004808301926020929190829003018186803b1580156112b657600080fd5b505afa1580156112ca573d6000803e3d6000fd5b505050506040513d60208110156112e057600080fd5b5051611333576040805162461bcd60e51b815260206004820152601c60248201527f6d61726b6572206d6574686f642072657475726e65642066616c736500000000604482015290519081900360640190fd5b600580546001600160a01b0319166001600160a01b03858116918217909255604080519284168352602083019190915280517f7ac369dbd14fa5ea3f473ed67cc9d598964a77501540ba6751eb0b3decf5870d9281900390910190a160005b9392505050565b600b5481565b60006113aa34612aae565b509050610fc181604051806040016040528060128152602001711c995c185e509bdc9c9bddc819985a5b195960721b815250610c8c565b6005546001600160a01b031681565b6000805460ff16611435576040805162461bcd60e51b815260206004820152600a6024820152691c994b595b9d195c995960b21b604482015290519081900360640190fd5b6000805460ff1916815561144761181a565b9050801561146d5761146581601081111561145e57fe5b60306122ba565b915050611078565b61147683612b30565b9150506000805460ff19166001179055919050565b666379da05b6000081565b60095481565b6001600160a01b03166000908152600e602052604090205490565b6000805460ff166114fc576040805162461bcd60e51b815260206004820152600a6024820152691c994b595b9d195c995960b21b604482015290519081900360640190fd5b6000805460ff1916815561150e61181a565b14611559576040805162461bcd60e51b81526020600482015260166024820152751858d8dc9d59481a5b9d195c995cdd0819985a5b195960521b604482015290519081900360640190fd5b50600b546000805460ff1916600117905590565b6000610f8082612c63565b600c5481565b6002805460408051602060018416156101000260001901909316849004601f81018490048402820184019092528181529291830182828015610f115780601f10610ee657610100808354040283529160200191610f11565b60008060006115e484612ce4565b909250905060008260038111156115f757fe5b146113925760405162461bcd60e51b81526004018080602001828103825260378152602001806156346037913960400191505060405180910390fd5b60035461010090046001600160a01b031633146116815760405162461bcd60e51b81526004018080602001828103825260248152602001806155706024913960400191505060405180910390fd5b6009541580156116915750600a54155b6116cc5760405162461bcd60e51b81526004018080602001828103825260238152602001806155946023913960400191505060405180910390fd5b60078490558361170d5760405162461bcd60e51b81526004018080602001828103825260308152602001806155b76030913960400191505060405180910390fd5b600061171887611244565b9050801561176d576040805162461bcd60e51b815260206004820152601a60248201527f73657474696e6720636f6d7074726f6c6c6572206661696c6564000000000000604482015290519081900360640190fd5b611775612d98565b600955670de0b6b3a7640000600a5561178d86612d9c565b905080156117cc5760405162461bcd60e51b81526004018080602001828103825260228152602001806155e76022913960400191505060405180910390fd5b83516117df9060019060208701906153dd565b5082516117f39060029060208601906153dd565b50506003805460ff90921660ff199283161790556000805490911660011790555050505050565b600080611825612d98565b6009549091508082141561183e576000925050506110f0565b6000611848612a82565b600b54600c54600a54600654604080516315f2405360e01b815260048101879052602481018690526044810185905290519596509394929391926000926001600160a01b03909216916315f24053916064808301926020929190829003018186803b1580156118b657600080fd5b505afa1580156118ca573d6000803e3d6000fd5b505050506040513d60208110156118e057600080fd5b5051905065048c2739500081111561193f576040805162461bcd60e51b815260206004820152601c60248201527f626f72726f772072617465206973206162737572646c79206869676800000000604482015290519081900360640190fd5b60008061194c8989612f11565b9092509050600082600381111561195f57fe5b146119b1576040805162461bcd60e51b815260206004820152601f60248201527f636f756c64206e6f742063616c63756c61746520626c6f636b2064656c746100604482015290519081900360640190fd5b6119b96153ca565b6000806000806119d760405180602001604052808a81525087612f34565b909750945060008760038111156119ea57fe5b14611a1c57611a0760096006896003811115611a0257fe5b612f9c565b9e5050505050505050505050505050506110f0565b611a26858c612a2f565b90975093506000876003811115611a3957fe5b14611a5157611a0760096001896003811115611a0257fe5b611a5b848c613002565b90975092506000876003811115611a6e57fe5b14611a8657611a0760096004896003811115611a0257fe5b611aa16040518060200160405280600854815250858c613028565b90975091506000876003811115611ab457fe5b14611acc57611a0760096005896003811115611a0257fe5b611ad7858a8b613028565b90975090506000876003811115611aea57fe5b14611b0257611a0760096003896003811115611a0257fe5b60098e9055600a819055600b839055600c829055604080518d8152602081018690528082018390526060810185905290517f4dec04e750ca11537cabcd8a9eab06494de08da3735bc8871cd41250e190bc049181900360800190a160009e50505050505050505050505050505090565b6000805460ff16611bb7576040805162461bcd60e51b815260206004820152600a6024820152691c994b595b9d195c995960b21b604482015290519081900360640190fd5b6000805460ff19168155611bcd333386866127a1565b1490506000805460ff1916600117905592915050565b600a5481565b6000611bf6833484613084565b509050611c3181604051806040016040528060168152602001751b1a5c5d5a59185d19509bdc9c9bddc819985a5b195960521b815250610c8c565b505050565b6006546000906001600160a01b031663b8168816611c52612a82565b600b54600c546008546040518563ffffffff1660e01b81526004018085815260200184815260200183815260200182815260200194505050505060206040518083038186803b158015611ca457600080fd5b505afa158015611cb8573d6000803e3d6000fd5b505050506040513d6020811015611cce57600080fd5b5051905090565b6000805460ff16611d1a576040805162461bcd60e51b815260206004820152600a6024820152691c994b595b9d195c995960b21b604482015290519081900360640190fd5b6000805460ff19169055611d30338585856131b6565b90506000805460ff191660011790559392505050565b60035460009061010090046001600160a01b03163314611d6c5761126a600160456122ba565b600480546001600160a01b038481166001600160a01b0319831681179093556040805191909216808252602082019390935281517fca4f2f25d0898edd99413412fb94012f9e54ec8142f9b093e7720646a95b16a9929181900390910190a16000611392565b6000805460ff16611e17576040805162461bcd60e51b815260206004820152600a6024820152691c994b595b9d195c995960b21b604482015290519081900360640190fd5b6000805460ff19168155611e2961181a565b14611e74576040805162461bcd60e51b81526020600482015260166024820152751858d8dc9d59481a5b9d195c995cdd0819985a5b195960521b604482015290519081900360640190fd5b611e7c611090565b90506000805460ff1916600117905590565b6001600160a01b0381166000908152600e6020526040812054819081908190818080611eb989612ce4565b935090506000816003811115611ecb57fe5b14611ee95760095b975060009650869550859450611f1c9350505050565b611ef16126f2565b925090506000816003811115611f0357fe5b14611f0f576009611ed3565b5060009650919450925090505b9193509193565b6000610f8082613590565b6000611fa087348888888080602002602001604051908101604052809392919081815260200183836020028082843760009201919091525050604080516020808c0282810182019093528b82529093508b92508a91829185019084908082843760009201919091525061360f92505050565b509050611fdb81604051806040016040528060168152602001751b1a5c5d5a59185d19509bdc9c9bddc819985a5b195960521b815250610c8c565b50505050505050565b6000610f80826136b9565b6001600160a01b039182166000908152600f6020908152604080832093909416825291909152205490565b60006120268234613733565b509050610e88816040518060400160405280601881526020017f7265706179426f72726f77426568616c66206661696c65640000000000000000815250610c8c565b6004546000906001600160a01b031633141580612083575033155b1561209b57612094600160006122ba565b90506110f0565b60038054600480546001600160a01b03818116610100818102610100600160a81b0319871617968790556001600160a01b031990931690935560408051948390048216808652929095041660208401528351909391927ff9ffabca9c8276e99321725bcb43fb076a6c66a54b7f21c4e8146d8519b417dc92908290030190a1600454604080516001600160a01b038085168252909216602083015280517fca4f2f25d0898edd99413412fb94012f9e54ec8142f9b093e7720646a95b16a99281900390910190a160009250505090565b60008061217661181a565b9050801561219c5761219481601081111561218d57fe5b60406122ba565b915050611230565b61139283612d9c565b6006546001600160a01b031681565b60035461010090046001600160a01b031681565b6006546000906001600160a01b03166315f240536121e4612a82565b600b54600c546040518463ffffffff1660e01b815260040180848152602001838152602001828152602001935050505060206040518083038186803b158015611ca457600080fd5b6000805460ff16612271576040805162461bcd60e51b815260206004820152600a6024820152691c994b595b9d195c995960b21b604482015290519081900360640190fd5b6000805460ff1916815561228361181a565b905080156122a15761146581601081111561229a57fe5b60466122ba565b611476836137de565b600061123f34613886565b600181565b60007f45b96fe442630264581b197e84bbada861235052c5a1aadfff9ea4e40a969aa08360108111156122e957fe5b8360508111156122f557fe5b604080519283526020830191909152600082820152519081900360600190a182601081111561139257fe5b60055460408051634ef4c3e160e01b81523060048201526001600160a01b03858116602483015260448201859052915160009384938493911691634ef4c3e19160648082019260209290919082900301818787803b15801561238157600080fd5b505af1158015612395573d6000803e3d6000fd5b505050506040513d60208110156123ab57600080fd5b5051905080156123cf576123c26003601f83612f9c565b9250600091506126eb9050565b6123d7612d98565b600954146123eb576123c2600a60226122ba565b6123f361545b565b6123fb6126f2565b604083018190526020830182600381111561241257fe5b600381111561241d57fe5b905250600090508160200151600381111561243457fe5b1461245e576124506009602183602001516003811115611a0257fe5b9350600092506126eb915050565b612468868661391a565b60c082018190526040805160208101825290830151815261248991906139b6565b60608301819052602083018260038111156124a057fe5b60038111156124ab57fe5b90525060009050816020015160038111156124c257fe5b14612514576040805162461bcd60e51b815260206004820181905260248201527f4d494e545f45584348414e47455f43414c43554c4154494f4e5f4641494c4544604482015290519081900360640190fd5b612524600d548260600151613002565b608083018190526020830182600381111561253b57fe5b600381111561254657fe5b905250600090508160200151600381111561255d57fe5b146125995760405162461bcd60e51b81526004018080602001828103825260288152602001806157806028913960400191505060405180910390fd5b6001600160a01b0386166000908152600e602052604090205460608201516125c19190613002565b60a08301819052602083018260038111156125d857fe5b60038111156125e357fe5b90525060009050816020015160038111156125fa57fe5b146126365760405162461bcd60e51b815260040180806020018281038252602b815260200180615609602b913960400191505060405180910390fd5b6080810151600d5560a08101516001600160a01b0387166000818152600e60209081526040918290209390935560c084015160608086015183519485529484019190915282820193909352517f4c209b5fc8ad50758f13e2e1088ba56a560dff690a1c6fef26394f4c03821c4f929181900390910190a1606081015160408051918252516001600160a01b0388169130916000805160206156c78339815191529181900360200190a360c00151600093509150505b9250929050565b600d5460009081908061270d5750506007546000915061279d565b6000612717612a82565b905060006127236153ca565b600061273484600b54600c546139cd565b93509050600081600381111561274657fe5b1461275b5795506000945061279d9350505050565b6127658386613a0b565b92509050600081600381111561277757fe5b1461278c5795506000945061279d9350505050565b505160009550935061279d92505050565b9091565b600554604080516317b9b84b60e31b81523060048201526001600160a01b03868116602483015285811660448301526064820185905291516000938493169163bdcdc25891608480830192602092919082900301818787803b15801561280657600080fd5b505af115801561281a573d6000803e3d6000fd5b505050506040513d602081101561283057600080fd5b50519050801561284f576128476003604a83612f9c565b915050612a27565b836001600160a01b0316856001600160a01b03161415612875576128476002604b6122ba565b60006001600160a01b03878116908716141561289457506000196128bc565b506001600160a01b038086166000908152600f60209081526040808320938a16835292905220545b6000806000806128cc8589612f11565b909450925060008460038111156128df57fe5b146128fd576128f06009604b6122ba565b9650505050505050612a27565b6001600160a01b038a166000908152600e60205260409020546129209089612f11565b9094509150600084600381111561293357fe5b14612944576128f06009604c6122ba565b6001600160a01b0389166000908152600e60205260409020546129679089613002565b9094509050600084600381111561297a57fe5b1461298b576128f06009604d6122ba565b6001600160a01b03808b166000908152600e6020526040808220859055918b1681522081905560001985146129e3576001600160a01b03808b166000908152600f60209081526040808320938f168352929052208390555b886001600160a01b03168a6001600160a01b03166000805160206156c78339815191528a6040518082815260200191505060405180910390a3600096505050505050505b949350505050565b6000806000612a3c6153ca565b612a468686612f34565b90925090506000826003811115612a5957fe5b14612a6a57509150600090506126eb565b6000612a7582613abb565b9350935050509250929050565b6000806000612a914734612f11565b90925090506000826003811115612aa457fe5b146110ec57600080fd5b60008054819060ff16612af5576040805162461bcd60e51b815260206004820152600a6024820152691c994b595b9d195c995960b21b604482015290519081900360640190fd5b6000805460ff19168155612b0761181a565b90508015612b2557610c5b816010811115612b1e57fe5b60366122ba565b610c72333386613aca565b600354600090819061010090046001600160a01b03163314612b5857612194600160316122ba565b612b60612d98565b60095414612b7457612194600a60336122ba565b82612b7d612a82565b1015612b8f57612194600e60326122ba565b600c54831115612ba557612194600260346122ba565b50600c5482810390811115612beb5760405162461bcd60e51b81526004018080602001828103825260248152602001806157dc6024913960400191505060405180910390fd5b600c819055600354612c0b9061010090046001600160a01b031684613e18565b600354604080516101009092046001600160a01b0316825260208201859052818101839052517f3bad0c59cf2f06e7314077049f48a93578cd16f5ef92329f1dab1420a99c177e916060908290030190a16000611392565b6000805460ff16612ca8576040805162461bcd60e51b815260206004820152600a6024820152691c994b595b9d195c995960b21b604482015290519081900360640190fd5b6000805460ff19168155612cba61181a565b90508015612cd857611465816010811115612cd157fe5b60276122ba565b61147633600085613e4e565b6001600160a01b038116600090815260106020526040812080548291829182918291612d1b575060009450849350612d9392505050565b612d2b8160000154600a54614315565b90945092506000846003811115612d3e57fe5b14612d53575091935060009250612d93915050565b612d61838260010154614354565b90945091506000846003811115612d7457fe5b14612d89575091935060009250612d93915050565b5060009450925050505b915091565b4390565b600354600090819061010090046001600160a01b03163314612dc457612194600160426122ba565b612dcc612d98565b60095414612de057612194600a60416122ba565b600660009054906101000a90046001600160a01b03169050826001600160a01b0316632191f92a6040518163ffffffff1660e01b815260040160206040518083038186803b158015612e3157600080fd5b505afa158015612e45573d6000803e3d6000fd5b505050506040513d6020811015612e5b57600080fd5b5051612eae576040805162461bcd60e51b815260206004820152601c60248201527f6d61726b6572206d6574686f642072657475726e65642066616c736500000000604482015290519081900360640190fd5b600680546001600160a01b0319166001600160a01b03858116918217909255604080519284168352602083019190915280517fedffc32e068c7c95dfd4bdfd5c4d939a084d6b11c4199eac8436ed234d72f9269281900390910190a16000611392565b600080838311612f285750600090508183036126eb565b506003905060006126eb565b6000612f3e6153ca565b600080612f4f866000015186614315565b90925090506000826003811115612f6257fe5b14612f81575060408051602081019091526000815290925090506126eb565b60408051602081019091529081526000969095509350505050565b60007f45b96fe442630264581b197e84bbada861235052c5a1aadfff9ea4e40a969aa0846010811115612fcb57fe5b846050811115612fd757fe5b604080519283526020830191909152818101859052519081900360600190a1836010811115612a2757fe5b60008083830184811061301a576000925090506126eb565b5060029150600090506126eb565b60008060006130356153ca565b61303f8787612f34565b9092509050600082600381111561305257fe5b14613063575091506000905061307c565b61307561306f82613abb565b86613002565b9350935050505b935093915050565b60008054819060ff166130cb576040805162461bcd60e51b815260206004820152600a6024820152691c994b595b9d195c995960b21b604482015290519081900360640190fd5b6000805460ff191681556130dd61181a565b90508015613108576130fb8160108111156130f457fe5b600f6122ba565b92506000915061319f9050565b836001600160a01b031663a6afed956040518163ffffffff1660e01b8152600401602060405180830381600087803b15801561314357600080fd5b505af1158015613157573d6000803e3d6000fd5b505050506040513d602081101561316d57600080fd5b50519050801561318d576130fb81601081111561318657fe5b60106122ba565b6131993387878761437f565b92509250505b6000805460ff191660011790559094909350915050565b6005546040805163d02f735160e01b81523060048201526001600160a01b038781166024830152868116604483015285811660648301526084820185905291516000938493169163d02f73519160a480830192602092919082900301818787803b15801561322357600080fd5b505af1158015613237573d6000803e3d6000fd5b505050506040513d602081101561324d57600080fd5b505190508015613264576128476003601b83612f9c565b846001600160a01b0316846001600160a01b0316141561328a576128476006601c6122ba565b613292615499565b6001600160a01b0385166000908152600e60205260409020546132b59085612f11565b60208301819052828260038111156132c957fe5b60038111156132d457fe5b90525060009050815160038111156132e857fe5b1461330d576133046009601a83600001516003811115611a0257fe5b92505050612a27565b61332c846040518060200160405280666379da05b60000815250614871565b6080820181905261333e908590614899565b606082015261334b6126f2565b60c083018190528282600381111561335f57fe5b600381111561336a57fe5b905250600090508151600381111561337e57fe5b146133d0576040805162461bcd60e51b815260206004820152601860248201527f65786368616e67652072617465206d617468206572726f720000000000000000604482015290519081900360640190fd5b6133f060405180602001604052808360c0015181525082608001516148d3565b60a08201819052600c54613403916148f2565b60e0820152600d54608082015161341a9190614899565b6101008201526001600160a01b0386166000908152600e602052604090205460608201516134489190613002565b604083018190528282600381111561345c57fe5b600381111561346757fe5b905250600090508151600381111561347b57fe5b14613497576133046009601983600001516003811115611a0257fe5b60e0810151600c55610100810151600d556020808201516001600160a01b038088166000818152600e855260408082209490945583860151928b168082529084902092909255606085015183519081529251919390926000805160206156c7833981519152929081900390910190a36080810151604080519182525130916001600160a01b038816916000805160206156c78339815191529181900360200190a360a081015160e082015160408051308152602081019390935282810191909152517fa91e67c5ea634cd43a12c5a482724b03de01e85ca68702a53d0c2f45cb7c1dc59181900360600190a16000979650505050505050565b6000805460ff166135d5576040805162461bcd60e51b815260206004820152600a6024820152691c994b595b9d195c995960b21b604482015290519081900360640190fd5b6000805460ff191681556135e761181a565b90508015613605576114658160108111156135fe57fe5b60086122ba565b6114763384614928565b60008054819060ff16613656576040805162461bcd60e51b815260206004820152600a6024820152691c994b595b9d195c995960b21b604482015290519081900360640190fd5b6000805460ff1916815561366861181a565b9050801561368c5761367f8160108111156130f457fe5b9250600091506136a09050565b61369a338989898989614bbc565b92509250505b6000805460ff1916600117905590969095509350505050565b6000805460ff166136fe576040805162461bcd60e51b815260206004820152600a6024820152691c994b595b9d195c995960b21b604482015290519081900360640190fd5b6000805460ff1916815561371061181a565b9050801561372757611465816010811115612cd157fe5b61147633846000613e4e565b60008054819060ff1661377a576040805162461bcd60e51b815260206004820152600a6024820152691c994b595b9d195c995960b21b604482015290519081900360640190fd5b6000805460ff1916815561378c61181a565b905080156137b7576137aa8160108111156137a357fe5b60356122ba565b9250600091506137c89050565b6137c2338686613aca565b92509250505b6000805460ff1916600117905590939092509050565b60035460009061010090046001600160a01b031633146138045761126a600160476122ba565b61380c612d98565b600954146138205761126a600a60486122ba565b670de0b6b3a764000082111561383c5761126a600260496122ba565b6008805490839055604080518281526020810185905281517faaa68312e2ea9d50e16af5068410ab56e1a1fd06037b1a35664812c30f821460929181900390910190a16000611392565b6000805460ff166138cb576040805162461bcd60e51b815260206004820152600a6024820152691c994b595b9d195c995960b21b604482015290519081900360640190fd5b6000805460ff191681556138dd61181a565b905080156138fb576114658160108111156138f457fe5b604e6122ba565b613904836150e9565b509150506000805460ff19166001179055919050565b6000336001600160a01b0384161461396b576040805162461bcd60e51b815260206004820152600f60248201526e0e6cadcc8cae440dad2e6dac2e8c6d608b1b604482015290519081900360640190fd5b8134146139b0576040805162461bcd60e51b815260206004820152600e60248201526d0ecc2d8eaca40dad2e6dac2e8c6d60931b604482015290519081900360640190fd5b50919050565b60008060006139c36153ca565b612a4686866151d1565b6000806000806139dd8787613002565b909250905060008260038111156139f057fe5b14613a01575091506000905061307c565b6130758186612f11565b6000613a156153ca565b600080613a2a86670de0b6b3a7640000614315565b90925090506000826003811115613a3d57fe5b14613a5c575060408051602081019091526000815290925090506126eb565b600080613a698388614354565b90925090506000826003811115613a7c57fe5b14613a9e575060408051602081019091526000815290945092506126eb915050565b604080516020810190915290815260009890975095505050505050565b51670de0b6b3a7640000900490565b60055460408051631200453160e11b81523060048201526001600160a01b0386811660248301528581166044830152606482018590529151600093849384939116916324008a629160848082019260209290919082900301818787803b158015613b3357600080fd5b505af1158015613b47573d6000803e3d6000fd5b505050506040513d6020811015613b5d57600080fd5b505190508015613b8157613b746003603883612f9c565b92506000915061307c9050565b613b89612d98565b60095414613b9d57613b74600a60396122ba565b613ba56154e6565b6001600160a01b0386166000908152601060205260409020600101546060820152613bcf86612ce4565b6080830181905260208301826003811115613be657fe5b6003811115613bf157fe5b9052506000905081602001516003811115613c0857fe5b14613c3257613c246009603783602001516003811115611a0257fe5b93506000925061307c915050565b600019851415613c4b5760808101516040820152613c53565b604081018590525b613c6187826040015161391a565b60e082018190526080820151613c7691612f11565b60a0830181905260208301826003811115613c8d57fe5b6003811115613c9857fe5b9052506000905081602001516003811115613caf57fe5b14613ceb5760405162461bcd60e51b815260040180806020018281038252603a81526020018061566b603a913960400191505060405180910390fd5b613cfb600b548260e00151612f11565b60c0830181905260208301826003811115613d1257fe5b6003811115613d1d57fe5b9052506000905081602001516003811115613d3457fe5b14613d705760405162461bcd60e51b81526004018080602001828103825260318152602001806156e76031913960400191505060405180910390fd5b60a080820180516001600160a01b03808a16600081815260106020908152604091829020948555600a5460019095019490945560c0870151600b81905560e088015195518251948f16855294840192909252828101949094526060820192909252608081019190915290517f1a2a22cb034d26d1854bdc6666a5b91fe25efbbb5dcad3b0355478d6f5c362a1929181900390910190a160e00151600097909650945050505050565b6040516001600160a01b0383169082156108fc029083906000818181858888f19350505050158015611c31573d6000803e3d6000fd5b6000821580613e5b575081155b613e965760405162461bcd60e51b81526004018080602001828103825260348152602001806157a86034913960400191505060405180910390fd5b613e9e61545b565b613ea66126f2565b6040830181905260208301826003811115613ebd57fe5b6003811115613ec857fe5b9052506000905081602001516003811115613edf57fe5b14613f0357613efb6009602b83602001516003811115611a0257fe5b915050611392565b8315613f84576060810184905260408051602081018252908201518152613f2a9085612a2f565b6080830181905260208301826003811115613f4157fe5b6003811115613f4c57fe5b9052506000905081602001516003811115613f6357fe5b14613f7f57613efb6009602983602001516003811115611a0257fe5b613ffd565b613fa083604051806020016040528084604001518152506139b6565b6060830181905260208301826003811115613fb757fe5b6003811115613fc257fe5b9052506000905081602001516003811115613fd957fe5b14613ff557613efb6009602a83602001516003811115611a0257fe5b608081018390525b60055460608201516040805163eabe7d9160e01b81523060048201526001600160a01b03898116602483015260448201939093529051600093929092169163eabe7d919160648082019260209290919082900301818787803b15801561406257600080fd5b505af1158015614076573d6000803e3d6000fd5b505050506040513d602081101561408c57600080fd5b5051905080156140ac576140a36003602883612f9c565b92505050611392565b6140b4612d98565b600954146140c8576140a3600a602c6122ba565b6140d8600d548360600151612f11565b60a08401819052602084018260038111156140ef57fe5b60038111156140fa57fe5b905250600090508260200151600381111561411157fe5b1461412d576140a36009602e84602001516003811115611a0257fe5b6001600160a01b0386166000908152600e602052604090205460608301516141559190612f11565b60c084018190526020840182600381111561416c57fe5b600381111561417757fe5b905250600090508260200151600381111561418e57fe5b146141aa576140a36009602d84602001516003811115611a0257fe5b81608001516141b7612a82565b10156141c9576140a3600e602f6122ba565b6141d7868360800151613e18565b60a0820151600d5560c08201516001600160a01b0387166000818152600e60209081526040918290209390935560608501518151908152905130936000805160206156c7833981519152928290030190a36080820151606080840151604080516001600160a01b038b168152602081019490945283810191909152517fe5b754fb1abb7f01b499791d0b820ae3b6af3424ac1c59768edb53f4ec31a9299281900390910190a160055460808301516060840151604080516351dff98960e01b81523060048201526001600160a01b038b81166024830152604482019490945260648101929092525191909216916351dff98991608480830192600092919082900301818387803b1580156142ea57600080fd5b505af11580156142fe573d6000803e3d6000fd5b506000925061430b915050565b9695505050505050565b60008083614328575060009050806126eb565b8383028385828161433557fe5b0414614349575060029150600090506126eb565b6000925090506126eb565b6000808261436857506001905060006126eb565b600083858161437357fe5b04915091509250929050565b60055460408051632fe3f38f60e11b81523060048201526001600160a01b0384811660248301528781166044830152868116606483015260848201869052915160009384938493911691635fc7e71e9160a48082019260209290919082900301818787803b1580156143f057600080fd5b505af1158015614404573d6000803e3d6000fd5b505050506040513d602081101561441a57600080fd5b50519050801561443e576144316003601283612f9c565b9250600091506148689050565b614446612d98565b6009541461445a57614431600a60166122ba565b614462612d98565b846001600160a01b0316636c540baf6040518163ffffffff1660e01b815260040160206040518083038186803b15801561449b57600080fd5b505afa1580156144af573d6000803e3d6000fd5b505050506040513d60208110156144c557600080fd5b5051146144d857614431600a60116122ba565b866001600160a01b0316866001600160a01b031614156144fe57614431600660176122ba565b8461450f57614431600760156122ba565b60001985141561452557614431600760146122ba565b600080614533898989613aca565b909250905081156145635761455482601081111561454d57fe5b60186122ba565b94506000935061486892505050565b6005546040805163c488847b60e01b81523060048201526001600160a01b038981166024830152604482018590528251600094859492169263c488847b926064808301939192829003018186803b1580156145bd57600080fd5b505afa1580156145d1573d6000803e3d6000fd5b505050506040513d60408110156145e757600080fd5b508051602090910151909250905081156146325760405162461bcd60e51b81526004018080602001828103825260338152602001806157186033913960400191505060405180910390fd5b80886001600160a01b03166370a082318c6040518263ffffffff1660e01b815260040180826001600160a01b03166001600160a01b0316815260200191505060206040518083038186803b15801561468957600080fd5b505afa15801561469d573d6000803e3d6000fd5b505050506040513d60208110156146b357600080fd5b50511015614708576040805162461bcd60e51b815260206004820152601860248201527f4c49515549444154455f5345495a455f544f4f5f4d5543480000000000000000604482015290519081900360640190fd5b60006001600160a01b03891630141561472e57614727308d8d856131b6565b90506147b8565b6040805163b2a02ff160e01b81526001600160a01b038e811660048301528d81166024830152604482018590529151918b169163b2a02ff1916064808201926020929091908290030181600087803b15801561478957600080fd5b505af115801561479d573d6000803e3d6000fd5b505050506040513d60208110156147b357600080fd5b505190505b8015614802576040805162461bcd60e51b81526020600482015260146024820152731d1bdad95b881cd95a5e9d5c994819985a5b195960621b604482015290519081900360640190fd5b604080516001600160a01b03808f168252808e1660208301528183018790528b1660608201526080810184905290517f298637f684da70674f26509b10f07ec2fbc77a335ab1e7d6215a4b2484d8bb529181900360a00190a16000975092955050505050505b94509492505050565b6000670de0b6b3a764000061488a848460000151615230565b8161489157fe5b049392505050565b60006113928383604051806040016040528060158152602001747375627472616374696f6e20756e646572666c6f7760581b815250615272565b60006148dd6153ca565b6148e784846152cc565b9050612a2781613abb565b60006113928383604051806040016040528060118152602001706164646974696f6e206f766572666c6f7760781b8152506152f6565b6005546040805163368f515360e21b81523060048201526001600160a01b0385811660248301526044820185905291516000938493169163da3d454c91606480830192602092919082900301818787803b15801561498557600080fd5b505af1158015614999573d6000803e3d6000fd5b505050506040513d60208110156149af57600080fd5b5051905080156149ce576149c66003600e83612f9c565b915050610f80565b6149d6612d98565b600954146149e9576149c6600a806122ba565b826149f2612a82565b1015614a04576149c6600e60096122ba565b614a0c61552c565b614a1585612ce4565b6020830181905282826003811115614a2957fe5b6003811115614a3457fe5b9052506000905081516003811115614a4857fe5b14614a6d57614a646009600783600001516003811115611a0257fe5b92505050610f80565b614a7b816020015185613002565b6040830181905282826003811115614a8f57fe5b6003811115614a9a57fe5b9052506000905081516003811115614aae57fe5b14614aca57614a646009600c83600001516003811115611a0257fe5b614ad6600b5485613002565b6060830181905282826003811115614aea57fe5b6003811115614af557fe5b9052506000905081516003811115614b0957fe5b14614b2557614a646009600b83600001516003811115611a0257fe5b614b2f8585613e18565b604080820180516001600160a01b03881660008181526010602090815290859020928355600a54600190930192909255606080860151600b81905593518551928352928201899052818501929092529081019190915290517f13ed6866d4e1ee6da46f845c46d7e54120883d75c5ea9a2dacc1c4ca8984ab809181900360800190a1600095945050505050565b60055460408051632fe3f38f60e11b81523060048201526001600160a01b0386811660248301528981166044830152888116606483015260848201889052915160009384938493911691635fc7e71e9160a48082019260209290919082900301818787803b158015614c2d57600080fd5b505af1158015614c41573d6000803e3d6000fd5b505050506040513d6020811015614c5757600080fd5b505190508015614c7b57614c6e6003601283612f9c565b9250600091506150de9050565b614c83612d98565b60095414614c9757614c6e600a60166122ba565b886001600160a01b0316886001600160a01b03161415614cbd57614c6e600660176122ba565b86614cce57614c6e600760156122ba565b600019871415614ce457614c6e600760146122ba565b600080614cf28b8b8b613aca565b90925090508115614d1b57614d0c82601081111561454d57fe5b9450600093506150de92505050565b60055460408051633d67eb1f60e01b81523060048201526001600160a01b038b811660248301526044820185905282516000948594921692633d67eb1f926064808301939192829003018186803b158015614d7557600080fd5b505afa158015614d89573d6000803e3d6000fd5b505050506040513d6040811015614d9f57600080fd5b50805160209091015190925090508115614dea5760405162461bcd60e51b81526004018080602001828103825260338152602001806157186033913960400191505060405180910390fd5b808a6001600160a01b0316636eacd3988e6040518263ffffffff1660e01b815260040180826001600160a01b03166001600160a01b0316815260200191505060206040518083038186803b158015614e4157600080fd5b505afa158015614e55573d6000803e3d6000fd5b505050506040513d6020811015614e6b57600080fd5b50511015614ec0576040805162461bcd60e51b815260206004820152601e60248201527f4c49515549444154455f5345495a455f444f45535f4e4f545f4d415443480000604482015290519081900360640190fd5b885160005b81811015614ef057898181518110614ed957fe5b602002602001015183039250806001019050614ec5565b508115614f2e5760405162461bcd60e51b81526004018080602001828103825260228152602001806156a56022913960400191505060405180910390fd5b8a6001600160a01b031663938092088f8f8d8d6040518563ffffffff1660e01b815260040180856001600160a01b03166001600160a01b03168152602001846001600160a01b03166001600160a01b031681526020018060200180602001838103835285818151815260200191508051906020019060200280838360005b83811015614fc4578181015183820152602001614fac565b50505050905001838103825284818151815260200191508051906020019060200280838360005b83811015615003578181015183820152602001614feb565b505050509050019650505050505050600060405180830381600087803b15801561502c57600080fd5b505af1158015615040573d6000803e3d6000fd5b505050507f298637f684da70674f26509b10f07ec2fbc77a335ab1e7d6215a4b2484d8bb528e8e868e8660405180866001600160a01b03166001600160a01b03168152602001856001600160a01b03166001600160a01b03168152602001848152602001836001600160a01b03166001600160a01b031681526020018281526020019550505050505060405180910390a16000975092955050505050505b965096945050505050565b6000806000806150f7612d98565b600954146151165761510b600a604f6122ba565b93509150612d939050565b615120338661391a565b905080600c54019150600c54821015615180576040805162461bcd60e51b815260206004820181905260248201527f61646420726573657276657320756e6578706563746564206f766572666c6f77604482015290519081900360640190fd5b600c829055604080513381526020810183905280820184905290517fa91e67c5ea634cd43a12c5a482724b03de01e85ca68702a53d0c2f45cb7c1dc59181900360600190a160009350915050915091565b60006151db6153ca565b6000806151f0670de0b6b3a764000087614315565b9092509050600082600381111561520357fe5b14615222575060408051602081019091526000815290925090506126eb565b612a75818660000151613a0b565b600061139283836040518060400160405280601781526020017f6d756c7469706c69636174696f6e206f766572666c6f77000000000000000000815250615354565b600081848411156152c45760405162461bcd60e51b8152602060048201818152835160248401528351909283926044909101919085019080838360008315610e49578181015183820152602001610e31565b505050900390565b6152d46153ca565b60405180602001604052806152ed856000015185615230565b90529392505050565b6000838301828582101561534b5760405162461bcd60e51b8152602060048201818152835160248401528351909283926044909101919085019080838360008315610e49578181015183820152602001610e31565b50949350505050565b6000831580615361575082155b1561536e57506000611392565b8383028385828161537b57fe5b0414839061534b5760405162461bcd60e51b8152602060048201818152835160248401528351909283926044909101919085019080838360008315610e49578181015183820152602001610e31565b6040518060200160405280600081525090565b828054600181600116156101000203166002900490600052602060002090601f016020900481019282601f1061541e57805160ff191683800117855561544b565b8280016001018555821561544b579182015b8281111561544b578251825591602001919060010190615430565b50615457929150615555565b5090565b6040805160e0810190915280600081526020016000815260200160008152602001600081526020016000815260200160008152602001600081525090565b604080516101208101909152806000815260200160008152602001600081526020016000815260200160008152602001600081526020016000815260200160008152602001600081525090565b6040805161010081019091528060008152602001600081526020016000815260200160008152602001600081526020016000815260200160008152602001600081525090565b604080516080810190915280600081526020016000815260200160008152602001600081525090565b6110f091905b80821115615457576000815560010161555b56fe6f6e6c792061646d696e206d617920696e697469616c697a6520746865206d61726b65746d61726b6574206d6179206f6e6c7920626520696e697469616c697a6564206f6e6365696e697469616c2065786368616e67652072617465206d7573742062652067726561746572207468616e207a65726f2e73657474696e6720696e7465726573742072617465206d6f64656c206661696c65644d494e545f4e45575f4143434f554e545f42414c414e43455f43414c43554c4154494f4e5f4641494c4544626f72726f7742616c616e636553746f7265643a20626f72726f7742616c616e636553746f726564496e7465726e616c206661696c656452455041595f424f52524f575f4e45575f4143434f554e545f424f52524f575f42414c414e43455f43414c43554c4154494f4e5f4641494c45444c49515549444154455f5345495a455f494e434f52524543545f4e554d5f4e465453ddf252ad1be2c89b69c2b068fc378daa952ba7f163c4a11628f55a4df523b3ef52455041595f424f52524f575f4e45575f544f54414c5f42414c414e43455f43414c43554c4154494f4e5f4641494c45444c49515549444154455f434f4d5054524f4c4c45525f43414c43554c4154455f414d4f554e545f5345495a455f4641494c454465786368616e67655261746553746f7265643a2065786368616e67655261746553746f726564496e7465726e616c206661696c65644d494e545f4e45575f544f54414c5f535550504c595f43414c43554c4154494f4e5f4641494c45446f6e65206f662072656465656d546f6b656e73496e206f722072656465656d416d6f756e74496e206d757374206265207a65726f72656475636520726573657276657320756e657870656374656420756e646572666c6f77a265627a7a7231582046630b1a541d5f347958c42159f4f88fd2324da2a00ce824e48c1a07ab3fa81464736f6c634300051000326f6e6c792061646d696e206d617920696e697469616c697a6520746865206d61726b65746d61726b6574206d6179206f6e6c7920626520696e697469616c697a6564206f6e6365696e697469616c2065786368616e67652072617465206d7573742062652067726561746572207468616e207a65726f2e73657474696e6720696e7465726573742072617465206d6f64656c206661696c6564",
  "devdoc": {
    "author": "Compound",
    "methods": {
      "_acceptAdmin()": {
        "details": "Admin function for pending admin to accept role and update admin",
        "return": "uint 0=success, otherwise a failure (see ErrorReporter.sol for details)"
      },
      "_addReserves()": {
        "return": "uint 0=success, otherwise a failure (see ErrorReporter.sol for details)"
      },
      "_reduceReserves(uint256)": {
        "params": {
          "reduceAmount": "Amount of reduction to reserves"
        },
        "return": "uint 0=success, otherwise a failure (see ErrorReporter.sol for details)"
      },
      "_setComptroller(address)": {
        "details": "Admin function to set a new comptroller",
        "return": "uint 0=success, otherwise a failure (see ErrorReporter.sol for details)"
      },
      "_setInterestRateModel(address)": {
        "details": "Admin function to accrue interest and update the interest rate model",
        "params": {
          "newInterestRateModel": "the new interest rate model to use"
        },
        "return": "uint 0=success, otherwise a failure (see ErrorReporter.sol for details)"
      },
      "_setPendingAdmin(address)": {
        "details": "Admin function to begin change of admin. The newPendingAdmin must call `_acceptAdmin` to finalize the transfer.",
        "params": {
          "newPendingAdmin": "New pending admin."
        },
        "return": "uint 0=success, otherwise a failure (see ErrorReporter.sol for details)"
      },
      "_setReserveFactor(uint256)": {
        "details": "Admin function to accrue interest and set a new reserve factor",
        "return": "uint 0=success, otherwise a failure (see ErrorReporter.sol for details)"
      },
      "accrueInterest()": {
        "details": "This calculates interest accrued from the last checkpointed block  up to the current block and writes new checkpoint to storage."
      },
      "allowance(address,address)": {
        "params": {
          "owner": "The address of the account which owns the tokens to be spent",
          "spender": "The address of the account which may transfer tokens"
        },
        "return": "The number of tokens allowed to be spent (-1 means infinite)"
      },
      "approve(address,uint256)": {
        "details": "This will overwrite the approval amount for `spender` and is subject to issues noted [here](https://eips.ethereum.org/EIPS/eip-20#approve)",
        "params": {
          "amount": "The number of tokens that are approved (-1 means infinite)",
          "spender": "The address of the account which may transfer tokens"
        },
        "return": "Whether or not the approval succeeded"
      },
      "balanceOf(address)": {
        "params": {
          "owner": "The address of the account to query"
        },
        "return": "The number of tokens owned by `owner`"
      },
      "balanceOfUnderlying(address)": {
        "details": "This also accrues interest in a transaction",
        "params": {
          "owner": "The address of the account to query"
        },
        "return": "The amount of underlying owned by `owner`"
      },
      "borrow(uint256)": {
        "params": {
          "borrowAmount": "The amount of the underlying asset to borrow"
        },
        "return": "uint 0=success, otherwise a failure (see ErrorReporter.sol for details)"
      },
      "borrowBalanceCurrent(address)": {
        "params": {
          "account": "The address whose balance should be calculated after updating borrowIndex"
        },
        "return": "The calculated balance"
      },
      "borrowBalanceStored(address)": {
        "params": {
          "account": "The address whose balance should be calculated"
        },
        "return": "The calculated balance"
      },
      "borrowRatePerBlock()": {
        "return": "The borrow interest rate per block, scaled by 1e18"
      },
      "constructor": {
        "params": {
          "admin_": "Address of the administrator of this token",
          "comptroller_": "The address of the Comptroller",
          "decimals_": "ERC-20 decimal precision of this token",
          "initialExchangeRateMantissa_": "The initial exchange rate, scaled by 1e18",
          "interestRateModel_": "The address of the interest rate model",
          "name_": "ERC-20 name of this token",
          "symbol_": "ERC-20 symbol of this token"
        }
      },
      "exchangeRateCurrent()": {
        "return": "Calculated exchange rate scaled by 1e18"
      },
      "exchangeRateStored()": {
        "details": "This function does not accrue interest before calculating the exchange rate",
        "return": "Calculated exchange rate scaled by 1e18"
      },
      "getAccountSnapshot(address)": {
        "details": "This is used by comptroller to more efficiently perform liquidity checks.",
        "params": {
          "account": "Address of the account to snapshot"
        },
        "return": "(possible error, token balance, borrow balance, exchange rate mantissa)"
      },
      "getCash()": {
        "return": "The quantity of underlying asset owned by this contract"
      },
      "initialize(address,address,uint256,string,string,uint8)": {
        "params": {
          "comptroller_": "The address of the Comptroller",
          "decimals_": "EIP-20 decimal precision of this token",
          "initialExchangeRateMantissa_": "The initial exchange rate, scaled by 1e18",
          "interestRateModel_": "The address of the interest rate model",
          "name_": "EIP-20 name of this token",
          "symbol_": "EIP-20 symbol of this token"
        }
      },
      "liquidateBorrow(address,address)": {
        "details": "Reverts upon any failure",
        "params": {
          "borrower": "The borrower of this cToken to be liquidated",
          "cTokenCollateral": "The market in which to seize collateral from the borrower"
        }
      },
      "liquidateBorrowNft(address,address,uint256[],uint256[])": {
        "details": "Reverts upon any failure",
        "params": {
          "borrower": "The borrower of this cToken to be liquidated",
          "cNftCollateral": "The market in which to seize collateral from the borrower",
          "seizeAmounts": "The amount of each ID of NFT to seize.",
          "seizeIds": "The IDs of the NFT to seize."
        }
      },
      "mint()": {
        "details": "Reverts upon any failure"
      },
      "redeem(uint256)": {
        "details": "Accrues interest whether or not the operation succeeds, unless reverted",
        "params": {
          "redeemTokens": "The number of cTokens to redeem into underlying"
        },
        "return": "uint 0=success, otherwise a failure (see ErrorReporter.sol for details)"
      },
      "redeemUnderlying(uint256)": {
        "details": "Accrues interest whether or not the operation succeeds, unless reverted",
        "params": {
          "redeemAmount": "The amount of underlying to redeem"
        },
        "return": "uint 0=success, otherwise a failure (see ErrorReporter.sol for details)"
      },
      "repayBorrow()": {
        "details": "Reverts upon any failure"
      },
      "repayBorrowBehalf(address)": {
        "details": "Reverts upon any failure",
        "params": {
          "borrower": "the account with the debt being payed off"
        }
      },
      "seize(address,address,uint256)": {
        "details": "Will fail unless called by another cToken during the process of liquidation. Its absolutely critical to use msg.sender as the borrowed cToken and not a parameter.",
        "params": {
          "borrower": "The account having collateral seized",
          "liquidator": "The account receiving seized collateral",
          "seizeTokens": "The number of cTokens to seize"
        },
        "return": "uint 0=success, otherwise a failure (see ErrorReporter.sol for details)"
      },
      "supplyRatePerBlock()": {
        "return": "The supply interest rate per block, scaled by 1e18"
      },
      "totalBorrowsCurrent()": {
        "return": "The total borrows with interest"
      },
      "transfer(address,uint256)": {
        "params": {
          "amount": "The number of tokens to transfer",
          "dst": "The address of the destination account"
        },
        "return": "Whether or not the transfer succeeded"
      },
      "transferFrom(address,address,uint256)": {
        "params": {
          "amount": "The number of tokens to transfer",
          "dst": "The address of the destination account",
          "src": "The address of the source account"
        },
        "return": "Whether or not the transfer succeeded"
      }
    },
    "title": "Compound's CEther Contract"
  },
  "userdoc": {
    "methods": {
      "_acceptAdmin()": {
        "notice": "Accepts transfer of admin rights. msg.sender must be pendingAdmin"
      },
      "_addReserves()": {
        "notice": "The sender adds to reserves."
      },
      "_reduceReserves(uint256)": {
        "notice": "Accrues interest and reduces reserves by transferring to admin"
      },
      "_setComptroller(address)": {
        "notice": "Sets a new comptroller for the market"
      },
      "_setInterestRateModel(address)": {
        "notice": "accrues interest and updates the interest rate model using _setInterestRateModelFresh"
      },
      "_setPendingAdmin(address)": {
        "notice": "Begins transfer of admin rights. The newPendingAdmin must call `_acceptAdmin` to finalize the transfer."
      },
      "_setReserveFactor(uint256)": {
        "notice": "accrues interest and sets a new reserve factor for the protocol using _setReserveFactorFresh"
      },
      "accrueInterest()": {
        "notice": "Applies accrued interest to total borrows and reserves"
      },
      "allowance(address,address)": {
        "notice": "Get the current allowance from `owner` for `spender`"
      },
      "approve(address,uint256)": {
        "notice": "Approve `spender` to transfer up to `amount` from `src`"
      },
      "balanceOf(address)": {
        "notice": "Get the token balance of the `owner`"
      },
      "balanceOfUnderlying(address)": {
        "notice": "Get the underlying balance of the `owner`"
      },
      "borrow(uint256)": {
        "notice": "Sender borrows assets from the protocol to their own address"
      },
      "borrowBalanceCurrent(address)": {
        "notice": "Accrue interest to updated borrowIndex and then calculate account's borrow balance using the updated borrowIndex"
      },
      "borrowBalanceStored(address)": {
        "notice": "Return the borrow balance of account based on stored data"
      },
      "borrowRatePerBlock()": {
        "notice": "Returns the current per-block borrow interest rate for this cToken"
      },
      "constructor": "Construct a new CEther money market",
      "exchangeRateCurrent()": {
        "notice": "Accrue interest then return the up-to-date exchange rate"
      },
      "exchangeRateStored()": {
        "notice": "Calculates the exchange rate from the underlying to the CToken"
      },
      "getAccountSnapshot(address)": {
        "notice": "Get a snapshot of the account's balances, and the cached exchange rate"
      },
      "getCash()": {
        "notice": "Get cash balance of this cToken in the underlying asset"
      },
      "initialize(address,address,uint256,string,string,uint8)": {
        "notice": "Initialize the money market"
      },
      "liquidateBorrow(address,address)": {
        "notice": "The sender liquidates the borrowers collateral. The collateral seized is transferred to the liquidator."
      },
      "liquidateBorrowNft(address,address,uint256[],uint256[])": {
        "notice": "The sender liquidates the borrowers NFT collateral. The collateral seized is transferred to the liquidator."
      },
      "mint()": {
        "notice": "Sender supplies assets into the market and receives cTokens in exchange"
      },
      "redeem(uint256)": {
        "notice": "Sender redeems cTokens in exchange for the underlying asset"
      },
      "redeemUnderlying(uint256)": {
        "notice": "Sender redeems cTokens in exchange for a specified amount of underlying asset"
      },
      "repayBorrow()": {
        "notice": "Sender repays their own borrow"
      },
      "repayBorrowBehalf(address)": {
        "notice": "Sender repays a borrow belonging to borrower"
      },
      "seize(address,address,uint256)": {
        "notice": "Transfers collateral tokens (this market) to the liquidator."
      },
      "supplyRatePerBlock()": {
        "notice": "Returns the current per-block supply interest rate for this cToken"
      },
      "totalBorrowsCurrent()": {
        "notice": "Returns the current total borrows plus accrued interest"
      },
      "transfer(address,uint256)": {
        "notice": "Transfer `amount` tokens from `msg.sender` to `dst`"
      },
      "transferFrom(address,address,uint256)": {
        "notice": "Transfer `amount` tokens from `src` to `dst`"
      }
    },
    "notice": "CToken which wraps Ether"
  },
  "storageLayout": {
    "storage": [
      {
        "astId": 6616,
        "contract": "contracts/CEther.sol:CEther",
        "label": "_notEntered",
        "offset": 0,
        "slot": "0",
        "type": "t_bool"
      },
      {
        "astId": 6618,
        "contract": "contracts/CEther.sol:CEther",
        "label": "name",
        "offset": 0,
        "slot": "1",
        "type": "t_string_storage"
      },
      {
        "astId": 6620,
        "contract": "contracts/CEther.sol:CEther",
        "label": "symbol",
        "offset": 0,
        "slot": "2",
        "type": "t_string_storage"
      },
      {
        "astId": 6622,
        "contract": "contracts/CEther.sol:CEther",
        "label": "decimals",
        "offset": 0,
        "slot": "3",
        "type": "t_uint8"
      },
      {
        "astId": 6630,
        "contract": "contracts/CEther.sol:CEther",
        "label": "admin",
        "offset": 1,
        "slot": "3",
        "type": "t_address_payable"
      },
      {
        "astId": 6632,
        "contract": "contracts/CEther.sol:CEther",
        "label": "pendingAdmin",
        "offset": 0,
        "slot": "4",
        "type": "t_address_payable"
      },
      {
        "astId": 6634,
        "contract": "contracts/CEther.sol:CEther",
        "label": "comptroller",
        "offset": 0,
        "slot": "5",
        "type": "t_contract(ComptrollerInterface)34713"
      },
      {
        "astId": 6636,
        "contract": "contracts/CEther.sol:CEther",
        "label": "interestRateModel",
        "offset": 0,
        "slot": "6",
        "type": "t_contract(InterestRateModel)39015"
      },
      {
        "astId": 6638,
        "contract": "contracts/CEther.sol:CEther",
        "label": "initialExchangeRateMantissa",
        "offset": 0,
        "slot": "7",
        "type": "t_uint256"
      },
      {
        "astId": 6640,
        "contract": "contracts/CEther.sol:CEther",
        "label": "reserveFactorMantissa",
        "offset": 0,
        "slot": "8",
        "type": "t_uint256"
      },
      {
        "astId": 6642,
        "contract": "contracts/CEther.sol:CEther",
        "label": "accrualBlockNumber",
        "offset": 0,
        "slot": "9",
        "type": "t_uint256"
      },
      {
        "astId": 6644,
        "contract": "contracts/CEther.sol:CEther",
        "label": "borrowIndex",
        "offset": 0,
        "slot": "10",
        "type": "t_uint256"
      },
      {
        "astId": 6646,
        "contract": "contracts/CEther.sol:CEther",
        "label": "totalBorrows",
        "offset": 0,
        "slot": "11",
        "type": "t_uint256"
      },
      {
        "astId": 6648,
        "contract": "contracts/CEther.sol:CEther",
        "label": "totalReserves",
        "offset": 0,
        "slot": "12",
        "type": "t_uint256"
      },
      {
        "astId": 6650,
        "contract": "contracts/CEther.sol:CEther",
        "label": "totalSupply",
        "offset": 0,
        "slot": "13",
        "type": "t_uint256"
      },
      {
        "astId": 6654,
        "contract": "contracts/CEther.sol:CEther",
        "label": "accountTokens",
        "offset": 0,
        "slot": "14",
        "type": "t_mapping(t_address,t_uint256)"
      },
      {
        "astId": 6660,
        "contract": "contracts/CEther.sol:CEther",
        "label": "transferAllowances",
        "offset": 0,
        "slot": "15",
        "type": "t_mapping(t_address,t_mapping(t_address,t_uint256))"
      },
      {
        "astId": 6669,
        "contract": "contracts/CEther.sol:CEther",
        "label": "accountBorrows",
        "offset": 0,
        "slot": "16",
        "type": "t_mapping(t_address,t_struct(BorrowSnapshot)6665_storage)"
      }
    ],
    "types": {
      "t_address": {
        "encoding": "inplace",
        "label": "address",
        "numberOfBytes": "20"
      },
      "t_address_payable": {
        "encoding": "inplace",
        "label": "address payable",
        "numberOfBytes": "20"
      },
      "t_bool": {
        "encoding": "inplace",
        "label": "bool",
        "numberOfBytes": "1"
      },
      "t_contract(ComptrollerInterface)34713": {
        "encoding": "inplace",
        "label": "contract ComptrollerInterface",
        "numberOfBytes": "20"
      },
      "t_contract(InterestRateModel)39015": {
        "encoding": "inplace",
        "label": "contract InterestRateModel",
        "numberOfBytes": "20"
      },
      "t_mapping(t_address,t_mapping(t_address,t_uint256))": {
        "encoding": "mapping",
        "key": "t_address",
        "label": "mapping(address => mapping(address => uint256))",
        "numberOfBytes": "32",
        "value": "t_mapping(t_address,t_uint256)"
      },
      "t_mapping(t_address,t_struct(BorrowSnapshot)6665_storage)": {
        "encoding": "mapping",
        "key": "t_address",
        "label": "mapping(address => struct CTokenStorage.BorrowSnapshot)",
        "numberOfBytes": "32",
        "value": "t_struct(BorrowSnapshot)6665_storage"
      },
      "t_mapping(t_address,t_uint256)": {
        "encoding": "mapping",
        "key": "t_address",
        "label": "mapping(address => uint256)",
        "numberOfBytes": "32",
        "value": "t_uint256"
      },
      "t_string_storage": {
        "encoding": "bytes",
        "label": "string",
        "numberOfBytes": "32"
      },
      "t_struct(BorrowSnapshot)6665_storage": {
        "encoding": "inplace",
        "label": "struct CTokenStorage.BorrowSnapshot",
        "members": [
          {
            "astId": 6662,
            "contract": "contracts/CEther.sol:CEther",
            "label": "principal",
            "offset": 0,
            "slot": "0",
            "type": "t_uint256"
          },
          {
            "astId": 6664,
            "contract": "contracts/CEther.sol:CEther",
            "label": "interestIndex",
            "offset": 0,
            "slot": "1",
            "type": "t_uint256"
          }
        ],
        "numberOfBytes": "64"
      },
      "t_uint256": {
        "encoding": "inplace",
        "label": "uint256",
        "numberOfBytes": "32"
      },
      "t_uint8": {
        "encoding": "inplace",
        "label": "uint8",
        "numberOfBytes": "1"
      }
    }
  }
}