{
  "address": "0x039A3aab5820d1293369EC93109C9e1929A5aF9a",
  "abi": [
    {
      "inputs": [
        {
          "internalType": "string",
          "name": "_uri",
          "type": "string"
        },
        {
          "internalType": "address",
          "name": "_underlying",
          "type": "address"
        },
        {
          "internalType": "bool",
          "name": "_isPunk",
          "type": "bool"
        },
        {
          "internalType": "bool",
          "name": "_is1155",
          "type": "bool"
        },
        {
          "internalType": "address",
          "name": "_comptroller",
          "type": "address"
        }
      ],
      "stateMutability": "nonpayable",
      "type": "constructor"
    },
    {
      "anonymous": false,
      "inputs": [
        {
          "indexed": true,
          "internalType": "address",
          "name": "account",
          "type": "address"
        },
        {
          "indexed": true,
          "internalType": "address",
          "name": "operator",
          "type": "address"
        },
        {
          "indexed": false,
          "internalType": "bool",
          "name": "approved",
          "type": "bool"
        }
      ],
      "name": "ApprovalForAll",
      "type": "event"
    },
    {
      "anonymous": false,
      "inputs": [
        {
          "indexed": false,
          "internalType": "address",
          "name": "minter",
          "type": "address"
        },
        {
          "indexed": false,
          "internalType": "uint256[]",
          "name": "mintIds",
          "type": "uint256[]"
        },
        {
          "indexed": false,
          "internalType": "uint256[]",
          "name": "mintAmounts",
          "type": "uint256[]"
        }
      ],
      "name": "Mint",
      "type": "event"
    },
    {
      "anonymous": false,
      "inputs": [
        {
          "indexed": false,
          "internalType": "address",
          "name": "redeemer",
          "type": "address"
        },
        {
          "indexed": false,
          "internalType": "uint256[]",
          "name": "redeemIds",
          "type": "uint256[]"
        },
        {
          "indexed": false,
          "internalType": "uint256[]",
          "name": "redeemAmounts",
          "type": "uint256[]"
        }
      ],
      "name": "Redeem",
      "type": "event"
    },
    {
      "anonymous": false,
      "inputs": [
        {
          "indexed": true,
          "internalType": "address",
          "name": "operator",
          "type": "address"
        },
        {
          "indexed": true,
          "internalType": "address",
          "name": "from",
          "type": "address"
        },
        {
          "indexed": true,
          "internalType": "address",
          "name": "to",
          "type": "address"
        },
        {
          "indexed": false,
          "internalType": "uint256[]",
          "name": "ids",
          "type": "uint256[]"
        },
        {
          "indexed": false,
          "internalType": "uint256[]",
          "name": "values",
          "type": "uint256[]"
        }
      ],
      "name": "TransferBatch",
      "type": "event"
    },
    {
      "anonymous": false,
      "inputs": [
        {
          "indexed": true,
          "internalType": "address",
          "name": "operator",
          "type": "address"
        },
        {
          "indexed": true,
          "internalType": "address",
          "name": "from",
          "type": "address"
        },
        {
          "indexed": true,
          "internalType": "address",
          "name": "to",
          "type": "address"
        },
        {
          "indexed": false,
          "internalType": "uint256",
          "name": "id",
          "type": "uint256"
        },
        {
          "indexed": false,
          "internalType": "uint256",
          "name": "value",
          "type": "uint256"
        }
      ],
      "name": "TransferSingle",
      "type": "event"
    },
    {
      "anonymous": false,
      "inputs": [
        {
          "indexed": false,
          "internalType": "string",
          "name": "value",
          "type": "string"
        },
        {
          "indexed": true,
          "internalType": "uint256",
          "name": "id",
          "type": "uint256"
        }
      ],
      "name": "URI",
      "type": "event"
    },
    {
      "inputs": [
        {
          "internalType": "address",
          "name": "account",
          "type": "address"
        },
        {
          "internalType": "uint256",
          "name": "id",
          "type": "uint256"
        }
      ],
      "name": "balanceOf",
      "outputs": [
        {
          "internalType": "uint256",
          "name": "",
          "type": "uint256"
        }
      ],
      "stateMutability": "view",
      "type": "function"
    },
    {
      "inputs": [
        {
          "internalType": "address[]",
          "name": "accounts",
          "type": "address[]"
        },
        {
          "internalType": "uint256[]",
          "name": "ids",
          "type": "uint256[]"
        }
      ],
      "name": "balanceOfBatch",
      "outputs": [
        {
          "internalType": "uint256[]",
          "name": "",
          "type": "uint256[]"
        }
      ],
      "stateMutability": "view",
      "type": "function"
    },
    {
      "inputs": [],
      "name": "comptroller",
      "outputs": [
        {
          "internalType": "address",
          "name": "",
          "type": "address"
        }
      ],
      "stateMutability": "view",
      "type": "function"
    },
    {
      "inputs": [],
      "name": "is1155",
      "outputs": [
        {
          "internalType": "bool",
          "name": "",
          "type": "bool"
        }
      ],
      "stateMutability": "view",
      "type": "function"
    },
    {
      "inputs": [
        {
          "internalType": "address",
          "name": "account",
          "type": "address"
        },
        {
          "internalType": "address",
          "name": "operator",
          "type": "address"
        }
      ],
      "name": "isApprovedForAll",
      "outputs": [
        {
          "internalType": "bool",
          "name": "",
          "type": "bool"
        }
      ],
      "stateMutability": "view",
      "type": "function"
    },
    {
      "inputs": [],
      "name": "isCNft",
      "outputs": [
        {
          "internalType": "bool",
          "name": "",
          "type": "bool"
        }
      ],
      "stateMutability": "view",
      "type": "function"
    },
    {
      "inputs": [],
      "name": "isPunk",
      "outputs": [
        {
          "internalType": "bool",
          "name": "",
          "type": "bool"
        }
      ],
      "stateMutability": "view",
      "type": "function"
    },
    {
      "inputs": [
        {
          "internalType": "uint256[]",
          "name": "tokenIds",
          "type": "uint256[]"
        },
        {
          "internalType": "uint256[]",
          "name": "amounts",
          "type": "uint256[]"
        }
      ],
      "name": "mint",
      "outputs": [
        {
          "internalType": "uint256",
          "name": "",
          "type": "uint256"
        }
      ],
      "stateMutability": "nonpayable",
      "type": "function"
    },
    {
      "inputs": [
        {
          "internalType": "address",
          "name": "operator",
          "type": "address"
        },
        {
          "internalType": "address",
          "name": "from",
          "type": "address"
        },
        {
          "internalType": "uint256[]",
          "name": "ids",
          "type": "uint256[]"
        },
        {
          "internalType": "uint256[]",
          "name": "values",
          "type": "uint256[]"
        },
        {
          "internalType": "bytes",
          "name": "data",
          "type": "bytes"
        }
      ],
      "name": "onERC1155BatchReceived",
      "outputs": [
        {
          "internalType": "bytes4",
          "name": "",
          "type": "bytes4"
        }
      ],
      "stateMutability": "nonpayable",
      "type": "function"
    },
    {
      "inputs": [
        {
          "internalType": "address",
          "name": "operator",
          "type": "address"
        },
        {
          "internalType": "address",
          "name": "from",
          "type": "address"
        },
        {
          "internalType": "uint256",
          "name": "id",
          "type": "uint256"
        },
        {
          "internalType": "uint256",
          "name": "value",
          "type": "uint256"
        },
        {
          "internalType": "bytes",
          "name": "data",
          "type": "bytes"
        }
      ],
      "name": "onERC1155Received",
      "outputs": [
        {
          "internalType": "bytes4",
          "name": "",
          "type": "bytes4"
        }
      ],
      "stateMutability": "nonpayable",
      "type": "function"
    },
    {
      "inputs": [
        {
          "internalType": "address",
          "name": "operator",
          "type": "address"
        },
        {
          "internalType": "address",
          "name": "from",
          "type": "address"
        },
        {
          "internalType": "uint256",
          "name": "tokenId",
          "type": "uint256"
        },
        {
          "internalType": "bytes",
          "name": "data",
          "type": "bytes"
        }
      ],
      "name": "onERC721Received",
      "outputs": [
        {
          "internalType": "bytes4",
          "name": "",
          "type": "bytes4"
        }
      ],
      "stateMutability": "nonpayable",
      "type": "function"
    },
    {
      "inputs": [
        {
          "internalType": "uint256[]",
          "name": "tokenIds",
          "type": "uint256[]"
        },
        {
          "internalType": "uint256[]",
          "name": "amounts",
          "type": "uint256[]"
        }
      ],
      "name": "redeem",
      "outputs": [],
      "stateMutability": "nonpayable",
      "type": "function"
    },
    {
      "inputs": [
        {
          "internalType": "address",
          "name": "from",
          "type": "address"
        },
        {
          "internalType": "address",
          "name": "to",
          "type": "address"
        },
        {
          "internalType": "uint256[]",
          "name": "ids",
          "type": "uint256[]"
        },
        {
          "internalType": "uint256[]",
          "name": "amounts",
          "type": "uint256[]"
        },
        {
          "internalType": "bytes",
          "name": "data",
          "type": "bytes"
        }
      ],
      "name": "safeBatchTransferFrom",
      "outputs": [],
      "stateMutability": "nonpayable",
      "type": "function"
    },
    {
      "inputs": [
        {
          "internalType": "address",
          "name": "from",
          "type": "address"
        },
        {
          "internalType": "address",
          "name": "to",
          "type": "address"
        },
        {
          "internalType": "uint256",
          "name": "id",
          "type": "uint256"
        },
        {
          "internalType": "uint256",
          "name": "amount",
          "type": "uint256"
        },
        {
          "internalType": "bytes",
          "name": "data",
          "type": "bytes"
        }
      ],
      "name": "safeTransferFrom",
      "outputs": [],
      "stateMutability": "nonpayable",
      "type": "function"
    },
    {
      "inputs": [
        {
          "internalType": "address",
          "name": "liquidator",
          "type": "address"
        },
        {
          "internalType": "address",
          "name": "borrower",
          "type": "address"
        },
        {
          "internalType": "uint256[]",
          "name": "seizeIds",
          "type": "uint256[]"
        },
        {
          "internalType": "uint256[]",
          "name": "seizeAmounts",
          "type": "uint256[]"
        }
      ],
      "name": "seize",
      "outputs": [],
      "stateMutability": "nonpayable",
      "type": "function"
    },
    {
      "inputs": [
        {
          "internalType": "address",
          "name": "operator",
          "type": "address"
        },
        {
          "internalType": "bool",
          "name": "approved",
          "type": "bool"
        }
      ],
      "name": "setApprovalForAll",
      "outputs": [],
      "stateMutability": "nonpayable",
      "type": "function"
    },
    {
      "inputs": [
        {
          "internalType": "bytes4",
          "name": "interfaceId",
          "type": "bytes4"
        }
      ],
      "name": "supportsInterface",
      "outputs": [
        {
          "internalType": "bool",
          "name": "",
          "type": "bool"
        }
      ],
      "stateMutability": "view",
      "type": "function"
    },
    {
      "inputs": [
        {
          "internalType": "address",
          "name": "account",
          "type": "address"
        }
      ],
      "name": "tokensByAccount",
      "outputs": [
        {
          "internalType": "uint256[]",
          "name": "",
          "type": "uint256[]"
        }
      ],
      "stateMutability": "view",
      "type": "function"
    },
    {
      "inputs": [
        {
          "internalType": "address",
          "name": "",
          "type": "address"
        }
      ],
      "name": "totalBalance",
      "outputs": [
        {
          "internalType": "uint256",
          "name": "",
          "type": "uint256"
        }
      ],
      "stateMutability": "view",
      "type": "function"
    },
    {
      "inputs": [],
      "name": "totalSupply",
      "outputs": [
        {
          "internalType": "uint256",
          "name": "",
          "type": "uint256"
        }
      ],
      "stateMutability": "view",
      "type": "function"
    },
    {
      "inputs": [],
      "name": "underlying",
      "outputs": [
        {
          "internalType": "address",
          "name": "",
          "type": "address"
        }
      ],
      "stateMutability": "view",
      "type": "function"
    },
    {
      "inputs": [
        {
          "internalType": "uint256",
          "name": "",
          "type": "uint256"
        }
      ],
      "name": "uri",
      "outputs": [
        {
          "internalType": "string",
          "name": "",
          "type": "string"
        }
      ],
      "stateMutability": "view",
      "type": "function"
    }
  ],
  "transactionHash": "0xae9c7887d6cf8c92853f83f1cc03f87b750d360809b847cae694638beecab7b5",
  "args": [
    "",
    "0xb47e3cd837dDF8e4c57F05d70Ab865de6e193BBB",
    true,
    false,
    "0x6BC8925AF366521C5878EB67420F8543c2924Db5"
  ],
  "numDeployments": 1,
  "solcInputHash": "f2ce1d6d07b59f30f25296efa1b9053a",
  "bytecode": "0x60806040523480156200001157600080fd5b506040516200345e3803806200345e8339810160408190526200003491620002e8565b846200004081620001e5565b5060016008556001600160a01b038416620000ae5760405162461bcd60e51b8152602060048201526024808201527f434e46543a2041737365742073686f756c64206e6f74206265206164647265736044820152637328302960e01b60648201526084015b60405180910390fd5b806001600160a01b0316627e3dd26040518163ffffffff1660e01b815260040160206040518083038186803b158015620000e757600080fd5b505afa158015620000fc573d6000803e3d6000fd5b505050506040513d601f19601f8201168201806040525081019062000122919062000411565b620001835760405162461bcd60e51b815260206004820152602a60248201527f5f636f6d7074726f6c6c6572206973206e6f74206120436f6d7074726f6c6c656044820152691c8818dbdb9d1c9858dd60b21b6064820152608401620000a5565b60008054921515600160a81b0260ff60a81b19941515600160a01b026001600160a81b03199094166001600160a01b039687161793909317939093169190911790915560018054919092166001600160a01b0319919091161790555062000473565b8051620001fa906005906020840190620001fe565b5050565b8280546200020c9062000436565b90600052602060002090601f0160209004810192826200023057600085556200027b565b82601f106200024b57805160ff19168380011785556200027b565b828001600101855582156200027b579182015b828111156200027b5782518255916020019190600101906200025e565b50620002899291506200028d565b5090565b5b808211156200028957600081556001016200028e565b634e487b7160e01b600052604160045260246000fd5b80516001600160a01b0381168114620002d257600080fd5b919050565b80518015158114620002d257600080fd5b600080600080600060a086880312156200030157600080fd5b85516001600160401b03808211156200031957600080fd5b818801915088601f8301126200032e57600080fd5b815181811115620003435762000343620002a4565b604051601f8201601f19908116603f011681019083821181831017156200036e576200036e620002a4565b81604052828152602093508b848487010111156200038b57600080fd5b600091505b82821015620003af578482018401518183018501529083019062000390565b82821115620003c15760008484830101525b9850620003d3915050888201620002ba565b95505050620003e560408701620002d7565b9250620003f560608701620002d7565b91506200040560808701620002ba565b90509295509295909350565b6000602082840312156200042457600080fd5b6200042f82620002d7565b9392505050565b600181811c908216806200044b57607f821691505b602082108114156200046d57634e487b7160e01b600052602260045260246000fd5b50919050565b612fdb80620004836000396000f3fe608060405234801561001057600080fd5b50600436106101415760003560e01c80636a11a3d8116100b8578063a22cb4651161007c578063a22cb465146102eb578063aa80b6cc146102fe578063bc197c8114610306578063e985e9c514610319578063f23a6e6114610355578063f242432a1461036857600080fd5b80636a11a3d81461027e5780636eacd398146102925780636f307dc3146102b257806385bff2e7146102c557806393809208146102d857600080fd5b806318160ddd1161010a57806318160ddd146101ef5780632ca51e22146101f85780632eb2c2d61461020d5780633d5d190c146102205780634e1273f4146102335780635fe3b5671461025357600080fd5b8062fdd58e1461014657806301ffc9a71461016c57806306f26dc21461018f5780630e89341c146101a3578063150b7a02146101c3575b600080fd5b6101596101543660046124b0565b61037b565b6040519081526020015b60405180910390f35b61017f61017a3660046124f2565b610417565b6040519015158152602001610163565b60005461017f90600160a81b900460ff1681565b6101b66101b1366004612516565b610457565b604051610163919061258b565b6101d66101d13660046125e7565b6104eb565b6040516001600160e01b03199091168152602001610163565b61015960065481565b61020b61020636600461269f565b610553565b005b61020b61021b36600461270b565b610aaa565b61015961022e36600461269f565b610d46565b6102466102413660046128a2565b611341565b60405161016391906129aa565b600154610266906001600160a01b031681565b6040516001600160a01b039091168152602001610163565b60005461017f90600160a01b900460ff1681565b6101596102a03660046129bd565b60026020526000908152604090205481565b600054610266906001600160a01b031681565b6102466102d33660046129bd565b61146b565b61020b6102e63660046129da565b6114d6565b61020b6102f9366004612a6f565b611784565b61017f600181565b6101d661031436600461270b565b611793565b61017f610327366004612aad565b6001600160a01b03918216600090815260046020908152604080832093909416825291909152205460ff1690565b6101d6610363366004612adb565b6117fe565b61020b610376366004612adb565b611867565b60006001600160a01b0383166103ec5760405162461bcd60e51b815260206004820152602b60248201527f455243313135353a2062616c616e636520717565727920666f7220746865207a60448201526a65726f206164647265737360a81b60648201526084015b60405180910390fd5b5060008181526003602090815260408083206001600160a01b03861684529091529020545b92915050565b60006001600160e01b03198216630271189760e51b148061044857506001600160e01b03198216630a85bd0160e11b145b806104115750610411826118bf565b60606005805461046690612b45565b80601f016020809104026020016040519081016040528092919081815260200182805461049290612b45565b80156104df5780601f106104b4576101008083540402835291602001916104df565b820191906000526020600020905b8154815290600101906020018083116104c257829003601f168201915b50505050509050919050565b6000805486906001600160a01b031633146105185760405162461bcd60e51b81526004016103e390612b80565b6001600160a01b03811630146105405760405162461bcd60e51b81526004016103e390612bdd565b50630a85bd0160e11b9695505050505050565b600260085414156105765760405162461bcd60e51b81526004016103e390612c2c565b6002600855826000805b828110156106475784848281811061059a5761059a612c63565b90506020020135826105ac9190612c8f565b91508484828181106105c0576105c0612c63565b905060200201356105e9338989858181106105dd576105dd612c63565b9050602002013561037b565b10156106375760405162461bcd60e51b815260206004820152601f60248201527f434e46543a204e6f7420656e6f756768204e46547320746f2072656465656d0060448201526064016103e3565b61064081612ca7565b9050610580565b5060015460405163eabe7d9160e01b8152306004820152336024820152604481018390526000916001600160a01b03169063eabe7d9190606401602060405180830381600087803b15801561069b57600080fd5b505af11580156106af573d6000803e3d6000fd5b505050506040513d601f19601f820116820180604052508101906106d39190612cc2565b905080156107235760405162461bcd60e51b815260206004820152601b60248201527f434e46543a2052656465656d206973206e6f7420616c6c6f776564000000000060448201526064016103e3565b3360009081526002602052604081208054849290610742908490612cdb565b925050819055506107b73388888080602002602001604051908101604052809392919081815260200183836020028082843760009201919091525050604080516020808c0282810182019093528b82529093508b92508a91829185019084908082843760009201919091525061190f92505050565b600054600160a81b900460ff161561083a57600054604051631759616b60e11b81526001600160a01b0390911690632eb2c2d69061080390309033908c908c908c908c90600401612d28565b600060405180830381600087803b15801561081d57600080fd5b505af1158015610831573d6000803e3d6000fd5b50505050610a5d565b600054600160a01b900460ff161561099d5760005b838110156109975760003389898481811061086c5761086c612c63565b6040516001600160a01b039094166024850152602002919091013560448301525060640160408051601f198184030181529181526020820180516001600160e01b03166322dca8bb60e21b1790526000805491519293509182916001600160a01b0316906108db908590612d87565b6000604051808303816000865af19150503d8060008114610918576040519150601f19603f3d011682016040523d82523d6000602084013e61091d565b606091505b5091509150816109835760405162461bcd60e51b815260206004820152602b60248201527f434e46543a2043616c6c696e67207472616e7366657250756e6b20776173207560448201526a1b9cdd58d8d95cdcd99d5b60aa1b60648201526084016103e3565b5050508061099090612ca7565b905061084f565b50610a5d565b60005b83811015610a5b576000546001600160a01b031663b88d4fde30338b8b868181106109cd576109cd612c63565b6040516001600160e01b031960e088901b1681526001600160a01b03958616600482015294909316602485015250602090910201356044820152608060648201526000608482015260a401600060405180830381600087803b158015610a3257600080fd5b505af1158015610a46573d6000803e3d6000fd5b5050505080610a5490612ca7565b90506109a0565b505b7fd63285f33fab7fc260b1b9e7ce1abbf3fc8906df5a271e6ebd3062bdca7bb29e3388888888604051610a94959493929190612da3565b60405180910390a1505060016008555050505050565b60026008541415610acd5760405162461bcd60e51b81526004016103e390612c2c565b6002600855604080518082019091526000602082018190528682525b8151811015610b2f57858582818110610b0457610b04612c63565b9050602002013582602001818151610b1c9190612c8f565b905250610b2881612ca7565b9050610ae9565b5060015460208201516040516317b9b84b60e31b81523060048201526001600160a01b038c811660248301528b811660448301526064820192909252600092919091169063bdcdc25890608401602060405180830381600087803b158015610b9657600080fd5b505af1158015610baa573d6000803e3d6000fd5b505050506040513d601f19601f82011682018060405250810190610bce9190612cc2565b90508015610c1e5760405162461bcd60e51b815260206004820152601b60248201527f434e46543a2052656465656d206973206e6f7420616c6c6f776564000000000060448201526064016103e3565b8160200151600260008b6001600160a01b03166001600160a01b031681526020019081526020016000206000828254610c579190612c8f565b90915550506020808301516001600160a01b038c166000908152600290925260408220805491929091610c8b908490612cdb565b92505081905550610d358a8a8a8a8080602002602001604051908101604052809392919081815260200183836020028082843760009201919091525050604080516020808e0282810182019093528d82529093508d92508c91829185019084908082843760009201919091525050604080516020601f8d018190048102820181019092528b815292508b91508a9081908401838280828437600092019190915250611b1892505050565b505060016008555050505050505050565b600060026008541415610d6b5760405162461bcd60e51b81526004016103e390612c2c565b6002600855600154604051634ef4c3e160e01b8152306004820152336024820152600060448201819052916001600160a01b031690634ef4c3e190606401602060405180830381600087803b158015610dc357600080fd5b505af1158015610dd7573d6000803e3d6000fd5b505050506040513d601f19601f82011682018060405250810190610dfb9190612cc2565b90508015610e4b5760405162461bcd60e51b815260206004820152601960248201527f434e46543a204d696e74206973206e6f7420616c6c6f7765640000000000000060448201526064016103e3565b846000805b82811015610e8e57868682818110610e6a57610e6a612c63565b9050602002013582610e7c9190612c8f565b9150610e8781612ca7565b9050610e50565b503360009081526002602052604081208054839290610eae908490612c8f565b9091555050600054600160a81b900460ff1615610f3657600054604051631759616b60e11b81526001600160a01b0390911690632eb2c2d690610eff90339030908d908d908d908d90600401612d28565b600060405180830381600087803b158015610f1957600080fd5b505af1158015610f2d573d6000803e3d6000fd5b50505050611276565b600054600160a01b900460ff16156111b65760005b828110156111b0576000898983818110610f6757610f67612c63565b90506020020135604051602401610f8091815260200190565b60408051601f198184030181529181526020820180516001600160e01b0316630b02f02d60e31b1790526000805491519293509182916001600160a01b031690610fcb908590612d87565b600060405180830381855afa9150503d8060008114611006576040519150601f19603f3d011682016040523d82523d6000602084013e61100b565b606091505b50915091506000818060200190518101906110269190612de7565b905082801561103d57506001600160a01b03811633145b61107d5760405162461bcd60e51b81526020600482015260116024820152702737ba103a34329027232a1037bbb732b960791b60448201526064016103e3565b60008d8d8781811061109157611091612c63565b905060200201356040516024016110aa91815260200190565b60408051601f198184030181529181526020820180516001600160e01b031663104c9fd360e31b1790526000805491519293509182916001600160a01b0316906110f5908590612d87565b6000604051808303816000865af19150503d8060008114611132576040519150601f19603f3d011682016040523d82523d6000602084013e611137565b606091505b5091509150816111985760405162461bcd60e51b815260206004820152602660248201527f434e46543a2043616c6c696e672062757950756e6b2077617320756e73756363604482015265195cdcd99d5b60d21b60648201526084016103e3565b50505050505050806111a990612ca7565b9050610f4b565b50611276565b60005b82811015611274576000546001600160a01b031663b88d4fde33308c8c868181106111e6576111e6612c63565b6040516001600160e01b031960e088901b1681526001600160a01b03958616600482015294909316602485015250602090910201356044820152608060648201526000608482015260a401600060405180830381600087803b15801561124b57600080fd5b505af115801561125f573d6000803e3d6000fd5b505050508061126d90612ca7565b90506111b9565b505b6112f23389898080602002602001604051908101604052809392919081815260200183836020028082843760009201919091525050604080516020808d0282810182019093528c82529093508c92508b918291850190849080828437600092018290525060408051602081019091529081529250611baf915050565b7f0329a7c1652297b926cc497fd75d078847dbaa7a5a782d651dba3fdf3e8b38da3389898989604051611329959493929190612da3565b60405180910390a15060016008559695505050505050565b606081518351146113a65760405162461bcd60e51b815260206004820152602960248201527f455243313135353a206163636f756e747320616e6420696473206c656e677468604482015268040dad2e6dac2e8c6d60bb1b60648201526084016103e3565b6000835167ffffffffffffffff8111156113c2576113c26127ca565b6040519080825280602002602001820160405280156113eb578160200160208202803683370190505b50905060005b84518110156114635761143685828151811061140f5761140f612c63565b602002602001015185838151811061142957611429612c63565b602002602001015161037b565b82828151811061144857611448612c63565b602090810291909101015261145c81612ca7565b90506113f1565b509392505050565b6001600160a01b0381166000908152600760209081526040918290208054835181840281018401909452808452606093928301828280156104df57602002820191906000526020600020905b8154815260200190600101908083116114b75750505050509050919050565b600260085414156114f95760405162461bcd60e51b81526004016103e390612c2c565b600260085560015460405163d02f735160e01b81523060048201523360248201526001600160a01b038881166044830152878116606483015260006084830181905292169063d02f73519060a401602060405180830381600087803b15801561156157600080fd5b505af1158015611575573d6000803e3d6000fd5b505050506040513d601f19601f820116820180604052508101906115999190612cc2565b905080156115e95760405162461bcd60e51b815260206004820152601a60248201527f434e46543a205365697a65206973206e6f7420616c6c6f77656400000000000060448201526064016103e3565b866001600160a01b0316866001600160a01b031614156116575760405162461bcd60e51b815260206004820152602360248201527f434e46543a204c697175696461746f722063616e6e6f7420626520626f72726f6044820152623bb2b960e91b60648201526084016103e3565b836000805b8281101561169a5785858281811061167657611676612c63565b90506020020135826116889190612c8f565b915061169381612ca7565b905061165c565b506001600160a01b038916600090815260026020526040812080548392906116c3908490612c8f565b90915550506001600160a01b038816600090815260026020526040812080548392906116f0908490612cdb565b92505081905550611774888a89898080602002602001604051908101604052809392919081815260200183836020028082843760009201919091525050604080516020808d0282810182019093528c82529093508c92508b918291850190849080828437600092018290525060408051602081019091529081529250611d44915050565b5050600160085550505050505050565b61178f338383611f72565b5050565b6000805489906001600160a01b031633146117c05760405162461bcd60e51b81526004016103e390612b80565b6001600160a01b03811630146117e85760405162461bcd60e51b81526004016103e390612bdd565b5063bc197c8160e01b9998505050505050505050565b6000805487906001600160a01b0316331461182b5760405162461bcd60e51b81526004016103e390612b80565b6001600160a01b03811630146118535760405162461bcd60e51b81526004016103e390612bdd565b5063f23a6e6160e01b979650505050505050565b60405162461bcd60e51b815260206004820152602760248201527f434e46543a20557365207361666542617463685472616e7366657246726f6d206044820152661a5b9cdd19585960ca1b60648201526084016103e3565b60006001600160e01b03198216636cdb3d1360e11b14806118f057506001600160e01b031982166303a24d0760e21b145b8061041157506301ffc9a760e01b6001600160e01b0319831614610411565b6001600160a01b0383166119715760405162461bcd60e51b815260206004820152602360248201527f455243313135353a206275726e2066726f6d20746865207a65726f206164647260448201526265737360e81b60648201526084016103e3565b80518251146119925760405162461bcd60e51b81526004016103e390612e04565b60003390506119b581856000868660405180602001604052806000815250612053565b60005b8351811015611ab95760008482815181106119d5576119d5612c63565b6020026020010151905060008483815181106119f3576119f3612c63565b60209081029190910181015160008481526003835260408082206001600160a01b038c168352909352919091205490915081811015611a805760405162461bcd60e51b8152602060048201526024808201527f455243313135353a206275726e20616d6f756e7420657863656564732062616c604482015263616e636560e01b60648201526084016103e3565b60009283526003602090815260408085206001600160a01b038b1686529091529092209103905580611ab181612ca7565b9150506119b8565b5060006001600160a01b0316846001600160a01b0316826001600160a01b03167f4a39dc06d4c0dbc64b70af90fd698a233a518aa5d07e595d983b8c0526c8f7fb8686604051611b0a929190612e4c565b60405180910390a450505050565b6001600160a01b038516331480611b345750611b348533610327565b611b9b5760405162461bcd60e51b815260206004820152603260248201527f455243313135353a207472616e736665722063616c6c6572206973206e6f74206044820152711bdddb995c881b9bdc88185c1c1c9bdd995960721b60648201526084016103e3565b611ba88585858585611d44565b5050505050565b6001600160a01b038416611c0f5760405162461bcd60e51b815260206004820152602160248201527f455243313135353a206d696e7420746f20746865207a65726f206164647265736044820152607360f81b60648201526084016103e3565b8151835114611c305760405162461bcd60e51b81526004016103e390612e04565b33611c4081600087878787612053565b60005b8451811015611cdc57838181518110611c5e57611c5e612c63565b602002602001015160036000878481518110611c7c57611c7c612c63565b602002602001015181526020019081526020016000206000886001600160a01b03166001600160a01b031681526020019081526020016000206000828254611cc49190612c8f565b90915550819050611cd481612ca7565b915050611c43565b50846001600160a01b031660006001600160a01b0316826001600160a01b03167f4a39dc06d4c0dbc64b70af90fd698a233a518aa5d07e595d983b8c0526c8f7fb8787604051611d2d929190612e4c565b60405180910390a4611ba8816000878787876121a1565b8151835114611d655760405162461bcd60e51b81526004016103e390612e04565b6001600160a01b038416611dc95760405162461bcd60e51b815260206004820152602560248201527f455243313135353a207472616e7366657220746f20746865207a65726f206164604482015264647265737360d81b60648201526084016103e3565b33611dd8818787878787612053565b60005b8451811015611f04576000858281518110611df857611df8612c63565b602002602001015190506000858381518110611e1657611e16612c63565b60209081029190910181015160008481526003835260408082206001600160a01b038e168352909352919091205490915081811015611eaa5760405162461bcd60e51b815260206004820152602a60248201527f455243313135353a20696e73756666696369656e742062616c616e636520666f60448201526939103a3930b739b332b960b11b60648201526084016103e3565b60008381526003602090815260408083206001600160a01b038e8116855292528083208585039055908b16825281208054849290611ee9908490612c8f565b9250508190555050505080611efd90612ca7565b9050611ddb565b50846001600160a01b0316866001600160a01b0316826001600160a01b03167f4a39dc06d4c0dbc64b70af90fd698a233a518aa5d07e595d983b8c0526c8f7fb8787604051611f54929190612e4c565b60405180910390a4611f6a8187878787876121a1565b505050505050565b816001600160a01b0316836001600160a01b03161415611fe65760405162461bcd60e51b815260206004820152602960248201527f455243313135353a2073657474696e6720617070726f76616c20737461747573604482015268103337b91039b2b63360b91b60648201526084016103e3565b6001600160a01b03838116600081815260046020908152604080832094871680845294825291829020805460ff191686151590811790915591519182527f17307eab39ab6107e8899845ad3d59bd9653f200f220920489ca2b5937696c31910160405180910390a3505050565b836001600160a01b0316856001600160a01b0316141561207257611f6a565b6001600160a01b0380861660009081526007602052604080822092871682528120905b85518110156121965760008582815181106120b2576120b2612c63565b6020026020010151905080600014156120cb5750612186565b60008783815181106120df576120df612c63565b6020026020010151905060006001600160a01b03168a6001600160a01b031614156121215781600660008282546121169190612c8f565b9091555061213e9050565b8161212c8b8361037b565b141561213e5761213c8582612356565b505b6001600160a01b03891661216957816006600082825461215e9190612cdb565b909155506121839050565b612173898261037b565b612183576121818482612449565b505b50505b61218f81612ca7565b9050612095565b505050505050505050565b6001600160a01b0384163b15611f6a5760405163bc197c8160e01b81526001600160a01b0385169063bc197c81906121e59089908990889088908890600401612e7a565b602060405180830381600087803b1580156121ff57600080fd5b505af192505050801561222f575060408051601f3d908101601f1916820190925261222c91810190612ecc565b60015b6122dc5761223b612ee9565b806308c379a014156122755750612250612f05565b8061225b5750612277565b8060405162461bcd60e51b81526004016103e3919061258b565b505b60405162461bcd60e51b815260206004820152603460248201527f455243313135353a207472616e7366657220746f206e6f6e20455243313135356044820152732932b1b2b4bb32b91034b6b83632b6b2b73a32b960611b60648201526084016103e3565b6001600160e01b0319811663bc197c8160e01b1461234d5760405162461bcd60e51b815260206004820152602860248201527f455243313135353a204552433131353552656365697665722072656a656374656044820152676420746f6b656e7360c01b60648201526084016103e3565b50505050505050565b6000818152600183016020526040812054801561243f57600061237a600183612cdb565b855490915060009061238e90600190612cdb565b90508181146123f35760008660000182815481106123ae576123ae612c63565b90600052602060002001549050808760000184815481106123d1576123d1612c63565b6000918252602080832090910192909255918252600188019052604090208390555b855486908061240457612404612f8f565b600190038181906000526020600020016000905590558560010160008681526020019081526020016000206000905560019350505050610411565b6000915050610411565b600081815260018301602052604081205461249057508154600181810184556000848152602080822090930184905584548482528286019093526040902091909155610411565b506000610411565b6001600160a01b03811681146124ad57600080fd5b50565b600080604083850312156124c357600080fd5b82356124ce81612498565b946020939093013593505050565b6001600160e01b0319811681146124ad57600080fd5b60006020828403121561250457600080fd5b813561250f816124dc565b9392505050565b60006020828403121561252857600080fd5b5035919050565b60005b8381101561254a578181015183820152602001612532565b83811115612559576000848401525b50505050565b6000815180845261257781602086016020860161252f565b601f01601f19169290920160200192915050565b60208152600061250f602083018461255f565b60008083601f8401126125b057600080fd5b50813567ffffffffffffffff8111156125c857600080fd5b6020830191508360208285010111156125e057600080fd5b9250929050565b6000806000806000608086880312156125ff57600080fd5b853561260a81612498565b9450602086013561261a81612498565b935060408601359250606086013567ffffffffffffffff81111561263d57600080fd5b6126498882890161259e565b969995985093965092949392505050565b60008083601f84011261266c57600080fd5b50813567ffffffffffffffff81111561268457600080fd5b6020830191508360208260051b85010111156125e057600080fd5b600080600080604085870312156126b557600080fd5b843567ffffffffffffffff808211156126cd57600080fd5b6126d98883890161265a565b909650945060208701359150808211156126f257600080fd5b506126ff8782880161265a565b95989497509550505050565b60008060008060008060008060a0898b03121561272757600080fd5b883561273281612498565b9750602089013561274281612498565b9650604089013567ffffffffffffffff8082111561275f57600080fd5b61276b8c838d0161265a565b909850965060608b013591508082111561278457600080fd5b6127908c838d0161265a565b909650945060808b01359150808211156127a957600080fd5b506127b68b828c0161259e565b999c989b5096995094979396929594505050565b634e487b7160e01b600052604160045260246000fd5b601f8201601f1916810167ffffffffffffffff81118282101715612806576128066127ca565b6040525050565b600067ffffffffffffffff821115612827576128276127ca565b5060051b60200190565b600082601f83011261284257600080fd5b8135602061284f8261280d565b60405161285c82826127e0565b83815260059390931b850182019282810191508684111561287c57600080fd5b8286015b848110156128975780358352918301918301612880565b509695505050505050565b600080604083850312156128b557600080fd5b823567ffffffffffffffff808211156128cd57600080fd5b818501915085601f8301126128e157600080fd5b813560206128ee8261280d565b6040516128fb82826127e0565b83815260059390931b850182019282810191508984111561291b57600080fd5b948201945b8386101561294257853561293381612498565b82529482019490820190612920565b9650508601359250508082111561295857600080fd5b5061296585828601612831565b9150509250929050565b600081518084526020808501945080840160005b8381101561299f57815187529582019590820190600101612983565b509495945050505050565b60208152600061250f602083018461296f565b6000602082840312156129cf57600080fd5b813561250f81612498565b600080600080600080608087890312156129f357600080fd5b86356129fe81612498565b95506020870135612a0e81612498565b9450604087013567ffffffffffffffff80821115612a2b57600080fd5b612a378a838b0161265a565b90965094506060890135915080821115612a5057600080fd5b50612a5d89828a0161265a565b979a9699509497509295939492505050565b60008060408385031215612a8257600080fd5b8235612a8d81612498565b915060208301358015158114612aa257600080fd5b809150509250929050565b60008060408385031215612ac057600080fd5b8235612acb81612498565b91506020830135612aa281612498565b60008060008060008060a08789031215612af457600080fd5b8635612aff81612498565b95506020870135612b0f81612498565b94506040870135935060608701359250608087013567ffffffffffffffff811115612b3957600080fd5b612a5d89828a0161259e565b600181811c90821680612b5957607f821691505b60208210811415612b7a57634e487b7160e01b600052602260045260246000fd5b50919050565b60208082526037908201527f434e46543a205468697320636f6e74726163742063616e206f6e6c792072656360408201527f656976652074686520756e6465726c79696e67204e4654000000000000000000606082015260800190565b6020808252602f908201527f434e543a204f6e6c792074686520434e465420636f6e74726163742063616e2060408201526e3132903a34329037b832b930ba37b960891b606082015260800190565b6020808252601f908201527f5265656e7472616e637947756172643a207265656e7472616e742063616c6c00604082015260600190565b634e487b7160e01b600052603260045260246000fd5b634e487b7160e01b600052601160045260246000fd5b60008219821115612ca257612ca2612c79565b500190565b6000600019821415612cbb57612cbb612c79565b5060010190565b600060208284031215612cd457600080fd5b5051919050565b600082821015612ced57612ced612c79565b500390565b81835260006001600160fb1b03831115612d0b57600080fd5b8260051b8083602087013760009401602001938452509192915050565b6001600160a01b0387811682528616602082015260a060408201819052600090612d559083018688612cf2565b8281036060840152612d68818587612cf2565b8381036080909401939093525050600081526020019695505050505050565b60008251612d9981846020870161252f565b9190910192915050565b6001600160a01b0386168152606060208201819052600090612dc89083018688612cf2565b8281036040840152612ddb818587612cf2565b98975050505050505050565b600060208284031215612df957600080fd5b815161250f81612498565b60208082526028908201527f455243313135353a2069647320616e6420616d6f756e7473206c656e677468206040820152670dad2e6dac2e8c6d60c31b606082015260800190565b604081526000612e5f604083018561296f565b8281036020840152612e71818561296f565b95945050505050565b6001600160a01b0386811682528516602082015260a060408201819052600090612ea69083018661296f565b8281036060840152612eb8818661296f565b90508281036080840152612ddb818561255f565b600060208284031215612ede57600080fd5b815161250f816124dc565b600060033d1115612f025760046000803e5060005160e01c5b90565b600060443d1015612f135790565b6040516003193d81016004833e81513d67ffffffffffffffff8160248401118184111715612f4357505050505090565b8285019150815181811115612f5b5750505050505090565b843d8701016020828501011115612f755750505050505090565b612f84602082860101876127e0565b509095945050505050565b634e487b7160e01b600052603160045260246000fdfea264697066735822122073c18101dd637c886f98dc74405257b26c518eec253470635950b170be9a6a9a64736f6c63430008090033",
  "devdoc": {
    "kind": "dev",
    "methods": {
      "balanceOf(address,uint256)": {
        "details": "See {IERC1155-balanceOf}. Requirements: - `account` cannot be the zero address."
      },
      "balanceOfBatch(address[],uint256[])": {
        "details": "See {IERC1155-balanceOfBatch}. Requirements: - `accounts` and `ids` must have the same length."
      },
      "isApprovedForAll(address,address)": {
        "details": "See {IERC1155-isApprovedForAll}."
      },
      "onERC1155BatchReceived(address,address,uint256[],uint256[],bytes)": {
        "details": "Handles the receipt of a multiple ERC1155 token types. This function is called at the end of a `safeBatchTransferFrom` after the balances have been updated. To accept the transfer(s), this must return `bytes4(keccak256(\"onERC1155BatchReceived(address,address,uint256[],uint256[],bytes)\"))` (i.e. 0xbc197c81, or its own function selector).",
        "params": {
          "data": "Additional data with no specified format",
          "from": "The address which previously owned the token",
          "ids": "An array containing ids of each token being transferred (order and length must match values array)",
          "operator": "The address which initiated the batch transfer (i.e. msg.sender)",
          "values": "An array containing amounts of each token being transferred (order and length must match ids array)"
        },
        "returns": {
          "_0": "`bytes4(keccak256(\"onERC1155BatchReceived(address,address,uint256[],uint256[],bytes)\"))` if transfer is allowed"
        }
      },
      "onERC1155Received(address,address,uint256,uint256,bytes)": {
        "details": "Handles the receipt of a single ERC1155 token type. This function is called at the end of a `safeTransferFrom` after the balance has been updated. To accept the transfer, this must return `bytes4(keccak256(\"onERC1155Received(address,address,uint256,uint256,bytes)\"))` (i.e. 0xf23a6e61, or its own function selector).",
        "params": {
          "data": "Additional data with no specified format",
          "from": "The address which previously owned the token",
          "id": "The ID of the token being transferred",
          "operator": "The address which initiated the transfer (i.e. msg.sender)",
          "value": "The amount of tokens being transferred"
        },
        "returns": {
          "_0": "`bytes4(keccak256(\"onERC1155Received(address,address,uint256,uint256,bytes)\"))` if transfer is allowed"
        }
      },
      "onERC721Received(address,address,uint256,bytes)": {
        "details": "Whenever an {IERC721} `tokenId` token is transferred to this contract via {IERC721-safeTransferFrom} by `operator` from `from`, this function is called. It must return its Solidity selector to confirm the token transfer. If any other value is returned or the interface is not implemented by the recipient, the transfer will be reverted. The selector can be obtained in Solidity with `IERC721.onERC721Received.selector`."
      },
      "safeBatchTransferFrom(address,address,uint256[],uint256[],bytes)": {
        "details": "See {IERC1155-safeBatchTransferFrom}."
      },
      "safeTransferFrom(address,address,uint256,uint256,bytes)": {
        "details": "See {IERC1155-safeTransferFrom}."
      },
      "setApprovalForAll(address,bool)": {
        "details": "See {IERC1155-setApprovalForAll}."
      },
      "tokensByAccount(address)": {
        "details": "Returns a list of token IDs held by `account`."
      },
      "uri(uint256)": {
        "details": "See {IERC1155MetadataURI-uri}. This implementation returns the same URI for *all* token types. It relies on the token type ID substitution mechanism https://eips.ethereum.org/EIPS/eip-1155#metadata[defined in the EIP]. Clients calling this function must replace the `\\{id\\}` substring with the actual token type ID."
      }
    },
    "version": 1
  },
  "userdoc": {
    "events": {
      "Mint(address,uint256[],uint256[])": {
        "notice": "Event emitted when cNFTs are minted"
      },
      "Redeem(address,uint256[],uint256[])": {
        "notice": "Event emitted when tokens are redeemed"
      }
    },
    "kind": "user",
    "methods": {
      "totalBalance(address)": {
        "notice": "Mapping from user to number of tokens."
      }
    },
    "version": 1
  },
  "storageLayout": {
    "storage": [
      {
        "astId": 4347,
        "contract": "contracts/CNft.sol:CNft",
        "label": "underlying",
        "offset": 0,
        "slot": "0",
        "type": "t_address"
      },
      {
        "astId": 4349,
        "contract": "contracts/CNft.sol:CNft",
        "label": "isPunk",
        "offset": 20,
        "slot": "0",
        "type": "t_bool"
      },
      {
        "astId": 4351,
        "contract": "contracts/CNft.sol:CNft",
        "label": "is1155",
        "offset": 21,
        "slot": "0",
        "type": "t_bool"
      },
      {
        "astId": 4353,
        "contract": "contracts/CNft.sol:CNft",
        "label": "comptroller",
        "offset": 0,
        "slot": "1",
        "type": "t_address"
      },
      {
        "astId": 4361,
        "contract": "contracts/CNft.sol:CNft",
        "label": "totalBalance",
        "offset": 0,
        "slot": "2",
        "type": "t_mapping(t_address,t_uint256)"
      },
      {
        "astId": 71,
        "contract": "contracts/CNft.sol:CNft",
        "label": "_balances",
        "offset": 0,
        "slot": "3",
        "type": "t_mapping(t_uint256,t_mapping(t_address,t_uint256))"
      },
      {
        "astId": 77,
        "contract": "contracts/CNft.sol:CNft",
        "label": "_operatorApprovals",
        "offset": 0,
        "slot": "4",
        "type": "t_mapping(t_address,t_mapping(t_address,t_bool))"
      },
      {
        "astId": 79,
        "contract": "contracts/CNft.sol:CNft",
        "label": "_uri",
        "offset": 0,
        "slot": "5",
        "type": "t_string_storage"
      },
      {
        "astId": 4578,
        "contract": "contracts/CNft.sol:CNft",
        "label": "totalSupply",
        "offset": 0,
        "slot": "6",
        "type": "t_uint256"
      },
      {
        "astId": 4583,
        "contract": "contracts/CNft.sol:CNft",
        "label": "_tokensByAccount",
        "offset": 0,
        "slot": "7",
        "type": "t_mapping(t_address,t_struct(UintSet)4745_storage)"
      },
      {
        "astId": 16,
        "contract": "contracts/CNft.sol:CNft",
        "label": "_status",
        "offset": 0,
        "slot": "8",
        "type": "t_uint256"
      }
    ],
    "types": {
      "t_address": {
        "encoding": "inplace",
        "label": "address",
        "numberOfBytes": "20"
      },
      "t_array(t_uint256)dyn_storage": {
        "base": "t_uint256",
        "encoding": "dynamic_array",
        "label": "uint256[]",
        "numberOfBytes": "32"
      },
      "t_bool": {
        "encoding": "inplace",
        "label": "bool",
        "numberOfBytes": "1"
      },
      "t_mapping(t_address,t_bool)": {
        "encoding": "mapping",
        "key": "t_address",
        "label": "mapping(address => bool)",
        "numberOfBytes": "32",
        "value": "t_bool"
      },
      "t_mapping(t_address,t_mapping(t_address,t_bool))": {
        "encoding": "mapping",
        "key": "t_address",
        "label": "mapping(address => mapping(address => bool))",
        "numberOfBytes": "32",
        "value": "t_mapping(t_address,t_bool)"
      },
      "t_mapping(t_address,t_struct(UintSet)4745_storage)": {
        "encoding": "mapping",
        "key": "t_address",
        "label": "mapping(address => struct EnumerableSet.UintSet)",
        "numberOfBytes": "32",
        "value": "t_struct(UintSet)4745_storage"
      },
      "t_mapping(t_address,t_uint256)": {
        "encoding": "mapping",
        "key": "t_address",
        "label": "mapping(address => uint256)",
        "numberOfBytes": "32",
        "value": "t_uint256"
      },
      "t_mapping(t_uint256,t_mapping(t_address,t_uint256))": {
        "encoding": "mapping",
        "key": "t_uint256",
        "label": "mapping(uint256 => mapping(address => uint256))",
        "numberOfBytes": "32",
        "value": "t_mapping(t_address,t_uint256)"
      },
      "t_mapping(t_uint256,t_uint256)": {
        "encoding": "mapping",
        "key": "t_uint256",
        "label": "mapping(uint256 => uint256)",
        "numberOfBytes": "32",
        "value": "t_uint256"
      },
      "t_string_storage": {
        "encoding": "bytes",
        "label": "string",
        "numberOfBytes": "32"
      },
      "t_struct(UintSet)4745_storage": {
        "encoding": "inplace",
        "label": "struct EnumerableSet.UintSet",
        "members": [
          {
            "astId": 4740,
            "contract": "contracts/CNft.sol:CNft",
            "label": "_values",
            "offset": 0,
            "slot": "0",
            "type": "t_array(t_uint256)dyn_storage"
          },
          {
            "astId": 4744,
            "contract": "contracts/CNft.sol:CNft",
            "label": "_indexes",
            "offset": 0,
            "slot": "1",
            "type": "t_mapping(t_uint256,t_uint256)"
          }
        ],
        "numberOfBytes": "64"
      },
      "t_uint256": {
        "encoding": "inplace",
        "label": "uint256",
        "numberOfBytes": "32"
      }
    }
  }
}